{"contracts/TradingFees.sol":{"TradingFees":{"abi":[{"inputs":[{"internalType":"address","name":"_priceCheckerAddress","type":"address"}],"stateMutability":"nonpayable","type":"constructor"},{"anonymous":false,"inputs":[{"indexed":true,"internalType":"address","name":"previousOwner","type":"address"},{"indexed":true,"internalType":"address","name":"newOwner","type":"address"}],"name":"OwnershipTransferred","type":"event"},{"inputs":[],"name":"aDAI","outputs":[{"internalType":"address","name":"","type":"address"}],"stateMutability":"view","type":"function"},{"inputs":[{"internalType":"address","name":"_refToken","type":"address"},{"internalType":"uint256","name":"_fees","type":"uint256"}],"name":"amountTokensToDeduct","outputs":[{"internalType":"uint256","name":"","type":"uint256"}],"stateMutability":"view","type":"function"},{"inputs":[{"internalType":"uint256","name":"_fees","type":"uint256"}],"name":"amountaDAIToDeduct","outputs":[{"internalType":"uint256","name":"","type":"uint256"}],"stateMutability":"view","type":"function"},{"inputs":[{"internalType":"uint256","name":"_amount","type":"uint256"},{"internalType":"uint256","name":"_rate","type":"uint256"},{"internalType":"address","name":"_refToken","type":"address"}],"name":"calculateFees","outputs":[{"internalType":"uint256","name":"","type":"uint256"}],"stateMutability":"view","type":"function"},{"inputs":[{"internalType":"uint256","name":"_fees","type":"uint256"},{"internalType":"address","name":"_user","type":"address"}],"name":"checkSufficientaDAI","outputs":[{"internalType":"bool","name":"","type":"bool"}],"stateMutability":"view","type":"function"},{"inputs":[],"name":"daiToken","outputs":[{"internalType":"address","name":"","type":"address"}],"stateMutability":"view","type":"function"},{"inputs":[],"name":"owner","outputs":[{"internalType":"address","name":"","type":"address"}],"stateMutability":"view","type":"function"},{"inputs":[],"name":"renounceOwnership","outputs":[],"stateMutability":"nonpayable","type":"function"},{"inputs":[{"internalType":"address","name":"newOwner","type":"address"}],"name":"transferOwnership","outputs":[],"stateMutability":"nonpayable","type":"function"}],"devdoc":{"kind":"dev","methods":{"owner()":{"details":"Returns the address of the current owner."},"renounceOwnership()":{"details":"Leaves the contract without owner. It will not be possible to call `onlyOwner` functions anymore. Can only be called by the current owner. NOTE: Renouncing ownership will leave the contract without an owner, thereby removing any functionality that is only available to the owner."},"transferOwnership(address)":{"details":"Transfers ownership of the contract to a new account (`newOwner`). Can only be called by the current owner."}},"version":1},"evm":{"bytecode":{"linkReferences":{},"object":"6080604052670de0b6b3a764000060015573ba8dced3512925e52fe67b1b5329187589072a55600260006101000a81548173ffffffffffffffffffffffffffffffffffffffff021916908373ffffffffffffffffffffffffffffffffffffffff16021790555073add98b0342e4094ec32f3b67ccfd3242c876ff7a600360006101000a81548173ffffffffffffffffffffffffffffffffffffffff021916908373ffffffffffffffffffffffffffffffffffffffff160217905550348015620000c757600080fd5b5060405162001059380380620010598339818101604052810190620000ed919062000238565b6200010d620001016200015560201b60201c565b6200015d60201b60201c565b80600460006101000a81548173ffffffffffffffffffffffffffffffffffffffff021916908373ffffffffffffffffffffffffffffffffffffffff16021790555050620002bd565b600033905090565b60008060009054906101000a900473ffffffffffffffffffffffffffffffffffffffff169050816000806101000a81548173ffffffffffffffffffffffffffffffffffffffff021916908373ffffffffffffffffffffffffffffffffffffffff1602179055508173ffffffffffffffffffffffffffffffffffffffff168173ffffffffffffffffffffffffffffffffffffffff167f8be0079c531659141344cd1fd0a4f28419497f9722a3daafe3b4186f6b6457e060405160405180910390a35050565b6000815190506200023281620002a3565b92915050565b6000602082840312156200025157620002506200029e565b5b6000620002618482850162000221565b91505092915050565b600062000277826200027e565b9050919050565b600073ffffffffffffffffffffffffffffffffffffffff82169050919050565b600080fd5b620002ae816200026a565b8114620002ba57600080fd5b50565b610d8c80620002cd6000396000f3fe608060405234801561001057600080fd5b50600436106100935760003560e01c8063a42963e911610066578063a42963e91461010e578063b98ee4191461013e578063be22f5461461016e578063ca8963f11461018c578063f2fde38b146101bc57610093565b80631a38a4fb14610098578063513ffedd146100b6578063715018a6146100e65780638da5cb5b146100f0575b600080fd5b6100a06101d8565b6040516100ad9190610aaf565b60405180910390f35b6100d060048036038101906100cb91906109e9565b6101fe565b6040516100dd9190610b4e565b60405180910390f35b6100ee61033c565b005b6100f8610350565b6040516101059190610aaf565b60405180910390f35b6101286004803603810190610123919061094f565b610379565b6040516101359190610b4e565b60405180910390f35b6101586004803603810190610153919061090f565b610497565b6040516101659190610b4e565b60405180910390f35b610176610594565b6040516101839190610aaf565b60405180910390f35b6101a660048036038101906101a191906109a9565b6105ba565b6040516101b39190610af3565b60405180910390f35b6101d660048036038101906101d191906108e2565b6106a9565b005b600360009054906101000a900473ffffffffffffffffffffffffffffffffffffffff1681565b600080600460009054906101000a900473ffffffffffffffffffffffffffffffffffffffff1673ffffffffffffffffffffffffffffffffffffffff166341976e09846040518263ffffffff1660e01b815260040161025c9190610aaf565b60206040518083038186803b15801561027457600080fd5b505afa158015610288573d6000803e3d6000fd5b505050506040513d601f19601f820116820180604052508101906102ac919061097c565b905060006103146001546103066102d16402540be4008661072d90919063ffffffff16565b6102f86001546102ea8b8d61072d90919063ffffffff16565b61074390919063ffffffff16565b61072d90919063ffffffff16565b61074390919063ffffffff16565b9050600061032d6127108361074390919063ffffffff16565b90508093505050509392505050565b610344610759565b61034e60006107d7565b565b60008060009054906101000a900473ffffffffffffffffffffffffffffffffffffffff16905090565b600080600460009054906101000a900473ffffffffffffffffffffffffffffffffffffffff1673ffffffffffffffffffffffffffffffffffffffff166341976e09600260009054906101000a900473ffffffffffffffffffffffffffffffffffffffff166040518263ffffffff1660e01b81526004016103f99190610aaf565b60206040518083038186803b15801561041157600080fd5b505afa158015610425573d6000803e3d6000fd5b505050506040513d601f19601f82011682018060405250810190610449919061097c565b9050600061048b6104686402540be4008461072d90919063ffffffff16565b61047d6001548761072d90919063ffffffff16565b61074390919063ffffffff16565b90508092505050919050565b600080600460009054906101000a900473ffffffffffffffffffffffffffffffffffffffff1673ffffffffffffffffffffffffffffffffffffffff166341976e09856040518263ffffffff1660e01b81526004016104f59190610aaf565b60206040518083038186803b15801561050d57600080fd5b505afa158015610521573d6000803e3d6000fd5b505050506040513d601f19601f82011682018060405250810190610545919061097c565b905060006105876105646402540be4008461072d90919063ffffffff16565b6105796001548761072d90919063ffffffff16565b61074390919063ffffffff16565b9050809250505092915050565b600260009054906101000a900473ffffffffffffffffffffffffffffffffffffffff1681565b6000806105c684610379565b90506000600560009054906101000a900473ffffffffffffffffffffffffffffffffffffffff1673ffffffffffffffffffffffffffffffffffffffff1663cd5d767c600360009054906101000a900473ffffffffffffffffffffffffffffffffffffffff16866040518363ffffffff1660e01b8152600401610649929190610aca565b60206040518083038186803b15801561066157600080fd5b505afa158015610675573d6000803e3d6000fd5b505050506040513d601f19601f82011682018060405250810190610699919061097c565b9050818110159250505092915050565b6106b1610759565b600073ffffffffffffffffffffffffffffffffffffffff168173ffffffffffffffffffffffffffffffffffffffff161415610721576040517f08c379a000000000000000000000000000000000000000000000000000000000815260040161071890610b0e565b60405180910390fd5b61072a816107d7565b50565b6000818361073b9190610bab565b905092915050565b600081836107519190610b7a565b905092915050565b61076161089b565b73ffffffffffffffffffffffffffffffffffffffff1661077f610350565b73ffffffffffffffffffffffffffffffffffffffff16146107d5576040517f08c379a00000000000000000000000000000000000000000000000000000000081526004016107cc90610b2e565b60405180910390fd5b565b60008060009054906101000a900473ffffffffffffffffffffffffffffffffffffffff169050816000806101000a81548173ffffffffffffffffffffffffffffffffffffffff021916908373ffffffffffffffffffffffffffffffffffffffff1602179055508173ffffffffffffffffffffffffffffffffffffffff168173ffffffffffffffffffffffffffffffffffffffff167f8be0079c531659141344cd1fd0a4f28419497f9722a3daafe3b4186f6b6457e060405160405180910390a35050565b600033905090565b6000813590506108b281610d28565b92915050565b6000813590506108c781610d3f565b92915050565b6000815190506108dc81610d3f565b92915050565b6000602082840312156108f8576108f7610cab565b5b6000610906848285016108a3565b91505092915050565b6000806040838503121561092657610925610cab565b5b6000610934858286016108a3565b9250506020610945858286016108b8565b9150509250929050565b60006020828403121561096557610964610cab565b5b6000610973848285016108b8565b91505092915050565b60006020828403121561099257610991610cab565b5b60006109a0848285016108cd565b91505092915050565b600080604083850312156109c0576109bf610cab565b5b60006109ce858286016108b8565b92505060206109df858286016108a3565b9150509250929050565b600080600060608486031215610a0257610a01610cab565b5b6000610a10868287016108b8565b9350506020610a21868287016108b8565b9250506040610a32868287016108a3565b9150509250925092565b610a4581610c05565b82525050565b610a5481610c17565b82525050565b6000610a67602683610b69565b9150610a7282610cb0565b604082019050919050565b6000610a8a602083610b69565b9150610a9582610cff565b602082019050919050565b610aa981610c43565b82525050565b6000602082019050610ac46000830184610a3c565b92915050565b6000604082019050610adf6000830185610a3c565b610aec6020830184610a3c565b9392505050565b6000602082019050610b086000830184610a4b565b92915050565b60006020820190508181036000830152610b2781610a5a565b9050919050565b60006020820190508181036000830152610b4781610a7d565b9050919050565b6000602082019050610b636000830184610aa0565b92915050565b600082825260208201905092915050565b6000610b8582610c43565b9150610b9083610c43565b925082610ba057610b9f610c7c565b5b828204905092915050565b6000610bb682610c43565b9150610bc183610c43565b9250817fffffffffffffffffffffffffffffffffffffffffffffffffffffffffffffffff0483118215151615610bfa57610bf9610c4d565b5b828202905092915050565b6000610c1082610c23565b9050919050565b60008115159050919050565b600073ffffffffffffffffffffffffffffffffffffffff82169050919050565b6000819050919050565b7f4e487b7100000000000000000000000000000000000000000000000000000000600052601160045260246000fd5b7f4e487b7100000000000000000000000000000000000000000000000000000000600052601260045260246000fd5b600080fd5b7f4f776e61626c653a206e6577206f776e657220697320746865207a65726f206160008201527f6464726573730000000000000000000000000000000000000000000000000000602082015250565b7f4f776e61626c653a2063616c6c6572206973206e6f7420746865206f776e6572600082015250565b610d3181610c05565b8114610d3c57600080fd5b50565b610d4881610c43565b8114610d5357600080fd5b5056fea2646970667358221220207f9895c900e62c42aa9a3c079ff69b5c91a20198e27aad298ad9b1783e60d264736f6c63430008070033","opcodes":"PUSH1 0x80 PUSH1 0x40 MSTORE PUSH8 0xDE0B6B3A7640000 PUSH1 0x1 SSTORE PUSH20 0xBA8DCED3512925E52FE67B1B5329187589072A55 PUSH1 0x2 PUSH1 0x0 PUSH2 0x100 EXP DUP2 SLOAD DUP2 PUSH20 0xFFFFFFFFFFFFFFFFFFFFFFFFFFFFFFFFFFFFFFFF MUL NOT AND SWAP1 DUP4 PUSH20 0xFFFFFFFFFFFFFFFFFFFFFFFFFFFFFFFFFFFFFFFF AND MUL OR SWAP1 SSTORE POP PUSH20 0xADD98B0342E4094EC32F3B67CCFD3242C876FF7A PUSH1 0x3 PUSH1 0x0 PUSH2 0x100 EXP DUP2 SLOAD DUP2 PUSH20 0xFFFFFFFFFFFFFFFFFFFFFFFFFFFFFFFFFFFFFFFF MUL NOT AND SWAP1 DUP4 PUSH20 0xFFFFFFFFFFFFFFFFFFFFFFFFFFFFFFFFFFFFFFFF AND MUL OR SWAP1 SSTORE POP CALLVALUE DUP1 ISZERO PUSH3 0xC7 JUMPI PUSH1 0x0 DUP1 REVERT JUMPDEST POP PUSH1 0x40 MLOAD PUSH3 0x1059 CODESIZE SUB DUP1 PUSH3 0x1059 DUP4 CODECOPY DUP2 DUP2 ADD PUSH1 0x40 MSTORE DUP2 ADD SWAP1 PUSH3 0xED SWAP2 SWAP1 PUSH3 0x238 JUMP JUMPDEST PUSH3 0x10D PUSH3 0x101 PUSH3 0x155 PUSH1 0x20 SHL PUSH1 0x20 SHR JUMP JUMPDEST PUSH3 0x15D PUSH1 0x20 SHL PUSH1 0x20 SHR JUMP JUMPDEST DUP1 PUSH1 0x4 PUSH1 0x0 PUSH2 0x100 EXP DUP2 SLOAD DUP2 PUSH20 0xFFFFFFFFFFFFFFFFFFFFFFFFFFFFFFFFFFFFFFFF MUL NOT AND SWAP1 DUP4 PUSH20 0xFFFFFFFFFFFFFFFFFFFFFFFFFFFFFFFFFFFFFFFF AND MUL OR SWAP1 SSTORE POP POP PUSH3 0x2BD JUMP JUMPDEST PUSH1 0x0 CALLER SWAP1 POP SWAP1 JUMP JUMPDEST PUSH1 0x0 DUP1 PUSH1 0x0 SWAP1 SLOAD SWAP1 PUSH2 0x100 EXP SWAP1 DIV PUSH20 0xFFFFFFFFFFFFFFFFFFFFFFFFFFFFFFFFFFFFFFFF AND SWAP1 POP DUP2 PUSH1 0x0 DUP1 PUSH2 0x100 EXP DUP2 SLOAD DUP2 PUSH20 0xFFFFFFFFFFFFFFFFFFFFFFFFFFFFFFFFFFFFFFFF MUL NOT AND SWAP1 DUP4 PUSH20 0xFFFFFFFFFFFFFFFFFFFFFFFFFFFFFFFFFFFFFFFF AND MUL OR SWAP1 SSTORE POP DUP2 PUSH20 0xFFFFFFFFFFFFFFFFFFFFFFFFFFFFFFFFFFFFFFFF AND DUP2 PUSH20 0xFFFFFFFFFFFFFFFFFFFFFFFFFFFFFFFFFFFFFFFF AND PUSH32 0x8BE0079C531659141344CD1FD0A4F28419497F9722A3DAAFE3B4186F6B6457E0 PUSH1 0x40 MLOAD PUSH1 0x40 MLOAD DUP1 SWAP2 SUB SWAP1 LOG3 POP POP JUMP JUMPDEST PUSH1 0x0 DUP2 MLOAD SWAP1 POP PUSH3 0x232 DUP2 PUSH3 0x2A3 JUMP JUMPDEST SWAP3 SWAP2 POP POP JUMP JUMPDEST PUSH1 0x0 PUSH1 0x20 DUP3 DUP5 SUB SLT ISZERO PUSH3 0x251 JUMPI PUSH3 0x250 PUSH3 0x29E JUMP JUMPDEST JUMPDEST PUSH1 0x0 PUSH3 0x261 DUP5 DUP3 DUP6 ADD PUSH3 0x221 JUMP JUMPDEST SWAP2 POP POP SWAP3 SWAP2 POP POP JUMP JUMPDEST PUSH1 0x0 PUSH3 0x277 DUP3 PUSH3 0x27E JUMP JUMPDEST SWAP1 POP SWAP2 SWAP1 POP JUMP JUMPDEST PUSH1 0x0 PUSH20 0xFFFFFFFFFFFFFFFFFFFFFFFFFFFFFFFFFFFFFFFF DUP3 AND SWAP1 POP SWAP2 SWAP1 POP JUMP JUMPDEST PUSH1 0x0 DUP1 REVERT JUMPDEST PUSH3 0x2AE DUP2 PUSH3 0x26A JUMP JUMPDEST DUP2 EQ PUSH3 0x2BA JUMPI PUSH1 0x0 DUP1 REVERT JUMPDEST POP JUMP JUMPDEST PUSH2 0xD8C DUP1 PUSH3 0x2CD PUSH1 0x0 CODECOPY PUSH1 0x0 RETURN INVALID PUSH1 0x80 PUSH1 0x40 MSTORE CALLVALUE DUP1 ISZERO PUSH2 0x10 JUMPI PUSH1 0x0 DUP1 REVERT JUMPDEST POP PUSH1 0x4 CALLDATASIZE LT PUSH2 0x93 JUMPI PUSH1 0x0 CALLDATALOAD PUSH1 0xE0 SHR DUP1 PUSH4 0xA42963E9 GT PUSH2 0x66 JUMPI DUP1 PUSH4 0xA42963E9 EQ PUSH2 0x10E JUMPI DUP1 PUSH4 0xB98EE419 EQ PUSH2 0x13E JUMPI DUP1 PUSH4 0xBE22F546 EQ PUSH2 0x16E JUMPI DUP1 PUSH4 0xCA8963F1 EQ PUSH2 0x18C JUMPI DUP1 PUSH4 0xF2FDE38B EQ PUSH2 0x1BC JUMPI PUSH2 0x93 JUMP JUMPDEST DUP1 PUSH4 0x1A38A4FB EQ PUSH2 0x98 JUMPI DUP1 PUSH4 0x513FFEDD EQ PUSH2 0xB6 JUMPI DUP1 PUSH4 0x715018A6 EQ PUSH2 0xE6 JUMPI DUP1 PUSH4 0x8DA5CB5B EQ PUSH2 0xF0 JUMPI JUMPDEST PUSH1 0x0 DUP1 REVERT JUMPDEST PUSH2 0xA0 PUSH2 0x1D8 JUMP JUMPDEST PUSH1 0x40 MLOAD PUSH2 0xAD SWAP2 SWAP1 PUSH2 0xAAF JUMP JUMPDEST PUSH1 0x40 MLOAD DUP1 SWAP2 SUB SWAP1 RETURN JUMPDEST PUSH2 0xD0 PUSH1 0x4 DUP1 CALLDATASIZE SUB DUP2 ADD SWAP1 PUSH2 0xCB SWAP2 SWAP1 PUSH2 0x9E9 JUMP JUMPDEST PUSH2 0x1FE JUMP JUMPDEST PUSH1 0x40 MLOAD PUSH2 0xDD SWAP2 SWAP1 PUSH2 0xB4E JUMP JUMPDEST PUSH1 0x40 MLOAD DUP1 SWAP2 SUB SWAP1 RETURN JUMPDEST PUSH2 0xEE PUSH2 0x33C JUMP JUMPDEST STOP JUMPDEST PUSH2 0xF8 PUSH2 0x350 JUMP JUMPDEST PUSH1 0x40 MLOAD PUSH2 0x105 SWAP2 SWAP1 PUSH2 0xAAF JUMP JUMPDEST PUSH1 0x40 MLOAD DUP1 SWAP2 SUB SWAP1 RETURN JUMPDEST PUSH2 0x128 PUSH1 0x4 DUP1 CALLDATASIZE SUB DUP2 ADD SWAP1 PUSH2 0x123 SWAP2 SWAP1 PUSH2 0x94F JUMP JUMPDEST PUSH2 0x379 JUMP JUMPDEST PUSH1 0x40 MLOAD PUSH2 0x135 SWAP2 SWAP1 PUSH2 0xB4E JUMP JUMPDEST PUSH1 0x40 MLOAD DUP1 SWAP2 SUB SWAP1 RETURN JUMPDEST PUSH2 0x158 PUSH1 0x4 DUP1 CALLDATASIZE SUB DUP2 ADD SWAP1 PUSH2 0x153 SWAP2 SWAP1 PUSH2 0x90F JUMP JUMPDEST PUSH2 0x497 JUMP JUMPDEST PUSH1 0x40 MLOAD PUSH2 0x165 SWAP2 SWAP1 PUSH2 0xB4E JUMP JUMPDEST PUSH1 0x40 MLOAD DUP1 SWAP2 SUB SWAP1 RETURN JUMPDEST PUSH2 0x176 PUSH2 0x594 JUMP JUMPDEST PUSH1 0x40 MLOAD PUSH2 0x183 SWAP2 SWAP1 PUSH2 0xAAF JUMP JUMPDEST PUSH1 0x40 MLOAD DUP1 SWAP2 SUB SWAP1 RETURN JUMPDEST PUSH2 0x1A6 PUSH1 0x4 DUP1 CALLDATASIZE SUB DUP2 ADD SWAP1 PUSH2 0x1A1 SWAP2 SWAP1 PUSH2 0x9A9 JUMP JUMPDEST PUSH2 0x5BA JUMP JUMPDEST PUSH1 0x40 MLOAD PUSH2 0x1B3 SWAP2 SWAP1 PUSH2 0xAF3 JUMP JUMPDEST PUSH1 0x40 MLOAD DUP1 SWAP2 SUB SWAP1 RETURN JUMPDEST PUSH2 0x1D6 PUSH1 0x4 DUP1 CALLDATASIZE SUB DUP2 ADD SWAP1 PUSH2 0x1D1 SWAP2 SWAP1 PUSH2 0x8E2 JUMP JUMPDEST PUSH2 0x6A9 JUMP JUMPDEST STOP JUMPDEST PUSH1 0x3 PUSH1 0x0 SWAP1 SLOAD SWAP1 PUSH2 0x100 EXP SWAP1 DIV PUSH20 0xFFFFFFFFFFFFFFFFFFFFFFFFFFFFFFFFFFFFFFFF AND DUP2 JUMP JUMPDEST PUSH1 0x0 DUP1 PUSH1 0x4 PUSH1 0x0 SWAP1 SLOAD SWAP1 PUSH2 0x100 EXP SWAP1 DIV PUSH20 0xFFFFFFFFFFFFFFFFFFFFFFFFFFFFFFFFFFFFFFFF AND PUSH20 0xFFFFFFFFFFFFFFFFFFFFFFFFFFFFFFFFFFFFFFFF AND PUSH4 0x41976E09 DUP5 PUSH1 0x40 MLOAD DUP3 PUSH4 0xFFFFFFFF AND PUSH1 0xE0 SHL DUP2 MSTORE PUSH1 0x4 ADD PUSH2 0x25C SWAP2 SWAP1 PUSH2 0xAAF JUMP JUMPDEST PUSH1 0x20 PUSH1 0x40 MLOAD DUP1 DUP4 SUB DUP2 DUP7 DUP1 EXTCODESIZE ISZERO DUP1 ISZERO PUSH2 0x274 JUMPI PUSH1 0x0 DUP1 REVERT JUMPDEST POP GAS STATICCALL ISZERO DUP1 ISZERO PUSH2 0x288 JUMPI RETURNDATASIZE PUSH1 0x0 DUP1 RETURNDATACOPY RETURNDATASIZE PUSH1 0x0 REVERT JUMPDEST POP POP POP POP PUSH1 0x40 MLOAD RETURNDATASIZE PUSH1 0x1F NOT PUSH1 0x1F DUP3 ADD AND DUP3 ADD DUP1 PUSH1 0x40 MSTORE POP DUP2 ADD SWAP1 PUSH2 0x2AC SWAP2 SWAP1 PUSH2 0x97C JUMP JUMPDEST SWAP1 POP PUSH1 0x0 PUSH2 0x314 PUSH1 0x1 SLOAD PUSH2 0x306 PUSH2 0x2D1 PUSH5 0x2540BE400 DUP7 PUSH2 0x72D SWAP1 SWAP2 SWAP1 PUSH4 0xFFFFFFFF AND JUMP JUMPDEST PUSH2 0x2F8 PUSH1 0x1 SLOAD PUSH2 0x2EA DUP12 DUP14 PUSH2 0x72D SWAP1 SWAP2 SWAP1 PUSH4 0xFFFFFFFF AND JUMP JUMPDEST PUSH2 0x743 SWAP1 SWAP2 SWAP1 PUSH4 0xFFFFFFFF AND JUMP JUMPDEST PUSH2 0x72D SWAP1 SWAP2 SWAP1 PUSH4 0xFFFFFFFF AND JUMP JUMPDEST PUSH2 0x743 SWAP1 SWAP2 SWAP1 PUSH4 0xFFFFFFFF AND JUMP JUMPDEST SWAP1 POP PUSH1 0x0 PUSH2 0x32D PUSH2 0x2710 DUP4 PUSH2 0x743 SWAP1 SWAP2 SWAP1 PUSH4 0xFFFFFFFF AND JUMP JUMPDEST SWAP1 POP DUP1 SWAP4 POP POP POP POP SWAP4 SWAP3 POP POP POP JUMP JUMPDEST PUSH2 0x344 PUSH2 0x759 JUMP JUMPDEST PUSH2 0x34E PUSH1 0x0 PUSH2 0x7D7 JUMP JUMPDEST JUMP JUMPDEST PUSH1 0x0 DUP1 PUSH1 0x0 SWAP1 SLOAD SWAP1 PUSH2 0x100 EXP SWAP1 DIV PUSH20 0xFFFFFFFFFFFFFFFFFFFFFFFFFFFFFFFFFFFFFFFF AND SWAP1 POP SWAP1 JUMP JUMPDEST PUSH1 0x0 DUP1 PUSH1 0x4 PUSH1 0x0 SWAP1 SLOAD SWAP1 PUSH2 0x100 EXP SWAP1 DIV PUSH20 0xFFFFFFFFFFFFFFFFFFFFFFFFFFFFFFFFFFFFFFFF AND PUSH20 0xFFFFFFFFFFFFFFFFFFFFFFFFFFFFFFFFFFFFFFFF AND PUSH4 0x41976E09 PUSH1 0x2 PUSH1 0x0 SWAP1 SLOAD SWAP1 PUSH2 0x100 EXP SWAP1 DIV PUSH20 0xFFFFFFFFFFFFFFFFFFFFFFFFFFFFFFFFFFFFFFFF AND PUSH1 0x40 MLOAD DUP3 PUSH4 0xFFFFFFFF AND PUSH1 0xE0 SHL DUP2 MSTORE PUSH1 0x4 ADD PUSH2 0x3F9 SWAP2 SWAP1 PUSH2 0xAAF JUMP JUMPDEST PUSH1 0x20 PUSH1 0x40 MLOAD DUP1 DUP4 SUB DUP2 DUP7 DUP1 EXTCODESIZE ISZERO DUP1 ISZERO PUSH2 0x411 JUMPI PUSH1 0x0 DUP1 REVERT JUMPDEST POP GAS STATICCALL ISZERO DUP1 ISZERO PUSH2 0x425 JUMPI RETURNDATASIZE PUSH1 0x0 DUP1 RETURNDATACOPY RETURNDATASIZE PUSH1 0x0 REVERT JUMPDEST POP POP POP POP PUSH1 0x40 MLOAD RETURNDATASIZE PUSH1 0x1F NOT PUSH1 0x1F DUP3 ADD AND DUP3 ADD DUP1 PUSH1 0x40 MSTORE POP DUP2 ADD SWAP1 PUSH2 0x449 SWAP2 SWAP1 PUSH2 0x97C JUMP JUMPDEST SWAP1 POP PUSH1 0x0 PUSH2 0x48B PUSH2 0x468 PUSH5 0x2540BE400 DUP5 PUSH2 0x72D SWAP1 SWAP2 SWAP1 PUSH4 0xFFFFFFFF AND JUMP JUMPDEST PUSH2 0x47D PUSH1 0x1 SLOAD DUP8 PUSH2 0x72D SWAP1 SWAP2 SWAP1 PUSH4 0xFFFFFFFF AND JUMP JUMPDEST PUSH2 0x743 SWAP1 SWAP2 SWAP1 PUSH4 0xFFFFFFFF AND JUMP JUMPDEST SWAP1 POP DUP1 SWAP3 POP POP POP SWAP2 SWAP1 POP JUMP JUMPDEST PUSH1 0x0 DUP1 PUSH1 0x4 PUSH1 0x0 SWAP1 SLOAD SWAP1 PUSH2 0x100 EXP SWAP1 DIV PUSH20 0xFFFFFFFFFFFFFFFFFFFFFFFFFFFFFFFFFFFFFFFF AND PUSH20 0xFFFFFFFFFFFFFFFFFFFFFFFFFFFFFFFFFFFFFFFF AND PUSH4 0x41976E09 DUP6 PUSH1 0x40 MLOAD DUP3 PUSH4 0xFFFFFFFF AND PUSH1 0xE0 SHL DUP2 MSTORE PUSH1 0x4 ADD PUSH2 0x4F5 SWAP2 SWAP1 PUSH2 0xAAF JUMP JUMPDEST PUSH1 0x20 PUSH1 0x40 MLOAD DUP1 DUP4 SUB DUP2 DUP7 DUP1 EXTCODESIZE ISZERO DUP1 ISZERO PUSH2 0x50D JUMPI PUSH1 0x0 DUP1 REVERT JUMPDEST POP GAS STATICCALL ISZERO DUP1 ISZERO PUSH2 0x521 JUMPI RETURNDATASIZE PUSH1 0x0 DUP1 RETURNDATACOPY RETURNDATASIZE PUSH1 0x0 REVERT JUMPDEST POP POP POP POP PUSH1 0x40 MLOAD RETURNDATASIZE PUSH1 0x1F NOT PUSH1 0x1F DUP3 ADD AND DUP3 ADD DUP1 PUSH1 0x40 MSTORE POP DUP2 ADD SWAP1 PUSH2 0x545 SWAP2 SWAP1 PUSH2 0x97C JUMP JUMPDEST SWAP1 POP PUSH1 0x0 PUSH2 0x587 PUSH2 0x564 PUSH5 0x2540BE400 DUP5 PUSH2 0x72D SWAP1 SWAP2 SWAP1 PUSH4 0xFFFFFFFF AND JUMP JUMPDEST PUSH2 0x579 PUSH1 0x1 SLOAD DUP8 PUSH2 0x72D SWAP1 SWAP2 SWAP1 PUSH4 0xFFFFFFFF AND JUMP JUMPDEST PUSH2 0x743 SWAP1 SWAP2 SWAP1 PUSH4 0xFFFFFFFF AND JUMP JUMPDEST SWAP1 POP DUP1 SWAP3 POP POP POP SWAP3 SWAP2 POP POP JUMP JUMPDEST PUSH1 0x2 PUSH1 0x0 SWAP1 SLOAD SWAP1 PUSH2 0x100 EXP SWAP1 DIV PUSH20 0xFFFFFFFFFFFFFFFFFFFFFFFFFFFFFFFFFFFFFFFF AND DUP2 JUMP JUMPDEST PUSH1 0x0 DUP1 PUSH2 0x5C6 DUP5 PUSH2 0x379 JUMP JUMPDEST SWAP1 POP PUSH1 0x0 PUSH1 0x5 PUSH1 0x0 SWAP1 SLOAD SWAP1 PUSH2 0x100 EXP SWAP1 DIV PUSH20 0xFFFFFFFFFFFFFFFFFFFFFFFFFFFFFFFFFFFFFFFF AND PUSH20 0xFFFFFFFFFFFFFFFFFFFFFFFFFFFFFFFFFFFFFFFF AND PUSH4 0xCD5D767C PUSH1 0x3 PUSH1 0x0 SWAP1 SLOAD SWAP1 PUSH2 0x100 EXP SWAP1 DIV PUSH20 0xFFFFFFFFFFFFFFFFFFFFFFFFFFFFFFFFFFFFFFFF AND DUP7 PUSH1 0x40 MLOAD DUP4 PUSH4 0xFFFFFFFF AND PUSH1 0xE0 SHL DUP2 MSTORE PUSH1 0x4 ADD PUSH2 0x649 SWAP3 SWAP2 SWAP1 PUSH2 0xACA JUMP JUMPDEST PUSH1 0x20 PUSH1 0x40 MLOAD DUP1 DUP4 SUB DUP2 DUP7 DUP1 EXTCODESIZE ISZERO DUP1 ISZERO PUSH2 0x661 JUMPI PUSH1 0x0 DUP1 REVERT JUMPDEST POP GAS STATICCALL ISZERO DUP1 ISZERO PUSH2 0x675 JUMPI RETURNDATASIZE PUSH1 0x0 DUP1 RETURNDATACOPY RETURNDATASIZE PUSH1 0x0 REVERT JUMPDEST POP POP POP POP PUSH1 0x40 MLOAD RETURNDATASIZE PUSH1 0x1F NOT PUSH1 0x1F DUP3 ADD AND DUP3 ADD DUP1 PUSH1 0x40 MSTORE POP DUP2 ADD SWAP1 PUSH2 0x699 SWAP2 SWAP1 PUSH2 0x97C JUMP JUMPDEST SWAP1 POP DUP2 DUP2 LT ISZERO SWAP3 POP POP POP SWAP3 SWAP2 POP POP JUMP JUMPDEST PUSH2 0x6B1 PUSH2 0x759 JUMP JUMPDEST PUSH1 0x0 PUSH20 0xFFFFFFFFFFFFFFFFFFFFFFFFFFFFFFFFFFFFFFFF AND DUP2 PUSH20 0xFFFFFFFFFFFFFFFFFFFFFFFFFFFFFFFFFFFFFFFF AND EQ ISZERO PUSH2 0x721 JUMPI PUSH1 0x40 MLOAD PUSH32 0x8C379A000000000000000000000000000000000000000000000000000000000 DUP2 MSTORE PUSH1 0x4 ADD PUSH2 0x718 SWAP1 PUSH2 0xB0E JUMP JUMPDEST PUSH1 0x40 MLOAD DUP1 SWAP2 SUB SWAP1 REVERT JUMPDEST PUSH2 0x72A DUP2 PUSH2 0x7D7 JUMP JUMPDEST POP JUMP JUMPDEST PUSH1 0x0 DUP2 DUP4 PUSH2 0x73B SWAP2 SWAP1 PUSH2 0xBAB JUMP JUMPDEST SWAP1 POP SWAP3 SWAP2 POP POP JUMP JUMPDEST PUSH1 0x0 DUP2 DUP4 PUSH2 0x751 SWAP2 SWAP1 PUSH2 0xB7A JUMP JUMPDEST SWAP1 POP SWAP3 SWAP2 POP POP JUMP JUMPDEST PUSH2 0x761 PUSH2 0x89B JUMP JUMPDEST PUSH20 0xFFFFFFFFFFFFFFFFFFFFFFFFFFFFFFFFFFFFFFFF AND PUSH2 0x77F PUSH2 0x350 JUMP JUMPDEST PUSH20 0xFFFFFFFFFFFFFFFFFFFFFFFFFFFFFFFFFFFFFFFF AND EQ PUSH2 0x7D5 JUMPI PUSH1 0x40 MLOAD PUSH32 0x8C379A000000000000000000000000000000000000000000000000000000000 DUP2 MSTORE PUSH1 0x4 ADD PUSH2 0x7CC SWAP1 PUSH2 0xB2E JUMP JUMPDEST PUSH1 0x40 MLOAD DUP1 SWAP2 SUB SWAP1 REVERT JUMPDEST JUMP JUMPDEST PUSH1 0x0 DUP1 PUSH1 0x0 SWAP1 SLOAD SWAP1 PUSH2 0x100 EXP SWAP1 DIV PUSH20 0xFFFFFFFFFFFFFFFFFFFFFFFFFFFFFFFFFFFFFFFF AND SWAP1 POP DUP2 PUSH1 0x0 DUP1 PUSH2 0x100 EXP DUP2 SLOAD DUP2 PUSH20 0xFFFFFFFFFFFFFFFFFFFFFFFFFFFFFFFFFFFFFFFF MUL NOT AND SWAP1 DUP4 PUSH20 0xFFFFFFFFFFFFFFFFFFFFFFFFFFFFFFFFFFFFFFFF AND MUL OR SWAP1 SSTORE POP DUP2 PUSH20 0xFFFFFFFFFFFFFFFFFFFFFFFFFFFFFFFFFFFFFFFF AND DUP2 PUSH20 0xFFFFFFFFFFFFFFFFFFFFFFFFFFFFFFFFFFFFFFFF AND PUSH32 0x8BE0079C531659141344CD1FD0A4F28419497F9722A3DAAFE3B4186F6B6457E0 PUSH1 0x40 MLOAD PUSH1 0x40 MLOAD DUP1 SWAP2 SUB SWAP1 LOG3 POP POP JUMP JUMPDEST PUSH1 0x0 CALLER SWAP1 POP SWAP1 JUMP JUMPDEST PUSH1 0x0 DUP2 CALLDATALOAD SWAP1 POP PUSH2 0x8B2 DUP2 PUSH2 0xD28 JUMP JUMPDEST SWAP3 SWAP2 POP POP JUMP JUMPDEST PUSH1 0x0 DUP2 CALLDATALOAD SWAP1 POP PUSH2 0x8C7 DUP2 PUSH2 0xD3F JUMP JUMPDEST SWAP3 SWAP2 POP POP JUMP JUMPDEST PUSH1 0x0 DUP2 MLOAD SWAP1 POP PUSH2 0x8DC DUP2 PUSH2 0xD3F JUMP JUMPDEST SWAP3 SWAP2 POP POP JUMP JUMPDEST PUSH1 0x0 PUSH1 0x20 DUP3 DUP5 SUB SLT ISZERO PUSH2 0x8F8 JUMPI PUSH2 0x8F7 PUSH2 0xCAB JUMP JUMPDEST JUMPDEST PUSH1 0x0 PUSH2 0x906 DUP5 DUP3 DUP6 ADD PUSH2 0x8A3 JUMP JUMPDEST SWAP2 POP POP SWAP3 SWAP2 POP POP JUMP JUMPDEST PUSH1 0x0 DUP1 PUSH1 0x40 DUP4 DUP6 SUB SLT ISZERO PUSH2 0x926 JUMPI PUSH2 0x925 PUSH2 0xCAB JUMP JUMPDEST JUMPDEST PUSH1 0x0 PUSH2 0x934 DUP6 DUP3 DUP7 ADD PUSH2 0x8A3 JUMP JUMPDEST SWAP3 POP POP PUSH1 0x20 PUSH2 0x945 DUP6 DUP3 DUP7 ADD PUSH2 0x8B8 JUMP JUMPDEST SWAP2 POP POP SWAP3 POP SWAP3 SWAP1 POP JUMP JUMPDEST PUSH1 0x0 PUSH1 0x20 DUP3 DUP5 SUB SLT ISZERO PUSH2 0x965 JUMPI PUSH2 0x964 PUSH2 0xCAB JUMP JUMPDEST JUMPDEST PUSH1 0x0 PUSH2 0x973 DUP5 DUP3 DUP6 ADD PUSH2 0x8B8 JUMP JUMPDEST SWAP2 POP POP SWAP3 SWAP2 POP POP JUMP JUMPDEST PUSH1 0x0 PUSH1 0x20 DUP3 DUP5 SUB SLT ISZERO PUSH2 0x992 JUMPI PUSH2 0x991 PUSH2 0xCAB JUMP JUMPDEST JUMPDEST PUSH1 0x0 PUSH2 0x9A0 DUP5 DUP3 DUP6 ADD PUSH2 0x8CD JUMP JUMPDEST SWAP2 POP POP SWAP3 SWAP2 POP POP JUMP JUMPDEST PUSH1 0x0 DUP1 PUSH1 0x40 DUP4 DUP6 SUB SLT ISZERO PUSH2 0x9C0 JUMPI PUSH2 0x9BF PUSH2 0xCAB JUMP JUMPDEST JUMPDEST PUSH1 0x0 PUSH2 0x9CE DUP6 DUP3 DUP7 ADD PUSH2 0x8B8 JUMP JUMPDEST SWAP3 POP POP PUSH1 0x20 PUSH2 0x9DF DUP6 DUP3 DUP7 ADD PUSH2 0x8A3 JUMP JUMPDEST SWAP2 POP POP SWAP3 POP SWAP3 SWAP1 POP JUMP JUMPDEST PUSH1 0x0 DUP1 PUSH1 0x0 PUSH1 0x60 DUP5 DUP7 SUB SLT ISZERO PUSH2 0xA02 JUMPI PUSH2 0xA01 PUSH2 0xCAB JUMP JUMPDEST JUMPDEST PUSH1 0x0 PUSH2 0xA10 DUP7 DUP3 DUP8 ADD PUSH2 0x8B8 JUMP JUMPDEST SWAP4 POP POP PUSH1 0x20 PUSH2 0xA21 DUP7 DUP3 DUP8 ADD PUSH2 0x8B8 JUMP JUMPDEST SWAP3 POP POP PUSH1 0x40 PUSH2 0xA32 DUP7 DUP3 DUP8 ADD PUSH2 0x8A3 JUMP JUMPDEST SWAP2 POP POP SWAP3 POP SWAP3 POP SWAP3 JUMP JUMPDEST PUSH2 0xA45 DUP2 PUSH2 0xC05 JUMP JUMPDEST DUP3 MSTORE POP POP JUMP JUMPDEST PUSH2 0xA54 DUP2 PUSH2 0xC17 JUMP JUMPDEST DUP3 MSTORE POP POP JUMP JUMPDEST PUSH1 0x0 PUSH2 0xA67 PUSH1 0x26 DUP4 PUSH2 0xB69 JUMP JUMPDEST SWAP2 POP PUSH2 0xA72 DUP3 PUSH2 0xCB0 JUMP JUMPDEST PUSH1 0x40 DUP3 ADD SWAP1 POP SWAP2 SWAP1 POP JUMP JUMPDEST PUSH1 0x0 PUSH2 0xA8A PUSH1 0x20 DUP4 PUSH2 0xB69 JUMP JUMPDEST SWAP2 POP PUSH2 0xA95 DUP3 PUSH2 0xCFF JUMP JUMPDEST PUSH1 0x20 DUP3 ADD SWAP1 POP SWAP2 SWAP1 POP JUMP JUMPDEST PUSH2 0xAA9 DUP2 PUSH2 0xC43 JUMP JUMPDEST DUP3 MSTORE POP POP JUMP JUMPDEST PUSH1 0x0 PUSH1 0x20 DUP3 ADD SWAP1 POP PUSH2 0xAC4 PUSH1 0x0 DUP4 ADD DUP5 PUSH2 0xA3C JUMP JUMPDEST SWAP3 SWAP2 POP POP JUMP JUMPDEST PUSH1 0x0 PUSH1 0x40 DUP3 ADD SWAP1 POP PUSH2 0xADF PUSH1 0x0 DUP4 ADD DUP6 PUSH2 0xA3C JUMP JUMPDEST PUSH2 0xAEC PUSH1 0x20 DUP4 ADD DUP5 PUSH2 0xA3C JUMP JUMPDEST SWAP4 SWAP3 POP POP POP JUMP JUMPDEST PUSH1 0x0 PUSH1 0x20 DUP3 ADD SWAP1 POP PUSH2 0xB08 PUSH1 0x0 DUP4 ADD DUP5 PUSH2 0xA4B JUMP JUMPDEST SWAP3 SWAP2 POP POP JUMP JUMPDEST PUSH1 0x0 PUSH1 0x20 DUP3 ADD SWAP1 POP DUP2 DUP2 SUB PUSH1 0x0 DUP4 ADD MSTORE PUSH2 0xB27 DUP2 PUSH2 0xA5A JUMP JUMPDEST SWAP1 POP SWAP2 SWAP1 POP JUMP JUMPDEST PUSH1 0x0 PUSH1 0x20 DUP3 ADD SWAP1 POP DUP2 DUP2 SUB PUSH1 0x0 DUP4 ADD MSTORE PUSH2 0xB47 DUP2 PUSH2 0xA7D JUMP JUMPDEST SWAP1 POP SWAP2 SWAP1 POP JUMP JUMPDEST PUSH1 0x0 PUSH1 0x20 DUP3 ADD SWAP1 POP PUSH2 0xB63 PUSH1 0x0 DUP4 ADD DUP5 PUSH2 0xAA0 JUMP JUMPDEST SWAP3 SWAP2 POP POP JUMP JUMPDEST PUSH1 0x0 DUP3 DUP3 MSTORE PUSH1 0x20 DUP3 ADD SWAP1 POP SWAP3 SWAP2 POP POP JUMP JUMPDEST PUSH1 0x0 PUSH2 0xB85 DUP3 PUSH2 0xC43 JUMP JUMPDEST SWAP2 POP PUSH2 0xB90 DUP4 PUSH2 0xC43 JUMP JUMPDEST SWAP3 POP DUP3 PUSH2 0xBA0 JUMPI PUSH2 0xB9F PUSH2 0xC7C JUMP JUMPDEST JUMPDEST DUP3 DUP3 DIV SWAP1 POP SWAP3 SWAP2 POP POP JUMP JUMPDEST PUSH1 0x0 PUSH2 0xBB6 DUP3 PUSH2 0xC43 JUMP JUMPDEST SWAP2 POP PUSH2 0xBC1 DUP4 PUSH2 0xC43 JUMP JUMPDEST SWAP3 POP DUP2 PUSH32 0xFFFFFFFFFFFFFFFFFFFFFFFFFFFFFFFFFFFFFFFFFFFFFFFFFFFFFFFFFFFFFFFF DIV DUP4 GT DUP3 ISZERO ISZERO AND ISZERO PUSH2 0xBFA JUMPI PUSH2 0xBF9 PUSH2 0xC4D JUMP JUMPDEST JUMPDEST DUP3 DUP3 MUL SWAP1 POP SWAP3 SWAP2 POP POP JUMP JUMPDEST PUSH1 0x0 PUSH2 0xC10 DUP3 PUSH2 0xC23 JUMP JUMPDEST SWAP1 POP SWAP2 SWAP1 POP JUMP JUMPDEST PUSH1 0x0 DUP2 ISZERO ISZERO SWAP1 POP SWAP2 SWAP1 POP JUMP JUMPDEST PUSH1 0x0 PUSH20 0xFFFFFFFFFFFFFFFFFFFFFFFFFFFFFFFFFFFFFFFF DUP3 AND SWAP1 POP SWAP2 SWAP1 POP JUMP JUMPDEST PUSH1 0x0 DUP2 SWAP1 POP SWAP2 SWAP1 POP JUMP JUMPDEST PUSH32 0x4E487B7100000000000000000000000000000000000000000000000000000000 PUSH1 0x0 MSTORE PUSH1 0x11 PUSH1 0x4 MSTORE PUSH1 0x24 PUSH1 0x0 REVERT JUMPDEST PUSH32 0x4E487B7100000000000000000000000000000000000000000000000000000000 PUSH1 0x0 MSTORE PUSH1 0x12 PUSH1 0x4 MSTORE PUSH1 0x24 PUSH1 0x0 REVERT JUMPDEST PUSH1 0x0 DUP1 REVERT JUMPDEST PUSH32 0x4F776E61626C653A206E6577206F776E657220697320746865207A65726F2061 PUSH1 0x0 DUP3 ADD MSTORE PUSH32 0x6464726573730000000000000000000000000000000000000000000000000000 PUSH1 0x20 DUP3 ADD MSTORE POP JUMP JUMPDEST PUSH32 0x4F776E61626C653A2063616C6C6572206973206E6F7420746865206F776E6572 PUSH1 0x0 DUP3 ADD MSTORE POP JUMP JUMPDEST PUSH2 0xD31 DUP2 PUSH2 0xC05 JUMP JUMPDEST DUP2 EQ PUSH2 0xD3C JUMPI PUSH1 0x0 DUP1 REVERT JUMPDEST POP JUMP JUMPDEST PUSH2 0xD48 DUP2 PUSH2 0xC43 JUMP JUMPDEST DUP2 EQ PUSH2 0xD53 JUMPI PUSH1 0x0 DUP1 REVERT JUMPDEST POP JUMP INVALID LOG2 PUSH5 0x6970667358 0x22 SLT KECCAK256 KECCAK256 PUSH32 0x9895C900E62C42AA9A3C079FF69B5C91A20198E27AAD298AD9B1783E60D26473 PUSH16 0x6C634300080700330000000000000000 "},"gasEstimates":{"creation":{"codeDepositCost":"693600","executionCost":"infinite","totalCost":"infinite"},"external":{"aDAI()":"2515","amountTokensToDeduct(address,uint256)":"infinite","amountaDAIToDeduct(uint256)":"infinite","calculateFees(uint256,uint256,address)":"infinite","checkSufficientaDAI(uint256,address)":"infinite","daiToken()":"2558","owner()":"2589","renounceOwnership()":"30443","transferOwnership(address)":"30835"},"internal":{"setWalletAddress(address)":"infinite"}},"methodIdentifiers":{"aDAI()":"1a38a4fb","amountTokensToDeduct(address,uint256)":"b98ee419","amountaDAIToDeduct(uint256)":"a42963e9","calculateFees(uint256,uint256,address)":"513ffedd","checkSufficientaDAI(uint256,address)":"ca8963f1","daiToken()":"be22f546","owner()":"8da5cb5b","renounceOwnership()":"715018a6","transferOwnership(address)":"f2fde38b"}},"storageLayout":{"storage":[{"astId":53,"contract":"contracts/TradingFees.sol:TradingFees","label":"_owner","offset":0,"slot":"0","type":"t_address"},{"astId":2356,"contract":"contracts/TradingFees.sol:TradingFees","label":"decimals","offset":0,"slot":"1","type":"t_uint256"},{"astId":2362,"contract":"contracts/TradingFees.sol:TradingFees","label":"daiToken","offset":0,"slot":"2","type":"t_address"},{"astId":2368,"contract":"contracts/TradingFees.sol:TradingFees","label":"aDAI","offset":0,"slot":"3","type":"t_address"},{"astId":2371,"contract":"contracts/TradingFees.sol:TradingFees","label":"priceFeed","offset":0,"slot":"4","type":"t_contract(PriceChecker)2339"},{"astId":2374,"contract":"contracts/TradingFees.sol:TradingFees","label":"wallet","offset":0,"slot":"5","type":"t_contract(Wallet)3125"}],"types":{"t_address":{"encoding":"inplace","label":"address","numberOfBytes":"20"},"t_contract(PriceChecker)2339":{"encoding":"inplace","label":"contract PriceChecker","numberOfBytes":"20"},"t_contract(Wallet)3125":{"encoding":"inplace","label":"contract Wallet","numberOfBytes":"20"},"t_uint256":{"encoding":"inplace","label":"uint256","numberOfBytes":"32"}}},"userdoc":{"kind":"user","methods":{},"version":1}}}}