{
  "_format": "hh-sol-artifact-1",
  "contractName": "Exchange",
  "sourceName": "contracts/Exchange.sol",
  "abi": [
    {
      "anonymous": false,
      "inputs": [
        {
          "indexed": false,
          "internalType": "uint256",
          "name": "id",
          "type": "uint256"
        },
        {
          "indexed": false,
          "internalType": "enum Exchange.Side",
          "name": "side",
          "type": "uint8"
        },
        {
          "indexed": false,
          "internalType": "address",
          "name": "user",
          "type": "address"
        },
        {
          "indexed": false,
          "internalType": "address",
          "name": "tokenA",
          "type": "address"
        },
        {
          "indexed": false,
          "internalType": "uint256",
          "name": "amountA",
          "type": "uint256"
        },
        {
          "indexed": false,
          "internalType": "address",
          "name": "tokenB",
          "type": "address"
        },
        {
          "indexed": false,
          "internalType": "uint256",
          "name": "amountB",
          "type": "uint256"
        },
        {
          "indexed": false,
          "internalType": "uint256",
          "name": "rate",
          "type": "uint256"
        },
        {
          "indexed": false,
          "internalType": "uint256",
          "name": "originalAmountA",
          "type": "uint256"
        },
        {
          "indexed": false,
          "internalType": "uint256",
          "name": "originalAmountB",
          "type": "uint256"
        },
        {
          "indexed": false,
          "internalType": "bool",
          "name": "waiveFees",
          "type": "bool"
        }
      ],
      "name": "Cancel",
      "type": "event"
    },
    {
      "anonymous": false,
      "inputs": [
        {
          "indexed": false,
          "internalType": "uint256",
          "name": "id",
          "type": "uint256"
        },
        {
          "indexed": false,
          "internalType": "enum Exchange.Side",
          "name": "side",
          "type": "uint8"
        },
        {
          "indexed": false,
          "internalType": "address",
          "name": "user",
          "type": "address"
        },
        {
          "indexed": false,
          "internalType": "address",
          "name": "tokenA",
          "type": "address"
        },
        {
          "indexed": false,
          "internalType": "uint256",
          "name": "amountA",
          "type": "uint256"
        },
        {
          "indexed": false,
          "internalType": "address",
          "name": "tokenB",
          "type": "address"
        },
        {
          "indexed": false,
          "internalType": "uint256",
          "name": "amountB",
          "type": "uint256"
        },
        {
          "indexed": false,
          "internalType": "uint256",
          "name": "rate",
          "type": "uint256"
        },
        {
          "indexed": false,
          "internalType": "uint256",
          "name": "originalAmountA",
          "type": "uint256"
        },
        {
          "indexed": false,
          "internalType": "uint256",
          "name": "originalAmountB",
          "type": "uint256"
        },
        {
          "indexed": false,
          "internalType": "bool",
          "name": "waiveFees",
          "type": "bool"
        }
      ],
      "name": "Order",
      "type": "event"
    },
    {
      "anonymous": false,
      "inputs": [
        {
          "indexed": true,
          "internalType": "address",
          "name": "previousOwner",
          "type": "address"
        },
        {
          "indexed": true,
          "internalType": "address",
          "name": "newOwner",
          "type": "address"
        }
      ],
      "name": "OwnershipTransferred",
      "type": "event"
    },
    {
      "anonymous": false,
      "inputs": [
        {
          "components": [
            {
              "internalType": "uint256",
              "name": "id",
              "type": "uint256"
            },
            {
              "internalType": "enum Exchange.Side",
              "name": "side",
              "type": "uint8"
            },
            {
              "internalType": "address",
              "name": "user",
              "type": "address"
            },
            {
              "internalType": "address",
              "name": "tokenA",
              "type": "address"
            },
            {
              "internalType": "uint256",
              "name": "amountA",
              "type": "uint256"
            },
            {
              "internalType": "address",
              "name": "tokenB",
              "type": "address"
            },
            {
              "internalType": "uint256",
              "name": "amountB",
              "type": "uint256"
            },
            {
              "internalType": "uint256",
              "name": "rate",
              "type": "uint256"
            },
            {
              "internalType": "uint256",
              "name": "originalAmountA",
              "type": "uint256"
            },
            {
              "internalType": "uint256",
              "name": "originalAmountB",
              "type": "uint256"
            },
            {
              "internalType": "bool",
              "name": "waiveFees",
              "type": "bool"
            }
          ],
          "indexed": false,
          "internalType": "struct Exchange._Order",
          "name": "remainingOrder",
          "type": "tuple"
        },
        {
          "indexed": false,
          "internalType": "uint256",
          "name": "amountBought",
          "type": "uint256"
        },
        {
          "indexed": false,
          "internalType": "uint256",
          "name": "fillBuyRate",
          "type": "uint256"
        },
        {
          "indexed": false,
          "internalType": "bool",
          "name": "feesWaived",
          "type": "bool"
        },
        {
          "indexed": false,
          "internalType": "uint256",
          "name": "feesPaid",
          "type": "uint256"
        }
      ],
      "name": "fillBuyOrder",
      "type": "event"
    },
    {
      "anonymous": false,
      "inputs": [
        {
          "components": [
            {
              "internalType": "uint256",
              "name": "id",
              "type": "uint256"
            },
            {
              "internalType": "enum Exchange.Side",
              "name": "side",
              "type": "uint8"
            },
            {
              "internalType": "address",
              "name": "user",
              "type": "address"
            },
            {
              "internalType": "address",
              "name": "tokenA",
              "type": "address"
            },
            {
              "internalType": "uint256",
              "name": "amountA",
              "type": "uint256"
            },
            {
              "internalType": "address",
              "name": "tokenB",
              "type": "address"
            },
            {
              "internalType": "uint256",
              "name": "amountB",
              "type": "uint256"
            },
            {
              "internalType": "uint256",
              "name": "rate",
              "type": "uint256"
            },
            {
              "internalType": "uint256",
              "name": "originalAmountA",
              "type": "uint256"
            },
            {
              "internalType": "uint256",
              "name": "originalAmountB",
              "type": "uint256"
            },
            {
              "internalType": "bool",
              "name": "waiveFees",
              "type": "bool"
            }
          ],
          "indexed": false,
          "internalType": "struct Exchange._Order",
          "name": "remainingOrder",
          "type": "tuple"
        },
        {
          "indexed": false,
          "internalType": "uint256",
          "name": "amountSold",
          "type": "uint256"
        },
        {
          "indexed": false,
          "internalType": "uint256",
          "name": "fillSellRate",
          "type": "uint256"
        },
        {
          "indexed": false,
          "internalType": "bool",
          "name": "feesWaived",
          "type": "bool"
        },
        {
          "indexed": false,
          "internalType": "uint256",
          "name": "feesPaid",
          "type": "uint256"
        }
      ],
      "name": "fillSellOrder",
      "type": "event"
    },
    {
      "inputs": [],
      "name": "aETH",
      "outputs": [
        {
          "internalType": "address",
          "name": "",
          "type": "address"
        }
      ],
      "stateMutability": "view",
      "type": "function"
    },
    {
      "inputs": [
        {
          "internalType": "address",
          "name": "_token",
          "type": "address"
        },
        {
          "internalType": "uint256",
          "name": "_decimals",
          "type": "uint256"
        }
      ],
      "name": "addToken",
      "outputs": [],
      "stateMutability": "nonpayable",
      "type": "function"
    },
    {
      "inputs": [
        {
          "internalType": "enum Exchange.Side",
          "name": "side",
          "type": "uint8"
        },
        {
          "internalType": "uint256",
          "name": "_id",
          "type": "uint256"
        },
        {
          "internalType": "address",
          "name": "_token",
          "type": "address"
        }
      ],
      "name": "cancelOrder",
      "outputs": [],
      "stateMutability": "nonpayable",
      "type": "function"
    },
    {
      "inputs": [
        {
          "internalType": "address",
          "name": "_tokenA",
          "type": "address"
        },
        {
          "internalType": "uint256",
          "name": "_amountA",
          "type": "uint256"
        },
        {
          "internalType": "address",
          "name": "_tokenB",
          "type": "address"
        },
        {
          "internalType": "uint256",
          "name": "_amountB",
          "type": "uint256"
        },
        {
          "internalType": "uint256",
          "name": "_rate",
          "type": "uint256"
        },
        {
          "internalType": "bool",
          "name": "_waiveFees",
          "type": "bool"
        }
      ],
      "name": "createLimitBuyOrder",
      "outputs": [],
      "stateMutability": "nonpayable",
      "type": "function"
    },
    {
      "inputs": [
        {
          "internalType": "address",
          "name": "_tokenA",
          "type": "address"
        },
        {
          "internalType": "uint256",
          "name": "_amountA",
          "type": "uint256"
        },
        {
          "internalType": "address",
          "name": "_tokenB",
          "type": "address"
        },
        {
          "internalType": "uint256",
          "name": "_amountB",
          "type": "uint256"
        },
        {
          "internalType": "uint256",
          "name": "_rate",
          "type": "uint256"
        },
        {
          "internalType": "bool",
          "name": "_waiveFees",
          "type": "bool"
        }
      ],
      "name": "createLimitSellOrder",
      "outputs": [],
      "stateMutability": "nonpayable",
      "type": "function"
    },
    {
      "inputs": [],
      "name": "ethToken",
      "outputs": [
        {
          "internalType": "address",
          "name": "",
          "type": "address"
        }
      ],
      "stateMutability": "view",
      "type": "function"
    },
    {
      "inputs": [
        {
          "internalType": "address",
          "name": "_user",
          "type": "address"
        },
        {
          "internalType": "enum Exchange.Side",
          "name": "side",
          "type": "uint8"
        }
      ],
      "name": "getFilledOrderLength",
      "outputs": [
        {
          "internalType": "uint256",
          "name": "",
          "type": "uint256"
        }
      ],
      "stateMutability": "view",
      "type": "function"
    },
    {
      "inputs": [
        {
          "internalType": "address",
          "name": "_token",
          "type": "address"
        },
        {
          "internalType": "uint256",
          "name": "side",
          "type": "uint256"
        },
        {
          "internalType": "uint256",
          "name": "_id",
          "type": "uint256"
        }
      ],
      "name": "getOrderFromArray",
      "outputs": [
        {
          "components": [
            {
              "internalType": "uint256",
              "name": "id",
              "type": "uint256"
            },
            {
              "internalType": "enum Exchange.Side",
              "name": "side",
              "type": "uint8"
            },
            {
              "internalType": "address",
              "name": "user",
              "type": "address"
            },
            {
              "internalType": "address",
              "name": "tokenA",
              "type": "address"
            },
            {
              "internalType": "uint256",
              "name": "amountA",
              "type": "uint256"
            },
            {
              "internalType": "address",
              "name": "tokenB",
              "type": "address"
            },
            {
              "internalType": "uint256",
              "name": "amountB",
              "type": "uint256"
            },
            {
              "internalType": "uint256",
              "name": "rate",
              "type": "uint256"
            },
            {
              "internalType": "uint256",
              "name": "originalAmountA",
              "type": "uint256"
            },
            {
              "internalType": "uint256",
              "name": "originalAmountB",
              "type": "uint256"
            },
            {
              "internalType": "bool",
              "name": "waiveFees",
              "type": "bool"
            }
          ],
          "internalType": "struct Exchange._Order",
          "name": "",
          "type": "tuple"
        },
        {
          "internalType": "uint256",
          "name": "",
          "type": "uint256"
        }
      ],
      "stateMutability": "view",
      "type": "function"
    },
    {
      "inputs": [
        {
          "internalType": "enum Exchange.Side",
          "name": "side",
          "type": "uint8"
        },
        {
          "internalType": "address",
          "name": "_token",
          "type": "address"
        }
      ],
      "name": "getOrderLength",
      "outputs": [
        {
          "internalType": "uint256",
          "name": "",
          "type": "uint256"
        }
      ],
      "stateMutability": "view",
      "type": "function"
    },
    {
      "inputs": [
        {
          "internalType": "address",
          "name": "_token",
          "type": "address"
        }
      ],
      "name": "getTokenInfo",
      "outputs": [
        {
          "internalType": "uint256",
          "name": "",
          "type": "uint256"
        }
      ],
      "stateMutability": "view",
      "type": "function"
    },
    {
      "inputs": [
        {
          "internalType": "address",
          "name": "_token",
          "type": "address"
        }
      ],
      "name": "isVerifiedToken",
      "outputs": [
        {
          "internalType": "bool",
          "name": "",
          "type": "bool"
        }
      ],
      "stateMutability": "view",
      "type": "function"
    },
    {
      "inputs": [
        {
          "internalType": "uint256",
          "name": "_id",
          "type": "uint256"
        },
        {
          "internalType": "enum Exchange.Side",
          "name": "side",
          "type": "uint8"
        },
        {
          "internalType": "address",
          "name": "_token",
          "type": "address"
        }
      ],
      "name": "orderExists",
      "outputs": [
        {
          "internalType": "bool",
          "name": "",
          "type": "bool"
        }
      ],
      "stateMutability": "view",
      "type": "function"
    },
    {
      "inputs": [],
      "name": "owner",
      "outputs": [
        {
          "internalType": "address",
          "name": "",
          "type": "address"
        }
      ],
      "stateMutability": "view",
      "type": "function"
    },
    {
      "inputs": [],
      "name": "renounceOwnership",
      "outputs": [],
      "stateMutability": "nonpayable",
      "type": "function"
    },
    {
      "inputs": [
        {
          "internalType": "address",
          "name": "",
          "type": "address"
        },
        {
          "internalType": "uint256",
          "name": "",
          "type": "uint256"
        },
        {
          "internalType": "uint256",
          "name": "",
          "type": "uint256"
        }
      ],
      "name": "s_filledOrders",
      "outputs": [
        {
          "internalType": "uint256",
          "name": "id",
          "type": "uint256"
        },
        {
          "internalType": "enum Exchange.Side",
          "name": "side",
          "type": "uint8"
        },
        {
          "internalType": "address",
          "name": "user",
          "type": "address"
        },
        {
          "internalType": "address",
          "name": "tokenA",
          "type": "address"
        },
        {
          "internalType": "address",
          "name": "tokenB",
          "type": "address"
        },
        {
          "internalType": "uint256",
          "name": "amountFilled",
          "type": "uint256"
        },
        {
          "internalType": "uint256",
          "name": "fillRate",
          "type": "uint256"
        },
        {
          "internalType": "uint256",
          "name": "originalRate",
          "type": "uint256"
        },
        {
          "internalType": "uint256",
          "name": "originalAmountA",
          "type": "uint256"
        },
        {
          "internalType": "uint256",
          "name": "originalAmountB",
          "type": "uint256"
        },
        {
          "internalType": "bool",
          "name": "feesWaived",
          "type": "bool"
        },
        {
          "internalType": "uint256",
          "name": "feesPaid",
          "type": "uint256"
        }
      ],
      "stateMutability": "view",
      "type": "function"
    },
    {
      "inputs": [
        {
          "internalType": "address",
          "name": "",
          "type": "address"
        },
        {
          "internalType": "uint256",
          "name": "",
          "type": "uint256"
        },
        {
          "internalType": "uint256",
          "name": "",
          "type": "uint256"
        }
      ],
      "name": "s_orderBook",
      "outputs": [
        {
          "internalType": "uint256",
          "name": "id",
          "type": "uint256"
        },
        {
          "internalType": "enum Exchange.Side",
          "name": "side",
          "type": "uint8"
        },
        {
          "internalType": "address",
          "name": "user",
          "type": "address"
        },
        {
          "internalType": "address",
          "name": "tokenA",
          "type": "address"
        },
        {
          "internalType": "uint256",
          "name": "amountA",
          "type": "uint256"
        },
        {
          "internalType": "address",
          "name": "tokenB",
          "type": "address"
        },
        {
          "internalType": "uint256",
          "name": "amountB",
          "type": "uint256"
        },
        {
          "internalType": "uint256",
          "name": "rate",
          "type": "uint256"
        },
        {
          "internalType": "uint256",
          "name": "originalAmountA",
          "type": "uint256"
        },
        {
          "internalType": "uint256",
          "name": "originalAmountB",
          "type": "uint256"
        },
        {
          "internalType": "bool",
          "name": "waiveFees",
          "type": "bool"
        }
      ],
      "stateMutability": "view",
      "type": "function"
    },
    {
      "inputs": [],
      "name": "s_orderId",
      "outputs": [
        {
          "internalType": "uint256",
          "name": "",
          "type": "uint256"
        }
      ],
      "stateMutability": "view",
      "type": "function"
    },
    {
      "inputs": [
        {
          "internalType": "uint256",
          "name": "",
          "type": "uint256"
        }
      ],
      "name": "tokenList",
      "outputs": [
        {
          "internalType": "address",
          "name": "add",
          "type": "address"
        },
        {
          "internalType": "uint256",
          "name": "decimals",
          "type": "uint256"
        }
      ],
      "stateMutability": "view",
      "type": "function"
    },
    {
      "inputs": [
        {
          "internalType": "address",
          "name": "newOwner",
          "type": "address"
        }
      ],
      "name": "transferOwnership",
      "outputs": [],
      "stateMutability": "nonpayable",
      "type": "function"
    }
  ],
  "bytecode": "0x6080604052670de0b6b3a76400006004556000600560006101000a81548173ffffffffffffffffffffffffffffffffffffffff021916908373ffffffffffffffffffffffffffffffffffffffff1602179055507322404b0e2a7067068acdadd8f9d586f834cce2c5600660006101000a81548173ffffffffffffffffffffffffffffffffffffffff021916908373ffffffffffffffffffffffffffffffffffffffff1602179055506000600a556001600b60006101000a81548160ff021916908315150217905550348015620000d457600080fd5b50620000f5620000e9620000fb60201b60201c565b6200010360201b60201c565b620001c7565b600033905090565b60008060009054906101000a900473ffffffffffffffffffffffffffffffffffffffff169050816000806101000a81548173ffffffffffffffffffffffffffffffffffffffff021916908373ffffffffffffffffffffffffffffffffffffffff1602179055508173ffffffffffffffffffffffffffffffffffffffff168173ffffffffffffffffffffffffffffffffffffffff167f8be0079c531659141344cd1fd0a4f28419497f9722a3daafe3b4186f6b6457e060405160405180910390a35050565b6138ab80620001d76000396000f3fe608060405234801561001057600080fd5b50600436106101215760003560e01c80638da5cb5b116100ad578063bd8098ec11610071578063bd8098ec1461030a578063c3364be414610345578063e947a69514610375578063f2fde38b146103a5578063f9242d9a146103c157610121565b80638da5cb5b1461026357806392f63d2e146102815780639c07ce261461029f5780639ead7222146102bd578063af81c5b9146102ee57610121565b8063609ae6b5116100f4578063609ae6b5146101d257806362c09cfa146102035780636f4e410b1461021f578063715018a61461023b5780637bf1a6271461024557610121565b80631027b219146101265780631347d60e14610156578063182cffeb146101725780631f69565f146101a2575b600080fd5b610140600480360381019061013b9190612c42565b6103fb565b60405161014d919061320f565b60405180910390f35b610170600480360381019061016b9190612e0f565b6104b1565b005b61018c60048036038101906101879190612ebc565b610f4a565b604051610199919061320f565b60405180910390f35b6101bc60048036038101906101b79190612c42565b6111fa565b6040516101c99190613335565b60405180910390f35b6101ec60048036038101906101e79190612d7c565b6112d0565b6040516101fa92919061330a565b60405180910390f35b61021d60048036038101906102189190612cef565b61159c565b005b61023960048036038101906102349190612cef565b611b79565b005b610243612155565b005b61024d612169565b60405161025a919061315d565b60405180910390f35b61026b61218f565b604051610278919061315d565b60405180910390f35b6102896121b8565b604051610296919061315d565b60405180910390f35b6102a76121de565b6040516102b49190613335565b60405180910390f35b6102d760048036038101906102d29190612e62565b6121e4565b6040516102e59291906131e6565b60405180910390f35b61030860048036038101906103039190612caf565b612238565b005b610324600480360381019061031f9190612d7c565b612336565b60405161033c9c9b9a99989796959493929190613350565b60405180910390f35b61035f600480360381019061035a9190612c6f565b61243a565b60405161036c9190613335565b60405180910390f35b61038f600480360381019061038a9190612dcf565b6124aa565b60405161039c9190613335565b60405180910390f35b6103bf60048036038101906103ba9190612c42565b61251a565b005b6103db60048036038101906103d69190612d7c565b61259e565b6040516103f29b9a9998979695949392919061340a565b60405180910390f35b600080600090505b6007805490508110156104a6578273ffffffffffffffffffffffffffffffffffffffff166007828154811061043b5761043a613693565b5b906000526020600020906002020160000160009054906101000a900473ffffffffffffffffffffffffffffffffffffffff1673ffffffffffffffffffffffffffffffffffffffff1614156104935760019150506104ac565b808061049e906135bd565b915050610403565b50600090505b919050565b8183826104bf838383610f4a565b6104fe576040517f08c379a00000000000000000000000000000000000000000000000000000000081526004016104f59061322a565b60405180910390fd5b83610508816103fb565b610547576040517f08c379a000000000000000000000000000000000000000000000000000000000815260040161053e9061326a565b60405180910390fd5b6000600860008773ffffffffffffffffffffffffffffffffffffffff1673ffffffffffffffffffffffffffffffffffffffff168152602001908152602001600020600089600181111561059d5761059c613635565b5b815260200190815260200160002090506000818054905090506105be612812565b600080600090505b838110156107d8578a8582815481106105e2576105e1613693565b5b90600052602060002090600a02016000015414156107c5578091508481815481106106105761060f613693565b5b90600052602060002090600a020160405180610160016040529081600082015481526020016001820160009054906101000a900460ff16600181111561065957610658613635565b5b600181111561066b5761066a613635565b5b81526020016001820160019054906101000a900473ffffffffffffffffffffffffffffffffffffffff1673ffffffffffffffffffffffffffffffffffffffff1673ffffffffffffffffffffffffffffffffffffffff1681526020016002820160009054906101000a900473ffffffffffffffffffffffffffffffffffffffff1673ffffffffffffffffffffffffffffffffffffffff1673ffffffffffffffffffffffffffffffffffffffff168152602001600382015481526020016004820160009054906101000a900473ffffffffffffffffffffffffffffffffffffffff1673ffffffffffffffffffffffffffffffffffffffff1673ffffffffffffffffffffffffffffffffffffffff168152602001600582015481526020016006820154815260200160078201548152602001600882015481526020016009820160009054906101000a900460ff16151515158152505092506107d8565b80806107d0906135bd565b9150506105c6565b50600b60009054906101000a900460ff16156109f957816040015173ffffffffffffffffffffffffffffffffffffffff163373ffffffffffffffffffffffffffffffffffffffff1614610860576040517f08c379a0000000000000000000000000000000000000000000000000000000008152600401610857906132aa565b60405180910390fd5b6000600181111561087457610873613635565b5b8b600181111561088757610886613635565b5b141561092e57600360009054906101000a900473ffffffffffffffffffffffffffffffffffffffff1673ffffffffffffffffffffffffffffffffffffffff166346a8f820338460a001518560c0015160006040518563ffffffff1660e01b81526004016108f794939291906131a1565b600060405180830381600087803b15801561091157600080fd5b505af1158015610925573d6000803e3d6000fd5b505050506109f8565b60018081111561094157610940613635565b5b8b600181111561095457610953613635565b5b14156109f757600360009054906101000a900473ffffffffffffffffffffffffffffffffffffffff1673ffffffffffffffffffffffffffffffffffffffff166346a8f820338460600151856080015160006040518563ffffffff1660e01b81526004016109c494939291906131a1565b600060405180830381600087803b1580156109de57600080fd5b505af11580156109f2573d6000803e3d6000fd5b505050505b5b5b60008190505b600184610a0c919061351c565b811015610c595784610a2860018361269c90919063ffffffff16565b81548110610a3957610a38613693565b5b90600052602060002090600a0201858281548110610a5a57610a59613693565b5b90600052602060002090600a0201600082015481600001556001820160009054906101000a900460ff168160010160006101000a81548160ff02191690836001811115610aaa57610aa9613635565b5b02179055506001820160019054906101000a900473ffffffffffffffffffffffffffffffffffffffff168160010160016101000a81548173ffffffffffffffffffffffffffffffffffffffff021916908373ffffffffffffffffffffffffffffffffffffffff1602179055506002820160009054906101000a900473ffffffffffffffffffffffffffffffffffffffff168160020160006101000a81548173ffffffffffffffffffffffffffffffffffffffff021916908373ffffffffffffffffffffffffffffffffffffffff160217905550600382015481600301556004820160009054906101000a900473ffffffffffffffffffffffffffffffffffffffff168160040160006101000a81548173ffffffffffffffffffffffffffffffffffffffff021916908373ffffffffffffffffffffffffffffffffffffffff160217905550600582015481600501556006820154816006015560078201548160070155600882015481600801556009820160009054906101000a900460ff168160090160006101000a81548160ff0219169083151502179055509050508080610c51906135bd565b9150506109ff565b5083610c6f6001856126b290919063ffffffff16565b81548110610c8057610c7f613693565b5b90600052602060002090600a02016000808201600090556001820160006101000a81549060ff02191690556001820160016101000a81549073ffffffffffffffffffffffffffffffffffffffff02191690556002820160006101000a81549073ffffffffffffffffffffffffffffffffffffffff021916905560038201600090556004820160006101000a81549073ffffffffffffffffffffffffffffffffffffffff021916905560058201600090556006820160009055600782016000905560088201600090556009820160006101000a81549060ff0219169055505083805480610d6f57610d6e613664565b5b60019003818190600052602060002090600a02016000808201600090556001820160006101000a81549060ff02191690556001820160016101000a81549073ffffffffffffffffffffffffffffffffffffffff02191690556002820160006101000a81549073ffffffffffffffffffffffffffffffffffffffff021916905560038201600090556004820160006101000a81549073ffffffffffffffffffffffffffffffffffffffff021916905560058201600090556006820160009055600782016000905560088201600090556009820160006101000a81549060ff02191690555050905583600860008b73ffffffffffffffffffffffffffffffffffffffff1673ffffffffffffffffffffffffffffffffffffffff16815260200190815260200160002060008d6001811115610eaa57610ea9613635565b5b8152602001908152602001600020908054610ec69291906128c2565b507fa1cc643491754200d3eca5769e524a0fd00f9b0862b18d0da7d6e7277a83dfda8a83602001518460400151856060015186608001518760a001518860c001518960e001518a61010001518b61012001518c6101400151604051610f359b9a9998979695949392919061340a565b60405180910390a15050505050505050505050565b600080600860008473ffffffffffffffffffffffffffffffffffffffff1673ffffffffffffffffffffffffffffffffffffffff1681526020019081526020016000206000856001811115610fa157610fa0613635565b5b8152602001908152602001600020805480602002602001604051908101604052809291908181526020016000905b8282101561119657838290600052602060002090600a020160405180610160016040529081600082015481526020016001820160009054906101000a900460ff16600181111561102257611021613635565b5b600181111561103457611033613635565b5b81526020016001820160019054906101000a900473ffffffffffffffffffffffffffffffffffffffff1673ffffffffffffffffffffffffffffffffffffffff1673ffffffffffffffffffffffffffffffffffffffff1681526020016002820160009054906101000a900473ffffffffffffffffffffffffffffffffffffffff1673ffffffffffffffffffffffffffffffffffffffff1673ffffffffffffffffffffffffffffffffffffffff168152602001600382015481526020016004820160009054906101000a900473ffffffffffffffffffffffffffffffffffffffff1673ffffffffffffffffffffffffffffffffffffffff1673ffffffffffffffffffffffffffffffffffffffff168152602001600582015481526020016006820154815260200160078201548152602001600882015481526020016009820160009054906101000a900460ff16151515158152505081526020019060010190610fcf565b50505050905060005b81518110156111ec57858282815181106111bc576111bb613693565b5b60200260200101516000015114156111d9576001925050506111f3565b80806111e4906135bd565b91505061119f565b5060009150505b9392505050565b600080600090505b6007805490508110156112c9578273ffffffffffffffffffffffffffffffffffffffff166007828154811061123a57611239613693565b5b906000526020600020906002020160000160009054906101000a900473ffffffffffffffffffffffffffffffffffffffff1673ffffffffffffffffffffffffffffffffffffffff1614156112b6576007818154811061129c5761129b613693565b5b9060005260206000209060020201600101549150506112cb565b80806112c1906135bd565b915050611202565b505b919050565b6112d8612812565b600080600090506000600860008873ffffffffffffffffffffffffffffffffffffffff1673ffffffffffffffffffffffffffffffffffffffff1681526020019081526020016000206000878152602001908152602001600020805480602002602001604051908101604052809291908181526020016000905b8282101561151857838290600052602060002090600a020160405180610160016040529081600082015481526020016001820160009054906101000a900460ff1660018111156113a4576113a3613635565b5b60018111156113b6576113b5613635565b5b81526020016001820160019054906101000a900473ffffffffffffffffffffffffffffffffffffffff1673ffffffffffffffffffffffffffffffffffffffff1673ffffffffffffffffffffffffffffffffffffffff1681526020016002820160009054906101000a900473ffffffffffffffffffffffffffffffffffffffff1673ffffffffffffffffffffffffffffffffffffffff1673ffffffffffffffffffffffffffffffffffffffff168152602001600382015481526020016004820160009054906101000a900473ffffffffffffffffffffffffffffffffffffffff1673ffffffffffffffffffffffffffffffffffffffff1673ffffffffffffffffffffffffffffffffffffffff168152602001600582015481526020016006820154815260200160078201548152602001600882015481526020016009820160009054906101000a900460ff16151515158152505081526020019060010190611351565b505050509050611526612812565b5b815183101561158b578582848151811061154457611543613693565b5b60200260200101516000015114156115785781838151811061156957611568613693565b5b6020026020010151905061158b565b8280611583906135bd565b935050611527565b808394509450505050935093915050565b856115a6816103fb565b6115e5576040517f08c379a00000000000000000000000000000000000000000000000000000000081526004016115dc9061326a565b60405180910390fd5b846115ef816103fb565b61162e576040517f08c379a00000000000000000000000000000000000000000000000000000000081526004016116259061326a565b60405180910390fd5b8461179a600360009054906101000a900473ffffffffffffffffffffffffffffffffffffffff1673ffffffffffffffffffffffffffffffffffffffff16634fc121db338a6040518363ffffffff1660e01b815260040161168f929190613178565b60206040518083038186803b1580156116a757600080fd5b505afa1580156116bb573d6000803e3d6000fd5b505050506040513d601f19601f820116820180604052508101906116df9190612e8f565b600360009054906101000a900473ffffffffffffffffffffffffffffffffffffffff1673ffffffffffffffffffffffffffffffffffffffff1663f7888aec8a336040518363ffffffff1660e01b815260040161173c929190613178565b60206040518083038186803b15801561175457600080fd5b505afa158015611768573d6000803e3d6000fd5b505050506040513d601f19601f8201168201806040525081019061178c9190612e8f565b6126b290919063ffffffff16565b10156117db576040517f08c379a00000000000000000000000000000000000000000000000000000000081526004016117d29061328a565b60405180910390fd5b600360009054906101000a900473ffffffffffffffffffffffffffffffffffffffff1673ffffffffffffffffffffffffffffffffffffffff166346a8f82033888860016040518563ffffffff1660e01b815260040161183d94939291906131a1565b600060405180830381600087803b15801561185757600080fd5b505af115801561186b573d6000803e3d6000fd5b50505050600860008973ffffffffffffffffffffffffffffffffffffffff1673ffffffffffffffffffffffffffffffffffffffff16815260200190815260200160002060008060018111156118c3576118c2613635565b5b8152602001908152602001600020604051806101600160405280600a548152602001600060018111156118f9576118f8613635565b5b81526020013373ffffffffffffffffffffffffffffffffffffffff1681526020018a73ffffffffffffffffffffffffffffffffffffffff1681526020018981526020018873ffffffffffffffffffffffffffffffffffffffff16815260200187815260200186815260200189815260200187815260200185151581525090806001815401808255809150506001900390600052602060002090600a02016000909190919091506000820151816000015560208201518160010160006101000a81548160ff021916908360018111156119d4576119d3613635565b5b021790555060408201518160010160016101000a81548173ffffffffffffffffffffffffffffffffffffffff021916908373ffffffffffffffffffffffffffffffffffffffff16021790555060608201518160020160006101000a81548173ffffffffffffffffffffffffffffffffffffffff021916908373ffffffffffffffffffffffffffffffffffffffff1602179055506080820151816003015560a08201518160040160006101000a81548173ffffffffffffffffffffffffffffffffffffffff021916908373ffffffffffffffffffffffffffffffffffffffff16021790555060c0820151816005015560e08201518160060155610100820151816007015561012082015181600801556101408201518160090160006101000a81548160ff02191690831515021790555050507fcb2df66a1a7db52683240584eca4355946d7b80a59dcb7707aa8dd95463ed744600a546000338b8b8b8b8b8f8e8d604051611b4b9b9a9998979695949392919061340a565b60405180910390a1611b696001600a5461269c90919063ffffffff16565b600a819055505050505050505050565b85611b83816103fb565b611bc2576040517f08c379a0000000000000000000000000000000000000000000000000000000008152600401611bb99061326a565b60405180910390fd5b84611bcc816103fb565b611c0b576040517f08c379a0000000000000000000000000000000000000000000000000000000008152600401611c029061326a565b60405180910390fd5b86611d77600360009054906101000a900473ffffffffffffffffffffffffffffffffffffffff1673ffffffffffffffffffffffffffffffffffffffff16634fc121db338c6040518363ffffffff1660e01b8152600401611c6c929190613178565b60206040518083038186803b158015611c8457600080fd5b505afa158015611c98573d6000803e3d6000fd5b505050506040513d601f19601f82011682018060405250810190611cbc9190612e8f565b600360009054906101000a900473ffffffffffffffffffffffffffffffffffffffff1673ffffffffffffffffffffffffffffffffffffffff1663f7888aec8c336040518363ffffffff1660e01b8152600401611d19929190613178565b60206040518083038186803b158015611d3157600080fd5b505afa158015611d45573d6000803e3d6000fd5b505050506040513d601f19601f82011682018060405250810190611d699190612e8f565b6126b290919063ffffffff16565b1015611db8576040517f08c379a0000000000000000000000000000000000000000000000000000000008152600401611daf9061328a565b60405180910390fd5b600360009054906101000a900473ffffffffffffffffffffffffffffffffffffffff1673ffffffffffffffffffffffffffffffffffffffff166346a8f820338a8a60016040518563ffffffff1660e01b8152600401611e1a94939291906131a1565b600060405180830381600087803b158015611e3457600080fd5b505af1158015611e48573d6000803e3d6000fd5b50505050600860008973ffffffffffffffffffffffffffffffffffffffff1673ffffffffffffffffffffffffffffffffffffffff1681526020019081526020016000206000600180811115611ea057611e9f613635565b5b8152602001908152602001600020604051806101600160405280600a548152602001600180811115611ed557611ed4613635565b5b81526020013373ffffffffffffffffffffffffffffffffffffffff1681526020018a73ffffffffffffffffffffffffffffffffffffffff1681526020018981526020018873ffffffffffffffffffffffffffffffffffffffff16815260200187815260200186815260200189815260200187815260200185151581525090806001815401808255809150506001900390600052602060002090600a02016000909190919091506000820151816000015560208201518160010160006101000a81548160ff02191690836001811115611fb057611faf613635565b5b021790555060408201518160010160016101000a81548173ffffffffffffffffffffffffffffffffffffffff021916908373ffffffffffffffffffffffffffffffffffffffff16021790555060608201518160020160006101000a81548173ffffffffffffffffffffffffffffffffffffffff021916908373ffffffffffffffffffffffffffffffffffffffff1602179055506080820151816003015560a08201518160040160006101000a81548173ffffffffffffffffffffffffffffffffffffffff021916908373ffffffffffffffffffffffffffffffffffffffff16021790555060c0820151816005015560e08201518160060155610100820151816007015561012082015181600801556101408201518160090160006101000a81548160ff02191690831515021790555050507fcb2df66a1a7db52683240584eca4355946d7b80a59dcb7707aa8dd95463ed744600a546001338b8b8b8b8b8f8e8d6040516121279b9a9998979695949392919061340a565b60405180910390a16121456001600a5461269c90919063ffffffff16565b600a819055505050505050505050565b61215d6126c8565b6121676000612746565b565b600560009054906101000a900473ffffffffffffffffffffffffffffffffffffffff1681565b60008060009054906101000a900473ffffffffffffffffffffffffffffffffffffffff16905090565b600660009054906101000a900473ffffffffffffffffffffffffffffffffffffffff1681565b600a5481565b600781815481106121f457600080fd5b90600052602060002090600202016000915090508060000160009054906101000a900473ffffffffffffffffffffffffffffffffffffffff16908060010154905082565b6122406126c8565b612249826103fb565b15612289576040517f08c379a0000000000000000000000000000000000000000000000000000000008152600401612280906132ca565b60405180910390fd5b600760405180604001604052808473ffffffffffffffffffffffffffffffffffffffff16815260200183815250908060018154018082558091505060019003906000526020600020906002020160009091909190915060008201518160000160006101000a81548173ffffffffffffffffffffffffffffffffffffffff021916908373ffffffffffffffffffffffffffffffffffffffff1602179055506020820151816001015550505050565b6009602052826000526040600020602052816000526040600020818154811061235e57600080fd5b90600052602060002090600b020160009250925050508060000154908060010160009054906101000a900460ff16908060010160019054906101000a900473ffffffffffffffffffffffffffffffffffffffff16908060020160009054906101000a900473ffffffffffffffffffffffffffffffffffffffff16908060030160009054906101000a900473ffffffffffffffffffffffffffffffffffffffff16908060040154908060050154908060060154908060070154908060080154908060090160009054906101000a900460ff169080600a015490508c565b6000600960008473ffffffffffffffffffffffffffffffffffffffff1673ffffffffffffffffffffffffffffffffffffffff16815260200190815260200160002060008360018111156124905761248f613635565b5b815260200190815260200160002080549050905092915050565b6000600860008373ffffffffffffffffffffffffffffffffffffffff1673ffffffffffffffffffffffffffffffffffffffff1681526020019081526020016000206000846001811115612500576124ff613635565b5b815260200190815260200160002080549050905092915050565b6125226126c8565b600073ffffffffffffffffffffffffffffffffffffffff168173ffffffffffffffffffffffffffffffffffffffff161415612592576040517f08c379a00000000000000000000000000000000000000000000000000000000081526004016125899061324a565b60405180910390fd5b61259b81612746565b50565b600860205282600052604060002060205281600052604060002081815481106125c657600080fd5b90600052602060002090600a020160009250925050508060000154908060010160009054906101000a900460ff16908060010160019054906101000a900473ffffffffffffffffffffffffffffffffffffffff16908060020160009054906101000a900473ffffffffffffffffffffffffffffffffffffffff16908060030154908060040160009054906101000a900473ffffffffffffffffffffffffffffffffffffffff16908060050154908060060154908060070154908060080154908060090160009054906101000a900460ff1690508b565b600081836126aa91906134c6565b905092915050565b600081836126c0919061351c565b905092915050565b6126d061280a565b73ffffffffffffffffffffffffffffffffffffffff166126ee61218f565b73ffffffffffffffffffffffffffffffffffffffff1614612744576040517f08c379a000000000000000000000000000000000000000000000000000000000815260040161273b906132ea565b60405180910390fd5b565b60008060009054906101000a900473ffffffffffffffffffffffffffffffffffffffff169050816000806101000a81548173ffffffffffffffffffffffffffffffffffffffff021916908373ffffffffffffffffffffffffffffffffffffffff1602179055508173ffffffffffffffffffffffffffffffffffffffff168173ffffffffffffffffffffffffffffffffffffffff167f8be0079c531659141344cd1fd0a4f28419497f9722a3daafe3b4186f6b6457e060405160405180910390a35050565b600033905090565b604051806101600160405280600081526020016000600181111561283957612838613635565b5b8152602001600073ffffffffffffffffffffffffffffffffffffffff168152602001600073ffffffffffffffffffffffffffffffffffffffff16815260200160008152602001600073ffffffffffffffffffffffffffffffffffffffff168152602001600081526020016000815260200160008152602001600081526020016000151581525090565b82805482825590600052602060002090600a028101928215612ae457600052602060002091600a0282015b82811115612ae3578282600082015481600001556001820160009054906101000a900460ff168160010160006101000a81548160ff0219169083600181111561293957612938613635565b5b02179055506001820160019054906101000a900473ffffffffffffffffffffffffffffffffffffffff168160010160016101000a81548173ffffffffffffffffffffffffffffffffffffffff021916908373ffffffffffffffffffffffffffffffffffffffff1602179055506002820160009054906101000a900473ffffffffffffffffffffffffffffffffffffffff168160020160006101000a81548173ffffffffffffffffffffffffffffffffffffffff021916908373ffffffffffffffffffffffffffffffffffffffff160217905550600382015481600301556004820160009054906101000a900473ffffffffffffffffffffffffffffffffffffffff168160040160006101000a81548173ffffffffffffffffffffffffffffffffffffffff021916908373ffffffffffffffffffffffffffffffffffffffff160217905550600582015481600501556006820154816006015560078201548160070155600882015481600801556009820160009054906101000a900460ff168160090160006101000a81548160ff021916908315150217905550505091600a019190600a01906128ed565b5b509050612af19190612af5565b5090565b5b80821115612bd5576000808201600090556001820160006101000a81549060ff02191690556001820160016101000a81549073ffffffffffffffffffffffffffffffffffffffff02191690556002820160006101000a81549073ffffffffffffffffffffffffffffffffffffffff021916905560038201600090556004820160006101000a81549073ffffffffffffffffffffffffffffffffffffffff021916905560058201600090556006820160009055600782016000905560088201600090556009820160006101000a81549060ff021916905550600a01612af6565b5090565b600081359050612be881613820565b92915050565b600081359050612bfd81613837565b92915050565b600081359050612c128161384e565b92915050565b600081359050612c278161385e565b92915050565b600081519050612c3c8161385e565b92915050565b600060208284031215612c5857612c576136c2565b5b6000612c6684828501612bd9565b91505092915050565b60008060408385031215612c8657612c856136c2565b5b6000612c9485828601612bd9565b9250506020612ca585828601612c03565b9150509250929050565b60008060408385031215612cc657612cc56136c2565b5b6000612cd485828601612bd9565b9250506020612ce585828601612c18565b9150509250929050565b60008060008060008060c08789031215612d0c57612d0b6136c2565b5b6000612d1a89828a01612bd9565b9650506020612d2b89828a01612c18565b9550506040612d3c89828a01612bd9565b9450506060612d4d89828a01612c18565b9350506080612d5e89828a01612c18565b92505060a0612d6f89828a01612bee565b9150509295509295509295565b600080600060608486031215612d9557612d946136c2565b5b6000612da386828701612bd9565b9350506020612db486828701612c18565b9250506040612dc586828701612c18565b9150509250925092565b60008060408385031215612de657612de56136c2565b5b6000612df485828601612c03565b9250506020612e0585828601612bd9565b9150509250929050565b600080600060608486031215612e2857612e276136c2565b5b6000612e3686828701612c03565b9350506020612e4786828701612c18565b9250506040612e5886828701612bd9565b9150509250925092565b600060208284031215612e7857612e776136c2565b5b6000612e8684828501612c18565b91505092915050565b600060208284031215612ea557612ea46136c2565b5b6000612eb384828501612c2d565b91505092915050565b600080600060608486031215612ed557612ed46136c2565b5b6000612ee386828701612c18565b9350506020612ef486828701612c03565b9250506040612f0586828701612bd9565b9150509250925092565b612f1881613550565b82525050565b612f2781613550565b82525050565b612f3681613562565b82525050565b612f4581613562565b82525050565b612f54816135ab565b82525050565b612f63816135ab565b82525050565b6000612f766010836134b5565b9150612f81826136c7565b602082019050919050565b6000612f996026836134b5565b9150612fa4826136f0565b604082019050919050565b6000612fbc6018836134b5565b9150612fc78261373f565b602082019050919050565b6000612fdf6012836134b5565b9150612fea82613768565b602082019050919050565b60006130026009836134b5565b915061300d82613791565b602082019050919050565b60006130256016836134b5565b9150613030826137ba565b602082019050919050565b60006130486020836134b5565b9150613053826137e3565b602082019050919050565b61016082016000820151613075600085018261313f565b5060208201516130886020850182612f4b565b50604082015161309b6040850182612f0f565b5060608201516130ae6060850182612f0f565b5060808201516130c1608085018261313f565b5060a08201516130d460a0850182612f0f565b5060c08201516130e760c085018261313f565b5060e08201516130fa60e085018261313f565b5061010082015161310f61010085018261313f565b5061012082015161312461012085018261313f565b50610140820151613139610140850182612f2d565b50505050565b613148816135a1565b82525050565b613157816135a1565b82525050565b60006020820190506131726000830184612f1e565b92915050565b600060408201905061318d6000830185612f1e565b61319a6020830184612f1e565b9392505050565b60006080820190506131b66000830187612f1e565b6131c36020830186612f1e565b6131d0604083018561314e565b6131dd6060830184612f3c565b95945050505050565b60006040820190506131fb6000830185612f1e565b613208602083018461314e565b9392505050565b60006020820190506132246000830184612f3c565b92915050565b6000602082019050818103600083015261324381612f69565b9050919050565b6000602082019050818103600083015261326381612f8c565b9050919050565b6000602082019050818103600083015261328381612faf565b9050919050565b600060208201905081810360008301526132a381612fd2565b9050919050565b600060208201905081810360008301526132c381612ff5565b9050919050565b600060208201905081810360008301526132e381613018565b9050919050565b600060208201905081810360008301526133038161303b565b9050919050565b600061018082019050613320600083018561305e565b61332e61016083018461314e565b9392505050565b600060208201905061334a600083018461314e565b92915050565b600061018082019050613366600083018f61314e565b613373602083018e612f5a565b613380604083018d612f1e565b61338d606083018c612f1e565b61339a608083018b612f1e565b6133a760a083018a61314e565b6133b460c083018961314e565b6133c160e083018861314e565b6133cf61010083018761314e565b6133dd61012083018661314e565b6133eb610140830185612f3c565b6133f961016083018461314e565b9d9c50505050505050505050505050565b600061016082019050613420600083018e61314e565b61342d602083018d612f5a565b61343a604083018c612f1e565b613447606083018b612f1e565b613454608083018a61314e565b61346160a0830189612f1e565b61346e60c083018861314e565b61347b60e083018761314e565b61348961010083018661314e565b61349761012083018561314e565b6134a5610140830184612f3c565b9c9b505050505050505050505050565b600082825260208201905092915050565b60006134d1826135a1565b91506134dc836135a1565b9250827fffffffffffffffffffffffffffffffffffffffffffffffffffffffffffffffff0382111561351157613510613606565b5b828201905092915050565b6000613527826135a1565b9150613532836135a1565b92508282101561354557613544613606565b5b828203905092915050565b600061355b82613581565b9050919050565b60008115159050919050565b600081905061357c8261380c565b919050565b600073ffffffffffffffffffffffffffffffffffffffff82169050919050565b6000819050919050565b60006135b68261356e565b9050919050565b60006135c8826135a1565b91507fffffffffffffffffffffffffffffffffffffffffffffffffffffffffffffffff8214156135fb576135fa613606565b5b600182019050919050565b7f4e487b7100000000000000000000000000000000000000000000000000000000600052601160045260246000fd5b7f4e487b7100000000000000000000000000000000000000000000000000000000600052602160045260246000fd5b7f4e487b7100000000000000000000000000000000000000000000000000000000600052603160045260246000fd5b7f4e487b7100000000000000000000000000000000000000000000000000000000600052603260045260246000fd5b600080fd5b7f496e76616c6964204f7264657220494400000000000000000000000000000000600082015250565b7f4f776e61626c653a206e6577206f776e657220697320746865207a65726f206160008201527f6464726573730000000000000000000000000000000000000000000000000000602082015250565b7f546f6b656e20756e617661696c61626c6520696e204445580000000000000000600082015250565b7f496e73756666696369656e742046756e64730000000000000000000000000000600082015250565b7f4e6f74204f776e65720000000000000000000000000000000000000000000000600082015250565b7f546f6b656e20616c726561647920766572696669656400000000000000000000600082015250565b7f4f776e61626c653a2063616c6c6572206973206e6f7420746865206f776e6572600082015250565b6002811061381d5761381c613635565b5b50565b61382981613550565b811461383457600080fd5b50565b61384081613562565b811461384b57600080fd5b50565b6002811061385b57600080fd5b50565b613867816135a1565b811461387257600080fd5b5056fea26469706673582212205bef009690f3f911eeed0469c0bb2d28d85609e3b44b00c4eac8fb6a2231472764736f6c63430008070033",
  "linkReferences": {},
  "deployedLinkReferences": {}
}