{
  "_format": "hh-sol-artifact-1",
  "contractName": "Exchange",
  "sourceName": "contracts/Exchange.sol",
  "abi": [
    {
      "inputs": [
        {
          "internalType": "address",
          "name": "_wallet",
          "type": "address"
        },
        {
          "internalType": "address",
          "name": "_fees",
          "type": "address"
        },
        {
          "internalType": "address",
          "name": "_priceChecker",
          "type": "address"
        }
      ],
      "stateMutability": "nonpayable",
      "type": "constructor"
    },
    {
      "anonymous": false,
      "inputs": [
        {
          "indexed": false,
          "internalType": "uint256",
          "name": "id",
          "type": "uint256"
        },
        {
          "indexed": false,
          "internalType": "enum Exchange.Side",
          "name": "side",
          "type": "uint8"
        },
        {
          "indexed": false,
          "internalType": "address",
          "name": "user",
          "type": "address"
        },
        {
          "indexed": false,
          "internalType": "address",
          "name": "tokenA",
          "type": "address"
        },
        {
          "indexed": false,
          "internalType": "uint256",
          "name": "amountA",
          "type": "uint256"
        },
        {
          "indexed": false,
          "internalType": "address",
          "name": "tokenB",
          "type": "address"
        },
        {
          "indexed": false,
          "internalType": "uint256",
          "name": "amountB",
          "type": "uint256"
        },
        {
          "indexed": false,
          "internalType": "uint256",
          "name": "rate",
          "type": "uint256"
        },
        {
          "indexed": false,
          "internalType": "uint256",
          "name": "originalAmountA",
          "type": "uint256"
        },
        {
          "indexed": false,
          "internalType": "uint256",
          "name": "originalAmountB",
          "type": "uint256"
        },
        {
          "indexed": false,
          "internalType": "bool",
          "name": "waiveFees",
          "type": "bool"
        }
      ],
      "name": "Cancel",
      "type": "event"
    },
    {
      "anonymous": false,
      "inputs": [
        {
          "indexed": false,
          "internalType": "uint256",
          "name": "id",
          "type": "uint256"
        },
        {
          "indexed": false,
          "internalType": "enum Exchange.Side",
          "name": "side",
          "type": "uint8"
        },
        {
          "indexed": false,
          "internalType": "address",
          "name": "user",
          "type": "address"
        },
        {
          "indexed": false,
          "internalType": "address",
          "name": "tokenA",
          "type": "address"
        },
        {
          "indexed": false,
          "internalType": "uint256",
          "name": "amountA",
          "type": "uint256"
        },
        {
          "indexed": false,
          "internalType": "address",
          "name": "tokenB",
          "type": "address"
        },
        {
          "indexed": false,
          "internalType": "uint256",
          "name": "amountB",
          "type": "uint256"
        },
        {
          "indexed": false,
          "internalType": "uint256",
          "name": "rate",
          "type": "uint256"
        },
        {
          "indexed": false,
          "internalType": "uint256",
          "name": "originalAmountA",
          "type": "uint256"
        },
        {
          "indexed": false,
          "internalType": "uint256",
          "name": "originalAmountB",
          "type": "uint256"
        },
        {
          "indexed": false,
          "internalType": "bool",
          "name": "waiveFees",
          "type": "bool"
        }
      ],
      "name": "Order",
      "type": "event"
    },
    {
      "anonymous": false,
      "inputs": [
        {
          "indexed": true,
          "internalType": "address",
          "name": "previousOwner",
          "type": "address"
        },
        {
          "indexed": true,
          "internalType": "address",
          "name": "newOwner",
          "type": "address"
        }
      ],
      "name": "OwnershipTransferred",
      "type": "event"
    },
    {
      "anonymous": false,
      "inputs": [
        {
          "indexed": false,
          "internalType": "uint256",
          "name": "id",
          "type": "uint256"
        },
        {
          "indexed": false,
          "internalType": "enum Exchange.Side",
          "name": "side",
          "type": "uint8"
        },
        {
          "indexed": false,
          "internalType": "address",
          "name": "user",
          "type": "address"
        },
        {
          "indexed": false,
          "internalType": "address",
          "name": "tokenA",
          "type": "address"
        },
        {
          "indexed": false,
          "internalType": "address",
          "name": "tokenB",
          "type": "address"
        },
        {
          "indexed": false,
          "internalType": "uint256",
          "name": "amountFilled",
          "type": "uint256"
        },
        {
          "indexed": false,
          "internalType": "uint256",
          "name": "fillRate",
          "type": "uint256"
        },
        {
          "indexed": false,
          "internalType": "uint256",
          "name": "originalRate",
          "type": "uint256"
        },
        {
          "indexed": false,
          "internalType": "uint256",
          "name": "originalAmountA",
          "type": "uint256"
        },
        {
          "indexed": false,
          "internalType": "uint256",
          "name": "originalAmountB",
          "type": "uint256"
        },
        {
          "indexed": false,
          "internalType": "bool",
          "name": "feesWaived",
          "type": "bool"
        },
        {
          "indexed": false,
          "internalType": "uint256",
          "name": "feesPaid",
          "type": "uint256"
        }
      ],
      "name": "filledOrder",
      "type": "event"
    },
    {
      "inputs": [
        {
          "internalType": "address",
          "name": "_token",
          "type": "address"
        },
        {
          "internalType": "uint256",
          "name": "_decimals",
          "type": "uint256"
        }
      ],
      "name": "addToken",
      "outputs": [],
      "stateMutability": "nonpayable",
      "type": "function"
    },
    {
      "inputs": [
        {
          "internalType": "enum Exchange.Side",
          "name": "side",
          "type": "uint8"
        },
        {
          "internalType": "uint256",
          "name": "_id",
          "type": "uint256"
        },
        {
          "internalType": "address",
          "name": "_tokenA",
          "type": "address"
        },
        {
          "internalType": "address",
          "name": "_tokenB",
          "type": "address"
        }
      ],
      "name": "cancelOrder",
      "outputs": [],
      "stateMutability": "nonpayable",
      "type": "function"
    },
    {
      "inputs": [
        {
          "internalType": "address",
          "name": "_tokenA",
          "type": "address"
        },
        {
          "internalType": "uint256",
          "name": "_amountA",
          "type": "uint256"
        },
        {
          "internalType": "address",
          "name": "_tokenB",
          "type": "address"
        },
        {
          "internalType": "uint256",
          "name": "_amountB",
          "type": "uint256"
        },
        {
          "internalType": "uint256",
          "name": "_rate",
          "type": "uint256"
        },
        {
          "internalType": "bool",
          "name": "_waiveFees",
          "type": "bool"
        }
      ],
      "name": "createLimitBuyOrder",
      "outputs": [],
      "stateMutability": "nonpayable",
      "type": "function"
    },
    {
      "inputs": [
        {
          "internalType": "address",
          "name": "_tokenA",
          "type": "address"
        },
        {
          "internalType": "uint256",
          "name": "_amountA",
          "type": "uint256"
        },
        {
          "internalType": "address",
          "name": "_tokenB",
          "type": "address"
        },
        {
          "internalType": "uint256",
          "name": "_amountB",
          "type": "uint256"
        },
        {
          "internalType": "uint256",
          "name": "_rate",
          "type": "uint256"
        },
        {
          "internalType": "bool",
          "name": "_waiveFees",
          "type": "bool"
        }
      ],
      "name": "createLimitSellOrder",
      "outputs": [],
      "stateMutability": "nonpayable",
      "type": "function"
    },
    {
      "inputs": [],
      "name": "ethToken",
      "outputs": [
        {
          "internalType": "address",
          "name": "",
          "type": "address"
        }
      ],
      "stateMutability": "view",
      "type": "function"
    },
    {
      "inputs": [
        {
          "internalType": "address",
          "name": "_user",
          "type": "address"
        },
        {
          "internalType": "enum Exchange.Side",
          "name": "side",
          "type": "uint8"
        },
        {
          "internalType": "uint256",
          "name": "index",
          "type": "uint256"
        }
      ],
      "name": "getFilledOrder",
      "outputs": [
        {
          "components": [
            {
              "internalType": "uint256",
              "name": "id",
              "type": "uint256"
            },
            {
              "internalType": "enum Exchange.Side",
              "name": "side",
              "type": "uint8"
            },
            {
              "internalType": "address",
              "name": "user",
              "type": "address"
            },
            {
              "internalType": "address",
              "name": "tokenA",
              "type": "address"
            },
            {
              "internalType": "address",
              "name": "tokenB",
              "type": "address"
            },
            {
              "internalType": "uint256",
              "name": "amountFilled",
              "type": "uint256"
            },
            {
              "internalType": "uint256",
              "name": "fillRate",
              "type": "uint256"
            },
            {
              "internalType": "uint256",
              "name": "originalRate",
              "type": "uint256"
            },
            {
              "internalType": "uint256",
              "name": "originalAmountA",
              "type": "uint256"
            },
            {
              "internalType": "uint256",
              "name": "originalAmountB",
              "type": "uint256"
            },
            {
              "internalType": "bool",
              "name": "feesWaived",
              "type": "bool"
            },
            {
              "internalType": "uint256",
              "name": "feesPaid",
              "type": "uint256"
            }
          ],
          "internalType": "struct Exchange._filledOrder",
          "name": "",
          "type": "tuple"
        }
      ],
      "stateMutability": "view",
      "type": "function"
    },
    {
      "inputs": [
        {
          "internalType": "address",
          "name": "_user",
          "type": "address"
        },
        {
          "internalType": "enum Exchange.Side",
          "name": "side",
          "type": "uint8"
        }
      ],
      "name": "getFilledOrderLength",
      "outputs": [
        {
          "internalType": "uint256",
          "name": "",
          "type": "uint256"
        }
      ],
      "stateMutability": "view",
      "type": "function"
    },
    {
      "inputs": [
        {
          "internalType": "address",
          "name": "_tokenA",
          "type": "address"
        },
        {
          "internalType": "address",
          "name": "_tokenB",
          "type": "address"
        },
        {
          "internalType": "uint256",
          "name": "index",
          "type": "uint256"
        },
        {
          "internalType": "enum Exchange.Side",
          "name": "side",
          "type": "uint8"
        }
      ],
      "name": "getOrder",
      "outputs": [
        {
          "components": [
            {
              "internalType": "uint256",
              "name": "id",
              "type": "uint256"
            },
            {
              "internalType": "enum Exchange.Side",
              "name": "side",
              "type": "uint8"
            },
            {
              "internalType": "address",
              "name": "user",
              "type": "address"
            },
            {
              "internalType": "address",
              "name": "tokenA",
              "type": "address"
            },
            {
              "internalType": "uint256",
              "name": "amountA",
              "type": "uint256"
            },
            {
              "internalType": "address",
              "name": "tokenB",
              "type": "address"
            },
            {
              "internalType": "uint256",
              "name": "amountB",
              "type": "uint256"
            },
            {
              "internalType": "uint256",
              "name": "rate",
              "type": "uint256"
            },
            {
              "internalType": "uint256",
              "name": "originalAmountA",
              "type": "uint256"
            },
            {
              "internalType": "uint256",
              "name": "originalAmountB",
              "type": "uint256"
            },
            {
              "internalType": "bool",
              "name": "waiveFees",
              "type": "bool"
            }
          ],
          "internalType": "struct Exchange._Order",
          "name": "",
          "type": "tuple"
        }
      ],
      "stateMutability": "view",
      "type": "function"
    },
    {
      "inputs": [
        {
          "internalType": "address",
          "name": "_tokenA",
          "type": "address"
        },
        {
          "internalType": "address",
          "name": "_tokenB",
          "type": "address"
        },
        {
          "internalType": "uint256",
          "name": "side",
          "type": "uint256"
        },
        {
          "internalType": "uint256",
          "name": "_id",
          "type": "uint256"
        }
      ],
      "name": "getOrderFromArray",
      "outputs": [
        {
          "components": [
            {
              "internalType": "uint256",
              "name": "id",
              "type": "uint256"
            },
            {
              "internalType": "enum Exchange.Side",
              "name": "side",
              "type": "uint8"
            },
            {
              "internalType": "address",
              "name": "user",
              "type": "address"
            },
            {
              "internalType": "address",
              "name": "tokenA",
              "type": "address"
            },
            {
              "internalType": "uint256",
              "name": "amountA",
              "type": "uint256"
            },
            {
              "internalType": "address",
              "name": "tokenB",
              "type": "address"
            },
            {
              "internalType": "uint256",
              "name": "amountB",
              "type": "uint256"
            },
            {
              "internalType": "uint256",
              "name": "rate",
              "type": "uint256"
            },
            {
              "internalType": "uint256",
              "name": "originalAmountA",
              "type": "uint256"
            },
            {
              "internalType": "uint256",
              "name": "originalAmountB",
              "type": "uint256"
            },
            {
              "internalType": "bool",
              "name": "waiveFees",
              "type": "bool"
            }
          ],
          "internalType": "struct Exchange._Order",
          "name": "",
          "type": "tuple"
        },
        {
          "internalType": "uint256",
          "name": "",
          "type": "uint256"
        }
      ],
      "stateMutability": "view",
      "type": "function"
    },
    {
      "inputs": [
        {
          "internalType": "enum Exchange.Side",
          "name": "side",
          "type": "uint8"
        },
        {
          "internalType": "address",
          "name": "_tokenA",
          "type": "address"
        },
        {
          "internalType": "address",
          "name": "_tokenB",
          "type": "address"
        }
      ],
      "name": "getOrderLength",
      "outputs": [
        {
          "internalType": "uint256",
          "name": "",
          "type": "uint256"
        }
      ],
      "stateMutability": "view",
      "type": "function"
    },
    {
      "inputs": [
        {
          "internalType": "address",
          "name": "_token",
          "type": "address"
        }
      ],
      "name": "getTokenInfo",
      "outputs": [
        {
          "internalType": "uint256",
          "name": "",
          "type": "uint256"
        }
      ],
      "stateMutability": "view",
      "type": "function"
    },
    {
      "inputs": [
        {
          "internalType": "address",
          "name": "_token",
          "type": "address"
        }
      ],
      "name": "isVerifiedToken",
      "outputs": [
        {
          "internalType": "bool",
          "name": "",
          "type": "bool"
        }
      ],
      "stateMutability": "view",
      "type": "function"
    },
    {
      "inputs": [
        {
          "internalType": "uint256",
          "name": "_id",
          "type": "uint256"
        },
        {
          "internalType": "enum Exchange.Side",
          "name": "side",
          "type": "uint8"
        },
        {
          "internalType": "address",
          "name": "_tokenA",
          "type": "address"
        },
        {
          "internalType": "address",
          "name": "_tokenB",
          "type": "address"
        }
      ],
      "name": "orderExists",
      "outputs": [
        {
          "internalType": "bool",
          "name": "",
          "type": "bool"
        }
      ],
      "stateMutability": "view",
      "type": "function"
    },
    {
      "inputs": [],
      "name": "orderStruct",
      "outputs": [
        {
          "internalType": "uint256",
          "name": "id",
          "type": "uint256"
        },
        {
          "internalType": "enum Exchange.Side",
          "name": "side",
          "type": "uint8"
        },
        {
          "internalType": "address",
          "name": "user",
          "type": "address"
        },
        {
          "internalType": "address",
          "name": "tokenA",
          "type": "address"
        },
        {
          "internalType": "uint256",
          "name": "amountA",
          "type": "uint256"
        },
        {
          "internalType": "address",
          "name": "tokenB",
          "type": "address"
        },
        {
          "internalType": "uint256",
          "name": "amountB",
          "type": "uint256"
        },
        {
          "internalType": "uint256",
          "name": "rate",
          "type": "uint256"
        },
        {
          "internalType": "uint256",
          "name": "originalAmountA",
          "type": "uint256"
        },
        {
          "internalType": "uint256",
          "name": "originalAmountB",
          "type": "uint256"
        },
        {
          "internalType": "bool",
          "name": "waiveFees",
          "type": "bool"
        }
      ],
      "stateMutability": "view",
      "type": "function"
    },
    {
      "inputs": [],
      "name": "owner",
      "outputs": [
        {
          "internalType": "address",
          "name": "",
          "type": "address"
        }
      ],
      "stateMutability": "view",
      "type": "function"
    },
    {
      "inputs": [],
      "name": "renounceOwnership",
      "outputs": [],
      "stateMutability": "nonpayable",
      "type": "function"
    },
    {
      "inputs": [
        {
          "internalType": "address",
          "name": "",
          "type": "address"
        },
        {
          "internalType": "uint256",
          "name": "",
          "type": "uint256"
        },
        {
          "internalType": "uint256",
          "name": "",
          "type": "uint256"
        }
      ],
      "name": "s_filledOrders",
      "outputs": [
        {
          "internalType": "uint256",
          "name": "id",
          "type": "uint256"
        },
        {
          "internalType": "enum Exchange.Side",
          "name": "side",
          "type": "uint8"
        },
        {
          "internalType": "address",
          "name": "user",
          "type": "address"
        },
        {
          "internalType": "address",
          "name": "tokenA",
          "type": "address"
        },
        {
          "internalType": "address",
          "name": "tokenB",
          "type": "address"
        },
        {
          "internalType": "uint256",
          "name": "amountFilled",
          "type": "uint256"
        },
        {
          "internalType": "uint256",
          "name": "fillRate",
          "type": "uint256"
        },
        {
          "internalType": "uint256",
          "name": "originalRate",
          "type": "uint256"
        },
        {
          "internalType": "uint256",
          "name": "originalAmountA",
          "type": "uint256"
        },
        {
          "internalType": "uint256",
          "name": "originalAmountB",
          "type": "uint256"
        },
        {
          "internalType": "bool",
          "name": "feesWaived",
          "type": "bool"
        },
        {
          "internalType": "uint256",
          "name": "feesPaid",
          "type": "uint256"
        }
      ],
      "stateMutability": "view",
      "type": "function"
    },
    {
      "inputs": [
        {
          "internalType": "address",
          "name": "",
          "type": "address"
        },
        {
          "internalType": "address",
          "name": "",
          "type": "address"
        },
        {
          "internalType": "uint256",
          "name": "",
          "type": "uint256"
        },
        {
          "internalType": "uint256",
          "name": "",
          "type": "uint256"
        }
      ],
      "name": "s_orderBook",
      "outputs": [
        {
          "internalType": "uint256",
          "name": "id",
          "type": "uint256"
        },
        {
          "internalType": "enum Exchange.Side",
          "name": "side",
          "type": "uint8"
        },
        {
          "internalType": "address",
          "name": "user",
          "type": "address"
        },
        {
          "internalType": "address",
          "name": "tokenA",
          "type": "address"
        },
        {
          "internalType": "uint256",
          "name": "amountA",
          "type": "uint256"
        },
        {
          "internalType": "address",
          "name": "tokenB",
          "type": "address"
        },
        {
          "internalType": "uint256",
          "name": "amountB",
          "type": "uint256"
        },
        {
          "internalType": "uint256",
          "name": "rate",
          "type": "uint256"
        },
        {
          "internalType": "uint256",
          "name": "originalAmountA",
          "type": "uint256"
        },
        {
          "internalType": "uint256",
          "name": "originalAmountB",
          "type": "uint256"
        },
        {
          "internalType": "bool",
          "name": "waiveFees",
          "type": "bool"
        }
      ],
      "stateMutability": "view",
      "type": "function"
    },
    {
      "inputs": [],
      "name": "s_orderId",
      "outputs": [
        {
          "internalType": "uint256",
          "name": "",
          "type": "uint256"
        }
      ],
      "stateMutability": "view",
      "type": "function"
    },
    {
      "inputs": [
        {
          "internalType": "bool",
          "name": "_isManual",
          "type": "bool"
        }
      ],
      "name": "setManual",
      "outputs": [],
      "stateMutability": "nonpayable",
      "type": "function"
    },
    {
      "inputs": [
        {
          "internalType": "address",
          "name": "_PriceCheckeraddress",
          "type": "address"
        }
      ],
      "name": "setPriceCheckerAddress",
      "outputs": [],
      "stateMutability": "nonpayable",
      "type": "function"
    },
    {
      "inputs": [
        {
          "internalType": "address",
          "name": "_tradingFees",
          "type": "address"
        }
      ],
      "name": "setTradingFees",
      "outputs": [],
      "stateMutability": "nonpayable",
      "type": "function"
    },
    {
      "inputs": [
        {
          "internalType": "address",
          "name": "_Walletaddress",
          "type": "address"
        }
      ],
      "name": "setWalletAddress",
      "outputs": [],
      "stateMutability": "nonpayable",
      "type": "function"
    },
    {
      "inputs": [
        {
          "internalType": "uint256",
          "name": "",
          "type": "uint256"
        }
      ],
      "name": "tokenList",
      "outputs": [
        {
          "internalType": "address",
          "name": "add",
          "type": "address"
        },
        {
          "internalType": "uint256",
          "name": "decimals",
          "type": "uint256"
        }
      ],
      "stateMutability": "view",
      "type": "function"
    },
    {
      "inputs": [
        {
          "internalType": "address",
          "name": "newOwner",
          "type": "address"
        }
      ],
      "name": "transferOwnership",
      "outputs": [],
      "stateMutability": "nonpayable",
      "type": "function"
    },
    {
      "inputs": [
        {
          "components": [
            {
              "internalType": "uint256",
              "name": "id",
              "type": "uint256"
            },
            {
              "internalType": "enum Exchange.Side",
              "name": "side",
              "type": "uint8"
            },
            {
              "internalType": "address",
              "name": "user",
              "type": "address"
            },
            {
              "internalType": "address",
              "name": "tokenA",
              "type": "address"
            },
            {
              "internalType": "address",
              "name": "tokenB",
              "type": "address"
            },
            {
              "internalType": "uint256",
              "name": "amountFilled",
              "type": "uint256"
            },
            {
              "internalType": "uint256",
              "name": "fillRate",
              "type": "uint256"
            },
            {
              "internalType": "uint256",
              "name": "originalRate",
              "type": "uint256"
            },
            {
              "internalType": "uint256",
              "name": "originalAmountA",
              "type": "uint256"
            },
            {
              "internalType": "uint256",
              "name": "originalAmountB",
              "type": "uint256"
            },
            {
              "internalType": "bool",
              "name": "feesWaived",
              "type": "bool"
            },
            {
              "internalType": "uint256",
              "name": "feesPaid",
              "type": "uint256"
            }
          ],
          "internalType": "struct Exchange._filledOrder",
          "name": "order",
          "type": "tuple"
        },
        {
          "internalType": "uint256",
          "name": "_side",
          "type": "uint256"
        }
      ],
      "name": "updateFilledOrders",
      "outputs": [],
      "stateMutability": "nonpayable",
      "type": "function"
    },
    {
      "inputs": [
        {
          "components": [
            {
              "internalType": "uint256",
              "name": "id",
              "type": "uint256"
            },
            {
              "internalType": "enum Exchange.Side",
              "name": "side",
              "type": "uint8"
            },
            {
              "internalType": "address",
              "name": "user",
              "type": "address"
            },
            {
              "internalType": "address",
              "name": "tokenA",
              "type": "address"
            },
            {
              "internalType": "uint256",
              "name": "amountA",
              "type": "uint256"
            },
            {
              "internalType": "address",
              "name": "tokenB",
              "type": "address"
            },
            {
              "internalType": "uint256",
              "name": "amountB",
              "type": "uint256"
            },
            {
              "internalType": "uint256",
              "name": "rate",
              "type": "uint256"
            },
            {
              "internalType": "uint256",
              "name": "originalAmountA",
              "type": "uint256"
            },
            {
              "internalType": "uint256",
              "name": "originalAmountB",
              "type": "uint256"
            },
            {
              "internalType": "bool",
              "name": "waiveFees",
              "type": "bool"
            }
          ],
          "internalType": "struct Exchange._Order",
          "name": "order",
          "type": "tuple"
        },
        {
          "internalType": "uint256",
          "name": "_amountA",
          "type": "uint256"
        },
        {
          "internalType": "uint256",
          "name": "_amountB",
          "type": "uint256"
        },
        {
          "internalType": "uint256",
          "name": "_index",
          "type": "uint256"
        }
      ],
      "name": "updateOrder",
      "outputs": [],
      "stateMutability": "nonpayable",
      "type": "function"
    }
  ],
  "bytecode": "0x6080604052670de0b6b3a76400006004556000600560006101000a81548173ffffffffffffffffffffffffffffffffffffffff021916908373ffffffffffffffffffffffffffffffffffffffff16021790555060006009556001600a60006101000a81548160ff0219169083151502179055503480156200007f57600080fd5b5060405162005817380380620058178339818101604052810190620000a5919062000274565b620000c5620000b96200019160201b60201c565b6200019960201b60201c565b82600360006101000a81548173ffffffffffffffffffffffffffffffffffffffff021916908373ffffffffffffffffffffffffffffffffffffffff16021790555081600260006101000a81548173ffffffffffffffffffffffffffffffffffffffff021916908373ffffffffffffffffffffffffffffffffffffffff16021790555080600160006101000a81548173ffffffffffffffffffffffffffffffffffffffff021916908373ffffffffffffffffffffffffffffffffffffffff16021790555050505062000323565b600033905090565b60008060009054906101000a900473ffffffffffffffffffffffffffffffffffffffff169050816000806101000a81548173ffffffffffffffffffffffffffffffffffffffff021916908373ffffffffffffffffffffffffffffffffffffffff1602179055508173ffffffffffffffffffffffffffffffffffffffff168173ffffffffffffffffffffffffffffffffffffffff167f8be0079c531659141344cd1fd0a4f28419497f9722a3daafe3b4186f6b6457e060405160405180910390a35050565b6000815190506200026e8162000309565b92915050565b60008060006060848603121562000290576200028f62000304565b5b6000620002a0868287016200025d565b9350506020620002b3868287016200025d565b9250506040620002c6868287016200025d565b9150509250925092565b6000620002dd82620002e4565b9050919050565b600073ffffffffffffffffffffffffffffffffffffffff82169050919050565b600080fd5b6200031481620002d0565b81146200032057600080fd5b50565b6154e480620003336000396000f3fe608060405234801561001057600080fd5b50600436106101a95760003560e01c80639c07ce26116100f9578063dafbfe6a11610097578063f2fde38b11610071578063f2fde38b14610525578063f90ef4f214610541578063fb310c9b1461055d578063ff09cdfa14610579576101a9565b8063dafbfe6a1461049f578063e4c3c7cd146104bb578063ea42f349146104f5576101a9565b8063af81c5b9116100d3578063af81c5b9146103fc578063b136e39a14610418578063bd8098ec14610434578063c3364be41461046f576101a9565b80639c07ce26146103915780639ead7222146103af578063ac1a386a146103e0576101a9565b806362c09cfa116101665780637bf1a627116101405780637bf1a627146102f45780638da5cb5b146103125780638f101b0e1461033057806392e43d3a14610360576101a9565b806362c09cfa146102b25780636f4e410b146102ce578063715018a6146102ea576101a9565b80630af4e4f0146101ae5780631027b219146101ca57806314eca9dc146101fa5780631cb67fb31461022a5780631f69565f14610252578063429d24b214610282575b600080fd5b6101c860048036038101906101c391906146cc565b610595565b005b6101e460048036038101906101df91906142cc565b610809565b6040516101f19190614c51565b60405180910390f35b610214600480360381019061020f91906145a7565b6108bf565b6040516102219190614e2f565b60405180910390f35b61023261096d565b6040516102499b9a99989796959493929190614f04565b60405180910390f35b61026c600480360381019061026791906142cc565b610a2f565b6040516102799190614e2f565b60405180910390f35b61029c60048036038101906102979190614768565b610b3f565b6040516102a99190614c51565b60405180910390f35b6102cc60048036038101906102c7919061449a565b610e2d565b005b6102e860048036038101906102e3919061449a565b611447565b005b6102f2611a60565b005b6102fc611a74565b6040516103099190614b9f565b60405180910390f35b61031a611a9a565b6040516103279190614b9f565b60405180910390f35b61034a60048036038101906103459190614407565b611ac3565b6040516103579190614e13565b60405180910390f35b61037a60048036038101906103759190614360565b611d00565b604051610388929190614de8565b60405180910390f35b610399612112565b6040516103a69190614e2f565b60405180910390f35b6103c960048036038101906103c4919061470e565b612118565b6040516103d7929190614c28565b60405180910390f35b6103fa60048036038101906103f591906142cc565b61216c565b005b6104166004803603810190610411919061445a565b6121b8565b005b610432600480360381019061042d91906142cc565b6122b6565b005b61044e60048036038101906104499190614527565b612302565b6040516104669c9b9a99989796959493929190614e4a565b60405180910390f35b610489600480360381019061048491906143c7565b612406565b6040516104969190614e2f565b60405180910390f35b6104b960048036038101906104b491906142cc565b612476565b005b6104d560048036038101906104d09190614360565b6124c2565b6040516104ec9b9a99989796959493929190614f04565b60405180910390f35b61050f600480360381019061050a91906142f9565b6125cd565b60405161051c9190614dcc565b60405180910390f35b61053f600480360381019061053a91906142cc565b612844565b005b61055b600480360381019061055691906145fa565b6128c8565b005b61057760048036038101906105729190614661565b61341d565b005b610593600480360381019061058e919061457a565b6139cf565b005b60086000836040015173ffffffffffffffffffffffffffffffffffffffff1673ffffffffffffffffffffffffffffffffffffffff16815260200190815260200160002060008281526020019081526020016000208290806001815401808255809150506001900390600052602060002090600b02016000909190919091506000820151816000015560208201518160010160006101000a81548160ff0219169083600181111561064857610647615185565b5b021790555060408201518160010160016101000a81548173ffffffffffffffffffffffffffffffffffffffff021916908373ffffffffffffffffffffffffffffffffffffffff16021790555060608201518160020160006101000a81548173ffffffffffffffffffffffffffffffffffffffff021916908373ffffffffffffffffffffffffffffffffffffffff16021790555060808201518160030160006101000a81548173ffffffffffffffffffffffffffffffffffffffff021916908373ffffffffffffffffffffffffffffffffffffffff16021790555060a0820151816004015560c0820151816005015560e08201518160060155610100820151816007015561012082015181600801556101408201518160090160006101000a81548160ff02191690831515021790555061016082015181600a015550507f78f8097f697fc6b58d127f987a03e83de8076bdc75199661d49326415098d60a826000015183602001518460400151856060015186608001518760a001518860c001518960e001518a61010001518b61012001518c61014001518d61016001516040516107fd9c9b9a99989796959493929190614e4a565b60405180910390a15050565b600080600090505b6006805490508110156108b4578273ffffffffffffffffffffffffffffffffffffffff1660068281548110610849576108486151e3565b5b906000526020600020906002020160000160009054906101000a900473ffffffffffffffffffffffffffffffffffffffff1673ffffffffffffffffffffffffffffffffffffffff1614156108a15760019150506108ba565b80806108ac9061510d565b915050610811565b50600090505b919050565b6000600760008473ffffffffffffffffffffffffffffffffffffffff1673ffffffffffffffffffffffffffffffffffffffff16815260200190815260200160002060008373ffffffffffffffffffffffffffffffffffffffff1673ffffffffffffffffffffffffffffffffffffffff168152602001908152602001600020600085600181111561095257610951615185565b5b81526020019081526020016000208054905090509392505050565b600b8060000154908060010160009054906101000a900460ff16908060010160019054906101000a900473ffffffffffffffffffffffffffffffffffffffff16908060020160009054906101000a900473ffffffffffffffffffffffffffffffffffffffff16908060030154908060040160009054906101000a900473ffffffffffffffffffffffffffffffffffffffff16908060050154908060060154908060070154908060080154908060090160009054906101000a900460ff1690508b565b600080600090505b600680549050811015610afe578273ffffffffffffffffffffffffffffffffffffffff1660068281548110610a6f57610a6e6151e3565b5b906000526020600020906002020160000160009054906101000a900473ffffffffffffffffffffffffffffffffffffffff1673ffffffffffffffffffffffffffffffffffffffff161415610aeb5760068181548110610ad157610ad06151e3565b5b906000526020600020906002020160010154915050610b3a565b8080610af69061510d565b915050610a37565b506040517f08c379a0000000000000000000000000000000000000000000000000000000008152600401610b3190614d6c565b60405180910390fd5b919050565b600080600760008573ffffffffffffffffffffffffffffffffffffffff1673ffffffffffffffffffffffffffffffffffffffff16815260200190815260200160002060008473ffffffffffffffffffffffffffffffffffffffff1673ffffffffffffffffffffffffffffffffffffffff1681526020019081526020016000206000866001811115610bd357610bd2615185565b5b8152602001908152602001600020805480602002602001604051908101604052809291908181526020016000905b82821015610dc857838290600052602060002090600a020160405180610160016040529081600082015481526020016001820160009054906101000a900460ff166001811115610c5457610c53615185565b5b6001811115610c6657610c65615185565b5b81526020016001820160019054906101000a900473ffffffffffffffffffffffffffffffffffffffff1673ffffffffffffffffffffffffffffffffffffffff1673ffffffffffffffffffffffffffffffffffffffff1681526020016002820160009054906101000a900473ffffffffffffffffffffffffffffffffffffffff1673ffffffffffffffffffffffffffffffffffffffff1673ffffffffffffffffffffffffffffffffffffffff168152602001600382015481526020016004820160009054906101000a900473ffffffffffffffffffffffffffffffffffffffff1673ffffffffffffffffffffffffffffffffffffffff1673ffffffffffffffffffffffffffffffffffffffff168152602001600582015481526020016006820154815260200160078201548152602001600882015481526020016009820160009054906101000a900460ff16151515158152505081526020019060010190610c01565b50505050905060005b8151811015610e1e5786828281518110610dee57610ded6151e3565b5b6020026020010151600001511415610e0b57600192505050610e25565b8080610e169061510d565b915050610dd1565b5060009150505b949350505050565b85610e3781610809565b610e76576040517f08c379a0000000000000000000000000000000000000000000000000000000008152600401610e6d90614ccc565b60405180910390fd5b84610e8081610809565b610ebf576040517f08c379a0000000000000000000000000000000000000000000000000000000008152600401610eb690614ccc565b60405180910390fd5b8461102b600360009054906101000a900473ffffffffffffffffffffffffffffffffffffffff1673ffffffffffffffffffffffffffffffffffffffff16634fc121db338a6040518363ffffffff1660e01b8152600401610f20929190614bba565b60206040518083038186803b158015610f3857600080fd5b505afa158015610f4c573d6000803e3d6000fd5b505050506040513d601f19601f82011682018060405250810190610f70919061473b565b600360009054906101000a900473ffffffffffffffffffffffffffffffffffffffff1673ffffffffffffffffffffffffffffffffffffffff1663f7888aec8a336040518363ffffffff1660e01b8152600401610fcd929190614bba565b60206040518083038186803b158015610fe557600080fd5b505afa158015610ff9573d6000803e3d6000fd5b505050506040513d601f19601f8201168201806040525081019061101d919061473b565b613a4190919063ffffffff16565b101561106c576040517f08c379a000000000000000000000000000000000000000000000000000000000815260040161106390614cec565b60405180910390fd5b600360009054906101000a900473ffffffffffffffffffffffffffffffffffffffff1673ffffffffffffffffffffffffffffffffffffffff1663fc11a3d633888860016040518563ffffffff1660e01b81526004016110ce9493929190614be3565b600060405180830381600087803b1580156110e857600080fd5b505af11580156110fc573d6000803e3d6000fd5b50505050600760008973ffffffffffffffffffffffffffffffffffffffff1673ffffffffffffffffffffffffffffffffffffffff16815260200190815260200160002060008773ffffffffffffffffffffffffffffffffffffffff1673ffffffffffffffffffffffffffffffffffffffff168152602001908152602001600020600080600181111561119157611190615185565b5b81526020019081526020016000206040518061016001604052806009548152602001600060018111156111c7576111c6615185565b5b81526020013373ffffffffffffffffffffffffffffffffffffffff1681526020018a73ffffffffffffffffffffffffffffffffffffffff1681526020018981526020018873ffffffffffffffffffffffffffffffffffffffff16815260200187815260200186815260200189815260200187815260200185151581525090806001815401808255809150506001900390600052602060002090600a02016000909190919091506000820151816000015560208201518160010160006101000a81548160ff021916908360018111156112a2576112a1615185565b5b021790555060408201518160010160016101000a81548173ffffffffffffffffffffffffffffffffffffffff021916908373ffffffffffffffffffffffffffffffffffffffff16021790555060608201518160020160006101000a81548173ffffffffffffffffffffffffffffffffffffffff021916908373ffffffffffffffffffffffffffffffffffffffff1602179055506080820151816003015560a08201518160040160006101000a81548173ffffffffffffffffffffffffffffffffffffffff021916908373ffffffffffffffffffffffffffffffffffffffff16021790555060c0820151816005015560e08201518160060155610100820151816007015561012082015181600801556101408201518160090160006101000a81548160ff02191690831515021790555050507fcb2df66a1a7db52683240584eca4355946d7b80a59dcb7707aa8dd95463ed7446009546000338b8b8b8b8b8f8e8d6040516114199b9a99989796959493929190614f04565b60405180910390a16114376001600954613a5790919063ffffffff16565b6009819055505050505050505050565b8561145181610809565b611490576040517f08c379a000000000000000000000000000000000000000000000000000000000815260040161148790614ccc565b60405180910390fd5b8461149a81610809565b6114d9576040517f08c379a00000000000000000000000000000000000000000000000000000000081526004016114d090614ccc565b60405180910390fd5b86611645600360009054906101000a900473ffffffffffffffffffffffffffffffffffffffff1673ffffffffffffffffffffffffffffffffffffffff16634fc121db338c6040518363ffffffff1660e01b815260040161153a929190614bba565b60206040518083038186803b15801561155257600080fd5b505afa158015611566573d6000803e3d6000fd5b505050506040513d601f19601f8201168201806040525081019061158a919061473b565b600360009054906101000a900473ffffffffffffffffffffffffffffffffffffffff1673ffffffffffffffffffffffffffffffffffffffff1663f7888aec8c336040518363ffffffff1660e01b81526004016115e7929190614bba565b60206040518083038186803b1580156115ff57600080fd5b505afa158015611613573d6000803e3d6000fd5b505050506040513d601f19601f82011682018060405250810190611637919061473b565b613a4190919063ffffffff16565b1015611686576040517f08c379a000000000000000000000000000000000000000000000000000000000815260040161167d90614cec565b60405180910390fd5b600360009054906101000a900473ffffffffffffffffffffffffffffffffffffffff1673ffffffffffffffffffffffffffffffffffffffff1663fc11a3d6338a8a60016040518563ffffffff1660e01b81526004016116e89493929190614be3565b600060405180830381600087803b15801561170257600080fd5b505af1158015611716573d6000803e3d6000fd5b50505050600760008973ffffffffffffffffffffffffffffffffffffffff1673ffffffffffffffffffffffffffffffffffffffff16815260200190815260200160002060008773ffffffffffffffffffffffffffffffffffffffff1673ffffffffffffffffffffffffffffffffffffffff16815260200190815260200160002060006001808111156117ab576117aa615185565b5b815260200190815260200160002060405180610160016040528060095481526020016001808111156117e0576117df615185565b5b81526020013373ffffffffffffffffffffffffffffffffffffffff1681526020018a73ffffffffffffffffffffffffffffffffffffffff1681526020018981526020018873ffffffffffffffffffffffffffffffffffffffff16815260200187815260200186815260200189815260200187815260200185151581525090806001815401808255809150506001900390600052602060002090600a02016000909190919091506000820151816000015560208201518160010160006101000a81548160ff021916908360018111156118bb576118ba615185565b5b021790555060408201518160010160016101000a81548173ffffffffffffffffffffffffffffffffffffffff021916908373ffffffffffffffffffffffffffffffffffffffff16021790555060608201518160020160006101000a81548173ffffffffffffffffffffffffffffffffffffffff021916908373ffffffffffffffffffffffffffffffffffffffff1602179055506080820151816003015560a08201518160040160006101000a81548173ffffffffffffffffffffffffffffffffffffffff021916908373ffffffffffffffffffffffffffffffffffffffff16021790555060c0820151816005015560e08201518160060155610100820151816007015561012082015181600801556101408201518160090160006101000a81548160ff02191690831515021790555050507fcb2df66a1a7db52683240584eca4355946d7b80a59dcb7707aa8dd95463ed7446009546001338b8b8b8b8b8f8e8d604051611a329b9a99989796959493929190614f04565b60405180910390a1611a506001600954613a5790919063ffffffff16565b6009819055505050505050505050565b611a68613a6d565b611a726000613aeb565b565b600560009054906101000a900473ffffffffffffffffffffffffffffffffffffffff1681565b60008060009054906101000a900473ffffffffffffffffffffffffffffffffffffffff16905090565b611acb613bb7565b600860008573ffffffffffffffffffffffffffffffffffffffff1673ffffffffffffffffffffffffffffffffffffffff1681526020019081526020016000206000846001811115611b1f57611b1e615185565b5b81526020019081526020016000208281548110611b3f57611b3e6151e3565b5b90600052602060002090600b020160405180610180016040529081600082015481526020016001820160009054906101000a900460ff166001811115611b8857611b87615185565b5b6001811115611b9a57611b99615185565b5b81526020016001820160019054906101000a900473ffffffffffffffffffffffffffffffffffffffff1673ffffffffffffffffffffffffffffffffffffffff1673ffffffffffffffffffffffffffffffffffffffff1681526020016002820160009054906101000a900473ffffffffffffffffffffffffffffffffffffffff1673ffffffffffffffffffffffffffffffffffffffff1673ffffffffffffffffffffffffffffffffffffffff1681526020016003820160009054906101000a900473ffffffffffffffffffffffffffffffffffffffff1673ffffffffffffffffffffffffffffffffffffffff1673ffffffffffffffffffffffffffffffffffffffff16815260200160048201548152602001600582015481526020016006820154815260200160078201548152602001600882015481526020016009820160009054906101000a900460ff16151515158152602001600a8201548152505090509392505050565b611d08613c6e565b600080600090505b600760008873ffffffffffffffffffffffffffffffffffffffff1673ffffffffffffffffffffffffffffffffffffffff16815260200190815260200160002060008773ffffffffffffffffffffffffffffffffffffffff1673ffffffffffffffffffffffffffffffffffffffff1681526020019081526020016000206000868152602001908152602001600020805490508110156120ce5783600760008973ffffffffffffffffffffffffffffffffffffffff1673ffffffffffffffffffffffffffffffffffffffff16815260200190815260200160002060008873ffffffffffffffffffffffffffffffffffffffff1673ffffffffffffffffffffffffffffffffffffffff16815260200190815260200160002060008781526020019081526020016000208281548110611e4857611e476151e3565b5b90600052602060002090600a02016000015414156120bb57600760008873ffffffffffffffffffffffffffffffffffffffff1673ffffffffffffffffffffffffffffffffffffffff16815260200190815260200160002060008773ffffffffffffffffffffffffffffffffffffffff1673ffffffffffffffffffffffffffffffffffffffff16815260200190815260200160002060008681526020019081526020016000208181548110611eff57611efe6151e3565b5b90600052602060002090600a0201818160405180610160016040529081600082015481526020016001820160009054906101000a900460ff166001811115611f4a57611f49615185565b5b6001811115611f5c57611f5b615185565b5b81526020016001820160019054906101000a900473ffffffffffffffffffffffffffffffffffffffff1673ffffffffffffffffffffffffffffffffffffffff1673ffffffffffffffffffffffffffffffffffffffff1681526020016002820160009054906101000a900473ffffffffffffffffffffffffffffffffffffffff1673ffffffffffffffffffffffffffffffffffffffff1673ffffffffffffffffffffffffffffffffffffffff168152602001600382015481526020016004820160009054906101000a900473ffffffffffffffffffffffffffffffffffffffff1673ffffffffffffffffffffffffffffffffffffffff1673ffffffffffffffffffffffffffffffffffffffff168152602001600582015481526020016006820154815260200160078201548152602001600882015481526020016009820160009054906101000a900460ff16151515158152505091509250925050612109565b80806120c69061510d565b915050611d10565b6040517f08c379a000000000000000000000000000000000000000000000000000000000815260040161210090614dac565b60405180910390fd5b94509492505050565b60095481565b6006818154811061212857600080fd5b90600052602060002090600202016000915090508060000160009054906101000a900473ffffffffffffffffffffffffffffffffffffffff16908060010154905082565b612174613a6d565b80600360006101000a81548173ffffffffffffffffffffffffffffffffffffffff021916908373ffffffffffffffffffffffffffffffffffffffff16021790555050565b6121c0613a6d565b6121c982610809565b15612209576040517f08c379a000000000000000000000000000000000000000000000000000000000815260040161220090614d2c565b60405180910390fd5b600660405180604001604052808473ffffffffffffffffffffffffffffffffffffffff16815260200183815250908060018154018082558091505060019003906000526020600020906002020160009091909190915060008201518160000160006101000a81548173ffffffffffffffffffffffffffffffffffffffff021916908373ffffffffffffffffffffffffffffffffffffffff1602179055506020820151816001015550505050565b6122be613a6d565b80600160006101000a81548173ffffffffffffffffffffffffffffffffffffffff021916908373ffffffffffffffffffffffffffffffffffffffff16021790555050565b6008602052826000526040600020602052816000526040600020818154811061232a57600080fd5b90600052602060002090600b020160009250925050508060000154908060010160009054906101000a900460ff16908060010160019054906101000a900473ffffffffffffffffffffffffffffffffffffffff16908060020160009054906101000a900473ffffffffffffffffffffffffffffffffffffffff16908060030160009054906101000a900473ffffffffffffffffffffffffffffffffffffffff16908060040154908060050154908060060154908060070154908060080154908060090160009054906101000a900460ff169080600a015490508c565b6000600860008473ffffffffffffffffffffffffffffffffffffffff1673ffffffffffffffffffffffffffffffffffffffff168152602001908152602001600020600083600181111561245c5761245b615185565b5b815260200190815260200160002080549050905092915050565b61247e613a6d565b80600260006101000a81548173ffffffffffffffffffffffffffffffffffffffff021916908373ffffffffffffffffffffffffffffffffffffffff16021790555050565b600760205283600052604060002060205282600052604060002060205281600052604060002081815481106124f657600080fd5b90600052602060002090600a02016000935093505050508060000154908060010160009054906101000a900460ff16908060010160019054906101000a900473ffffffffffffffffffffffffffffffffffffffff16908060020160009054906101000a900473ffffffffffffffffffffffffffffffffffffffff16908060030154908060040160009054906101000a900473ffffffffffffffffffffffffffffffffffffffff16908060050154908060060154908060070154908060080154908060090160009054906101000a900460ff1690508b565b6125d5613c6e565b6000600760008773ffffffffffffffffffffffffffffffffffffffff1673ffffffffffffffffffffffffffffffffffffffff16815260200190815260200160002060008673ffffffffffffffffffffffffffffffffffffffff1673ffffffffffffffffffffffffffffffffffffffff168152602001908152602001600020600084600181111561266857612667615185565b5b81526020019081526020016000208481548110612688576126876151e3565b5b90600052602060002090600a020160405180610160016040529081600082015481526020016001820160009054906101000a900460ff1660018111156126d1576126d0615185565b5b60018111156126e3576126e2615185565b5b81526020016001820160019054906101000a900473ffffffffffffffffffffffffffffffffffffffff1673ffffffffffffffffffffffffffffffffffffffff1673ffffffffffffffffffffffffffffffffffffffff1681526020016002820160009054906101000a900473ffffffffffffffffffffffffffffffffffffffff1673ffffffffffffffffffffffffffffffffffffffff1673ffffffffffffffffffffffffffffffffffffffff168152602001600382015481526020016004820160009054906101000a900473ffffffffffffffffffffffffffffffffffffffff1673ffffffffffffffffffffffffffffffffffffffff1673ffffffffffffffffffffffffffffffffffffffff168152602001600582015481526020016006820154815260200160078201548152602001600882015481526020016009820160009054906101000a900460ff161515151581525050905080915050949350505050565b61284c613a6d565b600073ffffffffffffffffffffffffffffffffffffffff168173ffffffffffffffffffffffffffffffffffffffff1614156128bc576040517f08c379a00000000000000000000000000000000000000000000000000000000081526004016128b390614cac565b60405180910390fd5b6128c581613aeb565b50565b828483836128d884848484610b3f565b612917576040517f08c379a000000000000000000000000000000000000000000000000000000000815260040161290e90614c6c565b60405180910390fd5b8561292181610809565b612960576040517f08c379a000000000000000000000000000000000000000000000000000000000815260040161295790614ccc565b60405180910390fd5b8561296a81610809565b6129a9576040517f08c379a00000000000000000000000000000000000000000000000000000000081526004016129a090614ccc565b60405180910390fd5b60008a60018111156129be576129bd615185565b5b90506000600760008b73ffffffffffffffffffffffffffffffffffffffff1673ffffffffffffffffffffffffffffffffffffffff16815260200190815260200160002060008a73ffffffffffffffffffffffffffffffffffffffff1673ffffffffffffffffffffffffffffffffffffffff16815260200190815260200160002060008381526020019081526020016000209050600081805490509050612a62613c6e565b600080600090505b83811015612c7c578e858281548110612a8657612a856151e3565b5b90600052602060002090600a0201600001541415612c6957809150848181548110612ab457612ab36151e3565b5b90600052602060002090600a020160405180610160016040529081600082015481526020016001820160009054906101000a900460ff166001811115612afd57612afc615185565b5b6001811115612b0f57612b0e615185565b5b81526020016001820160019054906101000a900473ffffffffffffffffffffffffffffffffffffffff1673ffffffffffffffffffffffffffffffffffffffff1673ffffffffffffffffffffffffffffffffffffffff1681526020016002820160009054906101000a900473ffffffffffffffffffffffffffffffffffffffff1673ffffffffffffffffffffffffffffffffffffffff1673ffffffffffffffffffffffffffffffffffffffff168152602001600382015481526020016004820160009054906101000a900473ffffffffffffffffffffffffffffffffffffffff1673ffffffffffffffffffffffffffffffffffffffff1673ffffffffffffffffffffffffffffffffffffffff168152602001600582015481526020016006820154815260200160078201548152602001600882015481526020016009820160009054906101000a900460ff1615151515815250509250612c7c565b8080612c749061510d565b915050612a6a565b50600a60009054906101000a900460ff1615612e9d57816040015173ffffffffffffffffffffffffffffffffffffffff163373ffffffffffffffffffffffffffffffffffffffff1614612d04576040517f08c379a0000000000000000000000000000000000000000000000000000000008152600401612cfb90614d0c565b60405180910390fd5b60006001811115612d1857612d17615185565b5b8f6001811115612d2b57612d2a615185565b5b1415612dd257600360009054906101000a900473ffffffffffffffffffffffffffffffffffffffff1673ffffffffffffffffffffffffffffffffffffffff1663fc11a3d6338460a001518560c0015160006040518563ffffffff1660e01b8152600401612d9b9493929190614be3565b600060405180830381600087803b158015612db557600080fd5b505af1158015612dc9573d6000803e3d6000fd5b50505050612e9c565b600180811115612de557612de4615185565b5b8f6001811115612df857612df7615185565b5b1415612e9b57600360009054906101000a900473ffffffffffffffffffffffffffffffffffffffff1673ffffffffffffffffffffffffffffffffffffffff1663fc11a3d6338460600151856080015160006040518563ffffffff1660e01b8152600401612e689493929190614be3565b600060405180830381600087803b158015612e8257600080fd5b505af1158015612e96573d6000803e3d6000fd5b505050505b5b5b60008190505b600184612eb0919061503b565b8110156130fd5784612ecc600183613a5790919063ffffffff16565b81548110612edd57612edc6151e3565b5b90600052602060002090600a0201858281548110612efe57612efd6151e3565b5b90600052602060002090600a0201600082015481600001556001820160009054906101000a900460ff168160010160006101000a81548160ff02191690836001811115612f4e57612f4d615185565b5b02179055506001820160019054906101000a900473ffffffffffffffffffffffffffffffffffffffff168160010160016101000a81548173ffffffffffffffffffffffffffffffffffffffff021916908373ffffffffffffffffffffffffffffffffffffffff1602179055506002820160009054906101000a900473ffffffffffffffffffffffffffffffffffffffff168160020160006101000a81548173ffffffffffffffffffffffffffffffffffffffff021916908373ffffffffffffffffffffffffffffffffffffffff160217905550600382015481600301556004820160009054906101000a900473ffffffffffffffffffffffffffffffffffffffff168160040160006101000a81548173ffffffffffffffffffffffffffffffffffffffff021916908373ffffffffffffffffffffffffffffffffffffffff160217905550600582015481600501556006820154816006015560078201548160070155600882015481600801556009820160009054906101000a900460ff168160090160006101000a81548160ff02191690831515021790555090505080806130f59061510d565b915050612ea3565b5083613113600185613a4190919063ffffffff16565b81548110613124576131236151e3565b5b90600052602060002090600a02016000808201600090556001820160006101000a81549060ff02191690556001820160016101000a81549073ffffffffffffffffffffffffffffffffffffffff02191690556002820160006101000a81549073ffffffffffffffffffffffffffffffffffffffff021916905560038201600090556004820160006101000a81549073ffffffffffffffffffffffffffffffffffffffff021916905560058201600090556006820160009055600782016000905560088201600090556009820160006101000a81549060ff0219169055505083805480613213576132126151b4565b5b60019003818190600052602060002090600a02016000808201600090556001820160006101000a81549060ff02191690556001820160016101000a81549073ffffffffffffffffffffffffffffffffffffffff02191690556002820160006101000a81549073ffffffffffffffffffffffffffffffffffffffff021916905560038201600090556004820160006101000a81549073ffffffffffffffffffffffffffffffffffffffff021916905560058201600090556006820160009055600782016000905560088201600090556009820160006101000a81549060ff02191690555050905583600760008f73ffffffffffffffffffffffffffffffffffffffff1673ffffffffffffffffffffffffffffffffffffffff16815260200190815260200160002060008e73ffffffffffffffffffffffffffffffffffffffff1673ffffffffffffffffffffffffffffffffffffffff1681526020019081526020016000206000878152602001908152602001600020908054613395929190613d1e565b507fa1cc643491754200d3eca5769e524a0fd00f9b0862b18d0da7d6e7277a83dfda8e83602001518460400151856060015186608001518760a001518860c001518960e001518a61010001518b61012001518c61014001516040516134049b9a99989796959493929190614f04565b60405180910390a1505050505050505050505050505050565b8360000151846020015185606001518660a0015161343d84848484610b3f565b61347c576040517f08c379a000000000000000000000000000000000000000000000000000000000815260040161347390614c6c565b60405180910390fd5b6000600760008a6060015173ffffffffffffffffffffffffffffffffffffffff1673ffffffffffffffffffffffffffffffffffffffff16815260200190815260200160002060008a60a0015173ffffffffffffffffffffffffffffffffffffffff1673ffffffffffffffffffffffffffffffffffffffff16815260200190815260200160002060008a60200151600181111561351b5761351a615185565b5b60ff168152602001908152602001600020868154811061353e5761353d6151e3565b5b90600052602060002090600a02016003015490506000600760008b6060015173ffffffffffffffffffffffffffffffffffffffff1673ffffffffffffffffffffffffffffffffffffffff16815260200190815260200160002060008b60a0015173ffffffffffffffffffffffffffffffffffffffff1673ffffffffffffffffffffffffffffffffffffffff16815260200190815260200160002060008b6020015160018111156135f1576135f0615185565b5b60ff1681526020019081526020016000208781548110613614576136136151e3565b5b90600052602060002090600a020160050154905088600760008c6060015173ffffffffffffffffffffffffffffffffffffffff1673ffffffffffffffffffffffffffffffffffffffff16815260200190815260200160002060008c60a0015173ffffffffffffffffffffffffffffffffffffffff1673ffffffffffffffffffffffffffffffffffffffff16815260200190815260200160002060008c6020015160018111156136c6576136c5615185565b5b60ff16815260200190815260200160002088815481106136e9576136e86151e3565b5b90600052602060002090600a02016003018190555087600760008c6060015173ffffffffffffffffffffffffffffffffffffffff1673ffffffffffffffffffffffffffffffffffffffff16815260200190815260200160002060008c60a0015173ffffffffffffffffffffffffffffffffffffffff1673ffffffffffffffffffffffffffffffffffffffff16815260200190815260200160002060008c60200151600181111561379c5761379b615185565b5b60ff16815260200190815260200160002088815481106137bf576137be6151e3565b5b90600052602060002090600a02016005018190555081600760008c6060015173ffffffffffffffffffffffffffffffffffffffff1673ffffffffffffffffffffffffffffffffffffffff16815260200190815260200160002060008c60a0015173ffffffffffffffffffffffffffffffffffffffff1673ffffffffffffffffffffffffffffffffffffffff16815260200190815260200160002060008c60200151600181111561387257613871615185565b5b60ff1681526020019081526020016000208881548110613895576138946151e3565b5b90600052602060002090600a020160030154108015613984575080600760008c6060015173ffffffffffffffffffffffffffffffffffffffff1673ffffffffffffffffffffffffffffffffffffffff16815260200190815260200160002060008c60a0015173ffffffffffffffffffffffffffffffffffffffff1673ffffffffffffffffffffffffffffffffffffffff16815260200190815260200160002060008c60200151600181111561394d5761394c615185565b5b60ff16815260200190815260200160002088815481106139705761396f6151e3565b5b90600052602060002090600a020160050154105b6139c3576040517f08c379a00000000000000000000000000000000000000000000000000000000081526004016139ba90614d8c565b60405180910390fd5b50505050505050505050565b80600a60006101000a81548160ff021916908315150217905550801515600a60009054906101000a900460ff16151514613a3e576040517f08c379a0000000000000000000000000000000000000000000000000000000008152600401613a3590614c8c565b60405180910390fd5b50565b60008183613a4f919061503b565b905092915050565b60008183613a659190614fe5565b905092915050565b613a75613baf565b73ffffffffffffffffffffffffffffffffffffffff16613a93611a9a565b73ffffffffffffffffffffffffffffffffffffffff1614613ae9576040517f08c379a0000000000000000000000000000000000000000000000000000000008152600401613ae090614d4c565b60405180910390fd5b565b60008060009054906101000a900473ffffffffffffffffffffffffffffffffffffffff169050816000806101000a81548173ffffffffffffffffffffffffffffffffffffffff021916908373ffffffffffffffffffffffffffffffffffffffff1602179055508173ffffffffffffffffffffffffffffffffffffffff168173ffffffffffffffffffffffffffffffffffffffff167f8be0079c531659141344cd1fd0a4f28419497f9722a3daafe3b4186f6b6457e060405160405180910390a35050565b600033905090565b6040518061018001604052806000815260200160006001811115613bde57613bdd615185565b5b8152602001600073ffffffffffffffffffffffffffffffffffffffff168152602001600073ffffffffffffffffffffffffffffffffffffffff168152602001600073ffffffffffffffffffffffffffffffffffffffff1681526020016000815260200160008152602001600081526020016000815260200160008152602001600015158152602001600081525090565b6040518061016001604052806000815260200160006001811115613c9557613c94615185565b5b8152602001600073ffffffffffffffffffffffffffffffffffffffff168152602001600073ffffffffffffffffffffffffffffffffffffffff16815260200160008152602001600073ffffffffffffffffffffffffffffffffffffffff168152602001600081526020016000815260200160008152602001600081526020016000151581525090565b82805482825590600052602060002090600a028101928215613f4057600052602060002091600a0282015b82811115613f3f578282600082015481600001556001820160009054906101000a900460ff168160010160006101000a81548160ff02191690836001811115613d9557613d94615185565b5b02179055506001820160019054906101000a900473ffffffffffffffffffffffffffffffffffffffff168160010160016101000a81548173ffffffffffffffffffffffffffffffffffffffff021916908373ffffffffffffffffffffffffffffffffffffffff1602179055506002820160009054906101000a900473ffffffffffffffffffffffffffffffffffffffff168160020160006101000a81548173ffffffffffffffffffffffffffffffffffffffff021916908373ffffffffffffffffffffffffffffffffffffffff160217905550600382015481600301556004820160009054906101000a900473ffffffffffffffffffffffffffffffffffffffff168160040160006101000a81548173ffffffffffffffffffffffffffffffffffffffff021916908373ffffffffffffffffffffffffffffffffffffffff160217905550600582015481600501556006820154816006015560078201548160070155600882015481600801556009820160009054906101000a900460ff168160090160006101000a81548160ff021916908315150217905550505091600a019190600a0190613d49565b5b509050613f4d9190613f51565b5090565b5b80821115614031576000808201600090556001820160006101000a81549060ff02191690556001820160016101000a81549073ffffffffffffffffffffffffffffffffffffffff02191690556002820160006101000a81549073ffffffffffffffffffffffffffffffffffffffff021916905560038201600090556004820160006101000a81549073ffffffffffffffffffffffffffffffffffffffff021916905560058201600090556006820160009055600782016000905560088201600090556009820160006101000a81549060ff021916905550600a01613f52565b5090565b60008135905061404481615459565b92915050565b60008135905061405981615470565b92915050565b60008135905061406e81615487565b92915050565b6000610160828403121561408b5761408a615241565b5b614096610160614faf565b905060006140a6848285016142a2565b60008301525060206140ba8482850161405f565b60208301525060406140ce84828501614035565b60408301525060606140e284828501614035565b60608301525060806140f6848285016142a2565b60808301525060a061410a84828501614035565b60a08301525060c061411e848285016142a2565b60c08301525060e0614132848285016142a2565b60e083015250610100614147848285016142a2565b6101008301525061012061415d848285016142a2565b610120830152506101406141738482850161404a565b6101408301525092915050565b6000610180828403121561419757614196615241565b5b6141a2610180614faf565b905060006141b2848285016142a2565b60008301525060206141c68482850161405f565b60208301525060406141da84828501614035565b60408301525060606141ee84828501614035565b606083015250608061420284828501614035565b60808301525060a0614216848285016142a2565b60a08301525060c061422a848285016142a2565b60c08301525060e061423e848285016142a2565b60e083015250610100614253848285016142a2565b61010083015250610120614269848285016142a2565b6101208301525061014061427f8482850161404a565b61014083015250610160614295848285016142a2565b6101608301525092915050565b6000813590506142b181615497565b92915050565b6000815190506142c681615497565b92915050565b6000602082840312156142e2576142e1615246565b5b60006142f084828501614035565b91505092915050565b6000806000806080858703121561431357614312615246565b5b600061432187828801614035565b945050602061433287828801614035565b9350506040614343878288016142a2565b92505060606143548782880161405f565b91505092959194509250565b6000806000806080858703121561437a57614379615246565b5b600061438887828801614035565b945050602061439987828801614035565b93505060406143aa878288016142a2565b92505060606143bb878288016142a2565b91505092959194509250565b600080604083850312156143de576143dd615246565b5b60006143ec85828601614035565b92505060206143fd8582860161405f565b9150509250929050565b6000806000606084860312156144205761441f615246565b5b600061442e86828701614035565b935050602061443f8682870161405f565b9250506040614450868287016142a2565b9150509250925092565b6000806040838503121561447157614470615246565b5b600061447f85828601614035565b9250506020614490858286016142a2565b9150509250929050565b60008060008060008060c087890312156144b7576144b6615246565b5b60006144c589828a01614035565b96505060206144d689828a016142a2565b95505060406144e789828a01614035565b94505060606144f889828a016142a2565b935050608061450989828a016142a2565b92505060a061451a89828a0161404a565b9150509295509295509295565b6000806000606084860312156145405761453f615246565b5b600061454e86828701614035565b935050602061455f868287016142a2565b9250506040614570868287016142a2565b9150509250925092565b6000602082840312156145905761458f615246565b5b600061459e8482850161404a565b91505092915050565b6000806000606084860312156145c0576145bf615246565b5b60006145ce8682870161405f565b93505060206145df86828701614035565b92505060406145f086828701614035565b9150509250925092565b6000806000806080858703121561461457614613615246565b5b60006146228782880161405f565b9450506020614633878288016142a2565b935050604061464487828801614035565b925050606061465587828801614035565b91505092959194509250565b6000806000806101c0858703121561467c5761467b615246565b5b600061468a87828801614074565b94505061016061469c878288016142a2565b9350506101806146ae878288016142a2565b9250506101a06146c0878288016142a2565b91505092959194509250565b6000806101a083850312156146e4576146e3615246565b5b60006146f285828601614180565b925050610180614704858286016142a2565b9150509250929050565b60006020828403121561472457614723615246565b5b6000614732848285016142a2565b91505092915050565b60006020828403121561475157614750615246565b5b600061475f848285016142b7565b91505092915050565b6000806000806080858703121561478257614781615246565b5b6000614790878288016142a2565b94505060206147a18782880161405f565b93505060406147b287828801614035565b92505060606147c387828801614035565b91505092959194509250565b6147d88161506f565b82525050565b6147e78161506f565b82525050565b6147f681615081565b82525050565b61480581615081565b82525050565b614814816150ca565b82525050565b614823816150ca565b82525050565b6000614836601083614fd4565b91506148418261525c565b602082019050919050565b6000614859601783614fd4565b915061486482615285565b602082019050919050565b600061487c602683614fd4565b9150614887826152ae565b604082019050919050565b600061489f601883614fd4565b91506148aa826152fd565b602082019050919050565b60006148c2601283614fd4565b91506148cd82615326565b602082019050919050565b60006148e5600983614fd4565b91506148f08261534f565b602082019050919050565b6000614908601683614fd4565b915061491382615378565b602082019050919050565b600061492b602083614fd4565b9150614936826153a1565b602082019050919050565b600061494e601383614fd4565b9150614959826153ca565b602082019050919050565b6000614971601a83614fd4565b915061497c826153f3565b602082019050919050565b6000614994600f83614fd4565b915061499f8261541c565b602082019050919050565b610160820160008201516149c16000850182614b81565b5060208201516149d4602085018261480b565b5060408201516149e760408501826147cf565b5060608201516149fa60608501826147cf565b506080820151614a0d6080850182614b81565b5060a0820151614a2060a08501826147cf565b5060c0820151614a3360c0850182614b81565b5060e0820151614a4660e0850182614b81565b50610100820151614a5b610100850182614b81565b50610120820151614a70610120850182614b81565b50610140820151614a856101408501826147ed565b50505050565b61018082016000820151614aa26000850182614b81565b506020820151614ab5602085018261480b565b506040820151614ac860408501826147cf565b506060820151614adb60608501826147cf565b506080820151614aee60808501826147cf565b5060a0820151614b0160a0850182614b81565b5060c0820151614b1460c0850182614b81565b5060e0820151614b2760e0850182614b81565b50610100820151614b3c610100850182614b81565b50610120820151614b51610120850182614b81565b50610140820151614b666101408501826147ed565b50610160820151614b7b610160850182614b81565b50505050565b614b8a816150c0565b82525050565b614b99816150c0565b82525050565b6000602082019050614bb460008301846147de565b92915050565b6000604082019050614bcf60008301856147de565b614bdc60208301846147de565b9392505050565b6000608082019050614bf860008301876147de565b614c0560208301866147de565b614c126040830185614b90565b614c1f60608301846147fc565b95945050505050565b6000604082019050614c3d60008301856147de565b614c4a6020830184614b90565b9392505050565b6000602082019050614c6660008301846147fc565b92915050565b60006020820190508181036000830152614c8581614829565b9050919050565b60006020820190508181036000830152614ca58161484c565b9050919050565b60006020820190508181036000830152614cc58161486f565b9050919050565b60006020820190508181036000830152614ce581614892565b9050919050565b60006020820190508181036000830152614d05816148b5565b9050919050565b60006020820190508181036000830152614d25816148d8565b9050919050565b60006020820190508181036000830152614d45816148fb565b9050919050565b60006020820190508181036000830152614d658161491e565b9050919050565b60006020820190508181036000830152614d8581614941565b9050919050565b60006020820190508181036000830152614da581614964565b9050919050565b60006020820190508181036000830152614dc581614987565b9050919050565b600061016082019050614de260008301846149aa565b92915050565b600061018082019050614dfe60008301856149aa565b614e0c610160830184614b90565b9392505050565b600061018082019050614e296000830184614a8b565b92915050565b6000602082019050614e446000830184614b90565b92915050565b600061018082019050614e60600083018f614b90565b614e6d602083018e61481a565b614e7a604083018d6147de565b614e87606083018c6147de565b614e94608083018b6147de565b614ea160a083018a614b90565b614eae60c0830189614b90565b614ebb60e0830188614b90565b614ec9610100830187614b90565b614ed7610120830186614b90565b614ee56101408301856147fc565b614ef3610160830184614b90565b9d9c50505050505050505050505050565b600061016082019050614f1a600083018e614b90565b614f27602083018d61481a565b614f34604083018c6147de565b614f41606083018b6147de565b614f4e608083018a614b90565b614f5b60a08301896147de565b614f6860c0830188614b90565b614f7560e0830187614b90565b614f83610100830186614b90565b614f91610120830185614b90565b614f9f6101408301846147fc565b9c9b505050505050505050505050565b6000614fb9614fca565b9050614fc582826150dc565b919050565b6000604051905090565b600082825260208201905092915050565b6000614ff0826150c0565b9150614ffb836150c0565b9250827fffffffffffffffffffffffffffffffffffffffffffffffffffffffffffffffff038211156150305761502f615156565b5b828201905092915050565b6000615046826150c0565b9150615051836150c0565b92508282101561506457615063615156565b5b828203905092915050565b600061507a826150a0565b9050919050565b60008115159050919050565b600081905061509b82615445565b919050565b600073ffffffffffffffffffffffffffffffffffffffff82169050919050565b6000819050919050565b60006150d58261508d565b9050919050565b6150e58261524b565b810181811067ffffffffffffffff8211171561510457615103615212565b5b80604052505050565b6000615118826150c0565b91507fffffffffffffffffffffffffffffffffffffffffffffffffffffffffffffffff82141561514b5761514a615156565b5b600182019050919050565b7f4e487b7100000000000000000000000000000000000000000000000000000000600052601160045260246000fd5b7f4e487b7100000000000000000000000000000000000000000000000000000000600052602160045260246000fd5b7f4e487b7100000000000000000000000000000000000000000000000000000000600052603160045260246000fd5b7f4e487b7100000000000000000000000000000000000000000000000000000000600052603260045260246000fd5b7f4e487b7100000000000000000000000000000000000000000000000000000000600052604160045260246000fd5b600080fd5b600080fd5b6000601f19601f8301169050919050565b7f496e76616c6964204f7264657220494400000000000000000000000000000000600082015250565b7f496e76616c696420735f69734d616e75616c20626f6f6c000000000000000000600082015250565b7f4f776e61626c653a206e6577206f776e657220697320746865207a65726f206160008201527f6464726573730000000000000000000000000000000000000000000000000000602082015250565b7f546f6b656e20756e617661696c61626c6520696e204445580000000000000000600082015250565b7f496e73756666696369656e742046756e64730000000000000000000000000000600082015250565b7f4e6f74204f776e65720000000000000000000000000000000000000000000000600082015250565b7f546f6b656e20616c726561647920766572696669656400000000000000000000600082015250565b7f4f776e61626c653a2063616c6c6572206973206e6f7420746865206f776e6572600082015250565b7f546f6b656e206e6f7420617661696c61626c6500000000000000000000000000600082015250565b7f4f72646572206e6f7420757064617465642070726f7065726c79000000000000600082015250565b7f4f72646572206e6f7420466f756e640000000000000000000000000000000000600082015250565b6002811061545657615455615185565b5b50565b6154628161506f565b811461546d57600080fd5b50565b61547981615081565b811461548457600080fd5b50565b6002811061549457600080fd5b50565b6154a0816150c0565b81146154ab57600080fd5b5056fea2646970667358221220204db228100a283076c171bd183e2e885482c467ad89dbdb6aea71583341993564736f6c63430008070033",
  "linkReferences": {},
  "deployedLinkReferences": {}
}