{
  "_format": "hh-sol-artifact-1",
  "contractName": "Exchange",
  "sourceName": "contracts/Exchange.sol",
  "abi": [
    {
      "inputs": [
        {
          "internalType": "address",
          "name": "_wallet",
          "type": "address"
        },
        {
          "internalType": "address",
          "name": "_fees",
          "type": "address"
        },
        {
          "internalType": "address",
          "name": "_priceChecker",
          "type": "address"
        }
      ],
      "stateMutability": "nonpayable",
      "type": "constructor"
    },
    {
      "anonymous": false,
      "inputs": [
        {
          "indexed": false,
          "internalType": "uint256",
          "name": "id",
          "type": "uint256"
        },
        {
          "indexed": false,
          "internalType": "enum Exchange.Side",
          "name": "side",
          "type": "uint8"
        },
        {
          "indexed": false,
          "internalType": "address",
          "name": "user",
          "type": "address"
        },
        {
          "indexed": false,
          "internalType": "address",
          "name": "tokenA",
          "type": "address"
        },
        {
          "indexed": false,
          "internalType": "uint256",
          "name": "amountA",
          "type": "uint256"
        },
        {
          "indexed": false,
          "internalType": "address",
          "name": "tokenB",
          "type": "address"
        },
        {
          "indexed": false,
          "internalType": "uint256",
          "name": "amountB",
          "type": "uint256"
        },
        {
          "indexed": false,
          "internalType": "uint256",
          "name": "rate",
          "type": "uint256"
        },
        {
          "indexed": false,
          "internalType": "uint256",
          "name": "originalAmountA",
          "type": "uint256"
        },
        {
          "indexed": false,
          "internalType": "uint256",
          "name": "originalAmountB",
          "type": "uint256"
        },
        {
          "indexed": false,
          "internalType": "bool",
          "name": "waiveFees",
          "type": "bool"
        }
      ],
      "name": "Cancel",
      "type": "event"
    },
    {
      "anonymous": false,
      "inputs": [
        {
          "indexed": false,
          "internalType": "uint256",
          "name": "id",
          "type": "uint256"
        },
        {
          "indexed": false,
          "internalType": "enum Exchange.Side",
          "name": "side",
          "type": "uint8"
        },
        {
          "indexed": false,
          "internalType": "address",
          "name": "user",
          "type": "address"
        },
        {
          "indexed": false,
          "internalType": "address",
          "name": "tokenA",
          "type": "address"
        },
        {
          "indexed": false,
          "internalType": "uint256",
          "name": "amountA",
          "type": "uint256"
        },
        {
          "indexed": false,
          "internalType": "address",
          "name": "tokenB",
          "type": "address"
        },
        {
          "indexed": false,
          "internalType": "uint256",
          "name": "amountB",
          "type": "uint256"
        },
        {
          "indexed": false,
          "internalType": "uint256",
          "name": "rate",
          "type": "uint256"
        },
        {
          "indexed": false,
          "internalType": "uint256",
          "name": "originalAmountA",
          "type": "uint256"
        },
        {
          "indexed": false,
          "internalType": "uint256",
          "name": "originalAmountB",
          "type": "uint256"
        },
        {
          "indexed": false,
          "internalType": "bool",
          "name": "waiveFees",
          "type": "bool"
        }
      ],
      "name": "Order",
      "type": "event"
    },
    {
      "anonymous": false,
      "inputs": [
        {
          "indexed": true,
          "internalType": "address",
          "name": "previousOwner",
          "type": "address"
        },
        {
          "indexed": true,
          "internalType": "address",
          "name": "newOwner",
          "type": "address"
        }
      ],
      "name": "OwnershipTransferred",
      "type": "event"
    },
    {
      "anonymous": false,
      "inputs": [
        {
          "components": [
            {
              "internalType": "uint256",
              "name": "id",
              "type": "uint256"
            },
            {
              "internalType": "enum Exchange.Side",
              "name": "side",
              "type": "uint8"
            },
            {
              "internalType": "address",
              "name": "user",
              "type": "address"
            },
            {
              "internalType": "address",
              "name": "tokenA",
              "type": "address"
            },
            {
              "internalType": "uint256",
              "name": "amountA",
              "type": "uint256"
            },
            {
              "internalType": "address",
              "name": "tokenB",
              "type": "address"
            },
            {
              "internalType": "uint256",
              "name": "amountB",
              "type": "uint256"
            },
            {
              "internalType": "uint256",
              "name": "rate",
              "type": "uint256"
            },
            {
              "internalType": "uint256",
              "name": "originalAmountA",
              "type": "uint256"
            },
            {
              "internalType": "uint256",
              "name": "originalAmountB",
              "type": "uint256"
            },
            {
              "internalType": "bool",
              "name": "waiveFees",
              "type": "bool"
            }
          ],
          "indexed": false,
          "internalType": "struct Exchange._Order",
          "name": "remainingOrder",
          "type": "tuple"
        },
        {
          "indexed": false,
          "internalType": "uint256",
          "name": "amountBought",
          "type": "uint256"
        },
        {
          "indexed": false,
          "internalType": "uint256",
          "name": "fillBuyRate",
          "type": "uint256"
        },
        {
          "indexed": false,
          "internalType": "bool",
          "name": "feesWaived",
          "type": "bool"
        },
        {
          "indexed": false,
          "internalType": "uint256",
          "name": "feesPaid",
          "type": "uint256"
        }
      ],
      "name": "fillBuyOrder",
      "type": "event"
    },
    {
      "anonymous": false,
      "inputs": [
        {
          "components": [
            {
              "internalType": "uint256",
              "name": "id",
              "type": "uint256"
            },
            {
              "internalType": "enum Exchange.Side",
              "name": "side",
              "type": "uint8"
            },
            {
              "internalType": "address",
              "name": "user",
              "type": "address"
            },
            {
              "internalType": "address",
              "name": "tokenA",
              "type": "address"
            },
            {
              "internalType": "uint256",
              "name": "amountA",
              "type": "uint256"
            },
            {
              "internalType": "address",
              "name": "tokenB",
              "type": "address"
            },
            {
              "internalType": "uint256",
              "name": "amountB",
              "type": "uint256"
            },
            {
              "internalType": "uint256",
              "name": "rate",
              "type": "uint256"
            },
            {
              "internalType": "uint256",
              "name": "originalAmountA",
              "type": "uint256"
            },
            {
              "internalType": "uint256",
              "name": "originalAmountB",
              "type": "uint256"
            },
            {
              "internalType": "bool",
              "name": "waiveFees",
              "type": "bool"
            }
          ],
          "indexed": false,
          "internalType": "struct Exchange._Order",
          "name": "remainingOrder",
          "type": "tuple"
        },
        {
          "indexed": false,
          "internalType": "uint256",
          "name": "amountSold",
          "type": "uint256"
        },
        {
          "indexed": false,
          "internalType": "uint256",
          "name": "fillSellRate",
          "type": "uint256"
        },
        {
          "indexed": false,
          "internalType": "bool",
          "name": "feesWaived",
          "type": "bool"
        },
        {
          "indexed": false,
          "internalType": "uint256",
          "name": "feesPaid",
          "type": "uint256"
        }
      ],
      "name": "fillSellOrder",
      "type": "event"
    },
    {
      "inputs": [
        {
          "internalType": "address",
          "name": "_token",
          "type": "address"
        },
        {
          "internalType": "uint256",
          "name": "_decimals",
          "type": "uint256"
        }
      ],
      "name": "addToken",
      "outputs": [],
      "stateMutability": "nonpayable",
      "type": "function"
    },
    {
      "inputs": [
        {
          "internalType": "enum Exchange.Side",
          "name": "side",
          "type": "uint8"
        },
        {
          "internalType": "uint256",
          "name": "_id",
          "type": "uint256"
        },
        {
          "internalType": "address",
          "name": "_tokenA",
          "type": "address"
        },
        {
          "internalType": "address",
          "name": "_tokenB",
          "type": "address"
        }
      ],
      "name": "cancelOrder",
      "outputs": [],
      "stateMutability": "nonpayable",
      "type": "function"
    },
    {
      "inputs": [
        {
          "internalType": "address",
          "name": "_tokenA",
          "type": "address"
        },
        {
          "internalType": "uint256",
          "name": "_amountA",
          "type": "uint256"
        },
        {
          "internalType": "address",
          "name": "_tokenB",
          "type": "address"
        },
        {
          "internalType": "uint256",
          "name": "_amountB",
          "type": "uint256"
        },
        {
          "internalType": "uint256",
          "name": "_rate",
          "type": "uint256"
        },
        {
          "internalType": "bool",
          "name": "_waiveFees",
          "type": "bool"
        }
      ],
      "name": "createLimitBuyOrder",
      "outputs": [],
      "stateMutability": "nonpayable",
      "type": "function"
    },
    {
      "inputs": [
        {
          "internalType": "address",
          "name": "_tokenA",
          "type": "address"
        },
        {
          "internalType": "uint256",
          "name": "_amountA",
          "type": "uint256"
        },
        {
          "internalType": "address",
          "name": "_tokenB",
          "type": "address"
        },
        {
          "internalType": "uint256",
          "name": "_amountB",
          "type": "uint256"
        },
        {
          "internalType": "uint256",
          "name": "_rate",
          "type": "uint256"
        },
        {
          "internalType": "bool",
          "name": "_waiveFees",
          "type": "bool"
        }
      ],
      "name": "createLimitSellOrder",
      "outputs": [],
      "stateMutability": "nonpayable",
      "type": "function"
    },
    {
      "inputs": [],
      "name": "ethToken",
      "outputs": [
        {
          "internalType": "address",
          "name": "",
          "type": "address"
        }
      ],
      "stateMutability": "view",
      "type": "function"
    },
    {
      "inputs": [
        {
          "internalType": "address",
          "name": "_user",
          "type": "address"
        },
        {
          "internalType": "enum Exchange.Side",
          "name": "side",
          "type": "uint8"
        },
        {
          "internalType": "uint256",
          "name": "index",
          "type": "uint256"
        }
      ],
      "name": "getFilledOrder",
      "outputs": [
        {
          "components": [
            {
              "internalType": "uint256",
              "name": "id",
              "type": "uint256"
            },
            {
              "internalType": "enum Exchange.Side",
              "name": "side",
              "type": "uint8"
            },
            {
              "internalType": "address",
              "name": "user",
              "type": "address"
            },
            {
              "internalType": "address",
              "name": "tokenA",
              "type": "address"
            },
            {
              "internalType": "address",
              "name": "tokenB",
              "type": "address"
            },
            {
              "internalType": "uint256",
              "name": "amountFilled",
              "type": "uint256"
            },
            {
              "internalType": "uint256",
              "name": "fillRate",
              "type": "uint256"
            },
            {
              "internalType": "uint256",
              "name": "originalRate",
              "type": "uint256"
            },
            {
              "internalType": "uint256",
              "name": "originalAmountA",
              "type": "uint256"
            },
            {
              "internalType": "uint256",
              "name": "originalAmountB",
              "type": "uint256"
            },
            {
              "internalType": "bool",
              "name": "feesWaived",
              "type": "bool"
            },
            {
              "internalType": "uint256",
              "name": "feesPaid",
              "type": "uint256"
            }
          ],
          "internalType": "struct Exchange._filledOrder",
          "name": "",
          "type": "tuple"
        }
      ],
      "stateMutability": "view",
      "type": "function"
    },
    {
      "inputs": [
        {
          "internalType": "address",
          "name": "_user",
          "type": "address"
        },
        {
          "internalType": "enum Exchange.Side",
          "name": "side",
          "type": "uint8"
        }
      ],
      "name": "getFilledOrderLength",
      "outputs": [
        {
          "internalType": "uint256",
          "name": "",
          "type": "uint256"
        }
      ],
      "stateMutability": "view",
      "type": "function"
    },
    {
      "inputs": [
        {
          "internalType": "address",
          "name": "_tokenA",
          "type": "address"
        },
        {
          "internalType": "address",
          "name": "_tokenB",
          "type": "address"
        },
        {
          "internalType": "uint256",
          "name": "index",
          "type": "uint256"
        },
        {
          "internalType": "enum Exchange.Side",
          "name": "side",
          "type": "uint8"
        }
      ],
      "name": "getOrder",
      "outputs": [
        {
          "components": [
            {
              "internalType": "uint256",
              "name": "id",
              "type": "uint256"
            },
            {
              "internalType": "enum Exchange.Side",
              "name": "side",
              "type": "uint8"
            },
            {
              "internalType": "address",
              "name": "user",
              "type": "address"
            },
            {
              "internalType": "address",
              "name": "tokenA",
              "type": "address"
            },
            {
              "internalType": "uint256",
              "name": "amountA",
              "type": "uint256"
            },
            {
              "internalType": "address",
              "name": "tokenB",
              "type": "address"
            },
            {
              "internalType": "uint256",
              "name": "amountB",
              "type": "uint256"
            },
            {
              "internalType": "uint256",
              "name": "rate",
              "type": "uint256"
            },
            {
              "internalType": "uint256",
              "name": "originalAmountA",
              "type": "uint256"
            },
            {
              "internalType": "uint256",
              "name": "originalAmountB",
              "type": "uint256"
            },
            {
              "internalType": "bool",
              "name": "waiveFees",
              "type": "bool"
            }
          ],
          "internalType": "struct Exchange._Order",
          "name": "",
          "type": "tuple"
        }
      ],
      "stateMutability": "view",
      "type": "function"
    },
    {
      "inputs": [
        {
          "internalType": "address",
          "name": "_tokenA",
          "type": "address"
        },
        {
          "internalType": "address",
          "name": "_tokenB",
          "type": "address"
        },
        {
          "internalType": "uint256",
          "name": "side",
          "type": "uint256"
        },
        {
          "internalType": "uint256",
          "name": "_id",
          "type": "uint256"
        }
      ],
      "name": "getOrderFromArray",
      "outputs": [
        {
          "components": [
            {
              "internalType": "uint256",
              "name": "id",
              "type": "uint256"
            },
            {
              "internalType": "enum Exchange.Side",
              "name": "side",
              "type": "uint8"
            },
            {
              "internalType": "address",
              "name": "user",
              "type": "address"
            },
            {
              "internalType": "address",
              "name": "tokenA",
              "type": "address"
            },
            {
              "internalType": "uint256",
              "name": "amountA",
              "type": "uint256"
            },
            {
              "internalType": "address",
              "name": "tokenB",
              "type": "address"
            },
            {
              "internalType": "uint256",
              "name": "amountB",
              "type": "uint256"
            },
            {
              "internalType": "uint256",
              "name": "rate",
              "type": "uint256"
            },
            {
              "internalType": "uint256",
              "name": "originalAmountA",
              "type": "uint256"
            },
            {
              "internalType": "uint256",
              "name": "originalAmountB",
              "type": "uint256"
            },
            {
              "internalType": "bool",
              "name": "waiveFees",
              "type": "bool"
            }
          ],
          "internalType": "struct Exchange._Order",
          "name": "",
          "type": "tuple"
        },
        {
          "internalType": "uint256",
          "name": "",
          "type": "uint256"
        }
      ],
      "stateMutability": "view",
      "type": "function"
    },
    {
      "inputs": [
        {
          "internalType": "enum Exchange.Side",
          "name": "side",
          "type": "uint8"
        },
        {
          "internalType": "address",
          "name": "_tokenA",
          "type": "address"
        },
        {
          "internalType": "address",
          "name": "_tokenB",
          "type": "address"
        }
      ],
      "name": "getOrderLength",
      "outputs": [
        {
          "internalType": "uint256",
          "name": "",
          "type": "uint256"
        }
      ],
      "stateMutability": "view",
      "type": "function"
    },
    {
      "inputs": [
        {
          "internalType": "address",
          "name": "_token",
          "type": "address"
        }
      ],
      "name": "getTokenInfo",
      "outputs": [
        {
          "internalType": "uint256",
          "name": "",
          "type": "uint256"
        }
      ],
      "stateMutability": "view",
      "type": "function"
    },
    {
      "inputs": [
        {
          "internalType": "address",
          "name": "_token",
          "type": "address"
        }
      ],
      "name": "isVerifiedToken",
      "outputs": [
        {
          "internalType": "bool",
          "name": "",
          "type": "bool"
        }
      ],
      "stateMutability": "view",
      "type": "function"
    },
    {
      "inputs": [
        {
          "internalType": "uint256",
          "name": "_id",
          "type": "uint256"
        },
        {
          "internalType": "enum Exchange.Side",
          "name": "side",
          "type": "uint8"
        },
        {
          "internalType": "address",
          "name": "_tokenA",
          "type": "address"
        },
        {
          "internalType": "address",
          "name": "_tokenB",
          "type": "address"
        }
      ],
      "name": "orderExists",
      "outputs": [
        {
          "internalType": "bool",
          "name": "",
          "type": "bool"
        }
      ],
      "stateMutability": "view",
      "type": "function"
    },
    {
      "inputs": [],
      "name": "owner",
      "outputs": [
        {
          "internalType": "address",
          "name": "",
          "type": "address"
        }
      ],
      "stateMutability": "view",
      "type": "function"
    },
    {
      "inputs": [],
      "name": "renounceOwnership",
      "outputs": [],
      "stateMutability": "nonpayable",
      "type": "function"
    },
    {
      "inputs": [
        {
          "internalType": "address",
          "name": "",
          "type": "address"
        },
        {
          "internalType": "uint256",
          "name": "",
          "type": "uint256"
        },
        {
          "internalType": "uint256",
          "name": "",
          "type": "uint256"
        }
      ],
      "name": "s_filledOrders",
      "outputs": [
        {
          "internalType": "uint256",
          "name": "id",
          "type": "uint256"
        },
        {
          "internalType": "enum Exchange.Side",
          "name": "side",
          "type": "uint8"
        },
        {
          "internalType": "address",
          "name": "user",
          "type": "address"
        },
        {
          "internalType": "address",
          "name": "tokenA",
          "type": "address"
        },
        {
          "internalType": "address",
          "name": "tokenB",
          "type": "address"
        },
        {
          "internalType": "uint256",
          "name": "amountFilled",
          "type": "uint256"
        },
        {
          "internalType": "uint256",
          "name": "fillRate",
          "type": "uint256"
        },
        {
          "internalType": "uint256",
          "name": "originalRate",
          "type": "uint256"
        },
        {
          "internalType": "uint256",
          "name": "originalAmountA",
          "type": "uint256"
        },
        {
          "internalType": "uint256",
          "name": "originalAmountB",
          "type": "uint256"
        },
        {
          "internalType": "bool",
          "name": "feesWaived",
          "type": "bool"
        },
        {
          "internalType": "uint256",
          "name": "feesPaid",
          "type": "uint256"
        }
      ],
      "stateMutability": "view",
      "type": "function"
    },
    {
      "inputs": [
        {
          "internalType": "address",
          "name": "",
          "type": "address"
        },
        {
          "internalType": "address",
          "name": "",
          "type": "address"
        },
        {
          "internalType": "uint256",
          "name": "",
          "type": "uint256"
        },
        {
          "internalType": "uint256",
          "name": "",
          "type": "uint256"
        }
      ],
      "name": "s_orderBook",
      "outputs": [
        {
          "internalType": "uint256",
          "name": "id",
          "type": "uint256"
        },
        {
          "internalType": "enum Exchange.Side",
          "name": "side",
          "type": "uint8"
        },
        {
          "internalType": "address",
          "name": "user",
          "type": "address"
        },
        {
          "internalType": "address",
          "name": "tokenA",
          "type": "address"
        },
        {
          "internalType": "uint256",
          "name": "amountA",
          "type": "uint256"
        },
        {
          "internalType": "address",
          "name": "tokenB",
          "type": "address"
        },
        {
          "internalType": "uint256",
          "name": "amountB",
          "type": "uint256"
        },
        {
          "internalType": "uint256",
          "name": "rate",
          "type": "uint256"
        },
        {
          "internalType": "uint256",
          "name": "originalAmountA",
          "type": "uint256"
        },
        {
          "internalType": "uint256",
          "name": "originalAmountB",
          "type": "uint256"
        },
        {
          "internalType": "bool",
          "name": "waiveFees",
          "type": "bool"
        }
      ],
      "stateMutability": "view",
      "type": "function"
    },
    {
      "inputs": [],
      "name": "s_orderId",
      "outputs": [
        {
          "internalType": "uint256",
          "name": "",
          "type": "uint256"
        }
      ],
      "stateMutability": "view",
      "type": "function"
    },
    {
      "inputs": [
        {
          "internalType": "address",
          "name": "_PriceCheckeraddress",
          "type": "address"
        }
      ],
      "name": "setPriceCheckerAddress",
      "outputs": [],
      "stateMutability": "nonpayable",
      "type": "function"
    },
    {
      "inputs": [
        {
          "internalType": "address",
          "name": "_tradingFees",
          "type": "address"
        }
      ],
      "name": "setTradingFees",
      "outputs": [],
      "stateMutability": "nonpayable",
      "type": "function"
    },
    {
      "inputs": [
        {
          "internalType": "address",
          "name": "_Walletaddress",
          "type": "address"
        }
      ],
      "name": "setWalletAddress",
      "outputs": [],
      "stateMutability": "nonpayable",
      "type": "function"
    },
    {
      "inputs": [
        {
          "internalType": "uint256",
          "name": "",
          "type": "uint256"
        }
      ],
      "name": "tokenList",
      "outputs": [
        {
          "internalType": "address",
          "name": "add",
          "type": "address"
        },
        {
          "internalType": "uint256",
          "name": "decimals",
          "type": "uint256"
        }
      ],
      "stateMutability": "view",
      "type": "function"
    },
    {
      "inputs": [
        {
          "internalType": "address",
          "name": "newOwner",
          "type": "address"
        }
      ],
      "name": "transferOwnership",
      "outputs": [],
      "stateMutability": "nonpayable",
      "type": "function"
    }
  ],
  "bytecode": "0x6080604052670de0b6b3a76400006004556000600560006101000a81548173ffffffffffffffffffffffffffffffffffffffff021916908373ffffffffffffffffffffffffffffffffffffffff16021790555060006009556001600a60006101000a81548160ff0219169083151502179055503480156200007f57600080fd5b5060405162004756380380620047568339818101604052810190620000a5919062000274565b620000c5620000b96200019160201b60201c565b6200019960201b60201c565b82600360006101000a81548173ffffffffffffffffffffffffffffffffffffffff021916908373ffffffffffffffffffffffffffffffffffffffff16021790555081600260006101000a81548173ffffffffffffffffffffffffffffffffffffffff021916908373ffffffffffffffffffffffffffffffffffffffff16021790555080600160006101000a81548173ffffffffffffffffffffffffffffffffffffffff021916908373ffffffffffffffffffffffffffffffffffffffff16021790555050505062000323565b600033905090565b60008060009054906101000a900473ffffffffffffffffffffffffffffffffffffffff169050816000806101000a81548173ffffffffffffffffffffffffffffffffffffffff021916908373ffffffffffffffffffffffffffffffffffffffff1602179055508173ffffffffffffffffffffffffffffffffffffffff168173ffffffffffffffffffffffffffffffffffffffff167f8be0079c531659141344cd1fd0a4f28419497f9722a3daafe3b4186f6b6457e060405160405180910390a35050565b6000815190506200026e8162000309565b92915050565b60008060006060848603121562000290576200028f62000304565b5b6000620002a0868287016200025d565b9350506020620002b3868287016200025d565b9250506040620002c6868287016200025d565b9150509250925092565b6000620002dd82620002e4565b9050919050565b600073ffffffffffffffffffffffffffffffffffffffff82169050919050565b600080fd5b6200031481620002d0565b81146200032057600080fd5b50565b61442380620003336000396000f3fe608060405234801561001057600080fd5b506004361061014d5760003560e01c80639c07ce26116100c3578063c3364be41161007c578063c3364be4146103cf578063dafbfe6a146103ff578063e4c3c7cd1461041b578063ea42f34914610455578063f2fde38b14610485578063f90ef4f2146104a15761014d565b80639c07ce26146102f15780639ead72221461030f578063ac1a386a14610340578063af81c5b91461035c578063b136e39a14610378578063bd8098ec146103945761014d565b80636f4e410b116101155780636f4e410b1461022e578063715018a61461024a5780637bf1a627146102545780638da5cb5b146102725780638f101b0e1461029057806392e43d3a146102c05761014d565b80631027b2191461015257806314eca9dc146101825780631f69565f146101b2578063429d24b2146101e257806362c09cfa14610212575b600080fd5b61016c60048036038101906101679190613530565b6104bd565b6040516101799190613d4f565b60405180910390f35b61019c600480360381019061019791906137de565b610573565b6040516101a99190613ead565b60405180910390f35b6101cc60048036038101906101c79190613530565b610621565b6040516101d99190613ead565b60405180910390f35b6101fc60048036038101906101f791906138f2565b6106f7565b6040516102099190613d4f565b60405180910390f35b61022c600480360381019061022791906136fe565b6109e5565b005b610248600480360381019061024391906136fe565b610fff565b005b610252611618565b005b61025c61162c565b6040516102699190613c9d565b60405180910390f35b61027a611652565b6040516102879190613c9d565b60405180910390f35b6102aa60048036038101906102a5919061366b565b61167b565b6040516102b79190613e91565b60405180910390f35b6102da60048036038101906102d591906135c4565b6118be565b6040516102e8929190613e66565b60405180910390f35b6102f9611bc8565b6040516103069190613ead565b60405180910390f35b61032960048036038101906103249190613898565b611bce565b604051610337929190613d26565b60405180910390f35b61035a60048036038101906103559190613530565b611c22565b005b610376600480360381019061037191906136be565b611c6e565b005b610392600480360381019061038d9190613530565b611d6c565b005b6103ae60048036038101906103a9919061378b565b611db8565b6040516103c69c9b9a99989796959493929190613ec8565b60405180910390f35b6103e960048036038101906103e4919061362b565b611ebc565b6040516103f69190613ead565b60405180910390f35b61041960048036038101906104149190613530565b611f2c565b005b610435600480360381019061043091906135c4565b611f78565b60405161044c9b9a99989796959493929190613f82565b60405180910390f35b61046f600480360381019061046a919061355d565b612083565b60405161047c9190613e4a565b60405180910390f35b61049f600480360381019061049a9190613530565b6122fa565b005b6104bb60048036038101906104b69190613831565b61237e565b005b600080600090505b600680549050811015610568578273ffffffffffffffffffffffffffffffffffffffff16600682815481106104fd576104fc61420b565b5b906000526020600020906002020160000160009054906101000a900473ffffffffffffffffffffffffffffffffffffffff1673ffffffffffffffffffffffffffffffffffffffff16141561055557600191505061056e565b808061056090614135565b9150506104c5565b50600090505b919050565b6000600760008473ffffffffffffffffffffffffffffffffffffffff1673ffffffffffffffffffffffffffffffffffffffff16815260200190815260200160002060008373ffffffffffffffffffffffffffffffffffffffff1673ffffffffffffffffffffffffffffffffffffffff1681526020019081526020016000206000856001811115610606576106056141ad565b5b81526020019081526020016000208054905090509392505050565b600080600090505b6006805490508110156106f0578273ffffffffffffffffffffffffffffffffffffffff16600682815481106106615761066061420b565b5b906000526020600020906002020160000160009054906101000a900473ffffffffffffffffffffffffffffffffffffffff1673ffffffffffffffffffffffffffffffffffffffff1614156106dd57600681815481106106c3576106c261420b565b5b9060005260206000209060020201600101549150506106f2565b80806106e890614135565b915050610629565b505b919050565b600080600760008573ffffffffffffffffffffffffffffffffffffffff1673ffffffffffffffffffffffffffffffffffffffff16815260200190815260200160002060008473ffffffffffffffffffffffffffffffffffffffff1673ffffffffffffffffffffffffffffffffffffffff168152602001908152602001600020600086600181111561078b5761078a6141ad565b5b8152602001908152602001600020805480602002602001604051908101604052809291908181526020016000905b8282101561098057838290600052602060002090600a020160405180610160016040529081600082015481526020016001820160009054906101000a900460ff16600181111561080c5761080b6141ad565b5b600181111561081e5761081d6141ad565b5b81526020016001820160019054906101000a900473ffffffffffffffffffffffffffffffffffffffff1673ffffffffffffffffffffffffffffffffffffffff1673ffffffffffffffffffffffffffffffffffffffff1681526020016002820160009054906101000a900473ffffffffffffffffffffffffffffffffffffffff1673ffffffffffffffffffffffffffffffffffffffff1673ffffffffffffffffffffffffffffffffffffffff168152602001600382015481526020016004820160009054906101000a900473ffffffffffffffffffffffffffffffffffffffff1673ffffffffffffffffffffffffffffffffffffffff1673ffffffffffffffffffffffffffffffffffffffff168152602001600582015481526020016006820154815260200160078201548152602001600882015481526020016009820160009054906101000a900460ff161515151581525050815260200190600101906107b9565b50505050905060005b81518110156109d657868282815181106109a6576109a561420b565b5b60200260200101516000015114156109c3576001925050506109dd565b80806109ce90614135565b915050610989565b5060009150505b949350505050565b856109ef816104bd565b610a2e576040517f08c379a0000000000000000000000000000000000000000000000000000000008152600401610a2590613daa565b60405180910390fd5b84610a38816104bd565b610a77576040517f08c379a0000000000000000000000000000000000000000000000000000000008152600401610a6e90613daa565b60405180910390fd5b84610be3600360009054906101000a900473ffffffffffffffffffffffffffffffffffffffff1673ffffffffffffffffffffffffffffffffffffffff16634fc121db338a6040518363ffffffff1660e01b8152600401610ad8929190613cb8565b60206040518083038186803b158015610af057600080fd5b505afa158015610b04573d6000803e3d6000fd5b505050506040513d601f19601f82011682018060405250810190610b2891906138c5565b600360009054906101000a900473ffffffffffffffffffffffffffffffffffffffff1673ffffffffffffffffffffffffffffffffffffffff1663f7888aec8a336040518363ffffffff1660e01b8152600401610b85929190613cb8565b60206040518083038186803b158015610b9d57600080fd5b505afa158015610bb1573d6000803e3d6000fd5b505050506040513d601f19601f82011682018060405250810190610bd591906138c5565b612ed390919063ffffffff16565b1015610c24576040517f08c379a0000000000000000000000000000000000000000000000000000000008152600401610c1b90613dca565b60405180910390fd5b600360009054906101000a900473ffffffffffffffffffffffffffffffffffffffff1673ffffffffffffffffffffffffffffffffffffffff1663fc11a3d633888860016040518563ffffffff1660e01b8152600401610c869493929190613ce1565b600060405180830381600087803b158015610ca057600080fd5b505af1158015610cb4573d6000803e3d6000fd5b50505050600760008973ffffffffffffffffffffffffffffffffffffffff1673ffffffffffffffffffffffffffffffffffffffff16815260200190815260200160002060008773ffffffffffffffffffffffffffffffffffffffff1673ffffffffffffffffffffffffffffffffffffffff1681526020019081526020016000206000806001811115610d4957610d486141ad565b5b8152602001908152602001600020604051806101600160405280600954815260200160006001811115610d7f57610d7e6141ad565b5b81526020013373ffffffffffffffffffffffffffffffffffffffff1681526020018a73ffffffffffffffffffffffffffffffffffffffff1681526020018981526020018873ffffffffffffffffffffffffffffffffffffffff16815260200187815260200186815260200189815260200187815260200185151581525090806001815401808255809150506001900390600052602060002090600a02016000909190919091506000820151816000015560208201518160010160006101000a81548160ff02191690836001811115610e5a57610e596141ad565b5b021790555060408201518160010160016101000a81548173ffffffffffffffffffffffffffffffffffffffff021916908373ffffffffffffffffffffffffffffffffffffffff16021790555060608201518160020160006101000a81548173ffffffffffffffffffffffffffffffffffffffff021916908373ffffffffffffffffffffffffffffffffffffffff1602179055506080820151816003015560a08201518160040160006101000a81548173ffffffffffffffffffffffffffffffffffffffff021916908373ffffffffffffffffffffffffffffffffffffffff16021790555060c0820151816005015560e08201518160060155610100820151816007015561012082015181600801556101408201518160090160006101000a81548160ff02191690831515021790555050507fcb2df66a1a7db52683240584eca4355946d7b80a59dcb7707aa8dd95463ed7446009546000338b8b8b8b8b8f8e8d604051610fd19b9a99989796959493929190613f82565b60405180910390a1610fef6001600954612ee990919063ffffffff16565b6009819055505050505050505050565b85611009816104bd565b611048576040517f08c379a000000000000000000000000000000000000000000000000000000000815260040161103f90613daa565b60405180910390fd5b84611052816104bd565b611091576040517f08c379a000000000000000000000000000000000000000000000000000000000815260040161108890613daa565b60405180910390fd5b866111fd600360009054906101000a900473ffffffffffffffffffffffffffffffffffffffff1673ffffffffffffffffffffffffffffffffffffffff16634fc121db338c6040518363ffffffff1660e01b81526004016110f2929190613cb8565b60206040518083038186803b15801561110a57600080fd5b505afa15801561111e573d6000803e3d6000fd5b505050506040513d601f19601f8201168201806040525081019061114291906138c5565b600360009054906101000a900473ffffffffffffffffffffffffffffffffffffffff1673ffffffffffffffffffffffffffffffffffffffff1663f7888aec8c336040518363ffffffff1660e01b815260040161119f929190613cb8565b60206040518083038186803b1580156111b757600080fd5b505afa1580156111cb573d6000803e3d6000fd5b505050506040513d601f19601f820116820180604052508101906111ef91906138c5565b612ed390919063ffffffff16565b101561123e576040517f08c379a000000000000000000000000000000000000000000000000000000000815260040161123590613dca565b60405180910390fd5b600360009054906101000a900473ffffffffffffffffffffffffffffffffffffffff1673ffffffffffffffffffffffffffffffffffffffff1663fc11a3d6338a8a60016040518563ffffffff1660e01b81526004016112a09493929190613ce1565b600060405180830381600087803b1580156112ba57600080fd5b505af11580156112ce573d6000803e3d6000fd5b50505050600760008973ffffffffffffffffffffffffffffffffffffffff1673ffffffffffffffffffffffffffffffffffffffff16815260200190815260200160002060008773ffffffffffffffffffffffffffffffffffffffff1673ffffffffffffffffffffffffffffffffffffffff1681526020019081526020016000206000600180811115611363576113626141ad565b5b81526020019081526020016000206040518061016001604052806009548152602001600180811115611398576113976141ad565b5b81526020013373ffffffffffffffffffffffffffffffffffffffff1681526020018a73ffffffffffffffffffffffffffffffffffffffff1681526020018981526020018873ffffffffffffffffffffffffffffffffffffffff16815260200187815260200186815260200189815260200187815260200185151581525090806001815401808255809150506001900390600052602060002090600a02016000909190919091506000820151816000015560208201518160010160006101000a81548160ff02191690836001811115611473576114726141ad565b5b021790555060408201518160010160016101000a81548173ffffffffffffffffffffffffffffffffffffffff021916908373ffffffffffffffffffffffffffffffffffffffff16021790555060608201518160020160006101000a81548173ffffffffffffffffffffffffffffffffffffffff021916908373ffffffffffffffffffffffffffffffffffffffff1602179055506080820151816003015560a08201518160040160006101000a81548173ffffffffffffffffffffffffffffffffffffffff021916908373ffffffffffffffffffffffffffffffffffffffff16021790555060c0820151816005015560e08201518160060155610100820151816007015561012082015181600801556101408201518160090160006101000a81548160ff02191690831515021790555050507fcb2df66a1a7db52683240584eca4355946d7b80a59dcb7707aa8dd95463ed7446009546001338b8b8b8b8b8f8e8d6040516115ea9b9a99989796959493929190613f82565b60405180910390a16116086001600954612ee990919063ffffffff16565b6009819055505050505050505050565b611620612eff565b61162a6000612f7d565b565b600560009054906101000a900473ffffffffffffffffffffffffffffffffffffffff1681565b60008060009054906101000a900473ffffffffffffffffffffffffffffffffffffffff16905090565b611683613049565b6000600860008673ffffffffffffffffffffffffffffffffffffffff1673ffffffffffffffffffffffffffffffffffffffff16815260200190815260200160002060008560018111156116d9576116d86141ad565b5b815260200190815260200160002083815481106116f9576116f861420b565b5b90600052602060002090600b020160405180610180016040529081600082015481526020016001820160009054906101000a900460ff166001811115611742576117416141ad565b5b6001811115611754576117536141ad565b5b81526020016001820160019054906101000a900473ffffffffffffffffffffffffffffffffffffffff1673ffffffffffffffffffffffffffffffffffffffff1673ffffffffffffffffffffffffffffffffffffffff1681526020016002820160009054906101000a900473ffffffffffffffffffffffffffffffffffffffff1673ffffffffffffffffffffffffffffffffffffffff1673ffffffffffffffffffffffffffffffffffffffff1681526020016003820160009054906101000a900473ffffffffffffffffffffffffffffffffffffffff1673ffffffffffffffffffffffffffffffffffffffff1673ffffffffffffffffffffffffffffffffffffffff16815260200160048201548152602001600582015481526020016006820154815260200160078201548152602001600882015481526020016009820160009054906101000a900460ff16151515158152602001600a820154815250509050809150509392505050565b6118c6613100565b600080600090506000600760008973ffffffffffffffffffffffffffffffffffffffff1673ffffffffffffffffffffffffffffffffffffffff16815260200190815260200160002060008873ffffffffffffffffffffffffffffffffffffffff1673ffffffffffffffffffffffffffffffffffffffff1681526020019081526020016000206000878152602001908152602001600020805480602002602001604051908101604052809291908181526020016000905b82821015611b4357838290600052602060002090600a020160405180610160016040529081600082015481526020016001820160009054906101000a900460ff1660018111156119cf576119ce6141ad565b5b60018111156119e1576119e06141ad565b5b81526020016001820160019054906101000a900473ffffffffffffffffffffffffffffffffffffffff1673ffffffffffffffffffffffffffffffffffffffff1673ffffffffffffffffffffffffffffffffffffffff1681526020016002820160009054906101000a900473ffffffffffffffffffffffffffffffffffffffff1673ffffffffffffffffffffffffffffffffffffffff1673ffffffffffffffffffffffffffffffffffffffff168152602001600382015481526020016004820160009054906101000a900473ffffffffffffffffffffffffffffffffffffffff1673ffffffffffffffffffffffffffffffffffffffff1673ffffffffffffffffffffffffffffffffffffffff168152602001600582015481526020016006820154815260200160078201548152602001600882015481526020016009820160009054906101000a900460ff1615151515815250508152602001906001019061197c565b505050509050611b51613100565b5b8151831015611bb65785828481518110611b6f57611b6e61420b565b5b6020026020010151600001511415611ba357818381518110611b9457611b9361420b565b5b60200260200101519050611bb6565b8280611bae90614135565b935050611b52565b80839450945050505094509492505050565b60095481565b60068181548110611bde57600080fd5b90600052602060002090600202016000915090508060000160009054906101000a900473ffffffffffffffffffffffffffffffffffffffff16908060010154905082565b611c2a612eff565b80600360006101000a81548173ffffffffffffffffffffffffffffffffffffffff021916908373ffffffffffffffffffffffffffffffffffffffff16021790555050565b611c76612eff565b611c7f826104bd565b15611cbf576040517f08c379a0000000000000000000000000000000000000000000000000000000008152600401611cb690613e0a565b60405180910390fd5b600660405180604001604052808473ffffffffffffffffffffffffffffffffffffffff16815260200183815250908060018154018082558091505060019003906000526020600020906002020160009091909190915060008201518160000160006101000a81548173ffffffffffffffffffffffffffffffffffffffff021916908373ffffffffffffffffffffffffffffffffffffffff1602179055506020820151816001015550505050565b611d74612eff565b80600160006101000a81548173ffffffffffffffffffffffffffffffffffffffff021916908373ffffffffffffffffffffffffffffffffffffffff16021790555050565b60086020528260005260406000206020528160005260406000208181548110611de057600080fd5b90600052602060002090600b020160009250925050508060000154908060010160009054906101000a900460ff16908060010160019054906101000a900473ffffffffffffffffffffffffffffffffffffffff16908060020160009054906101000a900473ffffffffffffffffffffffffffffffffffffffff16908060030160009054906101000a900473ffffffffffffffffffffffffffffffffffffffff16908060040154908060050154908060060154908060070154908060080154908060090160009054906101000a900460ff169080600a015490508c565b6000600860008473ffffffffffffffffffffffffffffffffffffffff1673ffffffffffffffffffffffffffffffffffffffff1681526020019081526020016000206000836001811115611f1257611f116141ad565b5b815260200190815260200160002080549050905092915050565b611f34612eff565b80600260006101000a81548173ffffffffffffffffffffffffffffffffffffffff021916908373ffffffffffffffffffffffffffffffffffffffff16021790555050565b60076020528360005260406000206020528260005260406000206020528160005260406000208181548110611fac57600080fd5b90600052602060002090600a02016000935093505050508060000154908060010160009054906101000a900460ff16908060010160019054906101000a900473ffffffffffffffffffffffffffffffffffffffff16908060020160009054906101000a900473ffffffffffffffffffffffffffffffffffffffff16908060030154908060040160009054906101000a900473ffffffffffffffffffffffffffffffffffffffff16908060050154908060060154908060070154908060080154908060090160009054906101000a900460ff1690508b565b61208b613100565b6000600760008773ffffffffffffffffffffffffffffffffffffffff1673ffffffffffffffffffffffffffffffffffffffff16815260200190815260200160002060008673ffffffffffffffffffffffffffffffffffffffff1673ffffffffffffffffffffffffffffffffffffffff168152602001908152602001600020600084600181111561211e5761211d6141ad565b5b8152602001908152602001600020848154811061213e5761213d61420b565b5b90600052602060002090600a020160405180610160016040529081600082015481526020016001820160009054906101000a900460ff166001811115612187576121866141ad565b5b6001811115612199576121986141ad565b5b81526020016001820160019054906101000a900473ffffffffffffffffffffffffffffffffffffffff1673ffffffffffffffffffffffffffffffffffffffff1673ffffffffffffffffffffffffffffffffffffffff1681526020016002820160009054906101000a900473ffffffffffffffffffffffffffffffffffffffff1673ffffffffffffffffffffffffffffffffffffffff1673ffffffffffffffffffffffffffffffffffffffff168152602001600382015481526020016004820160009054906101000a900473ffffffffffffffffffffffffffffffffffffffff1673ffffffffffffffffffffffffffffffffffffffff1673ffffffffffffffffffffffffffffffffffffffff168152602001600582015481526020016006820154815260200160078201548152602001600882015481526020016009820160009054906101000a900460ff161515151581525050905080915050949350505050565b612302612eff565b600073ffffffffffffffffffffffffffffffffffffffff168173ffffffffffffffffffffffffffffffffffffffff161415612372576040517f08c379a000000000000000000000000000000000000000000000000000000000815260040161236990613d8a565b60405180910390fd5b61237b81612f7d565b50565b8284838361238e848484846106f7565b6123cd576040517f08c379a00000000000000000000000000000000000000000000000000000000081526004016123c490613d6a565b60405180910390fd5b856123d7816104bd565b612416576040517f08c379a000000000000000000000000000000000000000000000000000000000815260040161240d90613daa565b60405180910390fd5b85612420816104bd565b61245f576040517f08c379a000000000000000000000000000000000000000000000000000000000815260040161245690613daa565b60405180910390fd5b60008a6001811115612474576124736141ad565b5b90506000600760008b73ffffffffffffffffffffffffffffffffffffffff1673ffffffffffffffffffffffffffffffffffffffff16815260200190815260200160002060008a73ffffffffffffffffffffffffffffffffffffffff1673ffffffffffffffffffffffffffffffffffffffff16815260200190815260200160002060008381526020019081526020016000209050600081805490509050612518613100565b600080600090505b83811015612732578e85828154811061253c5761253b61420b565b5b90600052602060002090600a020160000154141561271f5780915084818154811061256a5761256961420b565b5b90600052602060002090600a020160405180610160016040529081600082015481526020016001820160009054906101000a900460ff1660018111156125b3576125b26141ad565b5b60018111156125c5576125c46141ad565b5b81526020016001820160019054906101000a900473ffffffffffffffffffffffffffffffffffffffff1673ffffffffffffffffffffffffffffffffffffffff1673ffffffffffffffffffffffffffffffffffffffff1681526020016002820160009054906101000a900473ffffffffffffffffffffffffffffffffffffffff1673ffffffffffffffffffffffffffffffffffffffff1673ffffffffffffffffffffffffffffffffffffffff168152602001600382015481526020016004820160009054906101000a900473ffffffffffffffffffffffffffffffffffffffff1673ffffffffffffffffffffffffffffffffffffffff1673ffffffffffffffffffffffffffffffffffffffff168152602001600582015481526020016006820154815260200160078201548152602001600882015481526020016009820160009054906101000a900460ff1615151515815250509250612732565b808061272a90614135565b915050612520565b50600a60009054906101000a900460ff161561295357816040015173ffffffffffffffffffffffffffffffffffffffff163373ffffffffffffffffffffffffffffffffffffffff16146127ba576040517f08c379a00000000000000000000000000000000000000000000000000000000081526004016127b190613dea565b60405180910390fd5b600060018111156127ce576127cd6141ad565b5b8f60018111156127e1576127e06141ad565b5b141561288857600360009054906101000a900473ffffffffffffffffffffffffffffffffffffffff1673ffffffffffffffffffffffffffffffffffffffff1663fc11a3d6338460a001518560c0015160006040518563ffffffff1660e01b81526004016128519493929190613ce1565b600060405180830381600087803b15801561286b57600080fd5b505af115801561287f573d6000803e3d6000fd5b50505050612952565b60018081111561289b5761289a6141ad565b5b8f60018111156128ae576128ad6141ad565b5b141561295157600360009054906101000a900473ffffffffffffffffffffffffffffffffffffffff1673ffffffffffffffffffffffffffffffffffffffff1663fc11a3d6338460600151856080015160006040518563ffffffff1660e01b815260040161291e9493929190613ce1565b600060405180830381600087803b15801561293857600080fd5b505af115801561294c573d6000803e3d6000fd5b505050505b5b5b60008190505b6001846129669190614094565b811015612bb35784612982600183612ee990919063ffffffff16565b815481106129935761299261420b565b5b90600052602060002090600a02018582815481106129b4576129b361420b565b5b90600052602060002090600a0201600082015481600001556001820160009054906101000a900460ff168160010160006101000a81548160ff02191690836001811115612a0457612a036141ad565b5b02179055506001820160019054906101000a900473ffffffffffffffffffffffffffffffffffffffff168160010160016101000a81548173ffffffffffffffffffffffffffffffffffffffff021916908373ffffffffffffffffffffffffffffffffffffffff1602179055506002820160009054906101000a900473ffffffffffffffffffffffffffffffffffffffff168160020160006101000a81548173ffffffffffffffffffffffffffffffffffffffff021916908373ffffffffffffffffffffffffffffffffffffffff160217905550600382015481600301556004820160009054906101000a900473ffffffffffffffffffffffffffffffffffffffff168160040160006101000a81548173ffffffffffffffffffffffffffffffffffffffff021916908373ffffffffffffffffffffffffffffffffffffffff160217905550600582015481600501556006820154816006015560078201548160070155600882015481600801556009820160009054906101000a900460ff168160090160006101000a81548160ff0219169083151502179055509050508080612bab90614135565b915050612959565b5083612bc9600185612ed390919063ffffffff16565b81548110612bda57612bd961420b565b5b90600052602060002090600a02016000808201600090556001820160006101000a81549060ff02191690556001820160016101000a81549073ffffffffffffffffffffffffffffffffffffffff02191690556002820160006101000a81549073ffffffffffffffffffffffffffffffffffffffff021916905560038201600090556004820160006101000a81549073ffffffffffffffffffffffffffffffffffffffff021916905560058201600090556006820160009055600782016000905560088201600090556009820160006101000a81549060ff0219169055505083805480612cc957612cc86141dc565b5b60019003818190600052602060002090600a02016000808201600090556001820160006101000a81549060ff02191690556001820160016101000a81549073ffffffffffffffffffffffffffffffffffffffff02191690556002820160006101000a81549073ffffffffffffffffffffffffffffffffffffffff021916905560038201600090556004820160006101000a81549073ffffffffffffffffffffffffffffffffffffffff021916905560058201600090556006820160009055600782016000905560088201600090556009820160006101000a81549060ff02191690555050905583600760008f73ffffffffffffffffffffffffffffffffffffffff1673ffffffffffffffffffffffffffffffffffffffff16815260200190815260200160002060008e73ffffffffffffffffffffffffffffffffffffffff1673ffffffffffffffffffffffffffffffffffffffff1681526020019081526020016000206000878152602001908152602001600020908054612e4b9291906131b0565b507fa1cc643491754200d3eca5769e524a0fd00f9b0862b18d0da7d6e7277a83dfda8e83602001518460400151856060015186608001518760a001518860c001518960e001518a61010001518b61012001518c6101400151604051612eba9b9a99989796959493929190613f82565b60405180910390a1505050505050505050505050505050565b60008183612ee19190614094565b905092915050565b60008183612ef7919061403e565b905092915050565b612f07613041565b73ffffffffffffffffffffffffffffffffffffffff16612f25611652565b73ffffffffffffffffffffffffffffffffffffffff1614612f7b576040517f08c379a0000000000000000000000000000000000000000000000000000000008152600401612f7290613e2a565b60405180910390fd5b565b60008060009054906101000a900473ffffffffffffffffffffffffffffffffffffffff169050816000806101000a81548173ffffffffffffffffffffffffffffffffffffffff021916908373ffffffffffffffffffffffffffffffffffffffff1602179055508173ffffffffffffffffffffffffffffffffffffffff168173ffffffffffffffffffffffffffffffffffffffff167f8be0079c531659141344cd1fd0a4f28419497f9722a3daafe3b4186f6b6457e060405160405180910390a35050565b600033905090565b60405180610180016040528060008152602001600060018111156130705761306f6141ad565b5b8152602001600073ffffffffffffffffffffffffffffffffffffffff168152602001600073ffffffffffffffffffffffffffffffffffffffff168152602001600073ffffffffffffffffffffffffffffffffffffffff1681526020016000815260200160008152602001600081526020016000815260200160008152602001600015158152602001600081525090565b6040518061016001604052806000815260200160006001811115613127576131266141ad565b5b8152602001600073ffffffffffffffffffffffffffffffffffffffff168152602001600073ffffffffffffffffffffffffffffffffffffffff16815260200160008152602001600073ffffffffffffffffffffffffffffffffffffffff168152602001600081526020016000815260200160008152602001600081526020016000151581525090565b82805482825590600052602060002090600a0281019282156133d257600052602060002091600a0282015b828111156133d1578282600082015481600001556001820160009054906101000a900460ff168160010160006101000a81548160ff02191690836001811115613227576132266141ad565b5b02179055506001820160019054906101000a900473ffffffffffffffffffffffffffffffffffffffff168160010160016101000a81548173ffffffffffffffffffffffffffffffffffffffff021916908373ffffffffffffffffffffffffffffffffffffffff1602179055506002820160009054906101000a900473ffffffffffffffffffffffffffffffffffffffff168160020160006101000a81548173ffffffffffffffffffffffffffffffffffffffff021916908373ffffffffffffffffffffffffffffffffffffffff160217905550600382015481600301556004820160009054906101000a900473ffffffffffffffffffffffffffffffffffffffff168160040160006101000a81548173ffffffffffffffffffffffffffffffffffffffff021916908373ffffffffffffffffffffffffffffffffffffffff160217905550600582015481600501556006820154816006015560078201548160070155600882015481600801556009820160009054906101000a900460ff168160090160006101000a81548160ff021916908315150217905550505091600a019190600a01906131db565b5b5090506133df91906133e3565b5090565b5b808211156134c3576000808201600090556001820160006101000a81549060ff02191690556001820160016101000a81549073ffffffffffffffffffffffffffffffffffffffff02191690556002820160006101000a81549073ffffffffffffffffffffffffffffffffffffffff021916905560038201600090556004820160006101000a81549073ffffffffffffffffffffffffffffffffffffffff021916905560058201600090556006820160009055600782016000905560088201600090556009820160006101000a81549060ff021916905550600a016133e4565b5090565b6000813590506134d681614398565b92915050565b6000813590506134eb816143af565b92915050565b600081359050613500816143c6565b92915050565b600081359050613515816143d6565b92915050565b60008151905061352a816143d6565b92915050565b6000602082840312156135465761354561423a565b5b6000613554848285016134c7565b91505092915050565b600080600080608085870312156135775761357661423a565b5b6000613585878288016134c7565b9450506020613596878288016134c7565b93505060406135a787828801613506565b92505060606135b8878288016134f1565b91505092959194509250565b600080600080608085870312156135de576135dd61423a565b5b60006135ec878288016134c7565b94505060206135fd878288016134c7565b935050604061360e87828801613506565b925050606061361f87828801613506565b91505092959194509250565b600080604083850312156136425761364161423a565b5b6000613650858286016134c7565b9250506020613661858286016134f1565b9150509250929050565b6000806000606084860312156136845761368361423a565b5b6000613692868287016134c7565b93505060206136a3868287016134f1565b92505060406136b486828701613506565b9150509250925092565b600080604083850312156136d5576136d461423a565b5b60006136e3858286016134c7565b92505060206136f485828601613506565b9150509250929050565b60008060008060008060c0878903121561371b5761371a61423a565b5b600061372989828a016134c7565b965050602061373a89828a01613506565b955050604061374b89828a016134c7565b945050606061375c89828a01613506565b935050608061376d89828a01613506565b92505060a061377e89828a016134dc565b9150509295509295509295565b6000806000606084860312156137a4576137a361423a565b5b60006137b2868287016134c7565b93505060206137c386828701613506565b92505060406137d486828701613506565b9150509250925092565b6000806000606084860312156137f7576137f661423a565b5b6000613805868287016134f1565b9350506020613816868287016134c7565b9250506040613827868287016134c7565b9150509250925092565b6000806000806080858703121561384b5761384a61423a565b5b6000613859878288016134f1565b945050602061386a87828801613506565b935050604061387b878288016134c7565b925050606061388c878288016134c7565b91505092959194509250565b6000602082840312156138ae576138ad61423a565b5b60006138bc84828501613506565b91505092915050565b6000602082840312156138db576138da61423a565b5b60006138e98482850161351b565b91505092915050565b6000806000806080858703121561390c5761390b61423a565b5b600061391a87828801613506565b945050602061392b878288016134f1565b935050604061393c878288016134c7565b925050606061394d878288016134c7565b91505092959194509250565b613962816140c8565b82525050565b613971816140c8565b82525050565b613980816140da565b82525050565b61398f816140da565b82525050565b61399e81614123565b82525050565b6139ad81614123565b82525050565b60006139c060108361402d565b91506139cb8261423f565b602082019050919050565b60006139e360268361402d565b91506139ee82614268565b604082019050919050565b6000613a0660188361402d565b9150613a11826142b7565b602082019050919050565b6000613a2960128361402d565b9150613a34826142e0565b602082019050919050565b6000613a4c60098361402d565b9150613a5782614309565b602082019050919050565b6000613a6f60168361402d565b9150613a7a82614332565b602082019050919050565b6000613a9260208361402d565b9150613a9d8261435b565b602082019050919050565b61016082016000820151613abf6000850182613c7f565b506020820151613ad26020850182613995565b506040820151613ae56040850182613959565b506060820151613af86060850182613959565b506080820151613b0b6080850182613c7f565b5060a0820151613b1e60a0850182613959565b5060c0820151613b3160c0850182613c7f565b5060e0820151613b4460e0850182613c7f565b50610100820151613b59610100850182613c7f565b50610120820151613b6e610120850182613c7f565b50610140820151613b83610140850182613977565b50505050565b61018082016000820151613ba06000850182613c7f565b506020820151613bb36020850182613995565b506040820151613bc66040850182613959565b506060820151613bd96060850182613959565b506080820151613bec6080850182613959565b5060a0820151613bff60a0850182613c7f565b5060c0820151613c1260c0850182613c7f565b5060e0820151613c2560e0850182613c7f565b50610100820151613c3a610100850182613c7f565b50610120820151613c4f610120850182613c7f565b50610140820151613c64610140850182613977565b50610160820151613c79610160850182613c7f565b50505050565b613c8881614119565b82525050565b613c9781614119565b82525050565b6000602082019050613cb26000830184613968565b92915050565b6000604082019050613ccd6000830185613968565b613cda6020830184613968565b9392505050565b6000608082019050613cf66000830187613968565b613d036020830186613968565b613d106040830185613c8e565b613d1d6060830184613986565b95945050505050565b6000604082019050613d3b6000830185613968565b613d486020830184613c8e565b9392505050565b6000602082019050613d646000830184613986565b92915050565b60006020820190508181036000830152613d83816139b3565b9050919050565b60006020820190508181036000830152613da3816139d6565b9050919050565b60006020820190508181036000830152613dc3816139f9565b9050919050565b60006020820190508181036000830152613de381613a1c565b9050919050565b60006020820190508181036000830152613e0381613a3f565b9050919050565b60006020820190508181036000830152613e2381613a62565b9050919050565b60006020820190508181036000830152613e4381613a85565b9050919050565b600061016082019050613e606000830184613aa8565b92915050565b600061018082019050613e7c6000830185613aa8565b613e8a610160830184613c8e565b9392505050565b600061018082019050613ea76000830184613b89565b92915050565b6000602082019050613ec26000830184613c8e565b92915050565b600061018082019050613ede600083018f613c8e565b613eeb602083018e6139a4565b613ef8604083018d613968565b613f05606083018c613968565b613f12608083018b613968565b613f1f60a083018a613c8e565b613f2c60c0830189613c8e565b613f3960e0830188613c8e565b613f47610100830187613c8e565b613f55610120830186613c8e565b613f63610140830185613986565b613f71610160830184613c8e565b9d9c50505050505050505050505050565b600061016082019050613f98600083018e613c8e565b613fa5602083018d6139a4565b613fb2604083018c613968565b613fbf606083018b613968565b613fcc608083018a613c8e565b613fd960a0830189613968565b613fe660c0830188613c8e565b613ff360e0830187613c8e565b614001610100830186613c8e565b61400f610120830185613c8e565b61401d610140830184613986565b9c9b505050505050505050505050565b600082825260208201905092915050565b600061404982614119565b915061405483614119565b9250827fffffffffffffffffffffffffffffffffffffffffffffffffffffffffffffffff038211156140895761408861417e565b5b828201905092915050565b600061409f82614119565b91506140aa83614119565b9250828210156140bd576140bc61417e565b5b828203905092915050565b60006140d3826140f9565b9050919050565b60008115159050919050565b60008190506140f482614384565b919050565b600073ffffffffffffffffffffffffffffffffffffffff82169050919050565b6000819050919050565b600061412e826140e6565b9050919050565b600061414082614119565b91507fffffffffffffffffffffffffffffffffffffffffffffffffffffffffffffffff8214156141735761417261417e565b5b600182019050919050565b7f4e487b7100000000000000000000000000000000000000000000000000000000600052601160045260246000fd5b7f4e487b7100000000000000000000000000000000000000000000000000000000600052602160045260246000fd5b7f4e487b7100000000000000000000000000000000000000000000000000000000600052603160045260246000fd5b7f4e487b7100000000000000000000000000000000000000000000000000000000600052603260045260246000fd5b600080fd5b7f496e76616c6964204f7264657220494400000000000000000000000000000000600082015250565b7f4f776e61626c653a206e6577206f776e657220697320746865207a65726f206160008201527f6464726573730000000000000000000000000000000000000000000000000000602082015250565b7f546f6b656e20756e617661696c61626c6520696e204445580000000000000000600082015250565b7f496e73756666696369656e742046756e64730000000000000000000000000000600082015250565b7f4e6f74204f776e65720000000000000000000000000000000000000000000000600082015250565b7f546f6b656e20616c726561647920766572696669656400000000000000000000600082015250565b7f4f776e61626c653a2063616c6c6572206973206e6f7420746865206f776e6572600082015250565b60028110614395576143946141ad565b5b50565b6143a1816140c8565b81146143ac57600080fd5b50565b6143b8816140da565b81146143c357600080fd5b50565b600281106143d357600080fd5b50565b6143df81614119565b81146143ea57600080fd5b5056fea2646970667358221220b4527b55633c67351cc624550c5da4a9aedbfe9d49a4846f4d61b6b219b9906f64736f6c63430008070033",
  "linkReferences": {},
  "deployedLinkReferences": {}
}