{
  "_format": "hh-sol-artifact-1",
  "contractName": "Exchange",
  "sourceName": "contracts/Exchange.sol",
  "abi": [
    {
      "inputs": [
        {
          "internalType": "address",
          "name": "_wallet",
          "type": "address"
        },
        {
          "internalType": "address",
          "name": "_fees",
          "type": "address"
        },
        {
          "internalType": "address",
          "name": "_priceChecker",
          "type": "address"
        }
      ],
      "stateMutability": "nonpayable",
      "type": "constructor"
    },
    {
      "anonymous": false,
      "inputs": [
        {
          "indexed": false,
          "internalType": "uint256",
          "name": "id",
          "type": "uint256"
        },
        {
          "indexed": false,
          "internalType": "enum Exchange.Side",
          "name": "side",
          "type": "uint8"
        },
        {
          "indexed": false,
          "internalType": "address",
          "name": "user",
          "type": "address"
        },
        {
          "indexed": false,
          "internalType": "address",
          "name": "tokenA",
          "type": "address"
        },
        {
          "indexed": false,
          "internalType": "uint256",
          "name": "amountA",
          "type": "uint256"
        },
        {
          "indexed": false,
          "internalType": "address",
          "name": "tokenB",
          "type": "address"
        },
        {
          "indexed": false,
          "internalType": "uint256",
          "name": "amountB",
          "type": "uint256"
        },
        {
          "indexed": false,
          "internalType": "uint256",
          "name": "rate",
          "type": "uint256"
        },
        {
          "indexed": false,
          "internalType": "uint256",
          "name": "originalAmountA",
          "type": "uint256"
        },
        {
          "indexed": false,
          "internalType": "uint256",
          "name": "originalAmountB",
          "type": "uint256"
        },
        {
          "indexed": false,
          "internalType": "bool",
          "name": "waiveFees",
          "type": "bool"
        }
      ],
      "name": "Cancel",
      "type": "event"
    },
    {
      "anonymous": false,
      "inputs": [
        {
          "indexed": false,
          "internalType": "uint256",
          "name": "id",
          "type": "uint256"
        },
        {
          "indexed": false,
          "internalType": "enum Exchange.Side",
          "name": "side",
          "type": "uint8"
        },
        {
          "indexed": false,
          "internalType": "address",
          "name": "user",
          "type": "address"
        },
        {
          "indexed": false,
          "internalType": "address",
          "name": "tokenA",
          "type": "address"
        },
        {
          "indexed": false,
          "internalType": "uint256",
          "name": "amountA",
          "type": "uint256"
        },
        {
          "indexed": false,
          "internalType": "address",
          "name": "tokenB",
          "type": "address"
        },
        {
          "indexed": false,
          "internalType": "uint256",
          "name": "amountB",
          "type": "uint256"
        },
        {
          "indexed": false,
          "internalType": "uint256",
          "name": "rate",
          "type": "uint256"
        },
        {
          "indexed": false,
          "internalType": "uint256",
          "name": "originalAmountA",
          "type": "uint256"
        },
        {
          "indexed": false,
          "internalType": "uint256",
          "name": "originalAmountB",
          "type": "uint256"
        },
        {
          "indexed": false,
          "internalType": "bool",
          "name": "waiveFees",
          "type": "bool"
        }
      ],
      "name": "Order",
      "type": "event"
    },
    {
      "anonymous": false,
      "inputs": [
        {
          "indexed": true,
          "internalType": "address",
          "name": "previousOwner",
          "type": "address"
        },
        {
          "indexed": true,
          "internalType": "address",
          "name": "newOwner",
          "type": "address"
        }
      ],
      "name": "OwnershipTransferred",
      "type": "event"
    },
    {
      "anonymous": false,
      "inputs": [
        {
          "indexed": false,
          "internalType": "uint256",
          "name": "id",
          "type": "uint256"
        },
        {
          "indexed": false,
          "internalType": "enum Exchange.Side",
          "name": "side",
          "type": "uint8"
        },
        {
          "indexed": false,
          "internalType": "address",
          "name": "user",
          "type": "address"
        },
        {
          "indexed": false,
          "internalType": "address",
          "name": "tokenA",
          "type": "address"
        },
        {
          "indexed": false,
          "internalType": "address",
          "name": "tokenB",
          "type": "address"
        },
        {
          "indexed": false,
          "internalType": "uint256",
          "name": "amountFilled",
          "type": "uint256"
        },
        {
          "indexed": false,
          "internalType": "uint256",
          "name": "fillRate",
          "type": "uint256"
        },
        {
          "indexed": false,
          "internalType": "uint256",
          "name": "originalRate",
          "type": "uint256"
        },
        {
          "indexed": false,
          "internalType": "uint256",
          "name": "originalAmountA",
          "type": "uint256"
        },
        {
          "indexed": false,
          "internalType": "uint256",
          "name": "originalAmountB",
          "type": "uint256"
        },
        {
          "indexed": false,
          "internalType": "bool",
          "name": "feesWaived",
          "type": "bool"
        },
        {
          "indexed": false,
          "internalType": "uint256",
          "name": "feesPaid",
          "type": "uint256"
        }
      ],
      "name": "filledOrder",
      "type": "event"
    },
    {
      "inputs": [
        {
          "internalType": "address",
          "name": "_token",
          "type": "address"
        },
        {
          "internalType": "uint256",
          "name": "_decimals",
          "type": "uint256"
        }
      ],
      "name": "addToken",
      "outputs": [],
      "stateMutability": "nonpayable",
      "type": "function"
    },
    {
      "inputs": [
        {
          "internalType": "enum Exchange.Side",
          "name": "side",
          "type": "uint8"
        },
        {
          "internalType": "uint256",
          "name": "_id",
          "type": "uint256"
        },
        {
          "internalType": "address",
          "name": "_tokenA",
          "type": "address"
        },
        {
          "internalType": "address",
          "name": "_tokenB",
          "type": "address"
        }
      ],
      "name": "cancelOrder",
      "outputs": [],
      "stateMutability": "nonpayable",
      "type": "function"
    },
    {
      "inputs": [
        {
          "internalType": "address",
          "name": "_tokenA",
          "type": "address"
        },
        {
          "internalType": "uint256",
          "name": "_amountA",
          "type": "uint256"
        },
        {
          "internalType": "address",
          "name": "_tokenB",
          "type": "address"
        },
        {
          "internalType": "uint256",
          "name": "_amountB",
          "type": "uint256"
        },
        {
          "internalType": "uint256",
          "name": "_rate",
          "type": "uint256"
        },
        {
          "internalType": "bool",
          "name": "_waiveFees",
          "type": "bool"
        }
      ],
      "name": "createLimitBuyOrder",
      "outputs": [],
      "stateMutability": "nonpayable",
      "type": "function"
    },
    {
      "inputs": [
        {
          "internalType": "address",
          "name": "_tokenA",
          "type": "address"
        },
        {
          "internalType": "uint256",
          "name": "_amountA",
          "type": "uint256"
        },
        {
          "internalType": "address",
          "name": "_tokenB",
          "type": "address"
        },
        {
          "internalType": "uint256",
          "name": "_amountB",
          "type": "uint256"
        },
        {
          "internalType": "uint256",
          "name": "_rate",
          "type": "uint256"
        },
        {
          "internalType": "bool",
          "name": "_waiveFees",
          "type": "bool"
        }
      ],
      "name": "createLimitSellOrder",
      "outputs": [],
      "stateMutability": "nonpayable",
      "type": "function"
    },
    {
      "inputs": [],
      "name": "ethToken",
      "outputs": [
        {
          "internalType": "address",
          "name": "",
          "type": "address"
        }
      ],
      "stateMutability": "view",
      "type": "function"
    },
    {
      "inputs": [
        {
          "internalType": "address",
          "name": "_user",
          "type": "address"
        },
        {
          "internalType": "enum Exchange.Side",
          "name": "side",
          "type": "uint8"
        },
        {
          "internalType": "uint256",
          "name": "index",
          "type": "uint256"
        }
      ],
      "name": "getFilledOrder",
      "outputs": [
        {
          "components": [
            {
              "internalType": "uint256",
              "name": "id",
              "type": "uint256"
            },
            {
              "internalType": "enum Exchange.Side",
              "name": "side",
              "type": "uint8"
            },
            {
              "internalType": "address",
              "name": "user",
              "type": "address"
            },
            {
              "internalType": "address",
              "name": "tokenA",
              "type": "address"
            },
            {
              "internalType": "address",
              "name": "tokenB",
              "type": "address"
            },
            {
              "internalType": "uint256",
              "name": "amountFilled",
              "type": "uint256"
            },
            {
              "internalType": "uint256",
              "name": "fillRate",
              "type": "uint256"
            },
            {
              "internalType": "uint256",
              "name": "originalRate",
              "type": "uint256"
            },
            {
              "internalType": "uint256",
              "name": "originalAmountA",
              "type": "uint256"
            },
            {
              "internalType": "uint256",
              "name": "originalAmountB",
              "type": "uint256"
            },
            {
              "internalType": "bool",
              "name": "feesWaived",
              "type": "bool"
            },
            {
              "internalType": "uint256",
              "name": "feesPaid",
              "type": "uint256"
            }
          ],
          "internalType": "struct Exchange._filledOrder",
          "name": "",
          "type": "tuple"
        }
      ],
      "stateMutability": "view",
      "type": "function"
    },
    {
      "inputs": [
        {
          "internalType": "address",
          "name": "_user",
          "type": "address"
        },
        {
          "internalType": "enum Exchange.Side",
          "name": "side",
          "type": "uint8"
        }
      ],
      "name": "getFilledOrderLength",
      "outputs": [
        {
          "internalType": "uint256",
          "name": "",
          "type": "uint256"
        }
      ],
      "stateMutability": "view",
      "type": "function"
    },
    {
      "inputs": [
        {
          "internalType": "address",
          "name": "_tokenA",
          "type": "address"
        },
        {
          "internalType": "address",
          "name": "_tokenB",
          "type": "address"
        },
        {
          "internalType": "uint256",
          "name": "index",
          "type": "uint256"
        },
        {
          "internalType": "enum Exchange.Side",
          "name": "side",
          "type": "uint8"
        }
      ],
      "name": "getOrder",
      "outputs": [
        {
          "components": [
            {
              "internalType": "uint256",
              "name": "id",
              "type": "uint256"
            },
            {
              "internalType": "enum Exchange.Side",
              "name": "side",
              "type": "uint8"
            },
            {
              "internalType": "address",
              "name": "user",
              "type": "address"
            },
            {
              "internalType": "address",
              "name": "tokenA",
              "type": "address"
            },
            {
              "internalType": "uint256",
              "name": "amountA",
              "type": "uint256"
            },
            {
              "internalType": "address",
              "name": "tokenB",
              "type": "address"
            },
            {
              "internalType": "uint256",
              "name": "amountB",
              "type": "uint256"
            },
            {
              "internalType": "uint256",
              "name": "rate",
              "type": "uint256"
            },
            {
              "internalType": "uint256",
              "name": "originalAmountA",
              "type": "uint256"
            },
            {
              "internalType": "uint256",
              "name": "originalAmountB",
              "type": "uint256"
            },
            {
              "internalType": "bool",
              "name": "waiveFees",
              "type": "bool"
            }
          ],
          "internalType": "struct Exchange._Order",
          "name": "",
          "type": "tuple"
        }
      ],
      "stateMutability": "view",
      "type": "function"
    },
    {
      "inputs": [
        {
          "internalType": "address",
          "name": "_tokenA",
          "type": "address"
        },
        {
          "internalType": "address",
          "name": "_tokenB",
          "type": "address"
        },
        {
          "internalType": "uint256",
          "name": "side",
          "type": "uint256"
        },
        {
          "internalType": "uint256",
          "name": "_id",
          "type": "uint256"
        }
      ],
      "name": "getOrderFromArray",
      "outputs": [
        {
          "components": [
            {
              "internalType": "uint256",
              "name": "id",
              "type": "uint256"
            },
            {
              "internalType": "enum Exchange.Side",
              "name": "side",
              "type": "uint8"
            },
            {
              "internalType": "address",
              "name": "user",
              "type": "address"
            },
            {
              "internalType": "address",
              "name": "tokenA",
              "type": "address"
            },
            {
              "internalType": "uint256",
              "name": "amountA",
              "type": "uint256"
            },
            {
              "internalType": "address",
              "name": "tokenB",
              "type": "address"
            },
            {
              "internalType": "uint256",
              "name": "amountB",
              "type": "uint256"
            },
            {
              "internalType": "uint256",
              "name": "rate",
              "type": "uint256"
            },
            {
              "internalType": "uint256",
              "name": "originalAmountA",
              "type": "uint256"
            },
            {
              "internalType": "uint256",
              "name": "originalAmountB",
              "type": "uint256"
            },
            {
              "internalType": "bool",
              "name": "waiveFees",
              "type": "bool"
            }
          ],
          "internalType": "struct Exchange._Order",
          "name": "",
          "type": "tuple"
        },
        {
          "internalType": "uint256",
          "name": "",
          "type": "uint256"
        }
      ],
      "stateMutability": "view",
      "type": "function"
    },
    {
      "inputs": [
        {
          "internalType": "enum Exchange.Side",
          "name": "side",
          "type": "uint8"
        },
        {
          "internalType": "address",
          "name": "_tokenA",
          "type": "address"
        },
        {
          "internalType": "address",
          "name": "_tokenB",
          "type": "address"
        }
      ],
      "name": "getOrderLength",
      "outputs": [
        {
          "internalType": "uint256",
          "name": "",
          "type": "uint256"
        }
      ],
      "stateMutability": "view",
      "type": "function"
    },
    {
      "inputs": [
        {
          "internalType": "address",
          "name": "_token",
          "type": "address"
        }
      ],
      "name": "getTokenInfo",
      "outputs": [
        {
          "internalType": "uint256",
          "name": "",
          "type": "uint256"
        }
      ],
      "stateMutability": "view",
      "type": "function"
    },
    {
      "inputs": [
        {
          "internalType": "address",
          "name": "_token",
          "type": "address"
        }
      ],
      "name": "isVerifiedToken",
      "outputs": [
        {
          "internalType": "bool",
          "name": "",
          "type": "bool"
        }
      ],
      "stateMutability": "view",
      "type": "function"
    },
    {
      "inputs": [
        {
          "internalType": "uint256",
          "name": "_id",
          "type": "uint256"
        },
        {
          "internalType": "enum Exchange.Side",
          "name": "side",
          "type": "uint8"
        },
        {
          "internalType": "address",
          "name": "_tokenA",
          "type": "address"
        },
        {
          "internalType": "address",
          "name": "_tokenB",
          "type": "address"
        }
      ],
      "name": "orderExists",
      "outputs": [
        {
          "internalType": "bool",
          "name": "",
          "type": "bool"
        }
      ],
      "stateMutability": "view",
      "type": "function"
    },
    {
      "inputs": [],
      "name": "orderStruct",
      "outputs": [
        {
          "internalType": "uint256",
          "name": "id",
          "type": "uint256"
        },
        {
          "internalType": "enum Exchange.Side",
          "name": "side",
          "type": "uint8"
        },
        {
          "internalType": "address",
          "name": "user",
          "type": "address"
        },
        {
          "internalType": "address",
          "name": "tokenA",
          "type": "address"
        },
        {
          "internalType": "uint256",
          "name": "amountA",
          "type": "uint256"
        },
        {
          "internalType": "address",
          "name": "tokenB",
          "type": "address"
        },
        {
          "internalType": "uint256",
          "name": "amountB",
          "type": "uint256"
        },
        {
          "internalType": "uint256",
          "name": "rate",
          "type": "uint256"
        },
        {
          "internalType": "uint256",
          "name": "originalAmountA",
          "type": "uint256"
        },
        {
          "internalType": "uint256",
          "name": "originalAmountB",
          "type": "uint256"
        },
        {
          "internalType": "bool",
          "name": "waiveFees",
          "type": "bool"
        }
      ],
      "stateMutability": "view",
      "type": "function"
    },
    {
      "inputs": [],
      "name": "owner",
      "outputs": [
        {
          "internalType": "address",
          "name": "",
          "type": "address"
        }
      ],
      "stateMutability": "view",
      "type": "function"
    },
    {
      "inputs": [],
      "name": "renounceOwnership",
      "outputs": [],
      "stateMutability": "nonpayable",
      "type": "function"
    },
    {
      "inputs": [
        {
          "internalType": "address",
          "name": "",
          "type": "address"
        },
        {
          "internalType": "uint256",
          "name": "",
          "type": "uint256"
        },
        {
          "internalType": "uint256",
          "name": "",
          "type": "uint256"
        }
      ],
      "name": "s_filledOrders",
      "outputs": [
        {
          "internalType": "uint256",
          "name": "id",
          "type": "uint256"
        },
        {
          "internalType": "enum Exchange.Side",
          "name": "side",
          "type": "uint8"
        },
        {
          "internalType": "address",
          "name": "user",
          "type": "address"
        },
        {
          "internalType": "address",
          "name": "tokenA",
          "type": "address"
        },
        {
          "internalType": "address",
          "name": "tokenB",
          "type": "address"
        },
        {
          "internalType": "uint256",
          "name": "amountFilled",
          "type": "uint256"
        },
        {
          "internalType": "uint256",
          "name": "fillRate",
          "type": "uint256"
        },
        {
          "internalType": "uint256",
          "name": "originalRate",
          "type": "uint256"
        },
        {
          "internalType": "uint256",
          "name": "originalAmountA",
          "type": "uint256"
        },
        {
          "internalType": "uint256",
          "name": "originalAmountB",
          "type": "uint256"
        },
        {
          "internalType": "bool",
          "name": "feesWaived",
          "type": "bool"
        },
        {
          "internalType": "uint256",
          "name": "feesPaid",
          "type": "uint256"
        }
      ],
      "stateMutability": "view",
      "type": "function"
    },
    {
      "inputs": [
        {
          "internalType": "address",
          "name": "",
          "type": "address"
        },
        {
          "internalType": "address",
          "name": "",
          "type": "address"
        },
        {
          "internalType": "uint256",
          "name": "",
          "type": "uint256"
        },
        {
          "internalType": "uint256",
          "name": "",
          "type": "uint256"
        }
      ],
      "name": "s_orderBook",
      "outputs": [
        {
          "internalType": "uint256",
          "name": "id",
          "type": "uint256"
        },
        {
          "internalType": "enum Exchange.Side",
          "name": "side",
          "type": "uint8"
        },
        {
          "internalType": "address",
          "name": "user",
          "type": "address"
        },
        {
          "internalType": "address",
          "name": "tokenA",
          "type": "address"
        },
        {
          "internalType": "uint256",
          "name": "amountA",
          "type": "uint256"
        },
        {
          "internalType": "address",
          "name": "tokenB",
          "type": "address"
        },
        {
          "internalType": "uint256",
          "name": "amountB",
          "type": "uint256"
        },
        {
          "internalType": "uint256",
          "name": "rate",
          "type": "uint256"
        },
        {
          "internalType": "uint256",
          "name": "originalAmountA",
          "type": "uint256"
        },
        {
          "internalType": "uint256",
          "name": "originalAmountB",
          "type": "uint256"
        },
        {
          "internalType": "bool",
          "name": "waiveFees",
          "type": "bool"
        }
      ],
      "stateMutability": "view",
      "type": "function"
    },
    {
      "inputs": [],
      "name": "s_orderId",
      "outputs": [
        {
          "internalType": "uint256",
          "name": "",
          "type": "uint256"
        }
      ],
      "stateMutability": "view",
      "type": "function"
    },
    {
      "inputs": [
        {
          "internalType": "bool",
          "name": "_isManual",
          "type": "bool"
        }
      ],
      "name": "setManual",
      "outputs": [],
      "stateMutability": "nonpayable",
      "type": "function"
    },
    {
      "inputs": [
        {
          "internalType": "address",
          "name": "_PriceCheckeraddress",
          "type": "address"
        }
      ],
      "name": "setPriceCheckerAddress",
      "outputs": [],
      "stateMutability": "nonpayable",
      "type": "function"
    },
    {
      "inputs": [
        {
          "internalType": "address",
          "name": "_tradingFees",
          "type": "address"
        }
      ],
      "name": "setTradingFees",
      "outputs": [],
      "stateMutability": "nonpayable",
      "type": "function"
    },
    {
      "inputs": [
        {
          "internalType": "address",
          "name": "_Walletaddress",
          "type": "address"
        }
      ],
      "name": "setWalletAddress",
      "outputs": [],
      "stateMutability": "nonpayable",
      "type": "function"
    },
    {
      "inputs": [
        {
          "internalType": "uint256",
          "name": "",
          "type": "uint256"
        }
      ],
      "name": "tokenList",
      "outputs": [
        {
          "internalType": "address",
          "name": "add",
          "type": "address"
        },
        {
          "internalType": "uint256",
          "name": "decimals",
          "type": "uint256"
        }
      ],
      "stateMutability": "view",
      "type": "function"
    },
    {
      "inputs": [
        {
          "internalType": "address",
          "name": "newOwner",
          "type": "address"
        }
      ],
      "name": "transferOwnership",
      "outputs": [],
      "stateMutability": "nonpayable",
      "type": "function"
    },
    {
      "inputs": [
        {
          "components": [
            {
              "internalType": "uint256",
              "name": "id",
              "type": "uint256"
            },
            {
              "internalType": "enum Exchange.Side",
              "name": "side",
              "type": "uint8"
            },
            {
              "internalType": "address",
              "name": "user",
              "type": "address"
            },
            {
              "internalType": "address",
              "name": "tokenA",
              "type": "address"
            },
            {
              "internalType": "address",
              "name": "tokenB",
              "type": "address"
            },
            {
              "internalType": "uint256",
              "name": "amountFilled",
              "type": "uint256"
            },
            {
              "internalType": "uint256",
              "name": "fillRate",
              "type": "uint256"
            },
            {
              "internalType": "uint256",
              "name": "originalRate",
              "type": "uint256"
            },
            {
              "internalType": "uint256",
              "name": "originalAmountA",
              "type": "uint256"
            },
            {
              "internalType": "uint256",
              "name": "originalAmountB",
              "type": "uint256"
            },
            {
              "internalType": "bool",
              "name": "feesWaived",
              "type": "bool"
            },
            {
              "internalType": "uint256",
              "name": "feesPaid",
              "type": "uint256"
            }
          ],
          "internalType": "struct Exchange._filledOrder",
          "name": "order",
          "type": "tuple"
        },
        {
          "internalType": "uint256",
          "name": "_side",
          "type": "uint256"
        }
      ],
      "name": "updateFilledOrders",
      "outputs": [],
      "stateMutability": "nonpayable",
      "type": "function"
    },
    {
      "inputs": [
        {
          "components": [
            {
              "internalType": "uint256",
              "name": "id",
              "type": "uint256"
            },
            {
              "internalType": "enum Exchange.Side",
              "name": "side",
              "type": "uint8"
            },
            {
              "internalType": "address",
              "name": "user",
              "type": "address"
            },
            {
              "internalType": "address",
              "name": "tokenA",
              "type": "address"
            },
            {
              "internalType": "uint256",
              "name": "amountA",
              "type": "uint256"
            },
            {
              "internalType": "address",
              "name": "tokenB",
              "type": "address"
            },
            {
              "internalType": "uint256",
              "name": "amountB",
              "type": "uint256"
            },
            {
              "internalType": "uint256",
              "name": "rate",
              "type": "uint256"
            },
            {
              "internalType": "uint256",
              "name": "originalAmountA",
              "type": "uint256"
            },
            {
              "internalType": "uint256",
              "name": "originalAmountB",
              "type": "uint256"
            },
            {
              "internalType": "bool",
              "name": "waiveFees",
              "type": "bool"
            }
          ],
          "internalType": "struct Exchange._Order",
          "name": "order",
          "type": "tuple"
        },
        {
          "internalType": "uint256",
          "name": "_amountA",
          "type": "uint256"
        },
        {
          "internalType": "uint256",
          "name": "_amountB",
          "type": "uint256"
        },
        {
          "internalType": "uint256",
          "name": "_index",
          "type": "uint256"
        }
      ],
      "name": "updateOrder",
      "outputs": [],
      "stateMutability": "nonpayable",
      "type": "function"
    }
  ],
  "bytecode": "0x6080604052670de0b6b3a76400006004556000600560006101000a81548173ffffffffffffffffffffffffffffffffffffffff021916908373ffffffffffffffffffffffffffffffffffffffff16021790555060006009556001600a60006101000a81548160ff0219169083151502179055503480156200007f57600080fd5b5060405162005713380380620057138339818101604052810190620000a5919062000274565b620000c5620000b96200019160201b60201c565b6200019960201b60201c565b82600360006101000a81548173ffffffffffffffffffffffffffffffffffffffff021916908373ffffffffffffffffffffffffffffffffffffffff16021790555081600260006101000a81548173ffffffffffffffffffffffffffffffffffffffff021916908373ffffffffffffffffffffffffffffffffffffffff16021790555080600160006101000a81548173ffffffffffffffffffffffffffffffffffffffff021916908373ffffffffffffffffffffffffffffffffffffffff16021790555050505062000323565b600033905090565b60008060009054906101000a900473ffffffffffffffffffffffffffffffffffffffff169050816000806101000a81548173ffffffffffffffffffffffffffffffffffffffff021916908373ffffffffffffffffffffffffffffffffffffffff1602179055508173ffffffffffffffffffffffffffffffffffffffff168173ffffffffffffffffffffffffffffffffffffffff167f8be0079c531659141344cd1fd0a4f28419497f9722a3daafe3b4186f6b6457e060405160405180910390a35050565b6000815190506200026e8162000309565b92915050565b60008060006060848603121562000290576200028f62000304565b5b6000620002a0868287016200025d565b9350506020620002b3868287016200025d565b9250506040620002c6868287016200025d565b9150509250925092565b6000620002dd82620002e4565b9050919050565b600073ffffffffffffffffffffffffffffffffffffffff82169050919050565b600080fd5b6200031481620002d0565b81146200032057600080fd5b50565b6153e080620003336000396000f3fe608060405234801561001057600080fd5b50600436106101a95760003560e01c80639c07ce26116100f9578063dafbfe6a11610097578063f2fde38b11610071578063f2fde38b14610525578063f90ef4f214610541578063fb310c9b1461055d578063ff09cdfa14610579576101a9565b8063dafbfe6a1461049f578063e4c3c7cd146104bb578063ea42f349146104f5576101a9565b8063af81c5b9116100d3578063af81c5b9146103fc578063b136e39a14610418578063bd8098ec14610434578063c3364be41461046f576101a9565b80639c07ce26146103915780639ead7222146103af578063ac1a386a146103e0576101a9565b806362c09cfa116101665780637bf1a627116101405780637bf1a627146102f45780638da5cb5b146103125780638f101b0e1461033057806392e43d3a14610360576101a9565b806362c09cfa146102b25780636f4e410b146102ce578063715018a6146102ea576101a9565b80630af4e4f0146101ae5780631027b219146101ca57806314eca9dc146101fa5780631cb67fb31461022a5780631f69565f14610252578063429d24b214610282575b600080fd5b6101c860048036038101906101c391906145c8565b610595565b005b6101e460048036038101906101df91906141c8565b610809565b6040516101f19190614b4d565b60405180910390f35b610214600480360381019061020f91906144a3565b6108bf565b6040516102219190614d2b565b60405180910390f35b61023261096d565b6040516102499b9a99989796959493929190614e00565b60405180910390f35b61026c600480360381019061026791906141c8565b610a2f565b6040516102799190614d2b565b60405180910390f35b61029c60048036038101906102979190614664565b610b3f565b6040516102a99190614b4d565b60405180910390f35b6102cc60048036038101906102c79190614396565b610e2d565b005b6102e860048036038101906102e39190614396565b611447565b005b6102f2611a60565b005b6102fc611a74565b6040516103099190614a9b565b60405180910390f35b61031a611a9a565b6040516103279190614a9b565b60405180910390f35b61034a60048036038101906103459190614303565b611ac3565b6040516103579190614d0f565b60405180910390f35b61037a6004803603810190610375919061425c565b611d00565b604051610388929190614ce4565b60405180910390f35b610399612112565b6040516103a69190614d2b565b60405180910390f35b6103c960048036038101906103c4919061460a565b612118565b6040516103d7929190614b24565b60405180910390f35b6103fa60048036038101906103f591906141c8565b61216c565b005b61041660048036038101906104119190614356565b6121b8565b005b610432600480360381019061042d91906141c8565b6122b6565b005b61044e60048036038101906104499190614423565b612302565b6040516104669c9b9a99989796959493929190614d46565b60405180910390f35b610489600480360381019061048491906142c3565b612406565b6040516104969190614d2b565b60405180910390f35b6104b960048036038101906104b491906141c8565b612476565b005b6104d560048036038101906104d0919061425c565b6124c2565b6040516104ec9b9a99989796959493929190614e00565b60405180910390f35b61050f600480360381019061050a91906141f5565b6125cd565b60405161051c9190614cc8565b60405180910390f35b61053f600480360381019061053a91906141c8565b612844565b005b61055b600480360381019061055691906144f6565b6128c8565b005b6105776004803603810190610572919061455d565b613319565b005b610593600480360381019061058e9190614476565b6138cb565b005b60086000836040015173ffffffffffffffffffffffffffffffffffffffff1673ffffffffffffffffffffffffffffffffffffffff16815260200190815260200160002060008281526020019081526020016000208290806001815401808255809150506001900390600052602060002090600b02016000909190919091506000820151816000015560208201518160010160006101000a81548160ff0219169083600181111561064857610647615081565b5b021790555060408201518160010160016101000a81548173ffffffffffffffffffffffffffffffffffffffff021916908373ffffffffffffffffffffffffffffffffffffffff16021790555060608201518160020160006101000a81548173ffffffffffffffffffffffffffffffffffffffff021916908373ffffffffffffffffffffffffffffffffffffffff16021790555060808201518160030160006101000a81548173ffffffffffffffffffffffffffffffffffffffff021916908373ffffffffffffffffffffffffffffffffffffffff16021790555060a0820151816004015560c0820151816005015560e08201518160060155610100820151816007015561012082015181600801556101408201518160090160006101000a81548160ff02191690831515021790555061016082015181600a015550507f78f8097f697fc6b58d127f987a03e83de8076bdc75199661d49326415098d60a826000015183602001518460400151856060015186608001518760a001518860c001518960e001518a61010001518b61012001518c61014001518d61016001516040516107fd9c9b9a99989796959493929190614d46565b60405180910390a15050565b600080600090505b6006805490508110156108b4578273ffffffffffffffffffffffffffffffffffffffff1660068281548110610849576108486150df565b5b906000526020600020906002020160000160009054906101000a900473ffffffffffffffffffffffffffffffffffffffff1673ffffffffffffffffffffffffffffffffffffffff1614156108a15760019150506108ba565b80806108ac90615009565b915050610811565b50600090505b919050565b6000600760008473ffffffffffffffffffffffffffffffffffffffff1673ffffffffffffffffffffffffffffffffffffffff16815260200190815260200160002060008373ffffffffffffffffffffffffffffffffffffffff1673ffffffffffffffffffffffffffffffffffffffff168152602001908152602001600020600085600181111561095257610951615081565b5b81526020019081526020016000208054905090509392505050565b600b8060000154908060010160009054906101000a900460ff16908060010160019054906101000a900473ffffffffffffffffffffffffffffffffffffffff16908060020160009054906101000a900473ffffffffffffffffffffffffffffffffffffffff16908060030154908060040160009054906101000a900473ffffffffffffffffffffffffffffffffffffffff16908060050154908060060154908060070154908060080154908060090160009054906101000a900460ff1690508b565b600080600090505b600680549050811015610afe578273ffffffffffffffffffffffffffffffffffffffff1660068281548110610a6f57610a6e6150df565b5b906000526020600020906002020160000160009054906101000a900473ffffffffffffffffffffffffffffffffffffffff1673ffffffffffffffffffffffffffffffffffffffff161415610aeb5760068181548110610ad157610ad06150df565b5b906000526020600020906002020160010154915050610b3a565b8080610af690615009565b915050610a37565b506040517f08c379a0000000000000000000000000000000000000000000000000000000008152600401610b3190614c68565b60405180910390fd5b919050565b600080600760008573ffffffffffffffffffffffffffffffffffffffff1673ffffffffffffffffffffffffffffffffffffffff16815260200190815260200160002060008473ffffffffffffffffffffffffffffffffffffffff1673ffffffffffffffffffffffffffffffffffffffff1681526020019081526020016000206000866001811115610bd357610bd2615081565b5b8152602001908152602001600020805480602002602001604051908101604052809291908181526020016000905b82821015610dc857838290600052602060002090600a020160405180610160016040529081600082015481526020016001820160009054906101000a900460ff166001811115610c5457610c53615081565b5b6001811115610c6657610c65615081565b5b81526020016001820160019054906101000a900473ffffffffffffffffffffffffffffffffffffffff1673ffffffffffffffffffffffffffffffffffffffff1673ffffffffffffffffffffffffffffffffffffffff1681526020016002820160009054906101000a900473ffffffffffffffffffffffffffffffffffffffff1673ffffffffffffffffffffffffffffffffffffffff1673ffffffffffffffffffffffffffffffffffffffff168152602001600382015481526020016004820160009054906101000a900473ffffffffffffffffffffffffffffffffffffffff1673ffffffffffffffffffffffffffffffffffffffff1673ffffffffffffffffffffffffffffffffffffffff168152602001600582015481526020016006820154815260200160078201548152602001600882015481526020016009820160009054906101000a900460ff16151515158152505081526020019060010190610c01565b50505050905060005b8151811015610e1e5786828281518110610dee57610ded6150df565b5b6020026020010151600001511415610e0b57600192505050610e25565b8080610e1690615009565b915050610dd1565b5060009150505b949350505050565b85610e3781610809565b610e76576040517f08c379a0000000000000000000000000000000000000000000000000000000008152600401610e6d90614bc8565b60405180910390fd5b84610e8081610809565b610ebf576040517f08c379a0000000000000000000000000000000000000000000000000000000008152600401610eb690614bc8565b60405180910390fd5b8461102b600360009054906101000a900473ffffffffffffffffffffffffffffffffffffffff1673ffffffffffffffffffffffffffffffffffffffff16634fc121db338a6040518363ffffffff1660e01b8152600401610f20929190614ab6565b60206040518083038186803b158015610f3857600080fd5b505afa158015610f4c573d6000803e3d6000fd5b505050506040513d601f19601f82011682018060405250810190610f709190614637565b600360009054906101000a900473ffffffffffffffffffffffffffffffffffffffff1673ffffffffffffffffffffffffffffffffffffffff1663f7888aec8a336040518363ffffffff1660e01b8152600401610fcd929190614ab6565b60206040518083038186803b158015610fe557600080fd5b505afa158015610ff9573d6000803e3d6000fd5b505050506040513d601f19601f8201168201806040525081019061101d9190614637565b61393d90919063ffffffff16565b101561106c576040517f08c379a000000000000000000000000000000000000000000000000000000000815260040161106390614be8565b60405180910390fd5b600360009054906101000a900473ffffffffffffffffffffffffffffffffffffffff1673ffffffffffffffffffffffffffffffffffffffff1663fc11a3d633888860016040518563ffffffff1660e01b81526004016110ce9493929190614adf565b600060405180830381600087803b1580156110e857600080fd5b505af11580156110fc573d6000803e3d6000fd5b50505050600760008973ffffffffffffffffffffffffffffffffffffffff1673ffffffffffffffffffffffffffffffffffffffff16815260200190815260200160002060008773ffffffffffffffffffffffffffffffffffffffff1673ffffffffffffffffffffffffffffffffffffffff168152602001908152602001600020600080600181111561119157611190615081565b5b81526020019081526020016000206040518061016001604052806009548152602001600060018111156111c7576111c6615081565b5b81526020013373ffffffffffffffffffffffffffffffffffffffff1681526020018a73ffffffffffffffffffffffffffffffffffffffff1681526020018981526020018873ffffffffffffffffffffffffffffffffffffffff16815260200187815260200186815260200189815260200187815260200185151581525090806001815401808255809150506001900390600052602060002090600a02016000909190919091506000820151816000015560208201518160010160006101000a81548160ff021916908360018111156112a2576112a1615081565b5b021790555060408201518160010160016101000a81548173ffffffffffffffffffffffffffffffffffffffff021916908373ffffffffffffffffffffffffffffffffffffffff16021790555060608201518160020160006101000a81548173ffffffffffffffffffffffffffffffffffffffff021916908373ffffffffffffffffffffffffffffffffffffffff1602179055506080820151816003015560a08201518160040160006101000a81548173ffffffffffffffffffffffffffffffffffffffff021916908373ffffffffffffffffffffffffffffffffffffffff16021790555060c0820151816005015560e08201518160060155610100820151816007015561012082015181600801556101408201518160090160006101000a81548160ff02191690831515021790555050507fcb2df66a1a7db52683240584eca4355946d7b80a59dcb7707aa8dd95463ed7446009546000338b8b8b8b8b8f8e8d6040516114199b9a99989796959493929190614e00565b60405180910390a1611437600160095461395390919063ffffffff16565b6009819055505050505050505050565b8561145181610809565b611490576040517f08c379a000000000000000000000000000000000000000000000000000000000815260040161148790614bc8565b60405180910390fd5b8461149a81610809565b6114d9576040517f08c379a00000000000000000000000000000000000000000000000000000000081526004016114d090614bc8565b60405180910390fd5b86611645600360009054906101000a900473ffffffffffffffffffffffffffffffffffffffff1673ffffffffffffffffffffffffffffffffffffffff16634fc121db338c6040518363ffffffff1660e01b815260040161153a929190614ab6565b60206040518083038186803b15801561155257600080fd5b505afa158015611566573d6000803e3d6000fd5b505050506040513d601f19601f8201168201806040525081019061158a9190614637565b600360009054906101000a900473ffffffffffffffffffffffffffffffffffffffff1673ffffffffffffffffffffffffffffffffffffffff1663f7888aec8c336040518363ffffffff1660e01b81526004016115e7929190614ab6565b60206040518083038186803b1580156115ff57600080fd5b505afa158015611613573d6000803e3d6000fd5b505050506040513d601f19601f820116820180604052508101906116379190614637565b61393d90919063ffffffff16565b1015611686576040517f08c379a000000000000000000000000000000000000000000000000000000000815260040161167d90614be8565b60405180910390fd5b600360009054906101000a900473ffffffffffffffffffffffffffffffffffffffff1673ffffffffffffffffffffffffffffffffffffffff1663fc11a3d6338a8a60016040518563ffffffff1660e01b81526004016116e89493929190614adf565b600060405180830381600087803b15801561170257600080fd5b505af1158015611716573d6000803e3d6000fd5b50505050600760008973ffffffffffffffffffffffffffffffffffffffff1673ffffffffffffffffffffffffffffffffffffffff16815260200190815260200160002060008773ffffffffffffffffffffffffffffffffffffffff1673ffffffffffffffffffffffffffffffffffffffff16815260200190815260200160002060006001808111156117ab576117aa615081565b5b815260200190815260200160002060405180610160016040528060095481526020016001808111156117e0576117df615081565b5b81526020013373ffffffffffffffffffffffffffffffffffffffff1681526020018a73ffffffffffffffffffffffffffffffffffffffff1681526020018981526020018873ffffffffffffffffffffffffffffffffffffffff16815260200187815260200186815260200189815260200187815260200185151581525090806001815401808255809150506001900390600052602060002090600a02016000909190919091506000820151816000015560208201518160010160006101000a81548160ff021916908360018111156118bb576118ba615081565b5b021790555060408201518160010160016101000a81548173ffffffffffffffffffffffffffffffffffffffff021916908373ffffffffffffffffffffffffffffffffffffffff16021790555060608201518160020160006101000a81548173ffffffffffffffffffffffffffffffffffffffff021916908373ffffffffffffffffffffffffffffffffffffffff1602179055506080820151816003015560a08201518160040160006101000a81548173ffffffffffffffffffffffffffffffffffffffff021916908373ffffffffffffffffffffffffffffffffffffffff16021790555060c0820151816005015560e08201518160060155610100820151816007015561012082015181600801556101408201518160090160006101000a81548160ff02191690831515021790555050507fcb2df66a1a7db52683240584eca4355946d7b80a59dcb7707aa8dd95463ed7446009546001338b8b8b8b8b8f8e8d604051611a329b9a99989796959493929190614e00565b60405180910390a1611a50600160095461395390919063ffffffff16565b6009819055505050505050505050565b611a68613969565b611a7260006139e7565b565b600560009054906101000a900473ffffffffffffffffffffffffffffffffffffffff1681565b60008060009054906101000a900473ffffffffffffffffffffffffffffffffffffffff16905090565b611acb613ab3565b600860008573ffffffffffffffffffffffffffffffffffffffff1673ffffffffffffffffffffffffffffffffffffffff1681526020019081526020016000206000846001811115611b1f57611b1e615081565b5b81526020019081526020016000208281548110611b3f57611b3e6150df565b5b90600052602060002090600b020160405180610180016040529081600082015481526020016001820160009054906101000a900460ff166001811115611b8857611b87615081565b5b6001811115611b9a57611b99615081565b5b81526020016001820160019054906101000a900473ffffffffffffffffffffffffffffffffffffffff1673ffffffffffffffffffffffffffffffffffffffff1673ffffffffffffffffffffffffffffffffffffffff1681526020016002820160009054906101000a900473ffffffffffffffffffffffffffffffffffffffff1673ffffffffffffffffffffffffffffffffffffffff1673ffffffffffffffffffffffffffffffffffffffff1681526020016003820160009054906101000a900473ffffffffffffffffffffffffffffffffffffffff1673ffffffffffffffffffffffffffffffffffffffff1673ffffffffffffffffffffffffffffffffffffffff16815260200160048201548152602001600582015481526020016006820154815260200160078201548152602001600882015481526020016009820160009054906101000a900460ff16151515158152602001600a8201548152505090509392505050565b611d08613b6a565b600080600090505b600760008873ffffffffffffffffffffffffffffffffffffffff1673ffffffffffffffffffffffffffffffffffffffff16815260200190815260200160002060008773ffffffffffffffffffffffffffffffffffffffff1673ffffffffffffffffffffffffffffffffffffffff1681526020019081526020016000206000868152602001908152602001600020805490508110156120ce5783600760008973ffffffffffffffffffffffffffffffffffffffff1673ffffffffffffffffffffffffffffffffffffffff16815260200190815260200160002060008873ffffffffffffffffffffffffffffffffffffffff1673ffffffffffffffffffffffffffffffffffffffff16815260200190815260200160002060008781526020019081526020016000208281548110611e4857611e476150df565b5b90600052602060002090600a02016000015414156120bb57600760008873ffffffffffffffffffffffffffffffffffffffff1673ffffffffffffffffffffffffffffffffffffffff16815260200190815260200160002060008773ffffffffffffffffffffffffffffffffffffffff1673ffffffffffffffffffffffffffffffffffffffff16815260200190815260200160002060008681526020019081526020016000208181548110611eff57611efe6150df565b5b90600052602060002090600a0201818160405180610160016040529081600082015481526020016001820160009054906101000a900460ff166001811115611f4a57611f49615081565b5b6001811115611f5c57611f5b615081565b5b81526020016001820160019054906101000a900473ffffffffffffffffffffffffffffffffffffffff1673ffffffffffffffffffffffffffffffffffffffff1673ffffffffffffffffffffffffffffffffffffffff1681526020016002820160009054906101000a900473ffffffffffffffffffffffffffffffffffffffff1673ffffffffffffffffffffffffffffffffffffffff1673ffffffffffffffffffffffffffffffffffffffff168152602001600382015481526020016004820160009054906101000a900473ffffffffffffffffffffffffffffffffffffffff1673ffffffffffffffffffffffffffffffffffffffff1673ffffffffffffffffffffffffffffffffffffffff168152602001600582015481526020016006820154815260200160078201548152602001600882015481526020016009820160009054906101000a900460ff16151515158152505091509250925050612109565b80806120c690615009565b915050611d10565b6040517f08c379a000000000000000000000000000000000000000000000000000000000815260040161210090614ca8565b60405180910390fd5b94509492505050565b60095481565b6006818154811061212857600080fd5b90600052602060002090600202016000915090508060000160009054906101000a900473ffffffffffffffffffffffffffffffffffffffff16908060010154905082565b612174613969565b80600360006101000a81548173ffffffffffffffffffffffffffffffffffffffff021916908373ffffffffffffffffffffffffffffffffffffffff16021790555050565b6121c0613969565b6121c982610809565b15612209576040517f08c379a000000000000000000000000000000000000000000000000000000000815260040161220090614c28565b60405180910390fd5b600660405180604001604052808473ffffffffffffffffffffffffffffffffffffffff16815260200183815250908060018154018082558091505060019003906000526020600020906002020160009091909190915060008201518160000160006101000a81548173ffffffffffffffffffffffffffffffffffffffff021916908373ffffffffffffffffffffffffffffffffffffffff1602179055506020820151816001015550505050565b6122be613969565b80600160006101000a81548173ffffffffffffffffffffffffffffffffffffffff021916908373ffffffffffffffffffffffffffffffffffffffff16021790555050565b6008602052826000526040600020602052816000526040600020818154811061232a57600080fd5b90600052602060002090600b020160009250925050508060000154908060010160009054906101000a900460ff16908060010160019054906101000a900473ffffffffffffffffffffffffffffffffffffffff16908060020160009054906101000a900473ffffffffffffffffffffffffffffffffffffffff16908060030160009054906101000a900473ffffffffffffffffffffffffffffffffffffffff16908060040154908060050154908060060154908060070154908060080154908060090160009054906101000a900460ff169080600a015490508c565b6000600860008473ffffffffffffffffffffffffffffffffffffffff1673ffffffffffffffffffffffffffffffffffffffff168152602001908152602001600020600083600181111561245c5761245b615081565b5b815260200190815260200160002080549050905092915050565b61247e613969565b80600260006101000a81548173ffffffffffffffffffffffffffffffffffffffff021916908373ffffffffffffffffffffffffffffffffffffffff16021790555050565b600760205283600052604060002060205282600052604060002060205281600052604060002081815481106124f657600080fd5b90600052602060002090600a02016000935093505050508060000154908060010160009054906101000a900460ff16908060010160019054906101000a900473ffffffffffffffffffffffffffffffffffffffff16908060020160009054906101000a900473ffffffffffffffffffffffffffffffffffffffff16908060030154908060040160009054906101000a900473ffffffffffffffffffffffffffffffffffffffff16908060050154908060060154908060070154908060080154908060090160009054906101000a900460ff1690508b565b6125d5613b6a565b6000600760008773ffffffffffffffffffffffffffffffffffffffff1673ffffffffffffffffffffffffffffffffffffffff16815260200190815260200160002060008673ffffffffffffffffffffffffffffffffffffffff1673ffffffffffffffffffffffffffffffffffffffff168152602001908152602001600020600084600181111561266857612667615081565b5b81526020019081526020016000208481548110612688576126876150df565b5b90600052602060002090600a020160405180610160016040529081600082015481526020016001820160009054906101000a900460ff1660018111156126d1576126d0615081565b5b60018111156126e3576126e2615081565b5b81526020016001820160019054906101000a900473ffffffffffffffffffffffffffffffffffffffff1673ffffffffffffffffffffffffffffffffffffffff1673ffffffffffffffffffffffffffffffffffffffff1681526020016002820160009054906101000a900473ffffffffffffffffffffffffffffffffffffffff1673ffffffffffffffffffffffffffffffffffffffff1673ffffffffffffffffffffffffffffffffffffffff168152602001600382015481526020016004820160009054906101000a900473ffffffffffffffffffffffffffffffffffffffff1673ffffffffffffffffffffffffffffffffffffffff1673ffffffffffffffffffffffffffffffffffffffff168152602001600582015481526020016006820154815260200160078201548152602001600882015481526020016009820160009054906101000a900460ff161515151581525050905080915050949350505050565b61284c613969565b600073ffffffffffffffffffffffffffffffffffffffff168173ffffffffffffffffffffffffffffffffffffffff1614156128bc576040517f08c379a00000000000000000000000000000000000000000000000000000000081526004016128b390614ba8565b60405180910390fd5b6128c5816139e7565b50565b828483836128d884848484610b3f565b612917576040517f08c379a000000000000000000000000000000000000000000000000000000000815260040161290e90614b68565b60405180910390fd5b8561292181610809565b612960576040517f08c379a000000000000000000000000000000000000000000000000000000000815260040161295790614bc8565b60405180910390fd5b8561296a81610809565b6129a9576040517f08c379a00000000000000000000000000000000000000000000000000000000081526004016129a090614bc8565b60405180910390fd5b60008a60018111156129be576129bd615081565b5b90506000600760008b73ffffffffffffffffffffffffffffffffffffffff1673ffffffffffffffffffffffffffffffffffffffff16815260200190815260200160002060008a73ffffffffffffffffffffffffffffffffffffffff1673ffffffffffffffffffffffffffffffffffffffff16815260200190815260200160002060008381526020019081526020016000209050600081805490509050612a62613b6a565b600080600090505b83811015612c7c578e858281548110612a8657612a856150df565b5b90600052602060002090600a0201600001541415612c6957809150848181548110612ab457612ab36150df565b5b90600052602060002090600a020160405180610160016040529081600082015481526020016001820160009054906101000a900460ff166001811115612afd57612afc615081565b5b6001811115612b0f57612b0e615081565b5b81526020016001820160019054906101000a900473ffffffffffffffffffffffffffffffffffffffff1673ffffffffffffffffffffffffffffffffffffffff1673ffffffffffffffffffffffffffffffffffffffff1681526020016002820160009054906101000a900473ffffffffffffffffffffffffffffffffffffffff1673ffffffffffffffffffffffffffffffffffffffff1673ffffffffffffffffffffffffffffffffffffffff168152602001600382015481526020016004820160009054906101000a900473ffffffffffffffffffffffffffffffffffffffff1673ffffffffffffffffffffffffffffffffffffffff1673ffffffffffffffffffffffffffffffffffffffff168152602001600582015481526020016006820154815260200160078201548152602001600882015481526020016009820160009054906101000a900460ff1615151515815250509250612c7c565b8080612c7490615009565b915050612a6a565b50600a60009054906101000a900460ff1615612e9d57816040015173ffffffffffffffffffffffffffffffffffffffff163373ffffffffffffffffffffffffffffffffffffffff1614612d04576040517f08c379a0000000000000000000000000000000000000000000000000000000008152600401612cfb90614c08565b60405180910390fd5b60006001811115612d1857612d17615081565b5b8f6001811115612d2b57612d2a615081565b5b1415612dd257600360009054906101000a900473ffffffffffffffffffffffffffffffffffffffff1673ffffffffffffffffffffffffffffffffffffffff1663fc11a3d6338460a001518560c0015160006040518563ffffffff1660e01b8152600401612d9b9493929190614adf565b600060405180830381600087803b158015612db557600080fd5b505af1158015612dc9573d6000803e3d6000fd5b50505050612e9c565b600180811115612de557612de4615081565b5b8f6001811115612df857612df7615081565b5b1415612e9b57600360009054906101000a900473ffffffffffffffffffffffffffffffffffffffff1673ffffffffffffffffffffffffffffffffffffffff1663fc11a3d6338460600151856080015160006040518563ffffffff1660e01b8152600401612e689493929190614adf565b600060405180830381600087803b158015612e8257600080fd5b505af1158015612e96573d6000803e3d6000fd5b505050505b5b5b60008190505b600184612eb09190614f37565b8110156130fd5784612ecc60018361395390919063ffffffff16565b81548110612edd57612edc6150df565b5b90600052602060002090600a0201858281548110612efe57612efd6150df565b5b90600052602060002090600a0201600082015481600001556001820160009054906101000a900460ff168160010160006101000a81548160ff02191690836001811115612f4e57612f4d615081565b5b02179055506001820160019054906101000a900473ffffffffffffffffffffffffffffffffffffffff168160010160016101000a81548173ffffffffffffffffffffffffffffffffffffffff021916908373ffffffffffffffffffffffffffffffffffffffff1602179055506002820160009054906101000a900473ffffffffffffffffffffffffffffffffffffffff168160020160006101000a81548173ffffffffffffffffffffffffffffffffffffffff021916908373ffffffffffffffffffffffffffffffffffffffff160217905550600382015481600301556004820160009054906101000a900473ffffffffffffffffffffffffffffffffffffffff168160040160006101000a81548173ffffffffffffffffffffffffffffffffffffffff021916908373ffffffffffffffffffffffffffffffffffffffff160217905550600582015481600501556006820154816006015560078201548160070155600882015481600801556009820160009054906101000a900460ff168160090160006101000a81548160ff02191690831515021790555090505080806130f590615009565b915050612ea3565b508380548061310f5761310e6150b0565b5b60019003818190600052602060002090600a02016000808201600090556001820160006101000a81549060ff02191690556001820160016101000a81549073ffffffffffffffffffffffffffffffffffffffff02191690556002820160006101000a81549073ffffffffffffffffffffffffffffffffffffffff021916905560038201600090556004820160006101000a81549073ffffffffffffffffffffffffffffffffffffffff021916905560058201600090556006820160009055600782016000905560088201600090556009820160006101000a81549060ff02191690555050905583600760008f73ffffffffffffffffffffffffffffffffffffffff1673ffffffffffffffffffffffffffffffffffffffff16815260200190815260200160002060008e73ffffffffffffffffffffffffffffffffffffffff1673ffffffffffffffffffffffffffffffffffffffff1681526020019081526020016000206000878152602001908152602001600020908054613291929190613c1a565b507fa1cc643491754200d3eca5769e524a0fd00f9b0862b18d0da7d6e7277a83dfda8e83602001518460400151856060015186608001518760a001518860c001518960e001518a61010001518b61012001518c61014001516040516133009b9a99989796959493929190614e00565b60405180910390a1505050505050505050505050505050565b8360000151846020015185606001518660a0015161333984848484610b3f565b613378576040517f08c379a000000000000000000000000000000000000000000000000000000000815260040161336f90614b68565b60405180910390fd5b6000600760008a6060015173ffffffffffffffffffffffffffffffffffffffff1673ffffffffffffffffffffffffffffffffffffffff16815260200190815260200160002060008a60a0015173ffffffffffffffffffffffffffffffffffffffff1673ffffffffffffffffffffffffffffffffffffffff16815260200190815260200160002060008a60200151600181111561341757613416615081565b5b60ff168152602001908152602001600020868154811061343a576134396150df565b5b90600052602060002090600a02016003015490506000600760008b6060015173ffffffffffffffffffffffffffffffffffffffff1673ffffffffffffffffffffffffffffffffffffffff16815260200190815260200160002060008b60a0015173ffffffffffffffffffffffffffffffffffffffff1673ffffffffffffffffffffffffffffffffffffffff16815260200190815260200160002060008b6020015160018111156134ed576134ec615081565b5b60ff16815260200190815260200160002087815481106135105761350f6150df565b5b90600052602060002090600a020160050154905088600760008c6060015173ffffffffffffffffffffffffffffffffffffffff1673ffffffffffffffffffffffffffffffffffffffff16815260200190815260200160002060008c60a0015173ffffffffffffffffffffffffffffffffffffffff1673ffffffffffffffffffffffffffffffffffffffff16815260200190815260200160002060008c6020015160018111156135c2576135c1615081565b5b60ff16815260200190815260200160002088815481106135e5576135e46150df565b5b90600052602060002090600a02016003018190555087600760008c6060015173ffffffffffffffffffffffffffffffffffffffff1673ffffffffffffffffffffffffffffffffffffffff16815260200190815260200160002060008c60a0015173ffffffffffffffffffffffffffffffffffffffff1673ffffffffffffffffffffffffffffffffffffffff16815260200190815260200160002060008c60200151600181111561369857613697615081565b5b60ff16815260200190815260200160002088815481106136bb576136ba6150df565b5b90600052602060002090600a02016005018190555081600760008c6060015173ffffffffffffffffffffffffffffffffffffffff1673ffffffffffffffffffffffffffffffffffffffff16815260200190815260200160002060008c60a0015173ffffffffffffffffffffffffffffffffffffffff1673ffffffffffffffffffffffffffffffffffffffff16815260200190815260200160002060008c60200151600181111561376e5761376d615081565b5b60ff1681526020019081526020016000208881548110613791576137906150df565b5b90600052602060002090600a020160030154108015613880575080600760008c6060015173ffffffffffffffffffffffffffffffffffffffff1673ffffffffffffffffffffffffffffffffffffffff16815260200190815260200160002060008c60a0015173ffffffffffffffffffffffffffffffffffffffff1673ffffffffffffffffffffffffffffffffffffffff16815260200190815260200160002060008c60200151600181111561384957613848615081565b5b60ff168152602001908152602001600020888154811061386c5761386b6150df565b5b90600052602060002090600a020160050154105b6138bf576040517f08c379a00000000000000000000000000000000000000000000000000000000081526004016138b690614c88565b60405180910390fd5b50505050505050505050565b80600a60006101000a81548160ff021916908315150217905550801515600a60009054906101000a900460ff1615151461393a576040517f08c379a000000000000000000000000000000000000000000000000000000000815260040161393190614b88565b60405180910390fd5b50565b6000818361394b9190614f37565b905092915050565b600081836139619190614ee1565b905092915050565b613971613aab565b73ffffffffffffffffffffffffffffffffffffffff1661398f611a9a565b73ffffffffffffffffffffffffffffffffffffffff16146139e5576040517f08c379a00000000000000000000000000000000000000000000000000000000081526004016139dc90614c48565b60405180910390fd5b565b60008060009054906101000a900473ffffffffffffffffffffffffffffffffffffffff169050816000806101000a81548173ffffffffffffffffffffffffffffffffffffffff021916908373ffffffffffffffffffffffffffffffffffffffff1602179055508173ffffffffffffffffffffffffffffffffffffffff168173ffffffffffffffffffffffffffffffffffffffff167f8be0079c531659141344cd1fd0a4f28419497f9722a3daafe3b4186f6b6457e060405160405180910390a35050565b600033905090565b6040518061018001604052806000815260200160006001811115613ada57613ad9615081565b5b8152602001600073ffffffffffffffffffffffffffffffffffffffff168152602001600073ffffffffffffffffffffffffffffffffffffffff168152602001600073ffffffffffffffffffffffffffffffffffffffff1681526020016000815260200160008152602001600081526020016000815260200160008152602001600015158152602001600081525090565b6040518061016001604052806000815260200160006001811115613b9157613b90615081565b5b8152602001600073ffffffffffffffffffffffffffffffffffffffff168152602001600073ffffffffffffffffffffffffffffffffffffffff16815260200160008152602001600073ffffffffffffffffffffffffffffffffffffffff168152602001600081526020016000815260200160008152602001600081526020016000151581525090565b82805482825590600052602060002090600a028101928215613e3c57600052602060002091600a0282015b82811115613e3b578282600082015481600001556001820160009054906101000a900460ff168160010160006101000a81548160ff02191690836001811115613c9157613c90615081565b5b02179055506001820160019054906101000a900473ffffffffffffffffffffffffffffffffffffffff168160010160016101000a81548173ffffffffffffffffffffffffffffffffffffffff021916908373ffffffffffffffffffffffffffffffffffffffff1602179055506002820160009054906101000a900473ffffffffffffffffffffffffffffffffffffffff168160020160006101000a81548173ffffffffffffffffffffffffffffffffffffffff021916908373ffffffffffffffffffffffffffffffffffffffff160217905550600382015481600301556004820160009054906101000a900473ffffffffffffffffffffffffffffffffffffffff168160040160006101000a81548173ffffffffffffffffffffffffffffffffffffffff021916908373ffffffffffffffffffffffffffffffffffffffff160217905550600582015481600501556006820154816006015560078201548160070155600882015481600801556009820160009054906101000a900460ff168160090160006101000a81548160ff021916908315150217905550505091600a019190600a0190613c45565b5b509050613e499190613e4d565b5090565b5b80821115613f2d576000808201600090556001820160006101000a81549060ff02191690556001820160016101000a81549073ffffffffffffffffffffffffffffffffffffffff02191690556002820160006101000a81549073ffffffffffffffffffffffffffffffffffffffff021916905560038201600090556004820160006101000a81549073ffffffffffffffffffffffffffffffffffffffff021916905560058201600090556006820160009055600782016000905560088201600090556009820160006101000a81549060ff021916905550600a01613e4e565b5090565b600081359050613f4081615355565b92915050565b600081359050613f558161536c565b92915050565b600081359050613f6a81615383565b92915050565b60006101608284031215613f8757613f8661513d565b5b613f92610160614eab565b90506000613fa28482850161419e565b6000830152506020613fb684828501613f5b565b6020830152506040613fca84828501613f31565b6040830152506060613fde84828501613f31565b6060830152506080613ff28482850161419e565b60808301525060a061400684828501613f31565b60a08301525060c061401a8482850161419e565b60c08301525060e061402e8482850161419e565b60e0830152506101006140438482850161419e565b610100830152506101206140598482850161419e565b6101208301525061014061406f84828501613f46565b6101408301525092915050565b600061018082840312156140935761409261513d565b5b61409e610180614eab565b905060006140ae8482850161419e565b60008301525060206140c284828501613f5b565b60208301525060406140d684828501613f31565b60408301525060606140ea84828501613f31565b60608301525060806140fe84828501613f31565b60808301525060a06141128482850161419e565b60a08301525060c06141268482850161419e565b60c08301525060e061413a8482850161419e565b60e08301525061010061414f8482850161419e565b610100830152506101206141658482850161419e565b6101208301525061014061417b84828501613f46565b610140830152506101606141918482850161419e565b6101608301525092915050565b6000813590506141ad81615393565b92915050565b6000815190506141c281615393565b92915050565b6000602082840312156141de576141dd615142565b5b60006141ec84828501613f31565b91505092915050565b6000806000806080858703121561420f5761420e615142565b5b600061421d87828801613f31565b945050602061422e87828801613f31565b935050604061423f8782880161419e565b925050606061425087828801613f5b565b91505092959194509250565b6000806000806080858703121561427657614275615142565b5b600061428487828801613f31565b945050602061429587828801613f31565b93505060406142a68782880161419e565b92505060606142b78782880161419e565b91505092959194509250565b600080604083850312156142da576142d9615142565b5b60006142e885828601613f31565b92505060206142f985828601613f5b565b9150509250929050565b60008060006060848603121561431c5761431b615142565b5b600061432a86828701613f31565b935050602061433b86828701613f5b565b925050604061434c8682870161419e565b9150509250925092565b6000806040838503121561436d5761436c615142565b5b600061437b85828601613f31565b925050602061438c8582860161419e565b9150509250929050565b60008060008060008060c087890312156143b3576143b2615142565b5b60006143c189828a01613f31565b96505060206143d289828a0161419e565b95505060406143e389828a01613f31565b94505060606143f489828a0161419e565b935050608061440589828a0161419e565b92505060a061441689828a01613f46565b9150509295509295509295565b60008060006060848603121561443c5761443b615142565b5b600061444a86828701613f31565b935050602061445b8682870161419e565b925050604061446c8682870161419e565b9150509250925092565b60006020828403121561448c5761448b615142565b5b600061449a84828501613f46565b91505092915050565b6000806000606084860312156144bc576144bb615142565b5b60006144ca86828701613f5b565b93505060206144db86828701613f31565b92505060406144ec86828701613f31565b9150509250925092565b600080600080608085870312156145105761450f615142565b5b600061451e87828801613f5b565b945050602061452f8782880161419e565b935050604061454087828801613f31565b925050606061455187828801613f31565b91505092959194509250565b6000806000806101c0858703121561457857614577615142565b5b600061458687828801613f70565b9450506101606145988782880161419e565b9350506101806145aa8782880161419e565b9250506101a06145bc8782880161419e565b91505092959194509250565b6000806101a083850312156145e0576145df615142565b5b60006145ee8582860161407c565b9250506101806146008582860161419e565b9150509250929050565b6000602082840312156146205761461f615142565b5b600061462e8482850161419e565b91505092915050565b60006020828403121561464d5761464c615142565b5b600061465b848285016141b3565b91505092915050565b6000806000806080858703121561467e5761467d615142565b5b600061468c8782880161419e565b945050602061469d87828801613f5b565b93505060406146ae87828801613f31565b92505060606146bf87828801613f31565b91505092959194509250565b6146d481614f6b565b82525050565b6146e381614f6b565b82525050565b6146f281614f7d565b82525050565b61470181614f7d565b82525050565b61471081614fc6565b82525050565b61471f81614fc6565b82525050565b6000614732601083614ed0565b915061473d82615158565b602082019050919050565b6000614755601783614ed0565b915061476082615181565b602082019050919050565b6000614778602683614ed0565b9150614783826151aa565b604082019050919050565b600061479b601883614ed0565b91506147a6826151f9565b602082019050919050565b60006147be601283614ed0565b91506147c982615222565b602082019050919050565b60006147e1600983614ed0565b91506147ec8261524b565b602082019050919050565b6000614804601683614ed0565b915061480f82615274565b602082019050919050565b6000614827602083614ed0565b91506148328261529d565b602082019050919050565b600061484a601383614ed0565b9150614855826152c6565b602082019050919050565b600061486d601a83614ed0565b9150614878826152ef565b602082019050919050565b6000614890600f83614ed0565b915061489b82615318565b602082019050919050565b610160820160008201516148bd6000850182614a7d565b5060208201516148d06020850182614707565b5060408201516148e360408501826146cb565b5060608201516148f660608501826146cb565b5060808201516149096080850182614a7d565b5060a082015161491c60a08501826146cb565b5060c082015161492f60c0850182614a7d565b5060e082015161494260e0850182614a7d565b50610100820151614957610100850182614a7d565b5061012082015161496c610120850182614a7d565b506101408201516149816101408501826146e9565b50505050565b6101808201600082015161499e6000850182614a7d565b5060208201516149b16020850182614707565b5060408201516149c460408501826146cb565b5060608201516149d760608501826146cb565b5060808201516149ea60808501826146cb565b5060a08201516149fd60a0850182614a7d565b5060c0820151614a1060c0850182614a7d565b5060e0820151614a2360e0850182614a7d565b50610100820151614a38610100850182614a7d565b50610120820151614a4d610120850182614a7d565b50610140820151614a626101408501826146e9565b50610160820151614a77610160850182614a7d565b50505050565b614a8681614fbc565b82525050565b614a9581614fbc565b82525050565b6000602082019050614ab060008301846146da565b92915050565b6000604082019050614acb60008301856146da565b614ad860208301846146da565b9392505050565b6000608082019050614af460008301876146da565b614b0160208301866146da565b614b0e6040830185614a8c565b614b1b60608301846146f8565b95945050505050565b6000604082019050614b3960008301856146da565b614b466020830184614a8c565b9392505050565b6000602082019050614b6260008301846146f8565b92915050565b60006020820190508181036000830152614b8181614725565b9050919050565b60006020820190508181036000830152614ba181614748565b9050919050565b60006020820190508181036000830152614bc18161476b565b9050919050565b60006020820190508181036000830152614be18161478e565b9050919050565b60006020820190508181036000830152614c01816147b1565b9050919050565b60006020820190508181036000830152614c21816147d4565b9050919050565b60006020820190508181036000830152614c41816147f7565b9050919050565b60006020820190508181036000830152614c618161481a565b9050919050565b60006020820190508181036000830152614c818161483d565b9050919050565b60006020820190508181036000830152614ca181614860565b9050919050565b60006020820190508181036000830152614cc181614883565b9050919050565b600061016082019050614cde60008301846148a6565b92915050565b600061018082019050614cfa60008301856148a6565b614d08610160830184614a8c565b9392505050565b600061018082019050614d256000830184614987565b92915050565b6000602082019050614d406000830184614a8c565b92915050565b600061018082019050614d5c600083018f614a8c565b614d69602083018e614716565b614d76604083018d6146da565b614d83606083018c6146da565b614d90608083018b6146da565b614d9d60a083018a614a8c565b614daa60c0830189614a8c565b614db760e0830188614a8c565b614dc5610100830187614a8c565b614dd3610120830186614a8c565b614de16101408301856146f8565b614def610160830184614a8c565b9d9c50505050505050505050505050565b600061016082019050614e16600083018e614a8c565b614e23602083018d614716565b614e30604083018c6146da565b614e3d606083018b6146da565b614e4a608083018a614a8c565b614e5760a08301896146da565b614e6460c0830188614a8c565b614e7160e0830187614a8c565b614e7f610100830186614a8c565b614e8d610120830185614a8c565b614e9b6101408301846146f8565b9c9b505050505050505050505050565b6000614eb5614ec6565b9050614ec18282614fd8565b919050565b6000604051905090565b600082825260208201905092915050565b6000614eec82614fbc565b9150614ef783614fbc565b9250827fffffffffffffffffffffffffffffffffffffffffffffffffffffffffffffffff03821115614f2c57614f2b615052565b5b828201905092915050565b6000614f4282614fbc565b9150614f4d83614fbc565b925082821015614f6057614f5f615052565b5b828203905092915050565b6000614f7682614f9c565b9050919050565b60008115159050919050565b6000819050614f9782615341565b919050565b600073ffffffffffffffffffffffffffffffffffffffff82169050919050565b6000819050919050565b6000614fd182614f89565b9050919050565b614fe182615147565b810181811067ffffffffffffffff8211171561500057614fff61510e565b5b80604052505050565b600061501482614fbc565b91507fffffffffffffffffffffffffffffffffffffffffffffffffffffffffffffffff82141561504757615046615052565b5b600182019050919050565b7f4e487b7100000000000000000000000000000000000000000000000000000000600052601160045260246000fd5b7f4e487b7100000000000000000000000000000000000000000000000000000000600052602160045260246000fd5b7f4e487b7100000000000000000000000000000000000000000000000000000000600052603160045260246000fd5b7f4e487b7100000000000000000000000000000000000000000000000000000000600052603260045260246000fd5b7f4e487b7100000000000000000000000000000000000000000000000000000000600052604160045260246000fd5b600080fd5b600080fd5b6000601f19601f8301169050919050565b7f496e76616c6964204f7264657220494400000000000000000000000000000000600082015250565b7f496e76616c696420735f69734d616e75616c20626f6f6c000000000000000000600082015250565b7f4f776e61626c653a206e6577206f776e657220697320746865207a65726f206160008201527f6464726573730000000000000000000000000000000000000000000000000000602082015250565b7f546f6b656e20756e617661696c61626c6520696e204445580000000000000000600082015250565b7f496e73756666696369656e742046756e64730000000000000000000000000000600082015250565b7f4e6f74204f776e65720000000000000000000000000000000000000000000000600082015250565b7f546f6b656e20616c726561647920766572696669656400000000000000000000600082015250565b7f4f776e61626c653a2063616c6c6572206973206e6f7420746865206f776e6572600082015250565b7f546f6b656e206e6f7420617661696c61626c6500000000000000000000000000600082015250565b7f4f72646572206e6f7420757064617465642070726f7065726c79000000000000600082015250565b7f4f72646572206e6f7420466f756e640000000000000000000000000000000000600082015250565b6002811061535257615351615081565b5b50565b61535e81614f6b565b811461536957600080fd5b50565b61537581614f7d565b811461538057600080fd5b50565b6002811061539057600080fd5b50565b61539c81614fbc565b81146153a757600080fd5b5056fea2646970667358221220f4c9cf1dc2d4ef8f47feb99d7aaea6e4ab18d4860c8de1df69d8a489ac92b96b64736f6c63430008070033",
  "linkReferences": {},
  "deployedLinkReferences": {}
}