{
  "_format": "hh-sol-artifact-1",
  "contractName": "PriceChecker",
  "sourceName": "contracts/PriceChecker.sol",
  "abi": [
    {
      "anonymous": false,
      "inputs": [
        {
          "indexed": true,
          "internalType": "address",
          "name": "previousOwner",
          "type": "address"
        },
        {
          "indexed": true,
          "internalType": "address",
          "name": "newOwner",
          "type": "address"
        }
      ],
      "name": "OwnershipTransferred",
      "type": "event"
    },
    {
      "inputs": [
        {
          "internalType": "string",
          "name": "_name",
          "type": "string"
        },
        {
          "internalType": "address",
          "name": "_token",
          "type": "address"
        },
        {
          "internalType": "address",
          "name": "_address",
          "type": "address"
        }
      ],
      "name": "addPriceFeed",
      "outputs": [],
      "stateMutability": "nonpayable",
      "type": "function"
    },
    {
      "inputs": [
        {
          "internalType": "address",
          "name": "_address",
          "type": "address"
        }
      ],
      "name": "getPrice",
      "outputs": [
        {
          "internalType": "uint256",
          "name": "",
          "type": "uint256"
        }
      ],
      "stateMutability": "view",
      "type": "function"
    },
    {
      "inputs": [],
      "name": "owner",
      "outputs": [
        {
          "internalType": "address",
          "name": "",
          "type": "address"
        }
      ],
      "stateMutability": "view",
      "type": "function"
    },
    {
      "inputs": [
        {
          "internalType": "uint256",
          "name": "",
          "type": "uint256"
        }
      ],
      "name": "priceFeeds",
      "outputs": [
        {
          "internalType": "string",
          "name": "name",
          "type": "string"
        },
        {
          "internalType": "address",
          "name": "token",
          "type": "address"
        },
        {
          "internalType": "contract AggregatorV3Interface",
          "name": "priceFeed",
          "type": "address"
        }
      ],
      "stateMutability": "view",
      "type": "function"
    },
    {
      "inputs": [],
      "name": "renounceOwnership",
      "outputs": [],
      "stateMutability": "nonpayable",
      "type": "function"
    },
    {
      "inputs": [
        {
          "internalType": "address",
          "name": "newOwner",
          "type": "address"
        }
      ],
      "name": "transferOwnership",
      "outputs": [],
      "stateMutability": "nonpayable",
      "type": "function"
    }
  ],
  "bytecode": "0x608060405234801561001057600080fd5b5061002d61002261003260201b60201c565b61003a60201b60201c565b6100fe565b600033905090565b60008060009054906101000a900473ffffffffffffffffffffffffffffffffffffffff169050816000806101000a81548173ffffffffffffffffffffffffffffffffffffffff021916908373ffffffffffffffffffffffffffffffffffffffff1602179055508173ffffffffffffffffffffffffffffffffffffffff168173ffffffffffffffffffffffffffffffffffffffff167f8be0079c531659141344cd1fd0a4f28419497f9722a3daafe3b4186f6b6457e060405160405180910390a35050565b6113778061010d6000396000f3fe608060405234801561001057600080fd5b50600436106100625760003560e01c806310c7f0b91461006757806341976e0914610099578063715018a6146100c95780638c35423e146100d35780638da5cb5b146100ef578063f2fde38b1461010d575b600080fd5b610081600480360381019061007c9190610cd3565b610129565b60405161009093929190610ead565b60405180910390f35b6100b360048036038101906100ae9190610c37565b61022b565b6040516100c09190610f4b565b60405180910390f35b6100d16102c9565b005b6100ed60048036038101906100e89190610c64565b6102dd565b005b6100f7610688565b6040516101049190610e92565b60405180910390f35b61012760048036038101906101229190610c37565b6106b1565b005b6001818154811061013957600080fd5b906000526020600020906003020160009150905080600001805461015c906110b7565b80601f0160208091040260200160405190810160405280929190818152602001828054610188906110b7565b80156101d55780601f106101aa576101008083540402835291602001916101d5565b820191906000526020600020905b8154815290600101906020018083116101b857829003601f168201915b5050505050908060010160009054906101000a900473ffffffffffffffffffffffffffffffffffffffff16908060020160009054906101000a900473ffffffffffffffffffffffffffffffffffffffff16905083565b60008061023783610735565b905060008173ffffffffffffffffffffffffffffffffffffffff1663feaf968c6040518163ffffffff1660e01b815260040160a06040518083038186803b15801561028157600080fd5b505afa158015610295573d6000803e3d6000fd5b505050506040513d601f19601f820116820180604052508101906102b99190610d00565b5050509150508092505050919050565b6102d1610971565b6102db60006109ef565b565b6102e5610971565b60006001805480602002602001604051908101604052809291908181526020016000905b82821015610479578382906000526020600020906003020160405180606001604052908160008201805461033c906110b7565b80601f0160208091040260200160405190810160405280929190818152602001828054610368906110b7565b80156103b55780601f1061038a576101008083540402835291602001916103b5565b820191906000526020600020905b81548152906001019060200180831161039857829003601f168201915b505050505081526020016001820160009054906101000a900473ffffffffffffffffffffffffffffffffffffffff1673ffffffffffffffffffffffffffffffffffffffff1673ffffffffffffffffffffffffffffffffffffffff1681526020016002820160009054906101000a900473ffffffffffffffffffffffffffffffffffffffff1673ffffffffffffffffffffffffffffffffffffffff1673ffffffffffffffffffffffffffffffffffffffff168152505081526020019060010190610309565b5050505090506000805b825181101561051a5782818151811061049f5761049e6111c1565b5b6020026020010151600001516040516020016104bb9190610e7b565b60405160208183030381529060405280519060200120866040516020016104e29190610e7b565b604051602081830303815290604052805190602001201415610507576001915061051a565b80806105129061111a565b915050610483565b50801561055c576040517f08c379a000000000000000000000000000000000000000000000000000000000815260040161055390610f0b565b60405180910390fd5b6000839050600160405180606001604052808881526020018773ffffffffffffffffffffffffffffffffffffffff1681526020018373ffffffffffffffffffffffffffffffffffffffff16815250908060018154018082558091505060019003906000526020600020906003020160009091909190915060008201518160000190805190602001906105ef929190610abb565b5060208201518160010160006101000a81548173ffffffffffffffffffffffffffffffffffffffff021916908373ffffffffffffffffffffffffffffffffffffffff16021790555060408201518160020160006101000a81548173ffffffffffffffffffffffffffffffffffffffff021916908373ffffffffffffffffffffffffffffffffffffffff1602179055505050505050505050565b60008060009054906101000a900473ffffffffffffffffffffffffffffffffffffffff16905090565b6106b9610971565b600073ffffffffffffffffffffffffffffffffffffffff168173ffffffffffffffffffffffffffffffffffffffff161415610729576040517f08c379a000000000000000000000000000000000000000000000000000000000815260040161072090610eeb565b60405180910390fd5b610732816109ef565b50565b6000806001805480602002602001604051908101604052809291908181526020016000905b828210156108ca578382906000526020600020906003020160405180606001604052908160008201805461078d906110b7565b80601f01602080910402602001604051908101604052809291908181526020018280546107b9906110b7565b80156108065780601f106107db57610100808354040283529160200191610806565b820191906000526020600020905b8154815290600101906020018083116107e957829003601f168201915b505050505081526020016001820160009054906101000a900473ffffffffffffffffffffffffffffffffffffffff1673ffffffffffffffffffffffffffffffffffffffff1673ffffffffffffffffffffffffffffffffffffffff1681526020016002820160009054906101000a900473ffffffffffffffffffffffffffffffffffffffff1673ffffffffffffffffffffffffffffffffffffffff1673ffffffffffffffffffffffffffffffffffffffff16815250508152602001906001019061075a565b50505050905060005b8151811015610969578181815181106108ef576108ee6111c1565b5b60200260200101516020015173ffffffffffffffffffffffffffffffffffffffff168473ffffffffffffffffffffffffffffffffffffffff16141561095657818181518110610941576109406111c1565b5b6020026020010151604001519250505061096c565b80806109619061111a565b9150506108d3565b50505b919050565b610979610ab3565b73ffffffffffffffffffffffffffffffffffffffff16610997610688565b73ffffffffffffffffffffffffffffffffffffffff16146109ed576040517f08c379a00000000000000000000000000000000000000000000000000000000081526004016109e490610f2b565b60405180910390fd5b565b60008060009054906101000a900473ffffffffffffffffffffffffffffffffffffffff169050816000806101000a81548173ffffffffffffffffffffffffffffffffffffffff021916908373ffffffffffffffffffffffffffffffffffffffff1602179055508173ffffffffffffffffffffffffffffffffffffffff168173ffffffffffffffffffffffffffffffffffffffff167f8be0079c531659141344cd1fd0a4f28419497f9722a3daafe3b4186f6b6457e060405160405180910390a35050565b600033905090565b828054610ac7906110b7565b90600052602060002090601f016020900481019282610ae95760008555610b30565b82601f10610b0257805160ff1916838001178555610b30565b82800160010185558215610b30579182015b82811115610b2f578251825591602001919060010190610b14565b5b509050610b3d9190610b41565b5090565b5b80821115610b5a576000816000905550600101610b42565b5090565b6000610b71610b6c84610f8b565b610f66565b905082815260208101848484011115610b8d57610b8c611224565b5b610b98848285611075565b509392505050565b600081359050610baf816112e5565b92915050565b600081519050610bc4816112fc565b92915050565b600082601f830112610bdf57610bde61121f565b5b8135610bef848260208601610b5e565b91505092915050565b600081359050610c0781611313565b92915050565b600081519050610c1c81611313565b92915050565b600081519050610c318161132a565b92915050565b600060208284031215610c4d57610c4c61122e565b5b6000610c5b84828501610ba0565b91505092915050565b600080600060608486031215610c7d57610c7c61122e565b5b600084013567ffffffffffffffff811115610c9b57610c9a611229565b5b610ca786828701610bca565b9350506020610cb886828701610ba0565b9250506040610cc986828701610ba0565b9150509250925092565b600060208284031215610ce957610ce861122e565b5b6000610cf784828501610bf8565b91505092915050565b600080600080600060a08688031215610d1c57610d1b61122e565b5b6000610d2a88828901610c22565b9550506020610d3b88828901610bb5565b9450506040610d4c88828901610c0d565b9350506060610d5d88828901610c0d565b9250506080610d6e88828901610c22565b9150509295509295909350565b610d8481610fe3565b82525050565b610d938161103f565b82525050565b6000610da482610fbc565b610dae8185610fc7565b9350610dbe818560208601611084565b610dc781611233565b840191505092915050565b6000610ddd82610fbc565b610de78185610fd8565b9350610df7818560208601611084565b80840191505092915050565b6000610e10602683610fc7565b9150610e1b82611244565b604082019050919050565b6000610e33601883610fc7565b9150610e3e82611293565b602082019050919050565b6000610e56602083610fc7565b9150610e61826112bc565b602082019050919050565b610e758161101f565b82525050565b6000610e878284610dd2565b915081905092915050565b6000602082019050610ea76000830184610d7b565b92915050565b60006060820190508181036000830152610ec78186610d99565b9050610ed66020830185610d7b565b610ee36040830184610d8a565b949350505050565b60006020820190508181036000830152610f0481610e03565b9050919050565b60006020820190508181036000830152610f2481610e26565b9050919050565b60006020820190508181036000830152610f4481610e49565b9050919050565b6000602082019050610f606000830184610e6c565b92915050565b6000610f70610f81565b9050610f7c82826110e9565b919050565b6000604051905090565b600067ffffffffffffffff821115610fa657610fa56111f0565b5b610faf82611233565b9050602081019050919050565b600081519050919050565b600082825260208201905092915050565b600081905092915050565b6000610fee82610fff565b9050919050565b6000819050919050565b600073ffffffffffffffffffffffffffffffffffffffff82169050919050565b6000819050919050565b600069ffffffffffffffffffff82169050919050565b600061104a82611051565b9050919050565b600061105c82611063565b9050919050565b600061106e82610fff565b9050919050565b82818337600083830152505050565b60005b838110156110a2578082015181840152602081019050611087565b838111156110b1576000848401525b50505050565b600060028204905060018216806110cf57607f821691505b602082108114156110e3576110e2611192565b5b50919050565b6110f282611233565b810181811067ffffffffffffffff82111715611111576111106111f0565b5b80604052505050565b60006111258261101f565b91507fffffffffffffffffffffffffffffffffffffffffffffffffffffffffffffffff82141561115857611157611163565b5b600182019050919050565b7f4e487b7100000000000000000000000000000000000000000000000000000000600052601160045260246000fd5b7f4e487b7100000000000000000000000000000000000000000000000000000000600052602260045260246000fd5b7f4e487b7100000000000000000000000000000000000000000000000000000000600052603260045260246000fd5b7f4e487b7100000000000000000000000000000000000000000000000000000000600052604160045260246000fd5b600080fd5b600080fd5b600080fd5b600080fd5b6000601f19601f8301169050919050565b7f4f776e61626c653a206e6577206f776e657220697320746865207a65726f206160008201527f6464726573730000000000000000000000000000000000000000000000000000602082015250565b7f5072696365204665656420616c72656164792061646465640000000000000000600082015250565b7f4f776e61626c653a2063616c6c6572206973206e6f7420746865206f776e6572600082015250565b6112ee81610fe3565b81146112f957600080fd5b50565b61130581610ff5565b811461131057600080fd5b50565b61131c8161101f565b811461132757600080fd5b50565b61133381611029565b811461133e57600080fd5b5056fea2646970667358221220c35e7e8ecb7262f04ee52507df9a62a77b09793980be9195195c1e70958bbdd764736f6c63430008070033",
  "linkReferences": {},
  "deployedLinkReferences": {}
}