{
  "_format": "hh-sol-artifact-1",
  "contractName": "Wallet",
  "sourceName": "contracts/Wallet.sol",
  "abi": [
    {
      "inputs": [],
      "stateMutability": "nonpayable",
      "type": "constructor"
    },
    {
      "anonymous": false,
      "inputs": [
        {
          "indexed": false,
          "internalType": "address",
          "name": "token",
          "type": "address"
        },
        {
          "indexed": false,
          "internalType": "address",
          "name": "user",
          "type": "address"
        },
        {
          "indexed": false,
          "internalType": "uint256",
          "name": "amount",
          "type": "uint256"
        },
        {
          "indexed": false,
          "internalType": "uint256",
          "name": "balance",
          "type": "uint256"
        }
      ],
      "name": "Deposit",
      "type": "event"
    },
    {
      "anonymous": false,
      "inputs": [
        {
          "indexed": true,
          "internalType": "address",
          "name": "previousOwner",
          "type": "address"
        },
        {
          "indexed": true,
          "internalType": "address",
          "name": "newOwner",
          "type": "address"
        }
      ],
      "name": "OwnershipTransferred",
      "type": "event"
    },
    {
      "anonymous": false,
      "inputs": [
        {
          "indexed": false,
          "internalType": "address",
          "name": "token",
          "type": "address"
        },
        {
          "indexed": false,
          "internalType": "address",
          "name": "user",
          "type": "address"
        },
        {
          "indexed": false,
          "internalType": "uint256",
          "name": "amount",
          "type": "uint256"
        },
        {
          "indexed": false,
          "internalType": "uint256",
          "name": "balance",
          "type": "uint256"
        }
      ],
      "name": "Withdraw",
      "type": "event"
    },
    {
      "inputs": [],
      "name": "Owner",
      "outputs": [
        {
          "internalType": "address",
          "name": "",
          "type": "address"
        }
      ],
      "stateMutability": "view",
      "type": "function"
    },
    {
      "inputs": [],
      "name": "aETH",
      "outputs": [
        {
          "internalType": "address",
          "name": "",
          "type": "address"
        }
      ],
      "stateMutability": "view",
      "type": "function"
    },
    {
      "inputs": [
        {
          "internalType": "address",
          "name": "_token",
          "type": "address"
        },
        {
          "internalType": "address",
          "name": "_user",
          "type": "address"
        }
      ],
      "name": "balanceOf",
      "outputs": [
        {
          "internalType": "uint256",
          "name": "",
          "type": "uint256"
        }
      ],
      "stateMutability": "view",
      "type": "function"
    },
    {
      "inputs": [],
      "name": "depositETH",
      "outputs": [],
      "stateMutability": "payable",
      "type": "function"
    },
    {
      "inputs": [
        {
          "internalType": "address",
          "name": "_token",
          "type": "address"
        },
        {
          "internalType": "uint256",
          "name": "_amount",
          "type": "uint256"
        },
        {
          "internalType": "uint256",
          "name": "_decimals",
          "type": "uint256"
        }
      ],
      "name": "depositToken",
      "outputs": [],
      "stateMutability": "nonpayable",
      "type": "function"
    },
    {
      "inputs": [],
      "name": "ethToken",
      "outputs": [
        {
          "internalType": "address",
          "name": "",
          "type": "address"
        }
      ],
      "stateMutability": "view",
      "type": "function"
    },
    {
      "inputs": [
        {
          "internalType": "address",
          "name": "_user",
          "type": "address"
        },
        {
          "internalType": "address",
          "name": "_token",
          "type": "address"
        }
      ],
      "name": "getlockedFunds",
      "outputs": [
        {
          "internalType": "uint256",
          "name": "",
          "type": "uint256"
        }
      ],
      "stateMutability": "view",
      "type": "function"
    },
    {
      "inputs": [
        {
          "internalType": "address",
          "name": "",
          "type": "address"
        },
        {
          "internalType": "address",
          "name": "",
          "type": "address"
        }
      ],
      "name": "lockedFunds",
      "outputs": [
        {
          "internalType": "uint256",
          "name": "",
          "type": "uint256"
        }
      ],
      "stateMutability": "view",
      "type": "function"
    },
    {
      "inputs": [],
      "name": "owner",
      "outputs": [
        {
          "internalType": "address",
          "name": "",
          "type": "address"
        }
      ],
      "stateMutability": "view",
      "type": "function"
    },
    {
      "inputs": [],
      "name": "renounceOwnership",
      "outputs": [],
      "stateMutability": "nonpayable",
      "type": "function"
    },
    {
      "inputs": [
        {
          "internalType": "address",
          "name": "",
          "type": "address"
        },
        {
          "internalType": "address",
          "name": "",
          "type": "address"
        }
      ],
      "name": "s_tokens",
      "outputs": [
        {
          "internalType": "uint256",
          "name": "",
          "type": "uint256"
        }
      ],
      "stateMutability": "view",
      "type": "function"
    },
    {
      "inputs": [
        {
          "internalType": "address",
          "name": "newOwner",
          "type": "address"
        }
      ],
      "name": "transferOwnership",
      "outputs": [],
      "stateMutability": "nonpayable",
      "type": "function"
    },
    {
      "inputs": [
        {
          "internalType": "address",
          "name": "_token",
          "type": "address"
        },
        {
          "internalType": "address",
          "name": "_user",
          "type": "address"
        },
        {
          "internalType": "uint256",
          "name": "_amount",
          "type": "uint256"
        },
        {
          "internalType": "bool",
          "name": "isAdd",
          "type": "bool"
        }
      ],
      "name": "updateBalance",
      "outputs": [],
      "stateMutability": "nonpayable",
      "type": "function"
    },
    {
      "inputs": [
        {
          "internalType": "address",
          "name": "_exchangeAddress",
          "type": "address"
        }
      ],
      "name": "updateExchangeAddress",
      "outputs": [],
      "stateMutability": "nonpayable",
      "type": "function"
    },
    {
      "inputs": [
        {
          "internalType": "address",
          "name": "_user",
          "type": "address"
        },
        {
          "internalType": "address",
          "name": "_token",
          "type": "address"
        },
        {
          "internalType": "uint256",
          "name": "_amount",
          "type": "uint256"
        },
        {
          "internalType": "bool",
          "name": "isAdd",
          "type": "bool"
        }
      ],
      "name": "updateLockedFunds",
      "outputs": [],
      "stateMutability": "nonpayable",
      "type": "function"
    },
    {
      "inputs": [
        {
          "internalType": "uint256",
          "name": "_amount",
          "type": "uint256"
        }
      ],
      "name": "withdrawETH",
      "outputs": [],
      "stateMutability": "nonpayable",
      "type": "function"
    },
    {
      "inputs": [
        {
          "internalType": "address",
          "name": "_token",
          "type": "address"
        },
        {
          "internalType": "uint256",
          "name": "_amount",
          "type": "uint256"
        },
        {
          "internalType": "uint256",
          "name": "_decimals",
          "type": "uint256"
        }
      ],
      "name": "withdrawToken",
      "outputs": [],
      "stateMutability": "nonpayable",
      "type": "function"
    }
  ],
  "bytecode": "0x60a06040526000600160006101000a81548173ffffffffffffffffffffffffffffffffffffffff021916908373ffffffffffffffffffffffffffffffffffffffff1602179055507322404b0e2a7067068acdadd8f9d586f834cce2c5600260006101000a81548173ffffffffffffffffffffffffffffffffffffffff021916908373ffffffffffffffffffffffffffffffffffffffff1602179055503480156100a757600080fd5b506100c46100b961010060201b60201c565b61010860201b60201c565b3373ffffffffffffffffffffffffffffffffffffffff1660808173ffffffffffffffffffffffffffffffffffffffff1660601b815250506101cc565b600033905090565b60008060009054906101000a900473ffffffffffffffffffffffffffffffffffffffff169050816000806101000a81548173ffffffffffffffffffffffffffffffffffffffff021916908373ffffffffffffffffffffffffffffffffffffffff1602179055508173ffffffffffffffffffffffffffffffffffffffff168173ffffffffffffffffffffffffffffffffffffffff167f8be0079c531659141344cd1fd0a4f28419497f9722a3daafe3b4186f6b6457e060405160405180910390a35050565b60805160601c61247a620001eb6000396000611040015261247a6000f3fe6080604052600436106100fe5760003560e01c806396c0ec5511610095578063cd5d767c11610064578063cd5d767c1461030d578063f14210a61461034a578063f2fde38b14610373578063f6326fb31461039c578063f7888aec146103a6576100fe565b806396c0ec551461026757806399c6d2de14610290578063b4a99a4e146102b9578063c5ab4602146102e4576100fe565b8063715018a6116100d1578063715018a6146101cf5780637bf1a627146101e65780638da5cb5b1461021157806392f63d2e1461023c576100fe565b806331415a651461010357806346a8f8201461012c5780634bdde1cf146101555780634fc121db14610192575b600080fd5b34801561010f57600080fd5b5061012a600480360381019061012591906119d8565b6103e3565b005b34801561013857600080fd5b50610153600480360381019061014e9190611a45565b61042f565b005b34801561016157600080fd5b5061017c60048036038101906101779190611a05565b61072b565b6040516101899190611eca565b60405180910390f35b34801561019e57600080fd5b506101b960048036038101906101b49190611a05565b610750565b6040516101c69190611eca565b60405180910390f35b3480156101db57600080fd5b506101e46107d7565b005b3480156101f257600080fd5b506101fb6107eb565b6040516102089190611cea565b60405180910390f35b34801561021d57600080fd5b50610226610811565b6040516102339190611cea565b60405180910390f35b34801561024857600080fd5b5061025161083a565b60405161025e9190611cea565b60405180910390f35b34801561027357600080fd5b5061028e60048036038101906102899190611aac565b610860565b005b34801561029c57600080fd5b506102b760048036038101906102b29190611aac565b610d1d565b005b3480156102c557600080fd5b506102ce61103e565b6040516102db9190611cea565b60405180910390f35b3480156102f057600080fd5b5061030b60048036038101906103069190611a45565b611062565b005b34801561031957600080fd5b50610334600480360381019061032f9190611a05565b61135e565b6040516103419190611eca565b60405180910390f35b34801561035657600080fd5b50610371600480360381019061036c9190611b2c565b611383565b005b34801561037f57600080fd5b5061039a600480360381019061039591906119d8565b61161c565b005b6103a46116a0565b005b3480156103b257600080fd5b506103cd60048036038101906103c89190611a05565b61175b565b6040516103da9190611eca565b60405180910390f35b6103eb6117e2565b80600560006101000a81548173ffffffffffffffffffffffffffffffffffffffff021916908373ffffffffffffffffffffffffffffffffffffffff16021790555050565b3073ffffffffffffffffffffffffffffffffffffffff163373ffffffffffffffffffffffffffffffffffffffff1614806104b65750600560009054906101000a900473ffffffffffffffffffffffffffffffffffffffff1673ffffffffffffffffffffffffffffffffffffffff163373ffffffffffffffffffffffffffffffffffffffff16145b6104f5576040517f08c379a00000000000000000000000000000000000000000000000000000000081526004016104ec90611e8a565b60405180910390fd5b801561060f5761058a82600460008773ffffffffffffffffffffffffffffffffffffffff1673ffffffffffffffffffffffffffffffffffffffff16815260200190815260200160002060008673ffffffffffffffffffffffffffffffffffffffff1673ffffffffffffffffffffffffffffffffffffffff1681526020019081526020016000205461186090919063ffffffff16565b600460008673ffffffffffffffffffffffffffffffffffffffff1673ffffffffffffffffffffffffffffffffffffffff16815260200190815260200160002060008573ffffffffffffffffffffffffffffffffffffffff1673ffffffffffffffffffffffffffffffffffffffff16815260200190815260200160002081905550610725565b80610724576106a382600460008773ffffffffffffffffffffffffffffffffffffffff1673ffffffffffffffffffffffffffffffffffffffff16815260200190815260200160002060008673ffffffffffffffffffffffffffffffffffffffff1673ffffffffffffffffffffffffffffffffffffffff1681526020019081526020016000205461187690919063ffffffff16565b600460008673ffffffffffffffffffffffffffffffffffffffff1673ffffffffffffffffffffffffffffffffffffffff16815260200190815260200160002060008573ffffffffffffffffffffffffffffffffffffffff1673ffffffffffffffffffffffffffffffffffffffff168152602001908152602001600020819055505b5b50505050565b6004602052816000526040600020602052806000526040600020600091509150505481565b6000600460008473ffffffffffffffffffffffffffffffffffffffff1673ffffffffffffffffffffffffffffffffffffffff16815260200190815260200160002060008373ffffffffffffffffffffffffffffffffffffffff1673ffffffffffffffffffffffffffffffffffffffff16815260200190815260200160002054905092915050565b6107df6117e2565b6107e9600061188c565b565b600160009054906101000a900473ffffffffffffffffffffffffffffffffffffffff1681565b60008060009054906101000a900473ffffffffffffffffffffffffffffffffffffffff16905090565b600260009054906101000a900473ffffffffffffffffffffffffffffffffffffffff1681565b600160009054906101000a900473ffffffffffffffffffffffffffffffffffffffff1673ffffffffffffffffffffffffffffffffffffffff168373ffffffffffffffffffffffffffffffffffffffff1614156108bb57600080fd5b600560009054906101000a900473ffffffffffffffffffffffffffffffffffffffff1673ffffffffffffffffffffffffffffffffffffffff16631027b219846040518263ffffffff1660e01b81526004016109169190611cea565b60206040518083038186803b15801561092e57600080fd5b505afa158015610942573d6000803e3d6000fd5b505050506040513d601f19601f820116820180604052508101906109669190611aff565b6109a5576040517f08c379a000000000000000000000000000000000000000000000000000000000815260040161099c90611e2a565b60405180910390fd5b816109cb6109b33386610750565b6109bd863361175b565b61187690919063ffffffff16565b1015610a0c576040517f08c379a0000000000000000000000000000000000000000000000000000000008152600401610a0390611e6a565b60405180910390fd5b600060149054906101000a900460ff1615610a5c576040517f08c379a0000000000000000000000000000000000000000000000000000000008152600401610a5390611daa565b60405180910390fd5b6001600060146101000a81548160ff02191690831515021790555082600660006101000a81548173ffffffffffffffffffffffffffffffffffffffff021916908373ffffffffffffffffffffffffffffffffffffffff1602179055506000601290506012821415610b9157610ad48433856000611062565b600660009054906101000a900473ffffffffffffffffffffffffffffffffffffffff1673ffffffffffffffffffffffffffffffffffffffff1663a9059cbb33856040518363ffffffff1660e01b8152600401610b31929190611d81565b602060405180830381600087803b158015610b4b57600080fd5b505af1158015610b5f573d6000803e3d6000fd5b505050506040513d601f19601f82011682018060405250810190610b839190611aff565b610b8c57600080fd5b610cb7565b610bce8433610bc7610bac868661187690919063ffffffff16565b600a610bb89190611fdb565b8761195090919063ffffffff16565b6000611062565b600660009054906101000a900473ffffffffffffffffffffffffffffffffffffffff1673ffffffffffffffffffffffffffffffffffffffff1663a9059cbb33610c3e610c23868661187690919063ffffffff16565b600a610c2f9190611fdb565b8761196690919063ffffffff16565b6040518363ffffffff1660e01b8152600401610c5b929190611d81565b602060405180830381600087803b158015610c7557600080fd5b505af1158015610c89573d6000803e3d6000fd5b505050506040513d601f19601f82011682018060405250810190610cad9190611aff565b610cb657600080fd5b5b60008060146101000a81548160ff0219169083151502179055507ff341246adaac6f497bc2a656f546ab9e182111d630394f0c57c710a59a2cb567843385610cff883361175b565b604051610d0f9493929190611d3c565b60405180910390a150505050565b600160009054906101000a900473ffffffffffffffffffffffffffffffffffffffff1673ffffffffffffffffffffffffffffffffffffffff168373ffffffffffffffffffffffffffffffffffffffff161415610d7857600080fd5b600560009054906101000a900473ffffffffffffffffffffffffffffffffffffffff1673ffffffffffffffffffffffffffffffffffffffff16631027b219846040518263ffffffff1660e01b8152600401610dd39190611cea565b60206040518083038186803b158015610deb57600080fd5b505afa158015610dff573d6000803e3d6000fd5b505050506040513d601f19601f82011682018060405250810190610e239190611aff565b610e62576040517f08c379a0000000000000000000000000000000000000000000000000000000008152600401610e5990611e2a565b60405180910390fd5b82600660006101000a81548173ffffffffffffffffffffffffffffffffffffffff021916908373ffffffffffffffffffffffffffffffffffffffff160217905550600660009054906101000a900473ffffffffffffffffffffffffffffffffffffffff1673ffffffffffffffffffffffffffffffffffffffff166323b872dd3330856040518463ffffffff1660e01b8152600401610f0293929190611d05565b602060405180830381600087803b158015610f1c57600080fd5b505af1158015610f30573d6000803e3d6000fd5b505050506040513d601f19601f82011682018060405250810190610f549190611aff565b610f93576040517f08c379a0000000000000000000000000000000000000000000000000000000008152600401610f8a90611eaa565b60405180910390fd5b6000601290506012821415610fb457610faf8433856001611062565b610ff2565b610ff18433610fea610fcf868661187690919063ffffffff16565b600a610fdb9190611fdb565b8761195090919063ffffffff16565b6001611062565b5b7fdcbc1c05240f31ff3ad067ef1ee35ce4997762752e3a095284754544f4c709d7843385611020883361175b565b6040516110309493929190611d3c565b60405180910390a150505050565b7f000000000000000000000000000000000000000000000000000000000000000081565b3073ffffffffffffffffffffffffffffffffffffffff163373ffffffffffffffffffffffffffffffffffffffff1614806110e95750600560009054906101000a900473ffffffffffffffffffffffffffffffffffffffff1673ffffffffffffffffffffffffffffffffffffffff163373ffffffffffffffffffffffffffffffffffffffff16145b611128576040517f08c379a000000000000000000000000000000000000000000000000000000000815260040161111f90611e8a565b60405180910390fd5b8015611242576111bd82600360008773ffffffffffffffffffffffffffffffffffffffff1673ffffffffffffffffffffffffffffffffffffffff16815260200190815260200160002060008673ffffffffffffffffffffffffffffffffffffffff1673ffffffffffffffffffffffffffffffffffffffff1681526020019081526020016000205461186090919063ffffffff16565b600360008673ffffffffffffffffffffffffffffffffffffffff1673ffffffffffffffffffffffffffffffffffffffff16815260200190815260200160002060008573ffffffffffffffffffffffffffffffffffffffff1673ffffffffffffffffffffffffffffffffffffffff16815260200190815260200160002081905550611358565b80611357576112d682600360008773ffffffffffffffffffffffffffffffffffffffff1673ffffffffffffffffffffffffffffffffffffffff16815260200190815260200160002060008673ffffffffffffffffffffffffffffffffffffffff1673ffffffffffffffffffffffffffffffffffffffff1681526020019081526020016000205461187690919063ffffffff16565b600360008673ffffffffffffffffffffffffffffffffffffffff1673ffffffffffffffffffffffffffffffffffffffff16815260200190815260200160002060008573ffffffffffffffffffffffffffffffffffffffff1673ffffffffffffffffffffffffffffffffffffffff168152602001908152602001600020819055505b5b50505050565b6003602052816000526040600020602052806000526040600020600091509150505481565b806113ed6113b333600160009054906101000a900473ffffffffffffffffffffffffffffffffffffffff16610750565b6113df600160009054906101000a900473ffffffffffffffffffffffffffffffffffffffff163361175b565b61187690919063ffffffff16565b101561142e576040517f08c379a000000000000000000000000000000000000000000000000000000000815260040161142590611e0a565b60405180910390fd5b600060149054906101000a900460ff161561147e576040517f08c379a000000000000000000000000000000000000000000000000000000000815260040161147590611daa565b60405180910390fd5b6001600060146101000a81548160ff0219169083151502179055506114c8600160009054906101000a900473ffffffffffffffffffffffffffffffffffffffff1633836000611062565b60008060146101000a81548160ff02191690831515021790555060003373ffffffffffffffffffffffffffffffffffffffff168260405161150890611cd5565b60006040518083038185875af1925050503d8060008114611545576040519150601f19603f3d011682016040523d82523d6000602084013e61154a565b606091505b505090508061158e576040517f08c379a000000000000000000000000000000000000000000000000000000000815260040161158590611dea565b60405180910390fd5b7ff341246adaac6f497bc2a656f546ab9e182111d630394f0c57c710a59a2cb567600160009054906101000a900473ffffffffffffffffffffffffffffffffffffffff163384611600600160009054906101000a900473ffffffffffffffffffffffffffffffffffffffff163361175b565b6040516116109493929190611d3c565b60405180910390a15050565b6116246117e2565b600073ffffffffffffffffffffffffffffffffffffffff168173ffffffffffffffffffffffffffffffffffffffff161415611694576040517f08c379a000000000000000000000000000000000000000000000000000000000815260040161168b90611dca565b60405180910390fd5b61169d8161188c565b50565b6116cf600160009054906101000a900473ffffffffffffffffffffffffffffffffffffffff1633346001611062565b7fdcbc1c05240f31ff3ad067ef1ee35ce4997762752e3a095284754544f4c709d7600160009054906101000a900473ffffffffffffffffffffffffffffffffffffffff163334611741600160009054906101000a900473ffffffffffffffffffffffffffffffffffffffff163361175b565b6040516117519493929190611d3c565b60405180910390a1565b6000600360008473ffffffffffffffffffffffffffffffffffffffff1673ffffffffffffffffffffffffffffffffffffffff16815260200190815260200160002060008373ffffffffffffffffffffffffffffffffffffffff1673ffffffffffffffffffffffffffffffffffffffff16815260200190815260200160002054905092915050565b6117ea61197c565b73ffffffffffffffffffffffffffffffffffffffff16611808610811565b73ffffffffffffffffffffffffffffffffffffffff161461185e576040517f08c379a000000000000000000000000000000000000000000000000000000000815260040161185590611e4a565b60405180910390fd5b565b6000818361186e9190611f01565b905092915050565b600081836118849190612153565b905092915050565b60008060009054906101000a900473ffffffffffffffffffffffffffffffffffffffff169050816000806101000a81548173ffffffffffffffffffffffffffffffffffffffff021916908373ffffffffffffffffffffffffffffffffffffffff1602179055508173ffffffffffffffffffffffffffffffffffffffff168173ffffffffffffffffffffffffffffffffffffffff167f8be0079c531659141344cd1fd0a4f28419497f9722a3daafe3b4186f6b6457e060405160405180910390a35050565b6000818361195e91906120f9565b905092915050565b600081836119749190611f57565b905092915050565b600033905090565b600081359050611993816123ff565b92915050565b6000813590506119a881612416565b92915050565b6000815190506119bd81612416565b92915050565b6000813590506119d28161242d565b92915050565b6000602082840312156119ee576119ed61222d565b5b60006119fc84828501611984565b91505092915050565b60008060408385031215611a1c57611a1b61222d565b5b6000611a2a85828601611984565b9250506020611a3b85828601611984565b9150509250929050565b60008060008060808587031215611a5f57611a5e61222d565b5b6000611a6d87828801611984565b9450506020611a7e87828801611984565b9350506040611a8f878288016119c3565b9250506060611aa087828801611999565b91505092959194509250565b600080600060608486031215611ac557611ac461222d565b5b6000611ad386828701611984565b9350506020611ae4868287016119c3565b9250506040611af5868287016119c3565b9150509250925092565b600060208284031215611b1557611b1461222d565b5b6000611b23848285016119ae565b91505092915050565b600060208284031215611b4257611b4161222d565b5b6000611b50848285016119c3565b91505092915050565b611b6281612187565b82525050565b6000611b75601883611ef0565b9150611b808261223f565b602082019050919050565b6000611b98602683611ef0565b9150611ba382612268565b604082019050919050565b6000611bbb601583611ef0565b9150611bc6826122b7565b602082019050919050565b6000611bde602483611ef0565b9150611be9826122e0565b604082019050919050565b6000611c01601e83611ef0565b9150611c0c8261232f565b602082019050919050565b6000611c24602083611ef0565b9150611c2f82612358565b602082019050919050565b6000611c47601f83611ef0565b9150611c5282612381565b602082019050919050565b6000611c6a601a83611ef0565b9150611c75826123aa565b602082019050919050565b6000611c8d600083611ee5565b9150611c98826123d3565b600082019050919050565b6000611cb0600f83611ef0565b9150611cbb826123d6565b602082019050919050565b611ccf816121c5565b82525050565b6000611ce082611c80565b9150819050919050565b6000602082019050611cff6000830184611b59565b92915050565b6000606082019050611d1a6000830186611b59565b611d276020830185611b59565b611d346040830184611cc6565b949350505050565b6000608082019050611d516000830187611b59565b611d5e6020830186611b59565b611d6b6040830185611cc6565b611d786060830184611cc6565b95945050505050565b6000604082019050611d966000830185611b59565b611da36020830184611cc6565b9392505050565b60006020820190508181036000830152611dc381611b68565b9050919050565b60006020820190508181036000830152611de381611b8b565b9050919050565b60006020820190508181036000830152611e0381611bae565b9050919050565b60006020820190508181036000830152611e2381611bd1565b9050919050565b60006020820190508181036000830152611e4381611bf4565b9050919050565b60006020820190508181036000830152611e6381611c17565b9050919050565b60006020820190508181036000830152611e8381611c3a565b9050919050565b60006020820190508181036000830152611ea381611c5d565b9050919050565b60006020820190508181036000830152611ec381611ca3565b9050919050565b6000602082019050611edf6000830184611cc6565b92915050565b600081905092915050565b600082825260208201905092915050565b6000611f0c826121c5565b9150611f17836121c5565b9250827fffffffffffffffffffffffffffffffffffffffffffffffffffffffffffffffff03821115611f4c57611f4b6121cf565b5b828201905092915050565b6000611f62826121c5565b9150611f6d836121c5565b925082611f7d57611f7c6121fe565b5b828204905092915050565b6000808291508390505b6001851115611fd257808604811115611fae57611fad6121cf565b5b6001851615611fbd5780820291505b8081029050611fcb85612232565b9450611f92565b94509492505050565b6000611fe6826121c5565b9150611ff1836121c5565b925061201e7fffffffffffffffffffffffffffffffffffffffffffffffffffffffffffffffff8484612026565b905092915050565b60008261203657600190506120f2565b8161204457600090506120f2565b816001811461205a576002811461206457612093565b60019150506120f2565b60ff841115612076576120756121cf565b5b8360020a91508482111561208d5761208c6121cf565b5b506120f2565b5060208310610133831016604e8410600b84101617156120c85782820a9050838111156120c3576120c26121cf565b5b6120f2565b6120d58484846001611f88565b925090508184048111156120ec576120eb6121cf565b5b81810290505b9392505050565b6000612104826121c5565b915061210f836121c5565b9250817fffffffffffffffffffffffffffffffffffffffffffffffffffffffffffffffff0483118215151615612148576121476121cf565b5b828202905092915050565b600061215e826121c5565b9150612169836121c5565b92508282101561217c5761217b6121cf565b5b828203905092915050565b6000612192826121a5565b9050919050565b60008115159050919050565b600073ffffffffffffffffffffffffffffffffffffffff82169050919050565b6000819050919050565b7f4e487b7100000000000000000000000000000000000000000000000000000000600052601160045260246000fd5b7f4e487b7100000000000000000000000000000000000000000000000000000000600052601260045260246000fd5b600080fd5b60008160011c9050919050565b7f5265656e7472616e742063616c6c206465746563746564210000000000000000600082015250565b7f4f776e61626c653a206e6577206f776e657220697320746865207a65726f206160008201527f6464726573730000000000000000000000000000000000000000000000000000602082015250565b7f6661696c656420746f2073656e6420616d6f756e740000000000000000000000600082015250565b7f496e73756666696369656e742062616c616e63652045544820746f207769746860008201527f6472617700000000000000000000000000000000000000000000000000000000602082015250565b7f546f6b656e206e6f74207665726966696564206f6e2045786368616e67650000600082015250565b7f4f776e61626c653a2063616c6c6572206973206e6f7420746865206f776e6572600082015250565b7f496e73756666696369656e7420546f6b656e7320746f20776974686472617700600082015250565b7f556e617574686f72697365642046756e6374696f6e2043616c6c000000000000600082015250565b50565b7f4e6f20417070726f76616c207965740000000000000000000000000000000000600082015250565b61240881612187565b811461241357600080fd5b50565b61241f81612199565b811461242a57600080fd5b50565b612436816121c5565b811461244157600080fd5b5056fea2646970667358221220ce4a627490128c855c6fa10158ce3c9f63c92182dd75e0bdf098aa3b845778fd64736f6c63430008070033",
  "linkReferences": {},
  "deployedLinkReferences": {}
}