{
  "_format": "hh-sol-artifact-1",
  "contractName": "Wallet",
  "sourceName": "contracts/Wallet.sol",
  "abi": [
    {
      "inputs": [],
      "stateMutability": "nonpayable",
      "type": "constructor"
    },
    {
      "anonymous": false,
      "inputs": [
        {
          "indexed": false,
          "internalType": "address",
          "name": "token",
          "type": "address"
        },
        {
          "indexed": false,
          "internalType": "address",
          "name": "user",
          "type": "address"
        },
        {
          "indexed": false,
          "internalType": "uint256",
          "name": "amount",
          "type": "uint256"
        },
        {
          "indexed": false,
          "internalType": "uint256",
          "name": "balance",
          "type": "uint256"
        }
      ],
      "name": "Deposit",
      "type": "event"
    },
    {
      "anonymous": false,
      "inputs": [
        {
          "indexed": true,
          "internalType": "address",
          "name": "previousOwner",
          "type": "address"
        },
        {
          "indexed": true,
          "internalType": "address",
          "name": "newOwner",
          "type": "address"
        }
      ],
      "name": "OwnershipTransferred",
      "type": "event"
    },
    {
      "anonymous": false,
      "inputs": [
        {
          "indexed": false,
          "internalType": "address",
          "name": "token",
          "type": "address"
        },
        {
          "indexed": false,
          "internalType": "address",
          "name": "user",
          "type": "address"
        },
        {
          "indexed": false,
          "internalType": "uint256",
          "name": "amount",
          "type": "uint256"
        },
        {
          "indexed": false,
          "internalType": "uint256",
          "name": "balance",
          "type": "uint256"
        }
      ],
      "name": "Withdraw",
      "type": "event"
    },
    {
      "inputs": [],
      "name": "Owner",
      "outputs": [
        {
          "internalType": "address",
          "name": "",
          "type": "address"
        }
      ],
      "stateMutability": "view",
      "type": "function"
    },
    {
      "inputs": [
        {
          "internalType": "address",
          "name": "_token",
          "type": "address"
        },
        {
          "internalType": "address",
          "name": "_user",
          "type": "address"
        }
      ],
      "name": "balanceOf",
      "outputs": [
        {
          "internalType": "uint256",
          "name": "",
          "type": "uint256"
        }
      ],
      "stateMutability": "view",
      "type": "function"
    },
    {
      "inputs": [],
      "name": "depositETH",
      "outputs": [],
      "stateMutability": "payable",
      "type": "function"
    },
    {
      "inputs": [
        {
          "internalType": "address",
          "name": "_token",
          "type": "address"
        },
        {
          "internalType": "uint256",
          "name": "_amount",
          "type": "uint256"
        },
        {
          "internalType": "uint256",
          "name": "_decimals",
          "type": "uint256"
        }
      ],
      "name": "depositToken",
      "outputs": [],
      "stateMutability": "nonpayable",
      "type": "function"
    },
    {
      "inputs": [],
      "name": "ethToken",
      "outputs": [
        {
          "internalType": "address",
          "name": "",
          "type": "address"
        }
      ],
      "stateMutability": "view",
      "type": "function"
    },
    {
      "inputs": [
        {
          "internalType": "address",
          "name": "_user",
          "type": "address"
        },
        {
          "internalType": "address",
          "name": "_token",
          "type": "address"
        }
      ],
      "name": "getlockedFunds",
      "outputs": [
        {
          "internalType": "uint256",
          "name": "",
          "type": "uint256"
        }
      ],
      "stateMutability": "view",
      "type": "function"
    },
    {
      "inputs": [
        {
          "internalType": "address",
          "name": "",
          "type": "address"
        },
        {
          "internalType": "address",
          "name": "",
          "type": "address"
        }
      ],
      "name": "lockedFunds",
      "outputs": [
        {
          "internalType": "uint256",
          "name": "",
          "type": "uint256"
        }
      ],
      "stateMutability": "view",
      "type": "function"
    },
    {
      "inputs": [],
      "name": "owner",
      "outputs": [
        {
          "internalType": "address",
          "name": "",
          "type": "address"
        }
      ],
      "stateMutability": "view",
      "type": "function"
    },
    {
      "inputs": [],
      "name": "renounceOwnership",
      "outputs": [],
      "stateMutability": "nonpayable",
      "type": "function"
    },
    {
      "inputs": [
        {
          "internalType": "address",
          "name": "",
          "type": "address"
        },
        {
          "internalType": "address",
          "name": "",
          "type": "address"
        }
      ],
      "name": "s_tokens",
      "outputs": [
        {
          "internalType": "uint256",
          "name": "",
          "type": "uint256"
        }
      ],
      "stateMutability": "view",
      "type": "function"
    },
    {
      "inputs": [
        {
          "internalType": "address",
          "name": "newOwner",
          "type": "address"
        }
      ],
      "name": "transferOwnership",
      "outputs": [],
      "stateMutability": "nonpayable",
      "type": "function"
    },
    {
      "inputs": [
        {
          "internalType": "address",
          "name": "_token",
          "type": "address"
        },
        {
          "internalType": "address",
          "name": "_user",
          "type": "address"
        },
        {
          "internalType": "uint256",
          "name": "_amount",
          "type": "uint256"
        },
        {
          "internalType": "bool",
          "name": "isAdd",
          "type": "bool"
        }
      ],
      "name": "updateBalance",
      "outputs": [],
      "stateMutability": "nonpayable",
      "type": "function"
    },
    {
      "inputs": [
        {
          "internalType": "address",
          "name": "_exchangeAddress",
          "type": "address"
        }
      ],
      "name": "updateExchangeAddress",
      "outputs": [],
      "stateMutability": "nonpayable",
      "type": "function"
    },
    {
      "inputs": [
        {
          "internalType": "address",
          "name": "_user",
          "type": "address"
        },
        {
          "internalType": "address",
          "name": "_token",
          "type": "address"
        },
        {
          "internalType": "uint256",
          "name": "_amount",
          "type": "uint256"
        },
        {
          "internalType": "bool",
          "name": "isAdd",
          "type": "bool"
        }
      ],
      "name": "updateLockedFunds",
      "outputs": [],
      "stateMutability": "nonpayable",
      "type": "function"
    },
    {
      "inputs": [
        {
          "internalType": "uint256",
          "name": "_amount",
          "type": "uint256"
        }
      ],
      "name": "withdrawETH",
      "outputs": [],
      "stateMutability": "nonpayable",
      "type": "function"
    },
    {
      "inputs": [
        {
          "internalType": "address",
          "name": "_token",
          "type": "address"
        },
        {
          "internalType": "uint256",
          "name": "_amount",
          "type": "uint256"
        },
        {
          "internalType": "uint256",
          "name": "_decimals",
          "type": "uint256"
        }
      ],
      "name": "withdrawToken",
      "outputs": [],
      "stateMutability": "nonpayable",
      "type": "function"
    }
  ],
  "bytecode": "0x60a06040526000600160006101000a81548173ffffffffffffffffffffffffffffffffffffffff021916908373ffffffffffffffffffffffffffffffffffffffff16021790555034801561005257600080fd5b5061006f6100646100ab60201b60201c565b6100b360201b60201c565b3373ffffffffffffffffffffffffffffffffffffffff1660808173ffffffffffffffffffffffffffffffffffffffff1660601b81525050610177565b600033905090565b60008060009054906101000a900473ffffffffffffffffffffffffffffffffffffffff169050816000806101000a81548173ffffffffffffffffffffffffffffffffffffffff021916908373ffffffffffffffffffffffffffffffffffffffff1602179055508173ffffffffffffffffffffffffffffffffffffffff168173ffffffffffffffffffffffffffffffffffffffff167f8be0079c531659141344cd1fd0a4f28419497f9722a3daafe3b4186f6b6457e060405160405180910390a35050565b60805160601c61241e620001966000396000610fe4015261241e6000f3fe6080604052600436106100f35760003560e01c806399c6d2de1161008a578063f14210a611610059578063f14210a614610314578063f2fde38b1461033d578063f6326fb314610366578063f7888aec14610370576100f3565b806399c6d2de1461025a578063b4a99a4e14610283578063c5ab4602146102ae578063cd5d767c146102d7576100f3565b8063715018a6116100c6578063715018a6146101c45780637bf1a627146101db5780638da5cb5b1461020657806396c0ec5514610231576100f3565b806331415a65146100f857806346a8f820146101215780634bdde1cf1461014a5780634fc121db14610187575b600080fd5b34801561010457600080fd5b5061011f600480360381019061011a919061197c565b6103ad565b005b34801561012d57600080fd5b50610148600480360381019061014391906119e9565b6103f9565b005b34801561015657600080fd5b50610171600480360381019061016c91906119a9565b6106f5565b60405161017e9190611e6e565b60405180910390f35b34801561019357600080fd5b506101ae60048036038101906101a991906119a9565b61071a565b6040516101bb9190611e6e565b60405180910390f35b3480156101d057600080fd5b506101d96107a1565b005b3480156101e757600080fd5b506101f06107b5565b6040516101fd9190611c8e565b60405180910390f35b34801561021257600080fd5b5061021b6107db565b6040516102289190611c8e565b60405180910390f35b34801561023d57600080fd5b5061025860048036038101906102539190611a50565b610804565b005b34801561026657600080fd5b50610281600480360381019061027c9190611a50565b610cc1565b005b34801561028f57600080fd5b50610298610fe2565b6040516102a59190611c8e565b60405180910390f35b3480156102ba57600080fd5b506102d560048036038101906102d091906119e9565b611006565b005b3480156102e357600080fd5b506102fe60048036038101906102f991906119a9565b611302565b60405161030b9190611e6e565b60405180910390f35b34801561032057600080fd5b5061033b60048036038101906103369190611ad0565b611327565b005b34801561034957600080fd5b50610364600480360381019061035f919061197c565b6115c0565b005b61036e611644565b005b34801561037c57600080fd5b50610397600480360381019061039291906119a9565b6116ff565b6040516103a49190611e6e565b60405180910390f35b6103b5611786565b80600460006101000a81548173ffffffffffffffffffffffffffffffffffffffff021916908373ffffffffffffffffffffffffffffffffffffffff16021790555050565b3073ffffffffffffffffffffffffffffffffffffffff163373ffffffffffffffffffffffffffffffffffffffff1614806104805750600460009054906101000a900473ffffffffffffffffffffffffffffffffffffffff1673ffffffffffffffffffffffffffffffffffffffff163373ffffffffffffffffffffffffffffffffffffffff16145b6104bf576040517f08c379a00000000000000000000000000000000000000000000000000000000081526004016104b690611e2e565b60405180910390fd5b80156105d95761055482600360008773ffffffffffffffffffffffffffffffffffffffff1673ffffffffffffffffffffffffffffffffffffffff16815260200190815260200160002060008673ffffffffffffffffffffffffffffffffffffffff1673ffffffffffffffffffffffffffffffffffffffff1681526020019081526020016000205461180490919063ffffffff16565b600360008673ffffffffffffffffffffffffffffffffffffffff1673ffffffffffffffffffffffffffffffffffffffff16815260200190815260200160002060008573ffffffffffffffffffffffffffffffffffffffff1673ffffffffffffffffffffffffffffffffffffffff168152602001908152602001600020819055506106ef565b806106ee5761066d82600360008773ffffffffffffffffffffffffffffffffffffffff1673ffffffffffffffffffffffffffffffffffffffff16815260200190815260200160002060008673ffffffffffffffffffffffffffffffffffffffff1673ffffffffffffffffffffffffffffffffffffffff1681526020019081526020016000205461181a90919063ffffffff16565b600360008673ffffffffffffffffffffffffffffffffffffffff1673ffffffffffffffffffffffffffffffffffffffff16815260200190815260200160002060008573ffffffffffffffffffffffffffffffffffffffff1673ffffffffffffffffffffffffffffffffffffffff168152602001908152602001600020819055505b5b50505050565b6003602052816000526040600020602052806000526040600020600091509150505481565b6000600360008473ffffffffffffffffffffffffffffffffffffffff1673ffffffffffffffffffffffffffffffffffffffff16815260200190815260200160002060008373ffffffffffffffffffffffffffffffffffffffff1673ffffffffffffffffffffffffffffffffffffffff16815260200190815260200160002054905092915050565b6107a9611786565b6107b36000611830565b565b600160009054906101000a900473ffffffffffffffffffffffffffffffffffffffff1681565b60008060009054906101000a900473ffffffffffffffffffffffffffffffffffffffff16905090565b600160009054906101000a900473ffffffffffffffffffffffffffffffffffffffff1673ffffffffffffffffffffffffffffffffffffffff168373ffffffffffffffffffffffffffffffffffffffff16141561085f57600080fd5b600460009054906101000a900473ffffffffffffffffffffffffffffffffffffffff1673ffffffffffffffffffffffffffffffffffffffff16631027b219846040518263ffffffff1660e01b81526004016108ba9190611c8e565b60206040518083038186803b1580156108d257600080fd5b505afa1580156108e6573d6000803e3d6000fd5b505050506040513d601f19601f8201168201806040525081019061090a9190611aa3565b610949576040517f08c379a000000000000000000000000000000000000000000000000000000000815260040161094090611dce565b60405180910390fd5b8161096f610957338661071a565b61096186336116ff565b61181a90919063ffffffff16565b10156109b0576040517f08c379a00000000000000000000000000000000000000000000000000000000081526004016109a790611e0e565b60405180910390fd5b600060149054906101000a900460ff1615610a00576040517f08c379a00000000000000000000000000000000000000000000000000000000081526004016109f790611d4e565b60405180910390fd5b6001600060146101000a81548160ff02191690831515021790555082600560006101000a81548173ffffffffffffffffffffffffffffffffffffffff021916908373ffffffffffffffffffffffffffffffffffffffff1602179055506000601290506012821415610b3557610a788433856000611006565b600560009054906101000a900473ffffffffffffffffffffffffffffffffffffffff1673ffffffffffffffffffffffffffffffffffffffff1663a9059cbb33856040518363ffffffff1660e01b8152600401610ad5929190611d25565b602060405180830381600087803b158015610aef57600080fd5b505af1158015610b03573d6000803e3d6000fd5b505050506040513d601f19601f82011682018060405250810190610b279190611aa3565b610b3057600080fd5b610c5b565b610b728433610b6b610b50868661181a90919063ffffffff16565b600a610b5c9190611f7f565b876118f490919063ffffffff16565b6000611006565b600560009054906101000a900473ffffffffffffffffffffffffffffffffffffffff1673ffffffffffffffffffffffffffffffffffffffff1663a9059cbb33610be2610bc7868661181a90919063ffffffff16565b600a610bd39190611f7f565b8761190a90919063ffffffff16565b6040518363ffffffff1660e01b8152600401610bff929190611d25565b602060405180830381600087803b158015610c1957600080fd5b505af1158015610c2d573d6000803e3d6000fd5b505050506040513d601f19601f82011682018060405250810190610c519190611aa3565b610c5a57600080fd5b5b60008060146101000a81548160ff0219169083151502179055507ff341246adaac6f497bc2a656f546ab9e182111d630394f0c57c710a59a2cb567843385610ca388336116ff565b604051610cb39493929190611ce0565b60405180910390a150505050565b600160009054906101000a900473ffffffffffffffffffffffffffffffffffffffff1673ffffffffffffffffffffffffffffffffffffffff168373ffffffffffffffffffffffffffffffffffffffff161415610d1c57600080fd5b600460009054906101000a900473ffffffffffffffffffffffffffffffffffffffff1673ffffffffffffffffffffffffffffffffffffffff16631027b219846040518263ffffffff1660e01b8152600401610d779190611c8e565b60206040518083038186803b158015610d8f57600080fd5b505afa158015610da3573d6000803e3d6000fd5b505050506040513d601f19601f82011682018060405250810190610dc79190611aa3565b610e06576040517f08c379a0000000000000000000000000000000000000000000000000000000008152600401610dfd90611dce565b60405180910390fd5b82600560006101000a81548173ffffffffffffffffffffffffffffffffffffffff021916908373ffffffffffffffffffffffffffffffffffffffff160217905550600560009054906101000a900473ffffffffffffffffffffffffffffffffffffffff1673ffffffffffffffffffffffffffffffffffffffff166323b872dd3330856040518463ffffffff1660e01b8152600401610ea693929190611ca9565b602060405180830381600087803b158015610ec057600080fd5b505af1158015610ed4573d6000803e3d6000fd5b505050506040513d601f19601f82011682018060405250810190610ef89190611aa3565b610f37576040517f08c379a0000000000000000000000000000000000000000000000000000000008152600401610f2e90611e4e565b60405180910390fd5b6000601290506012821415610f5857610f538433856001611006565b610f96565b610f958433610f8e610f73868661181a90919063ffffffff16565b600a610f7f9190611f7f565b876118f490919063ffffffff16565b6001611006565b5b7fdcbc1c05240f31ff3ad067ef1ee35ce4997762752e3a095284754544f4c709d7843385610fc488336116ff565b604051610fd49493929190611ce0565b60405180910390a150505050565b7f000000000000000000000000000000000000000000000000000000000000000081565b3073ffffffffffffffffffffffffffffffffffffffff163373ffffffffffffffffffffffffffffffffffffffff16148061108d5750600460009054906101000a900473ffffffffffffffffffffffffffffffffffffffff1673ffffffffffffffffffffffffffffffffffffffff163373ffffffffffffffffffffffffffffffffffffffff16145b6110cc576040517f08c379a00000000000000000000000000000000000000000000000000000000081526004016110c390611e2e565b60405180910390fd5b80156111e65761116182600260008773ffffffffffffffffffffffffffffffffffffffff1673ffffffffffffffffffffffffffffffffffffffff16815260200190815260200160002060008673ffffffffffffffffffffffffffffffffffffffff1673ffffffffffffffffffffffffffffffffffffffff1681526020019081526020016000205461180490919063ffffffff16565b600260008673ffffffffffffffffffffffffffffffffffffffff1673ffffffffffffffffffffffffffffffffffffffff16815260200190815260200160002060008573ffffffffffffffffffffffffffffffffffffffff1673ffffffffffffffffffffffffffffffffffffffff168152602001908152602001600020819055506112fc565b806112fb5761127a82600260008773ffffffffffffffffffffffffffffffffffffffff1673ffffffffffffffffffffffffffffffffffffffff16815260200190815260200160002060008673ffffffffffffffffffffffffffffffffffffffff1673ffffffffffffffffffffffffffffffffffffffff1681526020019081526020016000205461181a90919063ffffffff16565b600260008673ffffffffffffffffffffffffffffffffffffffff1673ffffffffffffffffffffffffffffffffffffffff16815260200190815260200160002060008573ffffffffffffffffffffffffffffffffffffffff1673ffffffffffffffffffffffffffffffffffffffff168152602001908152602001600020819055505b5b50505050565b6002602052816000526040600020602052806000526040600020600091509150505481565b8061139161135733600160009054906101000a900473ffffffffffffffffffffffffffffffffffffffff1661071a565b611383600160009054906101000a900473ffffffffffffffffffffffffffffffffffffffff16336116ff565b61181a90919063ffffffff16565b10156113d2576040517f08c379a00000000000000000000000000000000000000000000000000000000081526004016113c990611dae565b60405180910390fd5b600060149054906101000a900460ff1615611422576040517f08c379a000000000000000000000000000000000000000000000000000000000815260040161141990611d4e565b60405180910390fd5b6001600060146101000a81548160ff02191690831515021790555061146c600160009054906101000a900473ffffffffffffffffffffffffffffffffffffffff1633836000611006565b60008060146101000a81548160ff02191690831515021790555060003373ffffffffffffffffffffffffffffffffffffffff16826040516114ac90611c79565b60006040518083038185875af1925050503d80600081146114e9576040519150601f19603f3d011682016040523d82523d6000602084013e6114ee565b606091505b5050905080611532576040517f08c379a000000000000000000000000000000000000000000000000000000000815260040161152990611d8e565b60405180910390fd5b7ff341246adaac6f497bc2a656f546ab9e182111d630394f0c57c710a59a2cb567600160009054906101000a900473ffffffffffffffffffffffffffffffffffffffff1633846115a4600160009054906101000a900473ffffffffffffffffffffffffffffffffffffffff16336116ff565b6040516115b49493929190611ce0565b60405180910390a15050565b6115c8611786565b600073ffffffffffffffffffffffffffffffffffffffff168173ffffffffffffffffffffffffffffffffffffffff161415611638576040517f08c379a000000000000000000000000000000000000000000000000000000000815260040161162f90611d6e565b60405180910390fd5b61164181611830565b50565b611673600160009054906101000a900473ffffffffffffffffffffffffffffffffffffffff1633346001611006565b7fdcbc1c05240f31ff3ad067ef1ee35ce4997762752e3a095284754544f4c709d7600160009054906101000a900473ffffffffffffffffffffffffffffffffffffffff1633346116e5600160009054906101000a900473ffffffffffffffffffffffffffffffffffffffff16336116ff565b6040516116f59493929190611ce0565b60405180910390a1565b6000600260008473ffffffffffffffffffffffffffffffffffffffff1673ffffffffffffffffffffffffffffffffffffffff16815260200190815260200160002060008373ffffffffffffffffffffffffffffffffffffffff1673ffffffffffffffffffffffffffffffffffffffff16815260200190815260200160002054905092915050565b61178e611920565b73ffffffffffffffffffffffffffffffffffffffff166117ac6107db565b73ffffffffffffffffffffffffffffffffffffffff1614611802576040517f08c379a00000000000000000000000000000000000000000000000000000000081526004016117f990611dee565b60405180910390fd5b565b600081836118129190611ea5565b905092915050565b6000818361182891906120f7565b905092915050565b60008060009054906101000a900473ffffffffffffffffffffffffffffffffffffffff169050816000806101000a81548173ffffffffffffffffffffffffffffffffffffffff021916908373ffffffffffffffffffffffffffffffffffffffff1602179055508173ffffffffffffffffffffffffffffffffffffffff168173ffffffffffffffffffffffffffffffffffffffff167f8be0079c531659141344cd1fd0a4f28419497f9722a3daafe3b4186f6b6457e060405160405180910390a35050565b60008183611902919061209d565b905092915050565b600081836119189190611efb565b905092915050565b600033905090565b600081359050611937816123a3565b92915050565b60008135905061194c816123ba565b92915050565b600081519050611961816123ba565b92915050565b600081359050611976816123d1565b92915050565b600060208284031215611992576119916121d1565b5b60006119a084828501611928565b91505092915050565b600080604083850312156119c0576119bf6121d1565b5b60006119ce85828601611928565b92505060206119df85828601611928565b9150509250929050565b60008060008060808587031215611a0357611a026121d1565b5b6000611a1187828801611928565b9450506020611a2287828801611928565b9350506040611a3387828801611967565b9250506060611a448782880161193d565b91505092959194509250565b600080600060608486031215611a6957611a686121d1565b5b6000611a7786828701611928565b9350506020611a8886828701611967565b9250506040611a9986828701611967565b9150509250925092565b600060208284031215611ab957611ab86121d1565b5b6000611ac784828501611952565b91505092915050565b600060208284031215611ae657611ae56121d1565b5b6000611af484828501611967565b91505092915050565b611b068161212b565b82525050565b6000611b19601883611e94565b9150611b24826121e3565b602082019050919050565b6000611b3c602683611e94565b9150611b478261220c565b604082019050919050565b6000611b5f601583611e94565b9150611b6a8261225b565b602082019050919050565b6000611b82602483611e94565b9150611b8d82612284565b604082019050919050565b6000611ba5601e83611e94565b9150611bb0826122d3565b602082019050919050565b6000611bc8602083611e94565b9150611bd3826122fc565b602082019050919050565b6000611beb601f83611e94565b9150611bf682612325565b602082019050919050565b6000611c0e601a83611e94565b9150611c198261234e565b602082019050919050565b6000611c31600083611e89565b9150611c3c82612377565b600082019050919050565b6000611c54600f83611e94565b9150611c5f8261237a565b602082019050919050565b611c7381612169565b82525050565b6000611c8482611c24565b9150819050919050565b6000602082019050611ca36000830184611afd565b92915050565b6000606082019050611cbe6000830186611afd565b611ccb6020830185611afd565b611cd86040830184611c6a565b949350505050565b6000608082019050611cf56000830187611afd565b611d026020830186611afd565b611d0f6040830185611c6a565b611d1c6060830184611c6a565b95945050505050565b6000604082019050611d3a6000830185611afd565b611d476020830184611c6a565b9392505050565b60006020820190508181036000830152611d6781611b0c565b9050919050565b60006020820190508181036000830152611d8781611b2f565b9050919050565b60006020820190508181036000830152611da781611b52565b9050919050565b60006020820190508181036000830152611dc781611b75565b9050919050565b60006020820190508181036000830152611de781611b98565b9050919050565b60006020820190508181036000830152611e0781611bbb565b9050919050565b60006020820190508181036000830152611e2781611bde565b9050919050565b60006020820190508181036000830152611e4781611c01565b9050919050565b60006020820190508181036000830152611e6781611c47565b9050919050565b6000602082019050611e836000830184611c6a565b92915050565b600081905092915050565b600082825260208201905092915050565b6000611eb082612169565b9150611ebb83612169565b9250827fffffffffffffffffffffffffffffffffffffffffffffffffffffffffffffffff03821115611ef057611eef612173565b5b828201905092915050565b6000611f0682612169565b9150611f1183612169565b925082611f2157611f206121a2565b5b828204905092915050565b6000808291508390505b6001851115611f7657808604811115611f5257611f51612173565b5b6001851615611f615780820291505b8081029050611f6f856121d6565b9450611f36565b94509492505050565b6000611f8a82612169565b9150611f9583612169565b9250611fc27fffffffffffffffffffffffffffffffffffffffffffffffffffffffffffffffff8484611fca565b905092915050565b600082611fda5760019050612096565b81611fe85760009050612096565b8160018114611ffe576002811461200857612037565b6001915050612096565b60ff84111561201a57612019612173565b5b8360020a91508482111561203157612030612173565b5b50612096565b5060208310610133831016604e8410600b841016171561206c5782820a90508381111561206757612066612173565b5b612096565b6120798484846001611f2c565b925090508184048111156120905761208f612173565b5b81810290505b9392505050565b60006120a882612169565b91506120b383612169565b9250817fffffffffffffffffffffffffffffffffffffffffffffffffffffffffffffffff04831182151516156120ec576120eb612173565b5b828202905092915050565b600061210282612169565b915061210d83612169565b9250828210156121205761211f612173565b5b828203905092915050565b600061213682612149565b9050919050565b60008115159050919050565b600073ffffffffffffffffffffffffffffffffffffffff82169050919050565b6000819050919050565b7f4e487b7100000000000000000000000000000000000000000000000000000000600052601160045260246000fd5b7f4e487b7100000000000000000000000000000000000000000000000000000000600052601260045260246000fd5b600080fd5b60008160011c9050919050565b7f5265656e7472616e742063616c6c206465746563746564210000000000000000600082015250565b7f4f776e61626c653a206e6577206f776e657220697320746865207a65726f206160008201527f6464726573730000000000000000000000000000000000000000000000000000602082015250565b7f6661696c656420746f2073656e6420616d6f756e740000000000000000000000600082015250565b7f496e73756666696369656e742062616c616e63652045544820746f207769746860008201527f6472617700000000000000000000000000000000000000000000000000000000602082015250565b7f546f6b656e206e6f74207665726966696564206f6e2045786368616e67650000600082015250565b7f4f776e61626c653a2063616c6c6572206973206e6f7420746865206f776e6572600082015250565b7f496e73756666696369656e7420546f6b656e7320746f20776974686472617700600082015250565b7f556e617574686f72697365642046756e6374696f6e2043616c6c000000000000600082015250565b50565b7f4e6f20417070726f76616c207965740000000000000000000000000000000000600082015250565b6123ac8161212b565b81146123b757600080fd5b50565b6123c38161213d565b81146123ce57600080fd5b50565b6123da81612169565b81146123e557600080fd5b5056fea2646970667358221220b83a26728c3933f1452b67bce05e41a305136821edfabe256228fcbc1226f96764736f6c63430008070033",
  "linkReferences": {},
  "deployedLinkReferences": {}
}