{
  "_format": "hh-sol-artifact-1",
  "contractName": "Wallet",
  "sourceName": "contracts/Wallet.sol",
  "abi": [
    {
      "inputs": [],
      "stateMutability": "nonpayable",
      "type": "constructor"
    },
    {
      "anonymous": false,
      "inputs": [
        {
          "indexed": false,
          "internalType": "address",
          "name": "token",
          "type": "address"
        },
        {
          "indexed": false,
          "internalType": "address",
          "name": "user",
          "type": "address"
        },
        {
          "indexed": false,
          "internalType": "uint256",
          "name": "amount",
          "type": "uint256"
        },
        {
          "indexed": false,
          "internalType": "uint256",
          "name": "balance",
          "type": "uint256"
        }
      ],
      "name": "Deposit",
      "type": "event"
    },
    {
      "anonymous": false,
      "inputs": [
        {
          "indexed": true,
          "internalType": "address",
          "name": "previousOwner",
          "type": "address"
        },
        {
          "indexed": true,
          "internalType": "address",
          "name": "newOwner",
          "type": "address"
        }
      ],
      "name": "OwnershipTransferred",
      "type": "event"
    },
    {
      "anonymous": false,
      "inputs": [
        {
          "indexed": false,
          "internalType": "address",
          "name": "token",
          "type": "address"
        },
        {
          "indexed": false,
          "internalType": "address",
          "name": "user",
          "type": "address"
        },
        {
          "indexed": false,
          "internalType": "uint256",
          "name": "amount",
          "type": "uint256"
        },
        {
          "indexed": false,
          "internalType": "uint256",
          "name": "balance",
          "type": "uint256"
        }
      ],
      "name": "Withdraw",
      "type": "event"
    },
    {
      "inputs": [],
      "name": "aDAI",
      "outputs": [
        {
          "internalType": "address",
          "name": "",
          "type": "address"
        }
      ],
      "stateMutability": "view",
      "type": "function"
    },
    {
      "inputs": [
        {
          "internalType": "address",
          "name": "_token",
          "type": "address"
        },
        {
          "internalType": "address",
          "name": "_user",
          "type": "address"
        }
      ],
      "name": "balanceOf",
      "outputs": [
        {
          "internalType": "uint256",
          "name": "",
          "type": "uint256"
        }
      ],
      "stateMutability": "view",
      "type": "function"
    },
    {
      "inputs": [],
      "name": "depositETH",
      "outputs": [],
      "stateMutability": "payable",
      "type": "function"
    },
    {
      "inputs": [
        {
          "internalType": "address",
          "name": "_token",
          "type": "address"
        },
        {
          "internalType": "uint256",
          "name": "_amount",
          "type": "uint256"
        },
        {
          "internalType": "uint256",
          "name": "_decimals",
          "type": "uint256"
        }
      ],
      "name": "depositToken",
      "outputs": [],
      "stateMutability": "nonpayable",
      "type": "function"
    },
    {
      "inputs": [],
      "name": "ethToken",
      "outputs": [
        {
          "internalType": "address",
          "name": "",
          "type": "address"
        }
      ],
      "stateMutability": "view",
      "type": "function"
    },
    {
      "inputs": [
        {
          "internalType": "address",
          "name": "_token",
          "type": "address"
        },
        {
          "internalType": "address",
          "name": "_user",
          "type": "address"
        },
        {
          "internalType": "uint256",
          "name": "_amount",
          "type": "uint256"
        },
        {
          "internalType": "bool",
          "name": "isAdd",
          "type": "bool"
        }
      ],
      "name": "exchangeUpdateBalance",
      "outputs": [],
      "stateMutability": "nonpayable",
      "type": "function"
    },
    {
      "inputs": [
        {
          "internalType": "address",
          "name": "_user",
          "type": "address"
        },
        {
          "internalType": "address",
          "name": "_token",
          "type": "address"
        },
        {
          "internalType": "uint256",
          "name": "_amount",
          "type": "uint256"
        },
        {
          "internalType": "bool",
          "name": "isAdd",
          "type": "bool"
        }
      ],
      "name": "exchangeUpdateLockedFunds",
      "outputs": [],
      "stateMutability": "nonpayable",
      "type": "function"
    },
    {
      "inputs": [],
      "name": "fundWallet",
      "outputs": [
        {
          "internalType": "address",
          "name": "",
          "type": "address"
        }
      ],
      "stateMutability": "view",
      "type": "function"
    },
    {
      "inputs": [
        {
          "internalType": "address",
          "name": "_user",
          "type": "address"
        },
        {
          "internalType": "address",
          "name": "_token",
          "type": "address"
        }
      ],
      "name": "getlockedFunds",
      "outputs": [
        {
          "internalType": "uint256",
          "name": "",
          "type": "uint256"
        }
      ],
      "stateMutability": "view",
      "type": "function"
    },
    {
      "inputs": [
        {
          "internalType": "address",
          "name": "",
          "type": "address"
        },
        {
          "internalType": "address",
          "name": "",
          "type": "address"
        }
      ],
      "name": "lockedFunds",
      "outputs": [
        {
          "internalType": "uint256",
          "name": "",
          "type": "uint256"
        }
      ],
      "stateMutability": "view",
      "type": "function"
    },
    {
      "inputs": [],
      "name": "owner",
      "outputs": [
        {
          "internalType": "address",
          "name": "",
          "type": "address"
        }
      ],
      "stateMutability": "view",
      "type": "function"
    },
    {
      "inputs": [],
      "name": "renounceOwnership",
      "outputs": [],
      "stateMutability": "nonpayable",
      "type": "function"
    },
    {
      "inputs": [
        {
          "internalType": "address",
          "name": "",
          "type": "address"
        },
        {
          "internalType": "address",
          "name": "",
          "type": "address"
        }
      ],
      "name": "s_tokens",
      "outputs": [
        {
          "internalType": "uint256",
          "name": "",
          "type": "uint256"
        }
      ],
      "stateMutability": "view",
      "type": "function"
    },
    {
      "inputs": [
        {
          "internalType": "address",
          "name": "newOwner",
          "type": "address"
        }
      ],
      "name": "transferOwnership",
      "outputs": [],
      "stateMutability": "nonpayable",
      "type": "function"
    },
    {
      "inputs": [
        {
          "internalType": "address",
          "name": "_exchangeAddress",
          "type": "address"
        }
      ],
      "name": "updateExchangeAddress",
      "outputs": [],
      "stateMutability": "nonpayable",
      "type": "function"
    },
    {
      "inputs": [
        {
          "internalType": "address",
          "name": "_fundwallet",
          "type": "address"
        }
      ],
      "name": "updateFundWallet",
      "outputs": [],
      "stateMutability": "nonpayable",
      "type": "function"
    },
    {
      "inputs": [
        {
          "internalType": "address",
          "name": "_address",
          "type": "address"
        }
      ],
      "name": "updateaDaiAddress",
      "outputs": [],
      "stateMutability": "nonpayable",
      "type": "function"
    },
    {
      "inputs": [
        {
          "internalType": "uint256",
          "name": "_amount",
          "type": "uint256"
        }
      ],
      "name": "withdrawETH",
      "outputs": [],
      "stateMutability": "nonpayable",
      "type": "function"
    },
    {
      "inputs": [
        {
          "internalType": "address",
          "name": "_token",
          "type": "address"
        },
        {
          "internalType": "uint256",
          "name": "_decimals",
          "type": "uint256"
        }
      ],
      "name": "withdrawToFundWallet",
      "outputs": [],
      "stateMutability": "nonpayable",
      "type": "function"
    },
    {
      "inputs": [
        {
          "internalType": "address",
          "name": "_token",
          "type": "address"
        },
        {
          "internalType": "uint256",
          "name": "_amount",
          "type": "uint256"
        },
        {
          "internalType": "uint256",
          "name": "_decimals",
          "type": "uint256"
        }
      ],
      "name": "withdrawToken",
      "outputs": [],
      "stateMutability": "nonpayable",
      "type": "function"
    }
  ],
  "bytecode": "0x608060405260126003556000600560006101000a81548173ffffffffffffffffffffffffffffffffffffffff021916908373ffffffffffffffffffffffffffffffffffffffff1602179055503480156200005857600080fd5b50620000796200006d620000c060201b60201c565b620000c860201b60201c565b33600160006101000a81548173ffffffffffffffffffffffffffffffffffffffff021916908373ffffffffffffffffffffffffffffffffffffffff1602179055506200018c565b600033905090565b60008060009054906101000a900473ffffffffffffffffffffffffffffffffffffffff169050816000806101000a81548173ffffffffffffffffffffffffffffffffffffffff021916908373ffffffffffffffffffffffffffffffffffffffff1602179055508173ffffffffffffffffffffffffffffffffffffffff168173ffffffffffffffffffffffffffffffffffffffff167f8be0079c531659141344cd1fd0a4f28419497f9722a3daafe3b4186f6b6457e060405160405180910390a35050565b61297e806200019c6000396000f3fe60806040526004361061011f5760003560e01c80637bf1a627116100a0578063f14210a611610064578063f14210a6146103bd578063f2fde38b146103e6578063f6326fb31461040f578063f7888aec14610419578063fc11a3d6146104565761011f565b80637bf1a627146102d85780638da5cb5b1461030357806396c0ec551461032e57806399c6d2de14610357578063cd5d767c146103805761011f565b8063545e0157116100e7578063545e01571461021b5780635dfbfffd146102445780635ec38bec1461026d578063664a1ad614610296578063715018a6146102c15761011f565b8063126b9c5d146101245780631a38a4fb1461014d57806331415a65146101785780634bdde1cf146101a15780634fc121db146101de575b600080fd5b34801561013057600080fd5b5061014b60048036038101906101469190611e0b565b61047f565b005b34801561015957600080fd5b50610162610521565b60405161016f9190612136565b60405180910390f35b34801561018457600080fd5b5061019f600480360381019061019a9190611d9e565b610547565b005b3480156101ad57600080fd5b506101c860048036038101906101c39190611dcb565b610593565b6040516101d59190612356565b60405180910390f35b3480156101ea57600080fd5b5061020560048036038101906102009190611dcb565b6105b8565b6040516102129190612356565b60405180910390f35b34801561022757600080fd5b50610242600480360381019061023d9190611d9e565b61063f565b005b34801561025057600080fd5b5061026b60048036038101906102669190611e72565b61068b565b005b34801561027957600080fd5b50610294600480360381019061028f9190611d9e565b6109cb565b005b3480156102a257600080fd5b506102ab610a17565b6040516102b89190612136565b60405180910390f35b3480156102cd57600080fd5b506102d6610a3d565b005b3480156102e457600080fd5b506102ed610a51565b6040516102fa9190612136565b60405180910390f35b34801561030f57600080fd5b50610318610a77565b6040516103259190612136565b60405180910390f35b34801561033a57600080fd5b5061035560048036038101906103509190611eb2565b610aa0565b005b34801561036357600080fd5b5061037e60048036038101906103799190611eb2565b610e87565b005b34801561038c57600080fd5b506103a760048036038101906103a29190611dcb565b611215565b6040516103b49190612356565b60405180910390f35b3480156103c957600080fd5b506103e460048036038101906103df9190611f32565b61123a565b005b3480156103f257600080fd5b5061040d60048036038101906104089190611d9e565b6114d4565b005b610417611558565b005b34801561042557600080fd5b50610440600480360381019061043b9190611dcb565b611613565b60405161044d9190612356565b60405180910390f35b34801561046257600080fd5b5061047d60048036038101906104789190611e0b565b61169a565b005b600860009054906101000a900473ffffffffffffffffffffffffffffffffffffffff1673ffffffffffffffffffffffffffffffffffffffff163373ffffffffffffffffffffffffffffffffffffffff161461050f576040517f08c379a0000000000000000000000000000000000000000000000000000000008152600401610506906122b6565b60405180910390fd5b61051b8484848461173c565b50505050565b600460009054906101000a900473ffffffffffffffffffffffffffffffffffffffff1681565b61054f611972565b80600860006101000a81548173ffffffffffffffffffffffffffffffffffffffff021916908373ffffffffffffffffffffffffffffffffffffffff16021790555050565b6007602052816000526040600020602052806000526040600020600091509150505481565b6000600760008473ffffffffffffffffffffffffffffffffffffffff1673ffffffffffffffffffffffffffffffffffffffff16815260200190815260200160002060008373ffffffffffffffffffffffffffffffffffffffff1673ffffffffffffffffffffffffffffffffffffffff16815260200190815260200160002054905092915050565b610647611972565b80600460006101000a81548173ffffffffffffffffffffffffffffffffffffffff021916908373ffffffffffffffffffffffffffffffffffffffff16021790555050565b600260009054906101000a900473ffffffffffffffffffffffffffffffffffffffff1673ffffffffffffffffffffffffffffffffffffffff163373ffffffffffffffffffffffffffffffffffffffff161461071b576040517f08c379a0000000000000000000000000000000000000000000000000000000008152600401610712906122d6565b60405180910390fd5b6000600660008473ffffffffffffffffffffffffffffffffffffffff1673ffffffffffffffffffffffffffffffffffffffff1681526020019081526020016000206000600260009054906101000a900473ffffffffffffffffffffffffffffffffffffffff1673ffffffffffffffffffffffffffffffffffffffff1673ffffffffffffffffffffffffffffffffffffffff16815260200190815260200160002054905060006107f36107d8846003546119f090919063ffffffff16565b600a6107e49190612467565b83611a0690919063ffffffff16565b905083600960006101000a81548173ffffffffffffffffffffffffffffffffffffffff021916908373ffffffffffffffffffffffffffffffffffffffff160217905550600460149054906101000a900460ff1615610886576040517f08c379a000000000000000000000000000000000000000000000000000000000815260040161087d906121f6565b60405180910390fd5b6001600460146101000a81548160ff0219169083151502179055506108d084600260009054906101000a900473ffffffffffffffffffffffffffffffffffffffff1684600061173c565b600960009054906101000a900473ffffffffffffffffffffffffffffffffffffffff1673ffffffffffffffffffffffffffffffffffffffff1663a9059cbb600260009054906101000a900473ffffffffffffffffffffffffffffffffffffffff16836040518363ffffffff1660e01b815260040161094f9291906121cd565b602060405180830381600087803b15801561096957600080fd5b505af115801561097d573d6000803e3d6000fd5b505050506040513d601f19601f820116820180604052508101906109a19190611f05565b6109aa57600080fd5b6000600460146101000a81548160ff02191690831515021790555050505050565b6109d3611972565b80600260006101000a81548173ffffffffffffffffffffffffffffffffffffffff021916908373ffffffffffffffffffffffffffffffffffffffff16021790555050565b600260009054906101000a900473ffffffffffffffffffffffffffffffffffffffff1681565b610a45611972565b610a4f6000611a1c565b565b600560009054906101000a900473ffffffffffffffffffffffffffffffffffffffff1681565b60008060009054906101000a900473ffffffffffffffffffffffffffffffffffffffff16905090565b600560009054906101000a900473ffffffffffffffffffffffffffffffffffffffff1673ffffffffffffffffffffffffffffffffffffffff168373ffffffffffffffffffffffffffffffffffffffff161415610afb57600080fd5b600860009054906101000a900473ffffffffffffffffffffffffffffffffffffffff1673ffffffffffffffffffffffffffffffffffffffff16631027b219846040518263ffffffff1660e01b8152600401610b569190612136565b60206040518083038186803b158015610b6e57600080fd5b505afa158015610b82573d6000803e3d6000fd5b505050506040513d601f19601f82011682018060405250810190610ba69190611f05565b610be5576040517f08c379a0000000000000000000000000000000000000000000000000000000008152600401610bdc90612296565b60405180910390fd5b81610c0b610bf333866105b8565b610bfd8633611613565b6119f090919063ffffffff16565b1015610c4c576040517f08c379a0000000000000000000000000000000000000000000000000000000008152600401610c4390612316565b60405180910390fd5b600460149054906101000a900460ff1615610c9c576040517f08c379a0000000000000000000000000000000000000000000000000000000008152600401610c93906121f6565b60405180910390fd5b6001600460146101000a81548160ff02191690831515021790555082600960006101000a81548173ffffffffffffffffffffffffffffffffffffffff021916908373ffffffffffffffffffffffffffffffffffffffff160217905550610d378333610d30610d15856003546119f090919063ffffffff16565b600a610d219190612467565b86611ae090919063ffffffff16565b600061173c565b600960009054906101000a900473ffffffffffffffffffffffffffffffffffffffff1673ffffffffffffffffffffffffffffffffffffffff1663a9059cbb33610da9610d8e856003546119f090919063ffffffff16565b600a610d9a9190612467565b86611a0690919063ffffffff16565b6040518363ffffffff1660e01b8152600401610dc69291906121cd565b602060405180830381600087803b158015610de057600080fd5b505af1158015610df4573d6000803e3d6000fd5b505050506040513d601f19601f82011682018060405250810190610e189190611f05565b610e2157600080fd5b6000600460146101000a81548160ff0219169083151502179055507ff341246adaac6f497bc2a656f546ab9e182111d630394f0c57c710a59a2cb567833384610e6a8733611613565b604051610e7a9493929190612188565b60405180910390a1505050565b600560009054906101000a900473ffffffffffffffffffffffffffffffffffffffff1673ffffffffffffffffffffffffffffffffffffffff168373ffffffffffffffffffffffffffffffffffffffff161415610f18576040517f08c379a0000000000000000000000000000000000000000000000000000000008152600401610f0f90612236565b60405180910390fd5b600860009054906101000a900473ffffffffffffffffffffffffffffffffffffffff1673ffffffffffffffffffffffffffffffffffffffff16631027b219846040518263ffffffff1660e01b8152600401610f739190612136565b60206040518083038186803b158015610f8b57600080fd5b505afa158015610f9f573d6000803e3d6000fd5b505050506040513d601f19601f82011682018060405250810190610fc39190611f05565b8061101b5750600460009054906101000a900473ffffffffffffffffffffffffffffffffffffffff1673ffffffffffffffffffffffffffffffffffffffff168373ffffffffffffffffffffffffffffffffffffffff16145b61105a576040517f08c379a000000000000000000000000000000000000000000000000000000000815260040161105190612296565b60405180910390fd5b82600960006101000a81548173ffffffffffffffffffffffffffffffffffffffff021916908373ffffffffffffffffffffffffffffffffffffffff160217905550600960009054906101000a900473ffffffffffffffffffffffffffffffffffffffff1673ffffffffffffffffffffffffffffffffffffffff166323b872dd3330856040518463ffffffff1660e01b81526004016110fa93929190612151565b602060405180830381600087803b15801561111457600080fd5b505af1158015611128573d6000803e3d6000fd5b505050506040513d601f19601f8201168201806040525081019061114c9190611f05565b61118b576040517f08c379a000000000000000000000000000000000000000000000000000000000815260040161118290612336565b60405180910390fd5b6111ca83336111c36111a8856003546119f090919063ffffffff16565b600a6111b49190612467565b86611ae090919063ffffffff16565b600161173c565b7fdcbc1c05240f31ff3ad067ef1ee35ce4997762752e3a095284754544f4c709d78333846111f88733611613565b6040516112089493929190612188565b60405180910390a1505050565b6006602052816000526040600020602052806000526040600020600091509150505481565b806112a461126a33600560009054906101000a900473ffffffffffffffffffffffffffffffffffffffff166105b8565b611296600560009054906101000a900473ffffffffffffffffffffffffffffffffffffffff1633611613565b6119f090919063ffffffff16565b10156112e5576040517f08c379a00000000000000000000000000000000000000000000000000000000081526004016112dc90612276565b60405180910390fd5b600460149054906101000a900460ff1615611335576040517f08c379a000000000000000000000000000000000000000000000000000000000815260040161132c906121f6565b60405180910390fd5b6001600460146101000a81548160ff02191690831515021790555061137f600560009054906101000a900473ffffffffffffffffffffffffffffffffffffffff163383600061173c565b60003373ffffffffffffffffffffffffffffffffffffffff16826040516113a590612121565b60006040518083038185875af1925050503d80600081146113e2576040519150601f19603f3d011682016040523d82523d6000602084013e6113e7565b606091505b505090508061142b576040517f08c379a000000000000000000000000000000000000000000000000000000000815260040161142290612256565b60405180910390fd5b6000600460146101000a81548160ff0219169083151502179055507ff341246adaac6f497bc2a656f546ab9e182111d630394f0c57c710a59a2cb567600560009054906101000a900473ffffffffffffffffffffffffffffffffffffffff1633846114b8600560009054906101000a900473ffffffffffffffffffffffffffffffffffffffff1633611613565b6040516114c89493929190612188565b60405180910390a15050565b6114dc611972565b600073ffffffffffffffffffffffffffffffffffffffff168173ffffffffffffffffffffffffffffffffffffffff16141561154c576040517f08c379a000000000000000000000000000000000000000000000000000000000815260040161154390612216565b60405180910390fd5b61155581611a1c565b50565b611587600560009054906101000a900473ffffffffffffffffffffffffffffffffffffffff163334600161173c565b7fdcbc1c05240f31ff3ad067ef1ee35ce4997762752e3a095284754544f4c709d7600560009054906101000a900473ffffffffffffffffffffffffffffffffffffffff1633346115f9600560009054906101000a900473ffffffffffffffffffffffffffffffffffffffff1633611613565b6040516116099493929190612188565b60405180910390a1565b6000600660008473ffffffffffffffffffffffffffffffffffffffff1673ffffffffffffffffffffffffffffffffffffffff16815260200190815260200160002060008373ffffffffffffffffffffffffffffffffffffffff1673ffffffffffffffffffffffffffffffffffffffff16815260200190815260200160002054905092915050565b600860009054906101000a900473ffffffffffffffffffffffffffffffffffffffff1673ffffffffffffffffffffffffffffffffffffffff163373ffffffffffffffffffffffffffffffffffffffff161461172a576040517f08c379a0000000000000000000000000000000000000000000000000000000008152600401611721906122b6565b60405180910390fd5b61173684848484611af6565b50505050565b8015611856576117d182600660008773ffffffffffffffffffffffffffffffffffffffff1673ffffffffffffffffffffffffffffffffffffffff16815260200190815260200160002060008673ffffffffffffffffffffffffffffffffffffffff1673ffffffffffffffffffffffffffffffffffffffff16815260200190815260200160002054611d2c90919063ffffffff16565b600660008673ffffffffffffffffffffffffffffffffffffffff1673ffffffffffffffffffffffffffffffffffffffff16815260200190815260200160002060008573ffffffffffffffffffffffffffffffffffffffff1673ffffffffffffffffffffffffffffffffffffffff1681526020019081526020016000208190555061196c565b8061196b576118ea82600660008773ffffffffffffffffffffffffffffffffffffffff1673ffffffffffffffffffffffffffffffffffffffff16815260200190815260200160002060008673ffffffffffffffffffffffffffffffffffffffff1673ffffffffffffffffffffffffffffffffffffffff168152602001908152602001600020546119f090919063ffffffff16565b600660008673ffffffffffffffffffffffffffffffffffffffff1673ffffffffffffffffffffffffffffffffffffffff16815260200190815260200160002060008573ffffffffffffffffffffffffffffffffffffffff1673ffffffffffffffffffffffffffffffffffffffff168152602001908152602001600020819055505b5b50505050565b61197a611d42565b73ffffffffffffffffffffffffffffffffffffffff16611998610a77565b73ffffffffffffffffffffffffffffffffffffffff16146119ee576040517f08c379a00000000000000000000000000000000000000000000000000000000081526004016119e5906122f6565b60405180910390fd5b565b600081836119fe91906125df565b905092915050565b60008183611a1491906123e3565b905092915050565b60008060009054906101000a900473ffffffffffffffffffffffffffffffffffffffff169050816000806101000a81548173ffffffffffffffffffffffffffffffffffffffff021916908373ffffffffffffffffffffffffffffffffffffffff1602179055508173ffffffffffffffffffffffffffffffffffffffff168173ffffffffffffffffffffffffffffffffffffffff167f8be0079c531659141344cd1fd0a4f28419497f9722a3daafe3b4186f6b6457e060405160405180910390a35050565b60008183611aee9190612585565b905092915050565b8015611c1057611b8b82600760008773ffffffffffffffffffffffffffffffffffffffff1673ffffffffffffffffffffffffffffffffffffffff16815260200190815260200160002060008673ffffffffffffffffffffffffffffffffffffffff1673ffffffffffffffffffffffffffffffffffffffff16815260200190815260200160002054611d2c90919063ffffffff16565b600760008673ffffffffffffffffffffffffffffffffffffffff1673ffffffffffffffffffffffffffffffffffffffff16815260200190815260200160002060008573ffffffffffffffffffffffffffffffffffffffff1673ffffffffffffffffffffffffffffffffffffffff16815260200190815260200160002081905550611d26565b80611d2557611ca482600760008773ffffffffffffffffffffffffffffffffffffffff1673ffffffffffffffffffffffffffffffffffffffff16815260200190815260200160002060008673ffffffffffffffffffffffffffffffffffffffff1673ffffffffffffffffffffffffffffffffffffffff168152602001908152602001600020546119f090919063ffffffff16565b600760008673ffffffffffffffffffffffffffffffffffffffff1673ffffffffffffffffffffffffffffffffffffffff16815260200190815260200160002060008573ffffffffffffffffffffffffffffffffffffffff1673ffffffffffffffffffffffffffffffffffffffff168152602001908152602001600020819055505b5b50505050565b60008183611d3a919061238d565b905092915050565b600033905090565b600081359050611d5981612903565b92915050565b600081359050611d6e8161291a565b92915050565b600081519050611d838161291a565b92915050565b600081359050611d9881612931565b92915050565b600060208284031215611db457611db36126b9565b5b6000611dc284828501611d4a565b91505092915050565b60008060408385031215611de257611de16126b9565b5b6000611df085828601611d4a565b9250506020611e0185828601611d4a565b9150509250929050565b60008060008060808587031215611e2557611e246126b9565b5b6000611e3387828801611d4a565b9450506020611e4487828801611d4a565b9350506040611e5587828801611d89565b9250506060611e6687828801611d5f565b91505092959194509250565b60008060408385031215611e8957611e886126b9565b5b6000611e9785828601611d4a565b9250506020611ea885828601611d89565b9150509250929050565b600080600060608486031215611ecb57611eca6126b9565b5b6000611ed986828701611d4a565b9350506020611eea86828701611d89565b9250506040611efb86828701611d89565b9150509250925092565b600060208284031215611f1b57611f1a6126b9565b5b6000611f2984828501611d74565b91505092915050565b600060208284031215611f4857611f476126b9565b5b6000611f5684828501611d89565b91505092915050565b611f6881612613565b82525050565b6000611f7b60188361237c565b9150611f86826126cb565b602082019050919050565b6000611f9e60268361237c565b9150611fa9826126f4565b604082019050919050565b6000611fc160128361237c565b9150611fcc82612743565b602082019050919050565b6000611fe460158361237c565b9150611fef8261276c565b602082019050919050565b600061200760248361237c565b915061201282612795565b604082019050919050565b600061202a601e8361237c565b9150612035826127e4565b602082019050919050565b600061204d60158361237c565b91506120588261280d565b602082019050919050565b600061207060268361237c565b915061207b82612836565b604082019050919050565b600061209360208361237c565b915061209e82612885565b602082019050919050565b60006120b6601f8361237c565b91506120c1826128ae565b602082019050919050565b60006120d9600083612371565b91506120e4826128d7565b600082019050919050565b60006120fc600f8361237c565b9150612107826128da565b602082019050919050565b61211b81612651565b82525050565b600061212c826120cc565b9150819050919050565b600060208201905061214b6000830184611f5f565b92915050565b60006060820190506121666000830186611f5f565b6121736020830185611f5f565b6121806040830184612112565b949350505050565b600060808201905061219d6000830187611f5f565b6121aa6020830186611f5f565b6121b76040830185612112565b6121c46060830184612112565b95945050505050565b60006040820190506121e26000830185611f5f565b6121ef6020830184612112565b9392505050565b6000602082019050818103600083015261220f81611f6e565b9050919050565b6000602082019050818103600083015261222f81611f91565b9050919050565b6000602082019050818103600083015261224f81611fb4565b9050919050565b6000602082019050818103600083015261226f81611fd7565b9050919050565b6000602082019050818103600083015261228f81611ffa565b9050919050565b600060208201905081810360008301526122af8161201d565b9050919050565b600060208201905081810360008301526122cf81612040565b9050919050565b600060208201905081810360008301526122ef81612063565b9050919050565b6000602082019050818103600083015261230f81612086565b9050919050565b6000602082019050818103600083015261232f816120a9565b9050919050565b6000602082019050818103600083015261234f816120ef565b9050919050565b600060208201905061236b6000830184612112565b92915050565b600081905092915050565b600082825260208201905092915050565b600061239882612651565b91506123a383612651565b9250827fffffffffffffffffffffffffffffffffffffffffffffffffffffffffffffffff038211156123d8576123d761265b565b5b828201905092915050565b60006123ee82612651565b91506123f983612651565b9250826124095761240861268a565b5b828204905092915050565b6000808291508390505b600185111561245e5780860481111561243a5761243961265b565b5b60018516156124495780820291505b8081029050612457856126be565b945061241e565b94509492505050565b600061247282612651565b915061247d83612651565b92506124aa7fffffffffffffffffffffffffffffffffffffffffffffffffffffffffffffffff84846124b2565b905092915050565b6000826124c2576001905061257e565b816124d0576000905061257e565b81600181146124e657600281146124f05761251f565b600191505061257e565b60ff8411156125025761250161265b565b5b8360020a9150848211156125195761251861265b565b5b5061257e565b5060208310610133831016604e8410600b84101617156125545782820a90508381111561254f5761254e61265b565b5b61257e565b6125618484846001612414565b925090508184048111156125785761257761265b565b5b81810290505b9392505050565b600061259082612651565b915061259b83612651565b9250817fffffffffffffffffffffffffffffffffffffffffffffffffffffffffffffffff04831182151516156125d4576125d361265b565b5b828202905092915050565b60006125ea82612651565b91506125f583612651565b9250828210156126085761260761265b565b5b828203905092915050565b600061261e82612631565b9050919050565b60008115159050919050565b600073ffffffffffffffffffffffffffffffffffffffff82169050919050565b6000819050919050565b7f4e487b7100000000000000000000000000000000000000000000000000000000600052601160045260246000fd5b7f4e487b7100000000000000000000000000000000000000000000000000000000600052601260045260246000fd5b600080fd5b60008160011c9050919050565b7f5265656e7472616e742063616c6c206465746563746564210000000000000000600082015250565b7f4f776e61626c653a206e6577206f776e657220697320746865207a65726f206160008201527f6464726573730000000000000000000000000000000000000000000000000000602082015250565b7f496e76616c696420546f6b656e20547970650000000000000000000000000000600082015250565b7f6661696c656420746f2073656e6420616d6f756e740000000000000000000000600082015250565b7f496e73756666696369656e742062616c616e63652045544820746f207769746860008201527f6472617700000000000000000000000000000000000000000000000000000000602082015250565b7f546f6b656e206e6f74207665726966696564206f6e2045786368616e67650000600082015250565b7f4e6f742045786368616e676520636f6e74726163740000000000000000000000600082015250565b7f496e76616c69642046756e6457616c6c6574206164647265737320746f20776960008201527f7468647261770000000000000000000000000000000000000000000000000000602082015250565b7f4f776e61626c653a2063616c6c6572206973206e6f7420746865206f776e6572600082015250565b7f496e73756666696369656e7420546f6b656e7320746f20776974686472617700600082015250565b50565b7f4e6f20417070726f76616c207965740000000000000000000000000000000000600082015250565b61290c81612613565b811461291757600080fd5b50565b61292381612625565b811461292e57600080fd5b50565b61293a81612651565b811461294557600080fd5b5056fea26469706673582212204a9427714fafe153fedb3574f4588e5c1c4f631a2aef97c4ab6b018f6c15db4d64736f6c63430008070033",
  "linkReferences": {},
  "deployedLinkReferences": {}
}