{
  "_format": "hh-sol-artifact-1",
  "contractName": "TradingFees",
  "sourceName": "contracts/TradingFees.sol",
  "abi": [
    {
      "inputs": [
        {
          "internalType": "address",
          "name": "_priceCheckerAddress",
          "type": "address"
        }
      ],
      "stateMutability": "nonpayable",
      "type": "constructor"
    },
    {
      "anonymous": false,
      "inputs": [
        {
          "indexed": true,
          "internalType": "address",
          "name": "previousOwner",
          "type": "address"
        },
        {
          "indexed": true,
          "internalType": "address",
          "name": "newOwner",
          "type": "address"
        }
      ],
      "name": "OwnershipTransferred",
      "type": "event"
    },
    {
      "inputs": [],
      "name": "aDAI",
      "outputs": [
        {
          "internalType": "address",
          "name": "",
          "type": "address"
        }
      ],
      "stateMutability": "view",
      "type": "function"
    },
    {
      "inputs": [
        {
          "internalType": "address",
          "name": "_refToken",
          "type": "address"
        },
        {
          "internalType": "uint256",
          "name": "_fees",
          "type": "uint256"
        }
      ],
      "name": "amountTokensToDeduct",
      "outputs": [
        {
          "internalType": "uint256",
          "name": "",
          "type": "uint256"
        }
      ],
      "stateMutability": "view",
      "type": "function"
    },
    {
      "inputs": [
        {
          "internalType": "uint256",
          "name": "_fees",
          "type": "uint256"
        }
      ],
      "name": "amountaDAIToDeduct",
      "outputs": [
        {
          "internalType": "uint256",
          "name": "",
          "type": "uint256"
        }
      ],
      "stateMutability": "view",
      "type": "function"
    },
    {
      "inputs": [
        {
          "internalType": "uint256",
          "name": "_amount",
          "type": "uint256"
        },
        {
          "internalType": "uint256",
          "name": "_rate",
          "type": "uint256"
        },
        {
          "internalType": "address",
          "name": "_refToken",
          "type": "address"
        }
      ],
      "name": "calculateFees",
      "outputs": [
        {
          "internalType": "uint256",
          "name": "",
          "type": "uint256"
        }
      ],
      "stateMutability": "view",
      "type": "function"
    },
    {
      "inputs": [
        {
          "internalType": "uint256",
          "name": "_fees",
          "type": "uint256"
        },
        {
          "internalType": "address",
          "name": "_user",
          "type": "address"
        }
      ],
      "name": "checkSufficientaDAI",
      "outputs": [
        {
          "internalType": "bool",
          "name": "",
          "type": "bool"
        }
      ],
      "stateMutability": "view",
      "type": "function"
    },
    {
      "inputs": [],
      "name": "daiToken",
      "outputs": [
        {
          "internalType": "address",
          "name": "",
          "type": "address"
        }
      ],
      "stateMutability": "view",
      "type": "function"
    },
    {
      "inputs": [],
      "name": "owner",
      "outputs": [
        {
          "internalType": "address",
          "name": "",
          "type": "address"
        }
      ],
      "stateMutability": "view",
      "type": "function"
    },
    {
      "inputs": [],
      "name": "renounceOwnership",
      "outputs": [],
      "stateMutability": "nonpayable",
      "type": "function"
    },
    {
      "inputs": [
        {
          "internalType": "address",
          "name": "_PriceCheckeraddress",
          "type": "address"
        }
      ],
      "name": "setPriceCheckerAddress",
      "outputs": [],
      "stateMutability": "nonpayable",
      "type": "function"
    },
    {
      "inputs": [
        {
          "internalType": "address",
          "name": "_Walletaddress",
          "type": "address"
        }
      ],
      "name": "setWalletAddress",
      "outputs": [],
      "stateMutability": "nonpayable",
      "type": "function"
    },
    {
      "inputs": [
        {
          "internalType": "address",
          "name": "newOwner",
          "type": "address"
        }
      ],
      "name": "transferOwnership",
      "outputs": [],
      "stateMutability": "nonpayable",
      "type": "function"
    }
  ],
  "bytecode": "0x6080604052670de0b6b3a764000060015573ba8dced3512925e52fe67b1b5329187589072a55600260006101000a81548173ffffffffffffffffffffffffffffffffffffffff021916908373ffffffffffffffffffffffffffffffffffffffff16021790555073add98b0342e4094ec32f3b67ccfd3242c876ff7a600360006101000a81548173ffffffffffffffffffffffffffffffffffffffff021916908373ffffffffffffffffffffffffffffffffffffffff160217905550348015620000c757600080fd5b506040516200113f3803806200113f8339818101604052810190620000ed919062000238565b6200010d620001016200015560201b60201c565b6200015d60201b60201c565b80600460006101000a81548173ffffffffffffffffffffffffffffffffffffffff021916908373ffffffffffffffffffffffffffffffffffffffff16021790555050620002bd565b600033905090565b60008060009054906101000a900473ffffffffffffffffffffffffffffffffffffffff169050816000806101000a81548173ffffffffffffffffffffffffffffffffffffffff021916908373ffffffffffffffffffffffffffffffffffffffff1602179055508173ffffffffffffffffffffffffffffffffffffffff168173ffffffffffffffffffffffffffffffffffffffff167f8be0079c531659141344cd1fd0a4f28419497f9722a3daafe3b4186f6b6457e060405160405180910390a35050565b6000815190506200023281620002a3565b92915050565b6000602082840312156200025157620002506200029e565b5b6000620002618482850162000221565b91505092915050565b600062000277826200027e565b9050919050565b600073ffffffffffffffffffffffffffffffffffffffff82169050919050565b600080fd5b620002ae816200026a565b8114620002ba57600080fd5b50565b610e7280620002cd6000396000f3fe608060405234801561001057600080fd5b50600436106100a95760003560e01c8063ac1a386a11610071578063ac1a386a14610154578063b136e39a14610170578063b98ee4191461018c578063be22f546146101bc578063ca8963f1146101da578063f2fde38b1461020a576100a9565b80631a38a4fb146100ae578063513ffedd146100cc578063715018a6146100fc5780638da5cb5b14610106578063a42963e914610124575b600080fd5b6100b6610226565b6040516100c39190610b95565b60405180910390f35b6100e660048036038101906100e19190610acf565b61024c565b6040516100f39190610c34565b60405180910390f35b61010461038a565b005b61010e61039e565b60405161011b9190610b95565b60405180910390f35b61013e60048036038101906101399190610a35565b6103c7565b60405161014b9190610c34565b60405180910390f35b61016e600480360381019061016991906109c8565b6104e5565b005b61018a600480360381019061018591906109c8565b610531565b005b6101a660048036038101906101a191906109f5565b61057d565b6040516101b39190610c34565b60405180910390f35b6101c461067a565b6040516101d19190610b95565b60405180910390f35b6101f460048036038101906101ef9190610a8f565b6106a0565b6040516102019190610bd9565b60405180910390f35b610224600480360381019061021f91906109c8565b61078f565b005b600360009054906101000a900473ffffffffffffffffffffffffffffffffffffffff1681565b600080600460009054906101000a900473ffffffffffffffffffffffffffffffffffffffff1673ffffffffffffffffffffffffffffffffffffffff166341976e09846040518263ffffffff1660e01b81526004016102aa9190610b95565b60206040518083038186803b1580156102c257600080fd5b505afa1580156102d6573d6000803e3d6000fd5b505050506040513d601f19601f820116820180604052508101906102fa9190610a62565b9050600061036260015461035461031f6402540be4008661081390919063ffffffff16565b6103466001546103388b8d61081390919063ffffffff16565b61082990919063ffffffff16565b61081390919063ffffffff16565b61082990919063ffffffff16565b9050600061037b6127108361082990919063ffffffff16565b90508093505050509392505050565b61039261083f565b61039c60006108bd565b565b60008060009054906101000a900473ffffffffffffffffffffffffffffffffffffffff16905090565b600080600460009054906101000a900473ffffffffffffffffffffffffffffffffffffffff1673ffffffffffffffffffffffffffffffffffffffff166341976e09600260009054906101000a900473ffffffffffffffffffffffffffffffffffffffff166040518263ffffffff1660e01b81526004016104479190610b95565b60206040518083038186803b15801561045f57600080fd5b505afa158015610473573d6000803e3d6000fd5b505050506040513d601f19601f820116820180604052508101906104979190610a62565b905060006104d96104b66402540be4008461081390919063ffffffff16565b6104cb6001548761081390919063ffffffff16565b61082990919063ffffffff16565b90508092505050919050565b6104ed61083f565b80600560006101000a81548173ffffffffffffffffffffffffffffffffffffffff021916908373ffffffffffffffffffffffffffffffffffffffff16021790555050565b61053961083f565b80600460006101000a81548173ffffffffffffffffffffffffffffffffffffffff021916908373ffffffffffffffffffffffffffffffffffffffff16021790555050565b600080600460009054906101000a900473ffffffffffffffffffffffffffffffffffffffff1673ffffffffffffffffffffffffffffffffffffffff166341976e09856040518263ffffffff1660e01b81526004016105db9190610b95565b60206040518083038186803b1580156105f357600080fd5b505afa158015610607573d6000803e3d6000fd5b505050506040513d601f19601f8201168201806040525081019061062b9190610a62565b9050600061066d61064a6402540be4008461081390919063ffffffff16565b61065f6001548761081390919063ffffffff16565b61082990919063ffffffff16565b9050809250505092915050565b600260009054906101000a900473ffffffffffffffffffffffffffffffffffffffff1681565b6000806106ac846103c7565b90506000600560009054906101000a900473ffffffffffffffffffffffffffffffffffffffff1673ffffffffffffffffffffffffffffffffffffffff1663cd5d767c600360009054906101000a900473ffffffffffffffffffffffffffffffffffffffff16866040518363ffffffff1660e01b815260040161072f929190610bb0565b60206040518083038186803b15801561074757600080fd5b505afa15801561075b573d6000803e3d6000fd5b505050506040513d601f19601f8201168201806040525081019061077f9190610a62565b9050818110159250505092915050565b61079761083f565b600073ffffffffffffffffffffffffffffffffffffffff168173ffffffffffffffffffffffffffffffffffffffff161415610807576040517f08c379a00000000000000000000000000000000000000000000000000000000081526004016107fe90610bf4565b60405180910390fd5b610810816108bd565b50565b600081836108219190610c91565b905092915050565b600081836108379190610c60565b905092915050565b610847610981565b73ffffffffffffffffffffffffffffffffffffffff1661086561039e565b73ffffffffffffffffffffffffffffffffffffffff16146108bb576040517f08c379a00000000000000000000000000000000000000000000000000000000081526004016108b290610c14565b60405180910390fd5b565b60008060009054906101000a900473ffffffffffffffffffffffffffffffffffffffff169050816000806101000a81548173ffffffffffffffffffffffffffffffffffffffff021916908373ffffffffffffffffffffffffffffffffffffffff1602179055508173ffffffffffffffffffffffffffffffffffffffff168173ffffffffffffffffffffffffffffffffffffffff167f8be0079c531659141344cd1fd0a4f28419497f9722a3daafe3b4186f6b6457e060405160405180910390a35050565b600033905090565b60008135905061099881610e0e565b92915050565b6000813590506109ad81610e25565b92915050565b6000815190506109c281610e25565b92915050565b6000602082840312156109de576109dd610d91565b5b60006109ec84828501610989565b91505092915050565b60008060408385031215610a0c57610a0b610d91565b5b6000610a1a85828601610989565b9250506020610a2b8582860161099e565b9150509250929050565b600060208284031215610a4b57610a4a610d91565b5b6000610a598482850161099e565b91505092915050565b600060208284031215610a7857610a77610d91565b5b6000610a86848285016109b3565b91505092915050565b60008060408385031215610aa657610aa5610d91565b5b6000610ab48582860161099e565b9250506020610ac585828601610989565b9150509250929050565b600080600060608486031215610ae857610ae7610d91565b5b6000610af68682870161099e565b9350506020610b078682870161099e565b9250506040610b1886828701610989565b9150509250925092565b610b2b81610ceb565b82525050565b610b3a81610cfd565b82525050565b6000610b4d602683610c4f565b9150610b5882610d96565b604082019050919050565b6000610b70602083610c4f565b9150610b7b82610de5565b602082019050919050565b610b8f81610d29565b82525050565b6000602082019050610baa6000830184610b22565b92915050565b6000604082019050610bc56000830185610b22565b610bd26020830184610b22565b9392505050565b6000602082019050610bee6000830184610b31565b92915050565b60006020820190508181036000830152610c0d81610b40565b9050919050565b60006020820190508181036000830152610c2d81610b63565b9050919050565b6000602082019050610c496000830184610b86565b92915050565b600082825260208201905092915050565b6000610c6b82610d29565b9150610c7683610d29565b925082610c8657610c85610d62565b5b828204905092915050565b6000610c9c82610d29565b9150610ca783610d29565b9250817fffffffffffffffffffffffffffffffffffffffffffffffffffffffffffffffff0483118215151615610ce057610cdf610d33565b5b828202905092915050565b6000610cf682610d09565b9050919050565b60008115159050919050565b600073ffffffffffffffffffffffffffffffffffffffff82169050919050565b6000819050919050565b7f4e487b7100000000000000000000000000000000000000000000000000000000600052601160045260246000fd5b7f4e487b7100000000000000000000000000000000000000000000000000000000600052601260045260246000fd5b600080fd5b7f4f776e61626c653a206e6577206f776e657220697320746865207a65726f206160008201527f6464726573730000000000000000000000000000000000000000000000000000602082015250565b7f4f776e61626c653a2063616c6c6572206973206e6f7420746865206f776e6572600082015250565b610e1781610ceb565b8114610e2257600080fd5b50565b610e2e81610d29565b8114610e3957600080fd5b5056fea26469706673582212202cd149feac31ca6181aa74ef42fa26528ac6a06652324cd03efe3e2a3bdbfd2764736f6c63430008070033",
  "linkReferences": {},
  "deployedLinkReferences": {}
}