{
  "_format": "hh-sol-artifact-1",
  "contractName": "TradingFees",
  "sourceName": "contracts/TradingFees.sol",
  "abi": [
    {
      "inputs": [
        {
          "internalType": "address",
          "name": "_priceCheckerAddress",
          "type": "address"
        }
      ],
      "stateMutability": "nonpayable",
      "type": "constructor"
    },
    {
      "anonymous": false,
      "inputs": [
        {
          "indexed": true,
          "internalType": "address",
          "name": "previousOwner",
          "type": "address"
        },
        {
          "indexed": true,
          "internalType": "address",
          "name": "newOwner",
          "type": "address"
        }
      ],
      "name": "OwnershipTransferred",
      "type": "event"
    },
    {
      "inputs": [],
      "name": "aDAI",
      "outputs": [
        {
          "internalType": "address",
          "name": "",
          "type": "address"
        }
      ],
      "stateMutability": "view",
      "type": "function"
    },
    {
      "inputs": [
        {
          "internalType": "address",
          "name": "_refToken",
          "type": "address"
        },
        {
          "internalType": "uint256",
          "name": "_fees",
          "type": "uint256"
        }
      ],
      "name": "amountTokensToDeduct",
      "outputs": [
        {
          "internalType": "uint256",
          "name": "",
          "type": "uint256"
        }
      ],
      "stateMutability": "view",
      "type": "function"
    },
    {
      "inputs": [
        {
          "internalType": "uint256",
          "name": "_fees",
          "type": "uint256"
        }
      ],
      "name": "amountaDAIToDeduct",
      "outputs": [
        {
          "internalType": "uint256",
          "name": "",
          "type": "uint256"
        }
      ],
      "stateMutability": "view",
      "type": "function"
    },
    {
      "inputs": [
        {
          "internalType": "uint256",
          "name": "_amount",
          "type": "uint256"
        },
        {
          "internalType": "uint256",
          "name": "_rate",
          "type": "uint256"
        },
        {
          "internalType": "address",
          "name": "_refToken",
          "type": "address"
        }
      ],
      "name": "calculateFees",
      "outputs": [
        {
          "internalType": "uint256",
          "name": "",
          "type": "uint256"
        }
      ],
      "stateMutability": "view",
      "type": "function"
    },
    {
      "inputs": [
        {
          "internalType": "uint256",
          "name": "_fees",
          "type": "uint256"
        },
        {
          "internalType": "address",
          "name": "_user",
          "type": "address"
        }
      ],
      "name": "checkSufficientaDAI",
      "outputs": [
        {
          "internalType": "bool",
          "name": "",
          "type": "bool"
        }
      ],
      "stateMutability": "view",
      "type": "function"
    },
    {
      "inputs": [],
      "name": "daiToken",
      "outputs": [
        {
          "internalType": "address",
          "name": "",
          "type": "address"
        }
      ],
      "stateMutability": "view",
      "type": "function"
    },
    {
      "inputs": [],
      "name": "owner",
      "outputs": [
        {
          "internalType": "address",
          "name": "",
          "type": "address"
        }
      ],
      "stateMutability": "view",
      "type": "function"
    },
    {
      "inputs": [],
      "name": "renounceOwnership",
      "outputs": [],
      "stateMutability": "nonpayable",
      "type": "function"
    },
    {
      "inputs": [
        {
          "internalType": "address",
          "name": "newOwner",
          "type": "address"
        }
      ],
      "name": "transferOwnership",
      "outputs": [],
      "stateMutability": "nonpayable",
      "type": "function"
    }
  ],
  "bytecode": "0x6080604052670de0b6b3a764000060015573ba8dced3512925e52fe67b1b5329187589072a55600260006101000a81548173ffffffffffffffffffffffffffffffffffffffff021916908373ffffffffffffffffffffffffffffffffffffffff16021790555073add98b0342e4094ec32f3b67ccfd3242c876ff7a600360006101000a81548173ffffffffffffffffffffffffffffffffffffffff021916908373ffffffffffffffffffffffffffffffffffffffff160217905550348015620000c757600080fd5b5060405162001059380380620010598339818101604052810190620000ed919062000238565b6200010d620001016200015560201b60201c565b6200015d60201b60201c565b80600460006101000a81548173ffffffffffffffffffffffffffffffffffffffff021916908373ffffffffffffffffffffffffffffffffffffffff16021790555050620002bd565b600033905090565b60008060009054906101000a900473ffffffffffffffffffffffffffffffffffffffff169050816000806101000a81548173ffffffffffffffffffffffffffffffffffffffff021916908373ffffffffffffffffffffffffffffffffffffffff1602179055508173ffffffffffffffffffffffffffffffffffffffff168173ffffffffffffffffffffffffffffffffffffffff167f8be0079c531659141344cd1fd0a4f28419497f9722a3daafe3b4186f6b6457e060405160405180910390a35050565b6000815190506200023281620002a3565b92915050565b6000602082840312156200025157620002506200029e565b5b6000620002618482850162000221565b91505092915050565b600062000277826200027e565b9050919050565b600073ffffffffffffffffffffffffffffffffffffffff82169050919050565b600080fd5b620002ae816200026a565b8114620002ba57600080fd5b50565b610d8c80620002cd6000396000f3fe608060405234801561001057600080fd5b50600436106100935760003560e01c8063a42963e911610066578063a42963e91461010e578063b98ee4191461013e578063be22f5461461016e578063ca8963f11461018c578063f2fde38b146101bc57610093565b80631a38a4fb14610098578063513ffedd146100b6578063715018a6146100e65780638da5cb5b146100f0575b600080fd5b6100a06101d8565b6040516100ad9190610aaf565b60405180910390f35b6100d060048036038101906100cb91906109e9565b6101fe565b6040516100dd9190610b4e565b60405180910390f35b6100ee61033c565b005b6100f8610350565b6040516101059190610aaf565b60405180910390f35b6101286004803603810190610123919061094f565b610379565b6040516101359190610b4e565b60405180910390f35b6101586004803603810190610153919061090f565b610497565b6040516101659190610b4e565b60405180910390f35b610176610594565b6040516101839190610aaf565b60405180910390f35b6101a660048036038101906101a191906109a9565b6105ba565b6040516101b39190610af3565b60405180910390f35b6101d660048036038101906101d191906108e2565b6106a9565b005b600360009054906101000a900473ffffffffffffffffffffffffffffffffffffffff1681565b600080600460009054906101000a900473ffffffffffffffffffffffffffffffffffffffff1673ffffffffffffffffffffffffffffffffffffffff166341976e09846040518263ffffffff1660e01b815260040161025c9190610aaf565b60206040518083038186803b15801561027457600080fd5b505afa158015610288573d6000803e3d6000fd5b505050506040513d601f19601f820116820180604052508101906102ac919061097c565b905060006103146001546103066102d16402540be4008661072d90919063ffffffff16565b6102f86001546102ea8b8d61072d90919063ffffffff16565b61074390919063ffffffff16565b61072d90919063ffffffff16565b61074390919063ffffffff16565b9050600061032d6127108361074390919063ffffffff16565b90508093505050509392505050565b610344610759565b61034e60006107d7565b565b60008060009054906101000a900473ffffffffffffffffffffffffffffffffffffffff16905090565b600080600460009054906101000a900473ffffffffffffffffffffffffffffffffffffffff1673ffffffffffffffffffffffffffffffffffffffff166341976e09600260009054906101000a900473ffffffffffffffffffffffffffffffffffffffff166040518263ffffffff1660e01b81526004016103f99190610aaf565b60206040518083038186803b15801561041157600080fd5b505afa158015610425573d6000803e3d6000fd5b505050506040513d601f19601f82011682018060405250810190610449919061097c565b9050600061048b6104686402540be4008461072d90919063ffffffff16565b61047d6001548761072d90919063ffffffff16565b61074390919063ffffffff16565b90508092505050919050565b600080600460009054906101000a900473ffffffffffffffffffffffffffffffffffffffff1673ffffffffffffffffffffffffffffffffffffffff166341976e09856040518263ffffffff1660e01b81526004016104f59190610aaf565b60206040518083038186803b15801561050d57600080fd5b505afa158015610521573d6000803e3d6000fd5b505050506040513d601f19601f82011682018060405250810190610545919061097c565b905060006105876105646402540be4008461072d90919063ffffffff16565b6105796001548761072d90919063ffffffff16565b61074390919063ffffffff16565b9050809250505092915050565b600260009054906101000a900473ffffffffffffffffffffffffffffffffffffffff1681565b6000806105c684610379565b90506000600560009054906101000a900473ffffffffffffffffffffffffffffffffffffffff1673ffffffffffffffffffffffffffffffffffffffff1663cd5d767c600360009054906101000a900473ffffffffffffffffffffffffffffffffffffffff16866040518363ffffffff1660e01b8152600401610649929190610aca565b60206040518083038186803b15801561066157600080fd5b505afa158015610675573d6000803e3d6000fd5b505050506040513d601f19601f82011682018060405250810190610699919061097c565b9050818110159250505092915050565b6106b1610759565b600073ffffffffffffffffffffffffffffffffffffffff168173ffffffffffffffffffffffffffffffffffffffff161415610721576040517f08c379a000000000000000000000000000000000000000000000000000000000815260040161071890610b0e565b60405180910390fd5b61072a816107d7565b50565b6000818361073b9190610bab565b905092915050565b600081836107519190610b7a565b905092915050565b61076161089b565b73ffffffffffffffffffffffffffffffffffffffff1661077f610350565b73ffffffffffffffffffffffffffffffffffffffff16146107d5576040517f08c379a00000000000000000000000000000000000000000000000000000000081526004016107cc90610b2e565b60405180910390fd5b565b60008060009054906101000a900473ffffffffffffffffffffffffffffffffffffffff169050816000806101000a81548173ffffffffffffffffffffffffffffffffffffffff021916908373ffffffffffffffffffffffffffffffffffffffff1602179055508173ffffffffffffffffffffffffffffffffffffffff168173ffffffffffffffffffffffffffffffffffffffff167f8be0079c531659141344cd1fd0a4f28419497f9722a3daafe3b4186f6b6457e060405160405180910390a35050565b600033905090565b6000813590506108b281610d28565b92915050565b6000813590506108c781610d3f565b92915050565b6000815190506108dc81610d3f565b92915050565b6000602082840312156108f8576108f7610cab565b5b6000610906848285016108a3565b91505092915050565b6000806040838503121561092657610925610cab565b5b6000610934858286016108a3565b9250506020610945858286016108b8565b9150509250929050565b60006020828403121561096557610964610cab565b5b6000610973848285016108b8565b91505092915050565b60006020828403121561099257610991610cab565b5b60006109a0848285016108cd565b91505092915050565b600080604083850312156109c0576109bf610cab565b5b60006109ce858286016108b8565b92505060206109df858286016108a3565b9150509250929050565b600080600060608486031215610a0257610a01610cab565b5b6000610a10868287016108b8565b9350506020610a21868287016108b8565b9250506040610a32868287016108a3565b9150509250925092565b610a4581610c05565b82525050565b610a5481610c17565b82525050565b6000610a67602683610b69565b9150610a7282610cb0565b604082019050919050565b6000610a8a602083610b69565b9150610a9582610cff565b602082019050919050565b610aa981610c43565b82525050565b6000602082019050610ac46000830184610a3c565b92915050565b6000604082019050610adf6000830185610a3c565b610aec6020830184610a3c565b9392505050565b6000602082019050610b086000830184610a4b565b92915050565b60006020820190508181036000830152610b2781610a5a565b9050919050565b60006020820190508181036000830152610b4781610a7d565b9050919050565b6000602082019050610b636000830184610aa0565b92915050565b600082825260208201905092915050565b6000610b8582610c43565b9150610b9083610c43565b925082610ba057610b9f610c7c565b5b828204905092915050565b6000610bb682610c43565b9150610bc183610c43565b9250817fffffffffffffffffffffffffffffffffffffffffffffffffffffffffffffffff0483118215151615610bfa57610bf9610c4d565b5b828202905092915050565b6000610c1082610c23565b9050919050565b60008115159050919050565b600073ffffffffffffffffffffffffffffffffffffffff82169050919050565b6000819050919050565b7f4e487b7100000000000000000000000000000000000000000000000000000000600052601160045260246000fd5b7f4e487b7100000000000000000000000000000000000000000000000000000000600052601260045260246000fd5b600080fd5b7f4f776e61626c653a206e6577206f776e657220697320746865207a65726f206160008201527f6464726573730000000000000000000000000000000000000000000000000000602082015250565b7f4f776e61626c653a2063616c6c6572206973206e6f7420746865206f776e6572600082015250565b610d3181610c05565b8114610d3c57600080fd5b50565b610d4881610c43565b8114610d5357600080fd5b5056fea2646970667358221220207f9895c900e62c42aa9a3c079ff69b5c91a20198e27aad298ad9b1783e60d264736f6c63430008070033",
  "linkReferences": {},
  "deployedLinkReferences": {}
}